:020000040800F2
:1000000000040020C10100080121000801210008AE
:10001000F117000801210008012100080121000852
:10002000012100080121000801210008113E0008FB
:100030000121000801210008012100081198000891
:1000400001210008616D0008F16E0008416F000891
:100050000121000801210008A16A0008F16A0008D6
:10006000416B0008916B0008E16B000831610008EA
:1000700081610008D16100082162000871620008F6
:10008000C16200081163000811690008E1700008EE
:100090005171000801720008B1720008316C00084B
:1000A00001210008012100087192000801210008C7
:1000B000D19300081194000851940008B17E000803
:1000C000F17F00080121000801210008012100083A
:1000D000012100080121000801210008D198000831
:1000E000C16C0008B16D0008016E0008B1920008F3
:1000F00001210008012100080121000861630008B6
:1001000001210008417400089194000801210008B1
:100110000121000801210008319200080121000896
:10012000B16300080164000851640008A16400087C
:10013000F164000801210008516E00080121000847
:10014000012100080121000801210008718E00082A
:100150004165000891650008E1650008012100087B
:1001600001210008012100080121000801210008E7
:10017000A16E000801210008E11500080121000816
:1001800001210008012100080121000801210008C7
:1001900001210008012100080121000801210008B7
:1001A00001210008012100080121000801210008A7
:1001B0000121000801210008012100080121000897
:1001C00072B62E4880F3098840F20000CCF200009D
:1001D0004EF63471CEF20001086040F20000C0F229
:1001E000F0004EF68851CEF2000108604FF000009A
:1001F000E1EE100A4EF63C71CEF2000108600620D6
:1002000080F31488BFF36F8F09F052FC4FF0553024
:100210001B491C4A91423CBF41F8040BFAE71A49BA
:10022000164A91423CBF41F8040BFAE71749184AB5
:10023000184B9A423EBF51F8040B42F8040BF8E702
:1002400000201549154A91423CBF41F8040BFAE7DA
:1002500001F03EFF124C134DAC4203DA54F8041B7C
:100260008847F9E701F044F80F4C104DAC4203DA2F
:1002700054F8041B8847F9E701F03ABF0008002052
:10028000000000200004002000040020B8E800085E
:1002900000080020CC110020D0110020882400206C
:1002A000C0010008C0010008C0010008C00100082A
:1002B0002DE9F04F2DED108AC1F80CD0D0F80CD0FC
:1002C000BDEC108ABDE8F08F02F05AF803F018F880
:1002D000002383F311882846A047002002F0E0FDA8
:1002E00002F0F6FF02F02CF802F04AFC02F048F8A7
:1002F00003F006F800DFFEE7000000000000000049
:1003000081F0004102E000BF83F0004330B54FEAC6
:1003100041044FEA430594EA050F08BF90EA020F33
:100320001FBF54EA000C55EA020C7FEA645C7FEAC6
:10033000655C00F0E2804FEA5454D4EB5555B8BFE9
:100340006D420CDD2C4480EA020281EA030382EA5A
:10035000000083EA010180EA020281EA0303362DEC
:1003600088BF30BD11F0004F4FEA01314FF4801CBF
:100370004CEA113102D0404261EB410113F0004FD1
:100380004FEA03334CEA133302D0524263EB430388
:1003900094EA050F00F0A780A4F10104D5F1200E26
:1003A0000DDB02FA0EFC22FA05F2801841F1000181
:1003B00003FA0EF2801843FA05F359410EE0A5F155
:1003C00020050EF1200E012A03FA0EFC28BF4CF086
:1003D000020C43FA05F3C01851EBE37101F000453C
:1003E00007D54FF0000EDCF1000C7EEB00006EEB49
:1003F0000101B1F5801F1BD3B1F5001F0CD34908D3
:100400005FEA30004FEA3C0C04F101044FEA445229
:1004100012F5800F80F09A80BCF1004F08BF5FEAB0
:10042000500C50F1000041EB045141EA050130BD90
:100430005FEA4C0C404141EB010111F4801FA4F133
:100440000104E9D191F0000F04BF01460020B1FA88
:1004500081F308BF2033A3F10B03B3F120020CDAC0
:100460000C3208DD02F1140CC2F10C0201FA0CF09E
:1004700021FA02F10CE002F11402D8BFC2F1200C03
:1004800001FA02F120FA0CFCDCBF41EA0C019040B9
:10049000E41AA2BF01EB0451294330BD6FEA040402
:1004A0001F3C1CDA0C340EDC04F11404C4F12002ED
:1004B00020FA04F001FA02F340EA030021FA04F3FF
:1004C00045EA030130BDC4F10C04C4F1200220FA56
:1004D00002F001FA04F340EA0300294630BD21FA94
:1004E00004F0294630BD94F0000F83F4801306BF5A
:1004F00081F480110134013D4EE77FEA645C18BF4E
:100500007FEA655C29D094EA050F08BF90EA020FE4
:1005100005D054EA000C04BF1946104630BD91EADC
:10052000030F1EBF0021002030BD5FEA545C05D1DF
:100530004000494128BF41F0004130BD14F580041E
:100540003CBF01F5801130BD01F0004545F0FE4192
:1005500041F470014FF0000030BD7FEA645C1ABFC7
:10056000194610467FEA655C1CBF0B46024650EAFE
:10057000013406BF52EA033591EA030F41F400212A
:1005800030BD00BF90F0000F04BF0021704730B5B0
:100590004FF4806404F132044FF000054FF0000185
:1005A00050E700BF90F0000F04BF0021704730B546
:1005B0004FF4806404F1320410F0004548BF40421B
:1005C0004FF000013EE700BF42004FEAE2014FEA70
:1005D00031014FEA02701FBF12F07F4393F07F4F4B
:1005E00081F06051704732F07F4208BF704793F04E
:1005F0007F4F04BF41F40021704730B54FF4607461
:1006000001F0004521F000411CE700BF50EA010263
:1006100008BF704730B54FF000050AE050EA01020C
:1006200008BF704730B511F0004502D5404261EB7C
:1006300041014FF4806404F132045FEA915C3FF4BD
:10064000D8AE4FF003025FEADC0C18BF03325FEA5A
:10065000DC0C18BF033202EBDC02C2F1200300FA0B
:1006600003FC20FA02F001FA03FE40EA0E0021FA30
:1006700002F11444BDE600BF0000000000000000CD
:1006800070B54FF0FF0C4CF4E06C1CEA11541DBF28
:100690001CEA135594EA0C0F95EA0C0F00F0DEF8F3
:1006A0002C4481EA030621EA4C5123EA4C5350EAD8
:1006B000013518BF52EA033541F4801143F4801329
:1006C00038D0A0FB02CE4FF00005E1FB02E506F0BA
:1006D0000042E0FB03E54FF00006E1FB03569CF00F
:1006E000000F18BF4EF0010EA4F1FF04B6F5007F15
:1006F00064F5407404D25FEA4E0E6D4146EB060687
:1007000042EAC62141EA55514FEAC52040EA5E500F
:100710004FEACE2EB4F1FD0C88BFBCF5E06F1ED8B9
:10072000BEF1004F08BF5FEA500E50F1000041EBF0
:10073000045170BD06F0004646EA010140EA02009D
:1007400081EA0301B4EB5C04C2BFD4EB0C0541EABF
:10075000045170BD41F480114FF0000E013C00F3D4
:10076000AB8014F1360FDEBF002001F0004170BDF8
:10077000C4F10004203C35DA0C341BDC04F1140411
:10078000C4F1200500FA05F320FA04F001FA05F29D
:1007900040EA020001F0004221F0004110EBD3706A
:1007A00021FA04F642EB06015EEA430E08BF20EA96
:1007B000D37070BDC4F10C04C4F1200500FA04F339
:1007C00020FA05F001FA04F240EA020001F00041CB
:1007D00010EBD37041F100015EEA430E08BF20EA3E
:1007E000D37070BDC4F1200500FA05F24EEA020E86
:1007F00020FA04F301FA05F243EA020321FA04F0B5
:1008000001F0004121FA04F220EA020000EBD3706B
:100810005EEA430E08BF20EAD37070BD94F0000F6B
:100820000FD101F00046400041EB010111F4801F9F
:1008300008BF013CF7D041EA060195F0000F18BF50
:10084000704703F00046520043EB030313F4801F8C
:1008500008BF013DF7D043EA0603704794EA0C0F46
:100860000CEA135518BF95EA0C0F0CD050EA41065C
:1008700018BF52EA4306D1D181EA030101F00041D9
:100880004FF0000070BD50EA410606BF1046194601
:1008900052EA430619D094EA0C0F02D150EA01360D
:1008A00013D195EA0C0F05D152EA03361CBF10464E
:1008B00019460AD181EA030101F0004141F0FE41ED
:1008C00041F470014FF0000070BD41F0FE4141F471
:1008D000780170BD70B54FF0FF0C4CF4E06C1CEA71
:1008E00011541DBF1CEA135594EA0C0F95EA0C0F26
:1008F00000F0A7F8A4EB050481EA030E52EA0335E1
:100900004FEA013100F088804FEA03334FF0805501
:1009100045EA131343EA12634FEA022245EA11152E
:1009200045EA10654FEA00260EF000419D4208BFDF
:10093000964244F1FD0404F5407402D25B084FEA8C
:100940003202B61A65EB03055B084FEA32024FF438
:1009500080104FF4002CB6EB020E75EB030E22BF95
:10096000B61A754640EA0C005B084FEA3202B6EB55
:10097000020E75EB030E22BFB61A754640EA5C0004
:100980005B084FEA3202B6EB020E75EB030E22BF94
:10099000B61A754640EA9C005B084FEA3202B6EB95
:1009A000020E75EB030E22BFB61A754640EADC0054
:1009B00055EA060E18D04FEA051545EA16754FEAB6
:1009C00006164FEAC30343EA52734FEAC2025FEAD4
:1009D0001C1CC0D111F4801F0BD141EA00014FF063
:1009E00000004FF0004CB6E711F4801F04BF014334
:1009F0000020B4F1FD0C88BFBCF5E06F3FF6AFAE50
:100A0000B5EB030C04BFB6EB020C5FEA500C50F1DF
:100A1000000041EB045170BD0EF0004E4EEA113162
:100A200014EB5C04C2BFD4EB0C0541EA045170BD69
:100A300041F480114FF0000E013C90E645EA060EAD
:100A40008DE60CEA135594EA0C0F08BF95EA0C0FDB
:100A50003FF43BAF94EA0C0F0AD150EA01347FF423
:100A600034AF95EA0C0F7FF425AF104619462CE7FA
:100A700095EA0C0F06D152EA03353FF4FDAE10465D
:100A8000194622E750EA410618BF52EA43067FF4AE
:100A9000C5AE50EA41047FF40DAF52EA43057FF43E
:100AA000EBAE12E7000000000000000000000000B4
:100AB0004FEA410212F5001215D211D56FF4787386
:100AC000B3EB625212D94FEAC12343F0004343EA29
:100AD000505311F0004F23FA02F018BF4042704704
:100AE0004FF00000704750EA013005D111F000408E
:100AF00008BF6FF0004070474FF00000704700BF24
:100B00004FEA4102B2F1E04324BFB3F5001CDCF12F
:100B1000FE5C0DD901F0004C4FEAC0024CEA507067
:100B2000B2F1004F40EB830008BF20F00100704796
:100B300011F0804F21D113F13872BCBF01F0004099
:100B4000704741F480114FEA5252C2F11802C2F1CB
:100B5000200C10FA0CF320FA02F018BF40F001004C
:100B60004FEAC1234FEAD32303FA0CFC40EA0C00FE
:100B700023FA02F34FEA4303CCE77FEA625307D13B
:100B800050EA01331EBF4FF0FE4040F44000704772
:100B900001F0004040F0FE4040F40000704700BF0C
:100BA00053B94AB9002908BF00281CBF4FF0FF31D4
:100BB0004FF0FF3000F074B9ADF1080C6DE904CED0
:100BC00000F006F8DDF804E0DDE9022304B0704728
:100BD0002DE9F047089E04468846002B4BD18A42F7
:100BE000154667D9B2FA82F24AB1C2F1200701FA7A
:100BF00002F320FA07F7954047EA030894404FEACA
:100C0000154E230CB8FBFEF71FFA85FC0EFB178868
:100C100043EA084307FB0CF1994209D9EB1807F1A5
:100C2000FF3080F01B81994240F21881023F2B4433
:100C30005B1AA4B2B3FBFEF00EFB103344EA03448C
:100C400000FB0CFCA44509D92C1900F1FF3380F0FE
:100C50000781A44540F2048102382C4440EA074051
:100C6000A4EB0C0400271EB1D4400023C6E90043C6
:100C70003946BDE8F0878B4209D9002E00F0EB80A1
:100C80000027C6E9000138463946BDE8F087B3FAC7
:100C900083F7002F47D18B4202D3824200F2FA80C1
:100CA000841A61EB030301209846002EE0D0C6E9C8
:100CB0000048DDE702B9FFDEB2FA82F2002A40F016
:100CC0008F80491B4FEA154E1FFA85F80127B1FBAB
:100CD000FEFC230C0EFB1C1143EA014308FB0CF144
:100CE000994207D9EB180CF1FF3002D2994200F279
:100CF000CD808446591AA3B2B1FBFEF00EFB10144E
:100D000043EA044408FB00F8A04507D92C1900F178
:100D1000FF3302D2A04500F2B6801846A4EB0804C7
:100D200040EA0C409FE7C7F1200CBB4022FA0CFEC2
:100D30004EEA030E01FA07F420FA0CF521FA0CF33F
:100D40004FEA1E482543B3FBF8F92C0C08FB193376
:100D50001FFA8EFA44EA034309FB0AF49C4202FAA2
:100D600007F200FA07F10BD91EEB030309F1FF307C
:100D700080F087809C4240F28480A9F1020973448C
:100D80001B1BADB2B3FBF8F008FB103345EA03447C
:100D900000FB0AFAA24508D91EEB040400F1FF3358
:100DA0006BD2A24569D90238744440EA0940A0FBDD
:100DB0000289A4EB0A044C45C2464B4654D351D099
:100DC000002E69D0B1EB0A0564EB030404FA0CFCB5
:100DD000FD40FC404CEA0505C6E90054002747E702
:100DE000C2F1200320FA03F7954001FA02F021FA3C
:100DF00003F34FEA154E3843010CB3FBFEF71FFA1D
:100E000085F80EFB173341EA034107FB08F38B42D9
:100E100004FA02F407D9691807F1FF3C2FD28B427C
:100E20002DD9023F2944CB1A81B2B3FBFEF00EFB51
:100E3000103341EA034100FB08F38B4207D96918DC
:100E400000F1FF3C17D28B4215D902382944C91A48
:100E500040EA07473BE73746304609E70746E7E6FB
:100E60001846FBE64145ABD2B8EB020A69EB0E022D
:100E700001381346A4E76046E9E7184695E7674658
:100E8000D1E781467CE702382C4447E7ACF1020CFD
:100E90002B442FE7384608E73746E9E60000000014
:100EA000704700BF000000000000000000000000CC
:100EB000844641EA000313F003036DD1403A41D365
:100EC00051F8043B40F8043B51F8043B40F8043B24
:100ED00051F8043B40F8043B51F8043B40F8043B14
:100EE00051F8043B40F8043B51F8043B40F8043B04
:100EF00051F8043B40F8043B51F8043B40F8043BF4
:100F000051F8043B40F8043B51F8043B40F8043BE3
:100F100051F8043B40F8043B51F8043B40F8043BD3
:100F200051F8043B40F8043B51F8043B40F8043BC3
:100F300051F8043B40F8043B51F8043B40F8043BB3
:100F4000403ABDD2303211D351F8043B40F8043B53
:100F500051F8043B40F8043B51F8043B40F8043B93
:100F600051F8043B40F8043B103AEDD20C3205D363
:100F700051F8043B40F8043B043AF9D2043208D05B
:100F8000D2071CBF11F8013B00F8013B01D30B88CD
:100F900003806046704700BF082A13D38B078DD0AB
:100FA00010F003038AD0C3F10403D21ADB071CBF7D
:100FB00011F8013B00F8013B80D331F8023B20F8E7
:100FC000023B7BE7043AD9D3013A11F8013B00F820
:100FD000013BF9D20B7803704B7843708B788370A8
:100FE00060467047000000000000000000000000A4
:100FF00090F800F06DE9024520F007016FF0000C59
:1010000010F0070491F820F040F049804FF0000400
:101010006FF00700D1E9002391F840F000F10800DB
:1010200082FA4CF2A4FA8CF283FA4CF3A2FA8CF313
:101030004BBBD1E9022382FA4CF200F10800A4FA7A
:101040008CF283FA4CF3A2FA8CF3E3B9D1E90423CE
:1010500082FA4CF200F10800A4FA8CF283FA4CF305
:10106000A2FA8CF37BB9D1E9062301F1200182FABF
:101070004CF200F10800A4FA8CF283FA4CF3A2FAC5
:101080008CF3002BC6D0002A04BF04301A4612BAD3
:10109000B2FA82F2FDE8024500EBD2007047D1E9D6
:1010A000002304F00305C4F100004FEAC50514F065
:1010B000040F91F840F00CFA05F562EA05021CBF36
:1010C00063EA050362464FF00004A9E70000000050
:1010D00001F0FF01102A2BDB10F0070F08D010F8E9
:1010E000013B013A8B422DD010F0070F42B3F6D1ED
:1010F000F0B441EA012141EA014122F007047FF006
:1011000000070023F0E80256083C85EA010586EA5C
:10111000010685FA47F5A3FA87F586FA47F6A5FA98
:1011200087F68EB9EED1F0BC01F0FF0102F00702A4
:1011300032B110F8013B013A83EA010313B1F8D14F
:101140000020704701387047002D06BF3546033830
:10115000073815F0010F07D1013015F4807F02BF69
:10116000013015F4C03F0130F0BC0138704700BFBA
:101170004FF0FF3C06E000BF4FF0010C02E000BF63
:101180004FF0010C4DF804CD4FEA410C7FEA6C5C46
:101190004FEA430C18BF7FEA6C5C1BD001B050EAE9
:1011A000410C0CBF52EA430C91EA030F02BF90EAD4
:1011B000020F0020704710F1000F91EA030F58BF93
:1011C000994208BF90422CBFD8176FEAE37040F0F5
:1011D000010070474FEA410C7FEA6C5C02D150EA93
:1011E000013C07D14FEA430C7FEA6C5CD6D152EA4E
:1011F000033CD3D05DF8040B704700BF8446104613
:1012000062468C461946634600E000BF01B5FFF711
:10121000B7FF002848BF10F1000F01BD4DF808EDE1
:10122000FFF7F4FF0CBF012000205DF808FB00BFB2
:101230004DF808EDFFF7EAFF34BF012000205DF80C
:1012400008FB00BF4DF808EDFFF7E0FF94BF012059
:1012500000205DF808FB00BF4DF808EDFFF7CEFF5A
:1012600094BF012000205DF808FB00BF4DF808ED99
:10127000FFF7C4FF34BF012000205DF808FB00BF6A
:101280004FEA410C7FEA6C5C02D150EA013C0AD182
:101290004FEA430C7FEA6C5C02D152EA033C02D174
:1012A0004FF0000070474FF0010070470000000051
:1012B0000EB410B50A4C0B4923680B4883B0019358
:1012C00006AB1A46009308F04BFC019A23689A4239
:1012D00004D103B0BDE8104003B0704700F038F807
:1012E0000008002050DA000814130020000000005D
:1012F00070B5144B144E1B68144D82B0019302F06C
:10130000E7FD00F015FF00F01BFA00F049FE00F0C9
:101310004FFD012000F0C4FD0446032000F0F0F86A
:10132000022000F0EDF8224631462846FFF7C0FFC4
:10133000012000F0B5FD04464FF4FA7001F038FDCD
:10134000F1E700BF0008002050DA00081413002065
:1013500000B5084B83B01A680192019A1B689A4243
:1013600005D1054803B05DF804EB00F049BFFFF775
:10137000EFFF00BF0008002030DA00080000000086
:1013800070B5284E82B0336801930446002000F007
:10139000DFFC002000F0F4FC234800F079FC4FF45F
:1013A000A57000F08DFC00F0A3FC054600F0B8FC31
:1013B0001E4BDFED1F6ADFED1F7A6408A3FB0434C8
:1013C000630907EE103AB8EEC77AB5EE006A27EE69
:1013D000267AF2EE0A6A27EE067A27EE277AC7EE19
:1013E000267AFDEEE77A17EE904AA5420BDAA04284
:1013F00002DB08E0844206DD00F07AFC054600F0DE
:101400008FFCAC42F6DC002000F042FC019A33680D
:101410009A4205D1002002B0BDE8704000F050BCF7
:10142000FFF796FF00080020B6FEFFFFB7600BB67F
:10143000CD75864100007A440000000000000000E5
:1014400070B5284E82B0336801930446002000F046
:101450007FFC002000F094FC4FF4A57000F018FC15
:10146000214800F02DFC00F043FC054600F058FC3C
:101470001E4BDFED1F6ADFED1F7A6408A3FB043407
:10148000630907EE103AB8EEC77AB5EE006A27EEA8
:10149000267AF2EE0A6A27EE067A27EE277AC7EE58
:1014A000267AFDEEE77A17EE904AA5420BDAA042C3
:1014B00002DB08E0844206DD00F01AFC054600F07D
:1014C0002FFCAC42F6DC002000F0E2FB019A33680E
:1014D0009A4205D1002002B0BDE8704000F0F0BB98
:1014E000FFF736FF00080020B6FEFFFFB7600BB61F
:1014F000CD75864100007A44000000000000000025
:1015000010B51F4C82B023680193032831D8DFE85F
:1015100000F023160C02019A23689A4227D15A2020
:1015200002B0BDE81040FFF78BBF019A23689A42D2
:101530001DD15A2002B0BDE81040FFF721BF11486D
:1015400000F0A6FB019A23689A4210D10D4802B020
:10155000BDE8104000F0B4BB40F24C4000F098FBF6
:10156000019A23689A4208BF40F24C40EFD0FFF73F
:10157000EFFE019A23689A42F9D102B010BD00BF74
:1015800000080020B4FBFFFF000000000000000086
:1015900030B5104D81682B680F4A83B001930B68FA
:1015A00023F001030B608168946A03E0936A1B1BBC
:1015B000C72B09D8086810F00100F7D1019A2B68F1
:1015C0009A4204D103B030BD4FF0FF30F6E7FFF789
:1015D000BFFE00BF00080020A8150020000000008A
:1015E000F0B5284D83B02B68019301F039FE00F06F
:1015F00027FF254B1E69F20715D55A69234C42F087
:1016000001025A612778BB1F012B2AD90522636882
:1016100022701B680BB120469847042F27D0022F59
:1016200025D003232370B30710D5174A174C5369ED
:1016300043F0020353612378032B1DD063689B683A
:101640000622227013B101211048984700F020FFB4
:10165000019A2B689A4213D103B0BDE8F04002F022
:10166000F7BB019A2B689A420AD103B0F0BD02235E
:101670002370B307EAD5D8E72046FFF789FFDDE7F7
:10168000FFF766FE0008002000000550D011002082
:101690002DE9F043254E83B034680194042A9DF867
:1016A0002890144605460F46984639D9B9F1000FDF
:1016B00014BF00224FF08052640002EB0863013C2B
:1016C0001C4405F00F0527F01F07202383F3118822
:1016D00001F0FEFD3D4300F033FE154B1035DD609B
:1016E0001C6100F04DFE01F00BFE124B1A689A428D
:1016F00004D0996993688A689A420DD3002383F3D2
:101700001188BFF36F8FBFF34F8F019A33689A42EE
:101710000AD103B0BDE8F083074800F071FDEDE7A2
:10172000064800F06DFDC1E7FFF712FE000800203B
:1017300090ED00E0A8150020E0DA0008C0DA00080B
:1017400030B5224D224C2B68224A85B00393636842
:1017500043F004036360536A43F4803353622023ED
:1017600083F3118801F0B4FD00F0EAFD17221A4B53
:10177000E260236100F004FE01F0C2FD174B1A681D
:101780009A4204D0996993688A689A4218D30020D3
:1017900080F31188BFF36F8FBFF34F8F03231D2298
:1017A00000904FF00051FFF773FF094A536843F070
:1017B00001035360039A2B689A4205D105B030BDEE
:1017C000074800F01DFDE2E7FFF7C2FD000800201A
:1017D00090ED00E000ED00E009000010A8150020E9
:1017E000E0DA000800000000000000000000000037
:1017F00070B51A4D1A4C1B4E0FCD0FC49EB02A68FF
:10180000336822801D93EFF30981682203A8FFF754
:101810004FFB154B9D6AAA0714D4EB0708D5124B52
:1018200008995B6B114A00910D48802108F080FFF8
:101830001D9A33689A420FD109481EB0BDE8704026
:1018400000F0DEBC099A5B6B0092A4F11000084A1C
:10185000802108F06DFFE0E7FFF77AFDA4DA0008C9
:10186000E41100200008002000ED00E080DA00080C
:1018700060DA000800000000000000000000000026
:1018800000B51F4B0278196883B00191E2B11D4A7F
:101890004FF4005111834278EAB11A4A4FF4805153
:1018A00011838278F2B1174A4FF480411183C278D4
:1018B000FAB9144A4FF400415183019A1B689A42C5
:1018C0001CD103B05DF804FB0E4A4FF40051518364
:1018D0004278002AE1D10B4A4FF48051518382783B
:1018E000002AE0D1074A4FF480415183C278002A90
:1018F000DFD0044A4FF400411183DEE7FFF728FDF3
:10190000000800200010024000000000000000005D
:1019100000B51F4B0278196883B00191E2B11D4AEE
:101920004FF4007111834278EAB11A4A4FF4807182
:1019300011838278F2B1174A4FF400611183C278A3
:10194000FAB9144A4FF480615183019A1B689A4294
:101950001CD103B05DF804FB0E4A4FF400715183B3
:101960004278002AE1D10B4A4FF48071518382788A
:10197000002AE0D1074A4FF400615183C278002A5F
:10198000DFD0044A4FF480611183DEE7FFF7E0FC0B
:1019900000080020001002400000000000000000CD
:1019A00030B50C4A0C4B116883B04FF400550191CF
:1019B0004FF480544FF400414FF480405D835C83CA
:1019C0005883598301991368994201D103B030BDFE
:1019D000FFF7BEFC000800200010024000000000DD
:1019E00030B50C4A0C4B116883B04FF4007501916F
:1019F0004FF480744FF480614FF400605D835C832A
:101A00005883598301991368994201D103B030BDBD
:101A1000FFF79EFC000800200010024000000000BC
:101A200010B50B4C0B48236882B09922002101931A
:101A300002F066FD019A23689A4206D1054800210A
:101A400002B0BDE8104002F043BEFFF781FC00BFCA
:101A50000008002088230020000000000000000093
:101A600010B50B4C0B48236882B0992200210193DA
:101A700002F046FD019A23689A4206D105480021EA
:101A800002B0BDE8104002F023BEFFF761FC00BFCA
:101A900000080020A4230020000000000000000037
:101AA00000B5084B83B01A680192019A1B689A42EC
:101AB00006D10548002103B05DF804EB02F070BDCB
:101AC000FFF746FC000800208823002000000000EB
:101AD00000B5084B83B01A680192019A1B689A42BC
:101AE00006D10548002103B05DF804EB02F058BDB3
:101AF000FFF72EFC00080020A423002000000000B7
:101B000070B51A4C1A4E2378326882B0022B0192BB
:101B1000A26811D165781748013505F0070500EB7B
:101B20008500904763686570013B6360019A336884
:101B30009A4219D102B070BD012B08D001993368C7
:101B4000994211D10C4802B0BDE870401047657849
:101B50000848013D05F0070500EB850090476368E4
:101B6000657001336360E1E7FFF7F2FB7C12002050
:101B70000008002080DB000870DB00080000000087
:101B800070B51A4C1A4E2378326882B0012B01923C
:101B9000A26811D165781748013505F0070500EBFB
:101BA000850090476368657001336360019A33680C
:101BB0009A4219D102B070BD022B08D00199336846
:101BC000994211D10C4802B0BDE8704010476578C9
:101BD0000848013D05F0070500EB85009047636864
:101BE0006570013B6360E1E7FFF7B2FB6412002020
:101BF0000008002080DB000870DB00080000000007
:101C000030B51F4D85B02B68039340F24C43994289
:101C1000044626DCA3F69803994211DB4B00002B07
:101C200029D10370036998474FF47A71039A2B689E
:101C30009A421ED1606905B0BDE8304002F018BC80
:101C4000104B02225B42227040F2892293420E49DD
:101C500091FBF3F189B207DC0191E36898470199A0
:101C6000E4E7012303702D2101912369984701992D
:101C7000DCE7FFF76DFBE4DD01220270E4E700BF63
:101C80000008002068F7FFFFA086010000000000A8
:101C900000B5084B83B01A680192019A1B689A42FA
:101CA00006D10146044803B05DF804EBFFF7A8BF76
:101CB000FFF74EFB00080020641200200000000027
:101CC00000B5084B83B01A680192019A1B689A42CA
:101CD00006D10146044803B05DF804EBFFF790BF5E
:101CE000FFF736FB000800207C12002000000000F7
:101CF00000B5094B094A1968506883B000EBD070F1
:101D00000191019A1B689A4203D1401003B05DF81B
:101D100004FBFFF71DFB00BF000800206412002039
:101D200000B5094B094A1968506883B000EBD070C0
:101D30000191019A1B689A4203D1401003B05DF8EB
:101D400004FBFFF705FB00BF000800207C12002009
:101D500000B5084B08491A6883B040000192019A07
:101D60001B6848609A4202D103B05DF804FBFFF79C
:101D7000EFFA00BF000800206412002000000000FD
:101D800000B5084B08491A6883B040000192019AD7
:101D90001B6848609A4202D103B05DF804FBFFF76C
:101DA000D7FA00BF000800207C12002000000000CD
:101DB00070B51D4E1D4A1E4B30681E491E4C916069
:101DC00082B00021D46001901C4C1D481D4D9D60C7
:101DD000117051705160106154611B481B4A1C4DB9
:101DE000D8601C48197059705960C3E90425FFF781
:101DF00047FD1848FFF78CFD1749204602F0E8FA26
:101E0000204602F01DFC2846144902F0E1FA019A2E
:101E100033689A4205D1284602B0BDE8704002F00E
:101E20000FBCFFF795FA00BF000800207C120020CD
:101E30006412002081180008211A0008882300205D
:101E4000A11A000811190008611A0008D11A000827
:101E5000A423002070DB000830DB0008F0DA000863
:101E60000A490B4B09680B4A82B02020019140219E
:101E700058834FF4806559834FF400644FF48040D9
:101E800004215D835C8358835183FEE700080020B2
:101E9000000C0240000402400000000000000000AE
:101EA00000B50A4B83B01A68019207289BBF084A05
:101EB0001030002052F82000019A1B689A4202D18B
:101EC00003B05DF804FBFFF743FA00BF00080020F1
:101ED000941200200000000000000000000000003C
:101EE00000B50F4B83B01868019002290CD003296C
:101EF0000CD001290B4818BF0020019A1B689A4298
:101F00000BD103B05DF804FB0748F6E7032A96BF40
:101F10000648002000EBC200EFE7FFF719FA00BF08
:101F20000008002080DC000820DC000830DD00080C
:101F300070B5154C82B02368019302291CD10D465F
:101F40000646202383F3118801F0F2F900F038FAF5
:101F500030460E4A012103F0FBFC29460C4A30466C
:101F600003F0F6FC0B4803F0F3FA00F049FA01F035
:101F7000F7F9002383F31188019A23689A4201D16B
:101F800002B070BDFFF7E4F900080020A0DB0008F4
:101F9000D0DB000814130020000000000000000047
:101FA00030B5134D134C2B68134883B0019303F0E5
:101FB00047FA1249104803F073FA226D936B23F429
:101FC000002393634FF47A7000F0F2FE20460C4930
:101FD00003F06EFC226D936B43F400239363019A2C
:101FE0002B689A4201D103B030BDFFF7B1F900BFB1
:101FF00000080020682000201413002000DC0008E6
:1020000010DC0008000000000000000000000000DC
:1020100000B5084B83B01A680192019A1B689A4276
:1020200005D1054803B05DF804EB01F099BAFFF75C
:102030008FF900BF00080020040800200000000005
:1020400000B5084B83B01A680192019A1B689A4246
:1020500005D1054803B05DF804EB01F0B9BAFFF70C
:1020600077F900BF000800200408002000000000ED
:1020700070B50D4C82B0236801930D1E06460DDD30
:10208000284601F05DFE18B90C2333604FF0FF3095
:10209000019A23689A4205D102B070BD034800F04E
:1020A000AFF8EDE7FFF754F90008002050DD000815
:1020B00000B5064B83B01A680192019A1B689A42D8
:1020C00002D103B05DF804FBFFF742F900080020DD
:1020D00000B5064B83B01A680192019A1B689A42B8
:1020E00002D103B05DF804FBFFF732F900080020CD
:1020F000024B82B01B680193FEE700BF000800207E
:1021000000B5044B04481B6883B0019300F078F8D5
:10211000FEE700BF0008002060DD000800000000AE
:10212000024B82B01B680193FEE700BF000800204D
:10213000F0B5294E294B3268294885B00024039216
:102140009C60D968274A4FF6FF0529400A43DA60A8
:10215000C2682549254D42F08072C2600A6842F08B
:1021600001020A6010202022D87783F8222000F094
:10217000DFFA00F045FA00F0FBFF01F0B9FD01F0D5
:1021800027FE01F04DF800F0FBF9402105F58860CD
:1021900000F01EFD0127164BC36180F82070A86176
:1021A00000F0A6F884F3118862B6AB69114A9A610F
:1021B0004FF4C4713A46104B009405F59D6000F051
:1021C0009FFD039A33680D4981619A4201D105B0A0
:1021D000F0BDFFF7BDF800BF0008002000ED00E0F3
:1021E000F0ED00E00003FA05001000E0A815002063
:1021F00000040020E0DE00082121000880DD000846
:1022000000B5054B83B01B680193044672B6FFF717
:1022100027FE024BDC62FEE700080020A815002024
:102220002DE9F047DFF890A0224DDAF8003082B0B7
:10223000019300F055F9AB6993F8232012B1013AEC
:1022400083F823205A6ADFF8748001325A6200F062
:1022500047F9AB6AEA6901334245AB6220D0936823
:10226000013B9360EC69A668D6B94FF0200923685A
:10227000E768E660C3F804802368EB6100F0C0F80B
:1022800001F06EF886F311882069B84789F3118848
:1022900001F04EF800F094F8EC69A368002BE6D04A
:1022A000019ADAF800309A4202D102B0BDE8F08714
:1022B000FFF74EF8A815002000080020C4150020E4
:1022C00010B5094C094A236882B0019351685368DC
:1022D0005B1A9842FBD8019A23689A4201D102B056
:1022E00010BDFFF735F800BF00080020001000E027
:1022F00000B50E4A0E4B116B186883B0019009B9F6
:10230000526B4AB1019A1B689A420CD1094803B03A
:102310005DF804EBFFF774BF019A1B689A4202D183
:1023200003B05DF804FBFFF713F800BFA815002009
:102330000008002090DD0008000000000000000000
:1023400030B50B4C0B4D236B2A6883B001920BB94F
:10235000636B13B10848FFF753FF019A2B68012103
:102360009A42616301D103B030BDFEF7F1FF00BFB7
:10237000A815002000080020C0DD000800000000B3
:1023800030B50C4C0C4D236B2A6883B0019253B9C5
:10239000636B002B07DD019A2B6800219A42616371
:1023A00005D103B030BD0548FFF72AFFF3E7FEF77C
:1023B000CFFF00BFA815002000080020E0DD0008C6
:1023C00030B50B4C0B4D236B2A6883B0002B019268
:1023D00001DD636B13B10848FFF712FF019A2B6808
:1023E00001219A42616301D103B030BDFEF7B0FF15
:1023F000A815002000080020D0DD00080000000023
:1024000030B50C4C0C4D236B2A6883B0002B019225
:102410000ADD636B002B07DD019A2B6800219A42CD
:10242000616305D103B030BD0448FFF7E9FEF3E76F
:10243000FEF78EFFA815002000080020F0DD000840
:1024400030B50F4D83B02B680193202383F311889F
:102450000C4C236B002B01DB626B1AB10A48FFF7AF
:10246000CFFE236B01332363002383F31188019A8A
:102470002B689A4201D103B030BDFEF769FF00BF5F
:1024800000080020A8150020A0DD000800000000C2
:1024900030B50F4D83B02B680193202383F311884F
:1024A0000C4C236B002B01DD626B1AB10A48FFF75D
:1024B000A7FE236B013B2363002383F31188019A5A
:1024C0002B689A4201D103B030BDFEF741FF00BF37
:1024D00000080020A8150020B0DD00080000000062
:1024E00000B50F4A0F4B116B186883B0002901909B
:1024F00009DB526B002A06DD019A1B689A420CD157
:1025000003B05DF804FB019A1B689A4205D10648A6
:1025100003B05DF804EBFFF773BEFEF719FF00BFD1
:10252000A81500200008002000DE000800000000C0
:1025300000B50E4A0E4B116B186883B0019049B973
:10254000526B002A06DD019A1B689A420CD103B037
:102550005DF804FB019A1B689A4205D1054803B057
:102560005DF804EBFFF74CBEFEF7F2FEA815002065
:102570000008002010DE000800000000000000003D
:1025800010B5084A084B116882B0402401910199A6
:10259000126818199142C3E90E4001D102B010BD72
:1025A000FEF7D6FE00080020A8150020000000005D
:1025B00010B51149114B0A6882B00192DA6B9C6A1E
:1025C0001460DA6B9C695460DA6B846A9460DA6B2D
:1025D00090F820001073DA6B03F5886010328242A5
:1025E00028BF03F14002DA63019A0B689A4201D1D5
:1025F00002B010BDFEF7ACFE00080020A8150020B8
:1026000010B50B4A0B4B116882B04FF0FF340191AB
:1026100000219962019811685C6203F11C028842F2
:10262000C3E9072201D102B010BDFEF791FE00BF41
:1026300000080020A8150020000000000000000095
:102640002DE9F041184E82B00546306801900C46E5
:1026500017469846FFF744FF05B3FFB1F4B1C5E94B
:1026600003781248C3699A68944204D91B68A41A73
:102670009A68A242FAD32B605A686A6015605D605E
:10268000AC609968019D3268091B95424FF0FF3498
:102690009960446206D102B0BDE8F0810448FFF7BA
:1026A000AFFDDCE7FEF754FE00080020A81500206F
:1026B00020DE000800000000000000000000000014
:1026C00030B5164D83B004462B680193FFF708FF21
:1026D000ECB1E368BBB12268A06893680199034438
:1026E0009360D4E900231A6020682B680C4A65685F
:1026F000456099424FF000054FF0FF30E5605062B1
:1027000009D103B030BD0748FFF77AFDE3E705487C
:10271000FFF776FDDDE7FEF71BFE00BF0008002097
:10272000A815002030DE00080000000000000000B6
:1027300000B50A4A0A4B11681B6083B00020019162
:10274000019912685B609142C3E90433986002D139
:1027500003B05DF804FBFEF7FBFD00BF000800209E
:10276000A81500200000000000000000000000008C
:1027700030B5164D83B004462B680193FFF7B0FEC9
:10278000ECB194F82030B3B10F2B14D00022A16823
:102790000F4B84F820201B689A688A42FBD2236082
:1027A0005A686260146001992A685C609142204610
:1027B00009D103B030BD0748FFF722FDE6E7054821
:1027C000FFF71EFDDDE7FEF7C3FD00BF0008002098
:1027D000A815002040DE00080000000000000000F6
:1027E00070B5204D82B02B6801930446202383F3FB
:1027F000118800F09DFDFFF7E3FD94F82030072BD2
:1028000011D8DFE803F0161010230A04100AA66A94
:10281000FFF766FEB3680133B360D4E900231A60A2
:10282000D4E900325A604FF0FF33A3622046FFF72D
:102830009FFFFFF7E5FD00F093FD002383F3118870
:10284000019A2B689A420BD102B070BDA36A002294
:102850001A604FF0FF33A3622046FFF789FFE8E7D5
:10286000FEF776FD000800200000000000000000D8
:10287000F0B5194E194C336883B007460193FFF742
:1028800057FEA569236885F82070142285F8232057
:102890001A68226001215460284683F82010A36141
:1028A000FFF786FE2946A06900F0F2FCEFF30983EA
:1028B000EA69643B9A4202D90948FFF7A1FC019AF0
:1028C00033689A4206D1A069294603B0BDE8F040BA
:1028D000FDF7EEBCFEF73CFD00080020A815002027
:1028E00050DE0008000000000000000000000000B2
:1028F000F0B5154C87B0236805930E460746FFF7E1
:1029000017FE731C18D0114D114AAB693146684649
:10291000FFF796FE3846FFF7ABFFFFF7E1FD039B9D
:1029200013B16846FFF7CCFE059A2368A9699A425D
:10293000886A06D107B0F0BD3846FFF799FF034D0E
:10294000F2E7FEF705FD00BF00080020A8150020F3
:10295000E127000800000000000000000000000067
:10296000F0B51E4D1E4E2B6883B0044601930F46F2
:10297000FFF7DEFDB069A7628368A2689A421DD99D
:10298000FFF7F6FE0123074684F82030B461FFF715
:102990000FFE3946204600F07BFCEFF30983FA690D
:1029A000643B9A4214D8019A2B689A4214D1394652
:1029B000204603B0BDE8F040FDF77ABC019A2B68D1
:1029C0009A4209D1204603B0BDE8F040FFF7D0BEDF
:1029D0000448FFF715FCE6E7FEF7BAFC0008002004
:1029E000A815002050DE00080000000000000000D4
:1029F00010B50E490E4B8A69086892F823101C68BE
:102A00008068926882B0019449B9904234BF002036
:102A10000120019A1B689A4206D102B010BD904273
:102A200094BF00200120F4E7FEF792FCA8150020D7
:102A3000000800200000000000000000000000006E
:102A400070B5184C184E2368A5691A682260546046
:102A5000012283F8202082B01422316885F82320D7
:102A60002846A3610191FFF783FE2846FFF7A0FDEA
:102A70002946A06900F00CFCEFF30983EA69643B86
:102A80009A4202D90948FFF7BBFB019A33689A4280
:102A900006D1A069294602B0BDE87040FDF708BC28
:102AA000FEF756FCA81500200008002050DE0008A4
:102AB00070B51C4D1C4E2A68AC6913682B6001214F
:102AC00082B05D60002082F82010AA613268A1689F
:102AD00084F82000019200E01B689A688A42FBD8C3
:102AE00023605A686260204614605C60FFF760FDF6
:102AF0002146A86900F0CCFBEFF30983E269643B4F
:102B00009A4202D90948FFF77BFB019A33689A423F
:102B100006D1A869214602B0BDE87040FDF7C8BBE8
:102B2000FEF716FCA81500200008002050DE000863
:102B300010B50F4C82B023680193FFF7F9FCFFF743
:102B4000CFFC0C4B1A689B6992689B689A42019A69
:102B5000236803D89A4208D102B010BD9A4204D12A
:102B600002B0BDE81040FFF7A3BFFEF7F1FB00BFC6
:102B700000080020A8150020000000000000000050
:102B800000B50E4A0E4B9269196892F8232083B063
:102B9000019142B1019A1B689A420DD103B05DF8D0
:102BA00004EBFFF785BF019A1B689A4204D103B07A
:102BB0005DF804EBFFF744BFFEF7CAFBA815002041
:102BC00000080020000000000000000000000000DD
:102BD000F0B51A4A1A4D02610446816083B014238D
:102BE00050692E68616484F8233002270023012194
:102BF000278484F82210C4E90F3304F16801A3612B
:102C0000019604F12C07636204F1500604F13003CD
:102C100060610461C4E90C33E1613046E7625461EC
:102C200000F03EFA304600F05BFA019A2B689A42B7
:102C300002D1204603B0F0BDFEF78AFBA8150020A4
:102C4000000800200000000000000000000000005C
:102C500010B5094B82B01C680194884203D200F879
:102C6000012B8142FBD1019A1B689A4201D102B02B
:102C700010BDFEF76DFB00BF000800200000000043
:102C80002DE9F043184E83B0346801940546DDF811
:102C900028900C4617469846FFF722FC15B1B4F56C
:102CA000BC7F19D21148FFF7ABFAA4F164012944A3
:102CB000E960C1F84080EB68019AC3F8449033683A
:102CC000E9680B4808669A420CD13946284603B099
:102CD000BDE8F043FFF77CBF7F2FE3D8B8F1000FCA
:102CE000E3D1DFE7FEF734FB00080020A0DE000898
:102CF000C902000800000000000000000000000001
:102D00002DE9F04FDFF8A48087B0D8F80040DDF857
:102D10004090059407468A46934600F168060446AB
:102D2000FF2504F8015BA642FBD107EB0A05A5428B
:102D300004D9552604F8016BA542FBD10393202248
:102D400082F3118800F0C4FAFFF7FAFA039BCDF87A
:102D500000905A4651463846FFF792FF002104463C
:102D6000FFF7FEFDFFF70CFB00F0CAFA0D4B1A68E7
:102D70009A4204D0996993688A689A420BD30023D7
:102D800083F31188059AD8F800309A42204606D17C
:102D900007B0BDE8F08F0448FFF732FAEFE7FEF71F
:102DA000D7FA00BFA815002060DE00080008002048
:102DB00030B5184C83B0236801930546202383F374
:102DC000118800F085FAFFF7BBFA15B91248FFF732
:102DD00017FA29460820FFF78BFDFFF7D1FA00F01C
:102DE0008FFA0E4B1A689A4204D0996993688A68E0
:102DF0009A4208D3002383F31188019A23689A42E8
:102E000005D103B030BD0648FFF7FAF9F2E7FEF747
:102E10009FFA00BF0008002070DE0008A8150020FF
:102E200060DE00080000000000000000000000005C
:102E300070B5164B164E9C693268E36AA06282B088
:102E400004F12C05AB42019207D01A68E2621846E1
:102E5000FFF78EFCE36AAB42F7D194F821309B0771
:102E600005D1D4E904231A61D4E904325A610F2050
:102E7000FFF7FEFC019A33689A4205D1054802B07B
:102E8000BDE87040FFF7BCB9FEF762FAA815002054
:102E900000080020B0DE0008000000000000000074
:102EA00030B50C4C83B0236801930546202383F38F
:102EB000118800F00DFAFFF743FA019A23689A424D
:102EC00005D1284603B0BDE83040FFF7B1BFFEF79B
:102ED0003FFA00BF000800200000000000000000D2
:102EE000F0B50D4D0D4E03682A68B76983B00446EE
:102EF000019213B10A48FFF783F927600320BC62EF
:102F0000FFF7B6FC019A2B68B1699A42886A01D131
:102F100003B0F0BDFEF71CFA00080020A815002041
:102F2000C0DE0008000000000000000000000000FB
:102F3000F0B5124D04682B6883B00193B4B194F8D6
:102F40002030032B06460F460CD100233360019A34
:102F50002B68A7629A420FD1204603B0BDE8F0402B
:102F6000FFF706BC0648FFF74BF9EEE7019A2B681E
:102F70009A4201D103B0F0BDFEF7EAF90008002043
:102F8000D0DE00080000000000000000000000008B
:102F900030B5104A83B01368019381B10E4B019D87
:102FA0009B69186044685C602360126843609542C6
:102FB0000DD1042003B0BDE83040FFF799BC019962
:102FC000136899424FF0FF3001D103B030BDFEF7D6
:102FD000BFF900BF00080020A81500200000000075
:102FE00070B5124D04682B6882B0A042019315D0D1
:102FF00023680360586094F82030042B0E4602D0FA
:103000000B48FFF7FDF8019A2B68A6629A420BD194
:10301000204602B0BDE87040FFF7AABB019A2B68BA
:103020009A4201D102B070BDFEF792F9000800206B
:1030300080DE00080000000000000000000000002A
:103040002DE9F041DFF850800468D8F8003082B0F4
:10305000A042019313D00F4F05460E4623682B6004
:103060005D6094F82030042B02D03846FFF7C8F892
:10307000A6622046FFF77CFB2C68A542EED1019AA0
:10308000D8F800309A4202D102B0BDE8F081FEF7D4
:103090005FF900BF80DE000800080020000000008B
:1030A00030B50B4B83B01A6801924FF0FF320260CB
:1030B00001991A680024002300259142C0E90445C3
:1030C000C0E90133C36001D103B030BDFEF740F960
:1030D00000080020000000000000000000000000C8
:1030E00000B5084B084A196883B001915168019AEC
:1030F0001B6881609A4202D103B05DF804FBFEF7C1
:1031000027F900BF00080020001000E000000000C8
:10311000F0B51449144B0A68846883B00192134ACD
:103120005B68D2F8A864C2681B1BD0E90445013271
:103130009B1BC26042688360E61845F1000793421A
:10314000C0E9046709D80268934238BF0360019A56
:103150000B689A4203D103B0F0BD4360F7E7FEF776
:10316000F7F800BF00080020001000E0A8150020BC
:1031700030B5114D114C2B6889B04FF0FF310793DA
:10318000002300226846C4F8A834CDE90133039334
:103190000023CDE904230091FFF7A2FF6846FFF763
:1031A000B7FF079A2B680299C4F8A8149A4201D174
:1031B00009B030BDFEF7CCF800080020A8150020AB
:1031C0002DE97048134E144B326883B001925B684E
:1031D0008B60D0E902411B1BD0E90445426814EB27
:1031E000030B45F1000C01319342C0E90231C0E903
:1031F00004BC0AD80268934238BF0360019A33685E
:103200009A4204D103B0BDE870884360F6E7FEF748
:103210009FF800BF00080020001000E00000000040
:1032200030B50D4D0D4C2B6883B004F597600193BC
:103230000023C4F8B034C4F8B434FFF731FF019A66
:103240002B689A4206D104F59A6003B0BDE830407D
:10325000FFF726BFFEF77CF800080020A815002025
:1032600000B50949094A0B6883B001930198D2F867
:10327000B034096801338842C2F8B03402D103B0D7
:103280005DF804FBFEF764F800080020A815002094
:1032900070B50D4C0D4A236882B00193019DD2F8A0
:1032A000B43424680133A542C2F8B43409D10E46BF
:1032B00000F1500106F1500002B0BDE87040FFF788
:1032C0007FBFFEF745F800BF00080020A8150020CA
:1032D00000B5084B83B01A680192019A1B689A42A4
:1032E00005D1054803B05DF804EBFFF7F9BEFEF722
:1032F0002FF800BF00080020601A00200000000026
:1033000000B5084B83B01A680192019A1B689A4273
:1033100005D1054803B05DF804EBFFF7F9BEFEF7F1
:1033200017F800BF00080020601A0020000000000D
:1033300000B5084B83B01A680192019A1B689A4243
:1033400005D1054803B05DF804EBFFF7C9BEFDF7F2
:10335000FFFF00BF00080020781A002000000000D6
:1033600000B5084B83B01A680192019A1B689A4213
:1033700005D1054803B05DF804EBFFF7C9BEFDF7C2
:10338000E7FF00BF00080020781A002000000000BE
:1033900030B50B4D83B02B680193044650B12460C7
:1033A00001992A68646000239142A360236105D1DA
:1033B00003B030BD0348FEF723FFF0E7FDF7C8FF79
:1033C0000008002010DF00080000000000000000DE
:1033D000F0B55D4E5D4B32689D6983B00446019245
:1033E000FFF7A6F8002C00F08480A068236900286D
:1033F00043D0002B40F39780854276D0AA6883683B
:103400009A4208D990F820308260062B40D0072BD2
:1034100073D0002B5DD02746234603E09968AA6845
:10342000914233D31B689C42F8D12F607B686B605C
:1034300006201D607D60AC62FFF71AFAA368AB42FC
:1034400002D04348FEF7DCFE2B6CA34202D040487A
:10345000FEF7D6FE2369012B05D1019A33689A4203
:103460006FD103B0F0BD019A33689A4269D13848F0
:1034700003B0BDE8F040FEF7C3BE002B58D10133C6
:10348000A56023612B6CE3602C64E6E71F46CCE764
:10349000D0E900231A60D0E900325A60876A3B46BF
:1034A00003E099688268914247D31B689F42F8D134
:1034B00007607B68436018607860836AAA689868D0
:1034C00083689342A7D290F820308260062B9ED169
:1034D000DEE7D0E90023012180F820101A60D0E94E
:1034E00000325A60FFF744F995E7236901332361FD
:1034F000B3E71748FEF784FE77E7D0E900231A60A8
:10350000D0E900325A60876A3B4603E099688268D6
:10351000914214D31B689F42F8D107607B684360D7
:103520001860786077E70A48FEF76AFEA06863E7EC
:103530000748FEF765FE2369A1E71F46B8E71F4667
:10354000EBE7FDF705FF00BF00080020A8150020ED
:1035500020DF000800000000000000000000000064
:1035600030B5154C83B0236801930546202383F3BF
:103570001188FFF7ADFEFEF7E3FE2846FFF728FFB0
:10358000FEF7FEFEFFF7BCFE0C4B1A689A4204D011
:10359000996993688A689A4208D3002383F3118853
:1035A000019A23689A4205D103B030BD0448FEF762
:1035B00027FEF2E7FDF7CCFE00080020A81500204A
:1035C00000DF000800000000000000000000000014
:1035D0002DE9F043DFF800813C4FD8F80030BE6998
:1035E00083B005460193002864D0202383F311881B
:1035F000FFF76EFEFEF7A4FE336C002B5ED09B68D7
:10360000B34202D03248FEF7FBFD2B69002B49DDA7
:10361000013B2B615BBB336CAB4202D02C48FEF705
:10362000EFFDEB683364FEF783FF2B689D423ED0CD
:10363000D6E910495CB1FEF77BFF23689C4203D0BA
:103640009B68994538BF9946E468002CF3D1C6F8C9
:1036500008902B6801222A611A682A605560AB60C5
:103660001A6CEA6018461D640021FFF779F9FEF72D
:1036700087FEFFF745FE3B68BB4204D0BA699B68F2
:1036800092689A420AD3002383F31188019AD8F8EA
:1036900000309A4217D103B0BDE8F0830D48FEF721
:1036A000AFFDF0E70A48FEF7ABFD2B69B0E700235A
:1036B000AB60DCE70648FEF7A3FD96E70448FEF79B
:1036C0009FFD336C9BE7FDF743FE00BFA81500206C
:1036D00030DF000800DF00080008002000000000C4
:1036E00070B5184E82B00446336801930D46FEF75C
:1036F000F7FE0CB3E16B94F8203029430A2BE16309
:1037000016D00B2B05D0019A33689A4218D102B01B
:1037100070BDA36A8B43F6D1019A336800219A42A7
:10372000A1620DD1204602B0BDE87040FFF720B87D
:10373000A36A1942F0D1E6E70348FEF761FDD9E735
:10374000FDF706FE0008002060DF00080000000012
:10375000F0B5134F83B006463B6801930D46FEF764
:10376000BFFEB6B13468A6420DD0E3682B43E360D8
:1037700015B12269134203D0D4E90101FFF7B0FF6C
:103780002468A642F1D1019A3B689A4205D103B060
:10379000F0BD0448FEF734FDE4E7FDF7D9FD00BFB6
:1037A0000008002040DF00080000000000000000CA
:1037B00070B50C4CC16082B0266801960A44006066
:1037C000019E02612268069D4060C0E90511964293
:1037D0004FF00001C3618160056201D102B070BD8C
:1037E000FDF7B6FD0008002000000000000000000A
:1037F00030B50D4D83B02B6801930446FEF770FE83
:1038000001992A68E368A36100209142A060636186
:1038100007D120466FF0010103B0BDE83040FFF74B
:103820000FBCFDF795FD00BF000800200000000060
:1038300070B5164D82B004462B6801930E46FEF714
:103840004FFEFEF74DFED4E905239A42A36816D039
:103850000133511CA36061611670D4E904329A42AD
:103860000AD220460021FFF7BBFB0020019A2B68FB
:103870009A4209D102B070BDE3686361F1E7002BA1
:10388000E6D06FF00300F1E7FDF762FD00080020CD
:10389000F0B5234F83B03B68019304460E462023C6
:1038A00083F31188FFF714FDFEF74AFDE36943B186
:1038B0002046984705E031462046FFF769FB051E84
:1038C00010DBFEF70DFEA368002BF4D0A169206980
:1038D0004A1C013B8242A360A26128BFE3680D78C5
:1038E00028BFA361FEF74CFDFFF70AFD0D4B1A68D8
:1038F0009A4204D0996993688A689A4209D300234E
:1039000083F31188019A3B689A42284605D103B097
:10391000F0BD0548FEF774FCF1E7FDF719FD00BFA7
:1039200000080020A815002070DF0008000000003B
:103930002DE9F04FDFF8F490044685B0D9F8000087
:1039400003908A461D46D4F81C809346002A60D016
:10395000202383F311880193FFF7BAFCFEF7F0FCF4
:103960002F4E0027B8F1000F07D02046C04704E0D3
:1039700029462046FFF70CFB60BBFEF7B1FDA368AC
:10398000002BF5D0A269013B511CA161A360137803
:103990000AF8013B2369A2699A4224BFE368A36144
:1039A000FEF7EEFCFFF7ACFC3368B34204D0B2691B
:1039B0009B6892689A4228D3002383F311880137C9
:1039C000BB4519D0019B83F31188FFF781FCFEF7FB
:1039D000B7FCC7E7FEF7D4FCFFF792FC3368B342AD
:1039E00007D0B2699B6892689A4202D20D48FEF7EE
:1039F00007FC002383F31188039AD9F800309A4218
:103A000038460AD105B0BDE8F08F0648FEF7F8FB4E
:103A1000D2E70548FEF7F4FB9AE7FDF799FC00BFF3
:103A2000A815002070DF000880DF000800080020D3
:103A300070B50B4D82602E68C16082B0C0E9000095
:103A400001960A44019E02612A68069C9642C0E9DA
:103A50000511C0E9073401D102B070BDFDF778FC53
:103A6000000800200000000000000000000000002E
:103A700030B50D4D83B004462B680193FEF730FD41
:103A8000D4E9032301982968A2619B1A88426261E4
:103A9000A36007D120466FF0010103B0BDE83040BC
:103AA000FFF7CEBAFDF754FC00080020000000002C
:103AB0002DE9F0412E4F82B03B68019304468846C1
:103AC0001646202383F31188FFF702FCFEF738FC2B
:103AD00005E031462046FFF75BFA051E2DDBFEF7B9
:103AE000FFFCA368002BF4D06269013B511C6161AB
:103AF000A36082F80080D4E904329A4224BFE368CC
:103B00006361E3690BB120469847FEF739FCFFF784
:103B1000F7FB184B1A689A4204D0996993688A682F
:103B20009A421ED3002585F31188019A3B689A4278
:103B300028461AD102B0BDE8F081FEF721FCFFF75C
:103B4000DFFB0C4B1A689A4207D0996993688A6820
:103B50009A4202D20848FEF753FB002383F31188F0
:103B6000E3E70548FEF74CFBDCE7FDF7F1FB00BFA0
:103B700000080020A815002070DF000800000000E9
:103B800070B5154E82B0044633680193FEF7A8FC69
:103B9000FEF7A6FCD4E905329342A36815D020694C
:103BA000511C0133A360A161814215780AD22046DD
:103BB0000021FFF715FA2846019A33689A4209D185
:103BC00002B070BDE368A361F1E7002BE7D06FF0AE
:103BD0000200F1E7FDF7BCFB000800200000000038
:103BE0002DE9F04F04463B48D4F81C90006885B09E
:103BF0000D46039001931646002A61D04FF0200A2B
:103C00008AF31188FFF764FBFEF79AFB4FF0000878
:103C1000314FC346FEF764FCA368002B32D06269C3
:103C2000013B511C6161A3602B781370D4E904320D
:103C30009A4224BFE36863610135B9F1000F01D0F6
:103C40002046C847FEF79CFBFFF75AFB3B68BB4288
:103C500007D0BA699B6892689A4202D21F48FEF761
:103C6000CFFA8BF31188013E08F101081FD08AF3C7
:103C70001188FFF72DFBFEF763FBFEF731FCA3680D
:103C8000002BCCD101992046FFF782F90028C1D042
:103C9000FEF776FBFFF734FB3B68BB4204D0BA6902
:103CA0009B6892689A420FD3002383F31188094BD3
:103CB000039A1B689A4240460AD105B0BDE8F08FCE
:103CC0000748FEF79DFA99E70448FEF799FAEBE7F3
:103CD000FDF73EFB00080020A815002070DF00085B
:103CE00090DF00080000000000000000000000005D
:103CF00030B50B490B4A0B680B4D0C4C83B022F0CE
:103D00000702019301980A4B09682A6023F0070310
:103D10008842236001D103B030BDFDF719FB00BF1D
:103D2000000800208F2400201C1C0020181C0020EC
:103D30000000022000000000000000000000000061
:103D400070B51C4E82B0336801930446202383F380
:103D50001188FFF7BDFAFEF7F3FAFEF7C1FB164A2A
:103D6000164B15681B68E01D20F007005B1B98428E
:103D70009ABF401910600025FEF702FBFFF7C0FA5A
:103D80000F4B1A689A4204D0996993688A689A42DC
:103D900009D3002383F31188019A33689A42284695
:103DA00005D102B070BD0748FEF72AFAF1E7FDF72A
:103DB000CFFA00BF000800201C1C0020181C0020A7
:103DC000A8150020B0DF000800000000000000007F
:103DD00000B50B4B0B481A6883B0019201991A6821
:103DE000094B036091424FF00003C0E9023305D153
:103DF000103003B05DF804EBFFF7CABAFDF7A8FA7C
:103E000000080020201C0020413D000800000000A8
:103E100080B50D4A0D4982B000AF13687B604B68D6
:103E200023F001034B60EFF30983683383F30988C0
:103E3000002383F3118879681368994202D1083707
:103E4000BD4680BDFDF784FA0008002030EF00E099
:103E5000B0B5194C82B000AF23687B60202383F398
:103E60001188164B5B6813F4006308D183F3118843
:103E70007A6823689A421DD10837BD46B0BDF1EE7D
:103E8000103AEFF309854FF080720D4B45F84C2C3A
:103E9000DB6845F8083CA5F1680383F30988FEF761
:103EA000A7FD18B1074B45F8503CE1E7064B45F834
:103EB000503CDDE7FDF74CFA0008002000ED00E083
:103EC00030EF00E0E1020008F4020008000000000A
:103ED00010B5184C82B02368019302F0E1FB16483C
:103EE00003F0FEFE00F0D4F800F00AF900F050F9FB
:103EF00000F07EF900F0ACF900F0DAF900F008FA11
:103F000000F036FA01F084F800F08AFF01F050FC6E
:103F100001F096FC01F084FA05F012FE019A236884
:103F20009A4204D102B0BDE8104001F071BCFDF727
:103F30000FFA00BF00080020C0E4000800000000E5
:103F4000F0B51A4D83B02B68019391420E4614468A
:103F5000074619D38B1A1F2B16D806F01F03581CBF
:103F60006209012376098340B24203F1FF3304F072
:103F70001F0457F822000BD31840E040019A2B6829
:103F80009A4210D103B0F0BD0948FEF739F9E4E7D1
:103F900057F82610C4F120020B4020FA04F403FA6B
:103FA00002F02043EAE7FDF7D3F900BF0008002044
:103FB000C0DF00080000000000000000000000005A
:103FC000F0B51D4E83B033680193054670B37E2271
:103FD0007F212846FFF7B4FF80B1012806D00020DA
:103FE000019A33689A4225D103B0F0BD28463022A9
:103FF0004521FFF7A5FF01308002F1E73E2249216C
:104000002846FFF79DFF2F22044631212846FFF75F
:1040100097FF5022074653212846FFF791FF0134AE
:1040200002370938BC4004FA00F0D9E70348FEF72C
:10403000E7F8CCE7FDF78CF900080020E0DF000886
:10404000F0B5104D83B02B680193044698B194F8F5
:10405000D63094F8D770019994F8D4602A6894F80F
:10406000D5001B0403EB07633344914203EB0020AC
:1040700005D103B0F0BD0448FEF7C2F8E7E7FDF74D
:1040800067F900BF0008002000E000080000000001
:1040900000B5074B83B01A680192019A1B689A42D7
:1040A00004D103B05DF804EB02F0BABBFDF750F9A0
:1040B00000080020000000000000000000000000D8
:1040C00000B50C4B83B01A6801920122027001996D
:1040D0001A6800239142C0E90133C0E90333436108
:1040E00005D1183003B05DF804EBFFF751B9FDF7C7
:1040F0002FF900BF000800200000000000000000B1
:1041000000B5074B83B01A680192019A1B689A4266
:1041100004D103B05DF804EB03F02AB9FDF718F9F8
:104120000008002000000000000000000000000067
:1041300030B5134B83B01A68019201220270019CC2
:104140001968002200F1180300F11C054260836128
:1041500000F1200200F12403C561026200F128058C
:1041600000F1080243628C4200F110038562C0E94D
:104170000222C0E9043301D103B030BDFDF7E8F8F5
:104180000008002000000000000000000000000007
:1041900000B5074B83B01A680192019A1B689A42D6
:1041A00004D103B05DF804EB03F07ABDFDF7D0F85D
:1041B00000080020000000000000000000000000D7
:1041C00000B50A4B83B01A6801920122027001996E
:1041D0001A6800239142C0E9043305D1183003B0B6
:1041E0005DF804EBFFF7D4B8FDF7B2F80008002043
:1041F00000B5074B83B01A680192019A1B689A4276
:1042000004D103B05DF804EB03F0D2B8FDF7A0F8D9
:104210000008002000000000000000000000000076
:1042200000B5084B83B01A68019201220270019A0E
:104230001B6800219A42416002D103B05DF804FB83
:10424000FDF786F8000800200000000000000000D4
:1042500000B5074B83B01A680192019A1B689A4215
:1042600004D103B05DF804EB05F042B8FDF770F837
:104270000008002000000000000000000000000016
:1042800000B5084B83B01A68019201220270019AAE
:104290001B6800219A42416002D103B05DF804FB23
:1042A000FDF756F8000800200000000000000000A4
:1042B00000B5074B83B01A680192019A1B689A42B5
:1042C00004D103B05DF804EB03F022BFFDF740F822
:1042D00000080020000000000000000000000000B6
:1042E00000B50A4B83B01A68019201220270019A4C
:1042F0001B6800219A42416005D10C3003B05DF883
:1043000004EBFFF745B8FDF723F800BF00080020D5
:1043100000B5074B83B01A680192019A1B689A4254
:1043200004D103B05DF804EB04F002BFFDF710F810
:104330000008002000000000000000000000000055
:1043400000B5084B83B01A68019201220270019AED
:104350001B6800219A42416002D103B05DF804FB62
:10436000FCF7F6FF0008002000000000000000003D
:1043700000B5074B83B01A680192019A1B689A42F4
:1043800004D103B05DF804EB05F0A2B8FCF7E0FF40
:1043900000080020000000000000000000000000F5
:1043A00000B5094B83B01A6801920122027001998D
:1043B0001A68002391424360C360037402D103B0C2
:1043C0005DF804FBFCF7C4FF0008002000000000BB
:1043D00070B5214E82B0336801930D460446002823
:1043E00033D0002931D0202383F31188FEF770FFEA
:1043F000FDF7A6FF2378013B012B02D91748FDF7F3
:10440000FFFE65606B68A360204605F0A1F80022FE
:104410000223E2602370FDF7B3FFFEF771FF104B3C
:104420001A689A4204D0996993688A689A4208D3B4
:10443000002383F31188019A33689A4209D102B0AC
:1044400070BD0848FDF7DCFEF2E70448FDF7D8FE32
:10445000C9E7FCF77DFF00BF0008002030E000083E
:10446000A815002020E00008000000000000000067
:1044700070B51C4E82B0336801930C46054650B3AC
:10448000202383F31188FEF723FFFDF759FF2B78D4
:10449000022B02D01448FDF7B3FEAB69AC60013CBF
:1044A000DC62FDF76DFFFEF72BFF104B1A689A4296
:1044B00004D0996993688A689A4208D3002383F3E9
:1044C0001188019A33689A4209D102B070BD084838
:1044D000FDF796FEF2E70448FDF792FED0E7FCF701
:1044E00037FF00BF0008002040E00008A8150020AA
:1044F00020E00008000000000000000000000000B4
:10450000F0B5214E83B0336801930D46174604463B
:1045100078B3037C8B422CD9202383F31188FEF7D8
:10452000D7FEFDF70DFF2378022B02D01748FDF7C9
:1045300067FEE3680122AA401343E3603A46294636
:10454000204605F0EDF8FDF71BFFFEF7D9FE104BF6
:104550001A689A4204D0996993688A689A420CD37F
:10456000002383F31188019A33689A4209D103B07A
:10457000F0BD0648FDF744FECEE70648FDF740FED5
:10458000EEE7FCF7E5FE00BF0008002050E0000861
:10459000A815002020E00008000000000000000036
:1045A00070B5204E82B0336801930D46044678B34F
:1045B000037C8B422CD9202383F31188FEF788FEDD
:1045C000FDF7BEFE2378022B02D01748FDF718FE38
:1045D000E3680122AA4023EA0203E3602946204659
:1045E00005F0B6F8FDF7CCFEFEF78AFE0F4B1A6811
:1045F0009A4204D0996993688A689A420CD300233E
:1046000083F31188019A33689A4209D102B070BDD0
:104610000548FDF7F5FDCEE70548FDF7F1FDEEE7AE
:10462000FCF796FE0008002070E00008A8150020A6
:1046300020E0000800000000000000000000000072
:1046400030B51E4D83B02B680193044680B3202300
:1046500083F31188FEF73CFEFDF772FE2378022BF0
:1046600002D01748FDF7CCFD63689B68E3B1204694
:1046700005F08EF8FDF784FEFEF742FE114B1A6836
:104680009A4204D0996993688A689A4208D30023B1
:1046900083F31188019A2B689A420DD103B030BD83
:1046A0000948FDF7ADFDF2E70548FDF7A9FDDEE796
:1046B0000348FDF7A5FDCAE7FCF74AFE0008002005
:1046C00090E00008A815002020E00008000000008D
:1046D00070B5294E82B0336801930D460446002818
:1046E00032D0037C8B422FD9202383F31188FEF72D
:1046F000EFFDFDF725FE2378022B02D01F48FDF7C2
:104700007FFDE368EB40DB0726D5636803EBC50359
:104710001B6953B32946204605F05AF8FDF730FED1
:10472000FEF7EEFD164B1A689A4204D09969936819
:104730008A689A420CD3002383F31188019A336864
:104740009A4216D102B070BD0C48FDF759FDCBE777
:104750000C48FDF755FDEEE70848FDF751FD63688D
:1047600003EBC5031B69002BD4D10448FDF748FDBA
:10477000D0E7FCF7EDFD00BF00080020B0E0000826
:10478000A815002020E00008000000000000000044
:1047900070B5104D82B02B6801930E46044650B19F
:1047A00049B12379052B0CD00120019A2B689A423C
:1047B0000ED102B070BD0848FDF722FD2379052B0C
:1047C000F2D1A36A73604FF4007333600020ECE70A
:1047D000FCF7BEFD0008002040E1000800000000DA
:1047E0002DE9F047DFF89C8386B002AFD8F800309F
:1047F000FB600446002800F019812379022B01D0C8
:10480000052B2BD103232371204602F069FE0022E1
:104810001146204602F0DCFE07F108034FF4D57282
:104820000821204602F01CFFE0B9BB680122C3F357
:1048300003239342226300F0FD80204602F088FEAD
:10484000022323710125FA68D8F800309A422846DD
:1048500040F046811037BD46BDE8F087C048FDF7FF
:10486000CFFCCFE707F1080300223721204602F0F2
:10487000F7FE002840F0BE80BB68BA4A1A40002A02
:1048800040F0B88022631146204602F0A1FE266B5C
:1048900006F00F03022B00F0AF80B34EB34ADFF8EF
:1048A000C492012B18BF1646642504E0013DC4D014
:1048B0000A20FEF77DFA07F108030022372120467F
:1048C00002F0CEFE0028B8D1BB6813EA090FB4D1BC
:1048D00007F1080332462921204602F099FE0028FC
:1048E000ABD1BB68002BE1DA5B0003D5236B43F04F
:1048F0001003236304F1080300220221204602F082
:10490000A7FF002899D1024604F13803032120466D
:1049100002F0A6FE002890D104F118052B46A26BE8
:104920000921204602F094FF002886D13B1DA26B8E
:104930000721204602F094FE824600287FF47DAFD6
:10494000236B03F00F03022B00F097806E467E224C
:1049500090B07F212846FFF7F3FA0DF108090028EF
:1049600079D10146B546204602F0DAFD236B03F00B
:104970000F03022B00F096802846FFF721FBA06270
:104980003B1D4FF400721021204602F069FE0546DF
:1049900000287FF452AF7B68724E33427FF44DAFF4
:1049A000236B03F00F03012B40F2B280022B7FF444
:1049B00044AFE36A1A79012A00F0A88017D3022ACB
:1049C00040F0E2806A4E1979204602F0D9FD07F1E5
:1049D000080332460621204602F042FE00287FF4FA
:1049E0002CAFBA685F4B1340002B7FF426AF052332
:1049F000237128E7022323635E4E642505E0013D11
:104A00003FF41BAF0A20FEF7D3F907F10803324643
:104A10000121204602F0FCFD00287FF40EAFBB68A8
:104A2000002BECDA5B007FF565AF5FE74C48FDF7E4
:104A3000E7FBE2E6024607F108033721204602F0D1
:104A40000FFE00287FF4F9AEBA68464B1340002BE6
:104A50007FF4F3AE1BE7CDF800A0062340224946C1
:104A6000204602F025FF00284ED199F80D3013F0B2
:104A7000020337D11946B54675E7E36A1B687BB177
:104A800007F108033C4A0621204602F0E9FD38B947
:104A9000BB6834491940B1FA81F1490963E7B54669
:104AA000002160E77E227F212846FFF749FA01288E
:104AB0007FF662AFE36A1D68002D3FF4BEAE0023AF
:104AC00000934FF4007208232946204602F0F0FEBE
:104AD00000287FF4B2AE2846FFF7B2FAA0624FE793
:104AE000FCF736FC254B009340220623494620461E
:104AF00002F0DEFE40B999F8103003F00F030F2BDF
:104B0000CDD0B54601212EE7B54696E61C4E5AE7B4
:104B1000E36A197900293FF46AAF01297FF48DAE69
:104B2000204602F02DFD07F10803A26B3721204635
:104B300002F096FD00287FF480AEBB6833427FF41C
:104B40007CAE07F1080302220621204602F088FD10
:104B500000287FF472AEBB6833423FF448AF6CE686
:104B6000F0E0000808E0FFFD000010C00000108029
:104B70000002B7030080FFC00001B903F1FFFF800E
:104B80000001B703000800200248034EFDF738FB80
:104B9000E36A18E7D0E000080000B7030000000057
:104BA0002DE9F041194D82B02C6801940F469046D2
:104BB0001E460446C0B1BAB1B3B12379052B02D069
:104BC0001348FDF71DFB781EA36A304498420FD9A5
:104BD000636B43F0800363630120019A2B689A4260
:104BE00011D102B0BDE8F0810948FDF709FBE4E707
:104BF00006203346207142463946204602F0B8FF6F
:104C000005232371E9E7FCF7A3FB00BF00080020A0
:104C100010E100080000000000000000000000009B
:104C20002DE9F041194D82B02C6801940F46904651
:104C30001E460446C0B1BAB1B3B12379052B02D0E8
:104C40001348FDF7DDFA781EA36A304498420FD965
:104C5000636B43F0800363630120019A2B689A42DF
:104C600011D102B0BDE8F0810948FDF7C9FAE4E7C7
:104C700007203346207142463946204602F0B8FFED
:104C800005232371E9E7FCF763FB00BF0008002060
:104C900020E100080000000000000000000000000B
:104CA00070B50E4D82B02B680193044680B1267911
:104CB000052E06D00120019A2B689A420CD102B031
:104CC00070BD08232371204602F0D2FF2671F2E75F
:104CD0000348FDF795FAEAE7FCF73AFB00080020E5
:104CE00030E10008000000000000000000000000AB
:104CF00070B5124D124E2B6882B0044601936B467C
:104D0000A26B0D21204602F0ABFC78B9009B334228
:104D10000BD1C3F34323042B08D04FF0010005D37C
:104D2000072B03D8FEF744F8E9E70120019A2B6826
:104D30009A4201D102B070BDFCF70AFB00080020C6
:104D400008E0FFFD0000000000000000000000007F
:104D500070B52D4E82B033680193044600284CD0C4
:104D6000202383F31188FEF7B3FAFDF7E9FA2379DC
:104D7000022B29D0052B21D104232371FDF700FB41
:104D8000FEF7BEFA214B1A689A4204D099699368DB
:104D90008A689A4229D3002383F311882046FFF7BB
:104DA000A7FF0546204602F0D3FB02232371019A98
:104DB00033689A42284624D102B070BD1448FDF7EA
:104DC0001FFA2379022BD7D1FDF7DAFAFEF798FA0A
:104DD0000E4B1A689A4204D0996993688A689A427D
:104DE00007D3002585F31188E1E70A48FDF708FAA3
:104DF000D1E70848FDF704FAF3E70548FDF700FAA4
:104E0000AEE7FCF7A5FA00BF00080020A8150020B7
:104E100000E1000850E10008000000000000000070
:104E200000B5074B83B01A680192019A1B689A4239
:104E300004D103B05DF804EB02F032BBFCF788FA52
:104E4000000800200000000000000000000000003A
:104E500010B50A4B0A4A1968026082B00124019118
:104E600001991A680471002391424363C0E90A332F
:104E700001D102B010BDFCF76BFA00BF00080020A2
:104E800060E10008000000000000000000000000D9
:104E900030B5084C83B025680195019D2468A54272
:104EA00005D10C3003B0BDE83040FEF741BDFCF742
:104EB0004FFA00BF000800200000000000000000C2
:104EC00010B5094B82B01C680194019C1B689C4280
:104ED00007D10C304FF0FF3302B0BDE81040FEF7B1
:104EE00027BDFCF735FA00BF0008002000000000D5
:104EF00030B5084C83B025680195019D2468A54212
:104F000005D1303003B0BDE83040FEF769BEFCF794
:104F10001FFA00BF00080020000000000000000091
:104F200010B5094B82B01C680194019C1B689C421F
:104F300007D130304FF0FF3302B0BDE81040FEF72C
:104F40004FBEFCF705FA00BF00080020000000007B
:104F500000B5084B83B01A680192019A1B689A4207
:104F600005D10C3003B05DF804EBFEF791BCFCF703
:104F7000EFF900BF00080020000000000000000062
:104F800000B5094B83B01A680192019A1B689A42D6
:104F900007D10C304FF0FF3103B05DF804EBFEF7A2
:104FA00077BCFCF7D5F900BF000800200000000026
:104FB00010B5084B82B01C680194019C1B689C4290
:104FC00005D1303002B0BDE81040FEF771BDFCF7EE
:104FD000BFF900BF00080020000000000000000032
:104FE00000B5094B83B01A680192019A1B689A4276
:104FF00007D130304FF0FF3203B05DF804EBFEF71D
:1050000057BDFCF7A5F900BF000800200000000014
:1050100000B5074B83B01A680192019A1B689A4247
:1050200004D103B05DF804EB04F022BDFCF790F965
:105030000008002000000000000000000000000048
:10504000F0B5144D144B2F68044685B040F8043B6E
:105050004FF0010C00940B461646606084F808C0BF
:1050600004F1540104F10C0010220397FEF7A0FB99
:1050700033461022009404F1640104F13000FEF77D
:10508000D7FC039A2B689A4201D105B0F0BDFCF71A
:105090005FF900BF0008002090E100080000000058
:1050A00070B5174D82B004462B6801930E46FDF78C
:1050B00017FAF4B1FDF714FA636963B1314604F1EC
:1050C0000C00FEF7B5FB0028019A2B6808DB9A421A
:1050D00013D102B070BD04216018FEF739FBEDE773
:1050E0009A420AD1201D802102B0BDE87040FEF72F
:1050F0002FBB0448FDF784F8DCE7FCF729F900BF73
:105100000008002080E1000800000000000000000E
:10511000F0B5056A2D4CD5F854222168136883B088
:1051200001911978042905D0019A23689A424AD13D
:1051300003B0F0BD297A0229F6D1517958890122AC
:105140008A400242F0D103EB8103DB685F8AFDF7FE
:10515000C7F9D5E906236E699B1A9E1BB742E3D8AF
:10516000FDF70EF9FEF7CCF8194B1A689A4207D0F2
:10517000996993688A689A4202D21648FDF740F806
:10518000002383F31188D5F85422B6FBF7F3517945
:10519000106807FB03F305F10C0200F021FC20234B
:1051A00083F31188FEF794F8FDF7CAF80199226895
:1051B000D5F85432914206D15979186803B0BDE848
:1051C000F04000F04DBCFCF7C3F800BF0008002021
:1051D000A8150020B0E10008000000000000000059
:1051E00030B5084C83B025680195019D2468A5421F
:1051F00005D10C3003B0BDE83040FEF799BBFCF799
:10520000A7F800BF00080020000000000000000018
:1052100010B5094B82B01C680194019C1B689C422C
:1052200007D10C304FF0FF3302B0BDE81040FEF75D
:105230007FBBFCF78DF800BF0008002000000000D5
:1052400030B5084C83B025680195019D2468A542BE
:1052500005D1303003B0BDE83040FEF7C1BCFCF7EB
:1052600077F800BF000800200000000000000000E8
:1052700010B5094B82B01C680194019C1B689C42CC
:1052800007D130304FF0FF3302B0BDE81040FEF7D9
:10529000A7BCFCF75DF800BF00080020000000007C
:1052A00000B5084B83B01A680192019A1B689A42B4
:1052B00005D10C3003B05DF804EBFEF7E9BAFCF75A
:1052C00047F800BF000800200000000000000000B8
:1052D00000B5094B83B01A680192019A1B689A4283
:1052E00007D10C304FF0FF3103B05DF804EBFEF74F
:1052F000CFBAFCF72DF800BF000800200000000026
:1053000010B5084B82B01C680194019C1B689C423C
:1053100005D1303002B0BDE81040FEF7C9BBFCF744
:1053200017F800BF00080020000000000000000087
:1053300000B5094B83B01A680192019A1B689A4222
:1053400007D130304FF0FF3203B05DF804EBFEF7C9
:10535000AFBBFBF7FDFF00BF00080020000000000E
:1053600070B5056A294CD5F854222168136882B0BB
:1053700001911978042905D0019A23689A4242D1F3
:1053800002B070BD297A0229F6D111791A89012358
:105390008B401342F0D1FDF7A3F8D5E90F23AE6B94
:1053A0009B1A9E1BE8D0FCF7EBFFFDF7A9FF184BFB
:1053B0001A689A4207D0996993688A689A4202D219
:1053C0001448FCF71DFF002383F31188D5F85422FD
:1053D00033461179106805F1300200F021FB2023DB
:1053E00083F31188FDF774FFFCF7AAFF0199226887
:1053F000D5F85432914206D11979186802B0BDE847
:10540000704000F05DBBFBF7A3FF00BF0008002069
:10541000A8150020B0E10008000000000000000016
:1054200000B5064B83B01A680192019A1B689A4234
:1054300002D103B05DF804FBFBF78AFF00080020EF
:1054400030B50346124D13492A6843F8041B85B052
:105450000121044600900392436001720E4B00F15B
:1054600054014FF480720C30FEF7A2F90B4B0094FC
:105470004FF4807204F5AA7104F13000FEF7D8FAF7
:10548000039A2B689A4201D105B030BDFBF760FF4B
:1054900000080020D0E10008115100086153000805
:1054A000F0B5244F0E683B6883B00D460193044667
:1054B000002838D0202383F31188FDF709FFFCF77B
:1054C0003FFF237A013B012B02D91B48FCF798FED2
:1054D0002B7906EB83039C616B79093346F82340F3
:1054E000AB7913B106EB8306B46102232372C4F8CF
:1054F0005452FCF745FFFDF703FF104B1A689A4220
:1055000004D0996993688A689A4208D3002383F388
:105510001188019A3B689A4209D103B0F0BD08484E
:10552000FCF76EFEF2E70448FCF76AFEC2E7FBF701
:105530000FFF00BF00080020C0E10008A8150020F0
:10554000B0E10008000000000000000000000000C2
:10555000F0B5174ED0F854223368156883B000F1C7
:105560000C07044638460193FEF742F904F1300077
:10557000FEF77EFA201D0121FEF7EAF8D4F8543236
:10558000597905EB81033A46DB6828465B8A00F0CF
:1055900027FA019A33689A4208D1D4F854325979DB
:1055A000284603B0BDE8F04000F05ABAFBF7D0FE41
:1055B00000080020000000000000000000000000C3
:1055C00000B590F84430144A83B003F060031168CA
:1055D0000191202B07D0002001991368994218D11E
:1055E00003B05DF804FB90F84530202BF3D3212B5A
:1055F00007D80A4B836307210023C0E90F1301205A
:10560000EAE7222BE7D10023C0E90E33036401202F
:10561000E2E7FBF79DFE00BF00080020180800200D
:105620002DE9F04300EB81032A4E9C69336883B077
:105630000193002C3DD0074688464FF0200989F39E
:105640001188FDF775FEFCF7BBFE201D0821FEF753
:105650007FF8FCF745FFD4E90F23A56B9B1A5D1B70
:105660002ED107EB8803DB685A695568D5B11B8AD0
:10567000013B1D4016D1FCF7C3FEFDF771FE85F31B
:1056800011882B4604F130024146384600F0C8F933
:1056900089F31188FDF74CFEFCF792FE414638462F
:1056A00000F00EFAFCF7ACFEFDF75AFE002383F380
:1056B0001188019A33689A420AD103B0BDE8F08399
:1056C000FCF79EFEFDF74CFE002383F31188D8E71C
:1056D000FBF73EFE00080020000000000000000074
:1056E0002DE9F04701F10903274E50F823403368B4
:1056F00082B0019314B3884607464FF0200989F31E
:105700001188FDF715FEFCF75BFE0421201DFEF756
:105710001FF807EB8803DB68B3F812A0FCF7E0FE84
:10572000D4E906126569521A551BAA450DD9FCF732
:1057300067FEFDF715FE002383F31188019A336895
:105740009A421ED102B0BDE8F087FCF759FEFDF782
:1057500007FE002383F31188B5FBFAF304F10C0272
:105760000AFB03F34146384600F03AF989F3118801
:10577000FDF7DEFDFCF724FE4146384600F070F9E7
:10578000D5E7FBF7E5FD00BF0008002000000000A2
:1057900000B5064B83B01A680192019A1B689A42C1
:1057A00002D103B05DF804FBFBF7D2FD0008002036
:1057B00000B5074B83B01A680192019A1B689A42A0
:1057C00004D103B05DF804EB03F0DABCFBF7C0FDD5
:1057D00000080020000000000000000000000000A1
:1057E00000B50A4B83B01A68019201220270019938
:1057F0001A6800239142C0E9013305D10C3003B08F
:105800005DF804EBFDF7C4BDFBF7A2FD0008002026
:1058100000B5074B83B01A680192019A1B689A423F
:1058200004D103B05DF804EB04F01AB8FBF790FD67
:105830000008002000000000000000000000000040
:1058400000B5074B83B01A680192019A1B689A420F
:1058500004D103B05DF804EB02F032BFFBF778FD32
:105860000008002000000000000000000000000010
:1058700000B50C4B83B01A680192012202700199A5
:105880001A6800239142C36183620362C362436268
:105890000363C0E9013302D103B05DF804FBFBF7F9
:1058A00057FD00BF000800200000000000000000BD
:1058B00070B5204D82B02B6801930E46044698B314
:1058C00091B3202383F31188FDF702FDFCF738FD27
:1058D0002378013B012B02D91748FCF791FC0023E8
:1058E0002046C4E90333C4E90533666002F018FFBB
:1058F00002232370FCF744FDFDF702FD0F4B1A68ED
:105900009A4204D0996993688A689A4208D300231E
:1059100083F31188019A2B689A4209D102B070BDB5
:105920000748FCF76DFCF2E70348FCF769FCC8E7A1
:10593000FBF70EFD00080020F0E10008A81500208C
:1059400080E20008000000000000000000000000ED
:105950002DE9F0411D4E82B00446336801930F4695
:105960001546FCF7BDFD5CB355B32378042B02D07C
:105970001748FCF745FC04EB8708D8F80C3013B146
:105980001348FCF73DFC6B692BB100221A605A608A
:105990009A60DA601A61AB692BB100221A605A6012
:1059A0009A60DA601A61019A3368C8F80C509A421A
:1059B0000AD13946204602B0BDE8F04102F0D0BF1E
:1059C0000348FCF71DFCD0E7FBF7C2FC00080020F1
:1059D00000E20008000000000000000000000000DD
:1059E00070B500EB81040C4DE4682E68A46982B0A8
:1059F000E260019601262670019E2A686360964245
:105A00004FF00003A36004D102B0BDE8704003F082
:105A1000CFB8FBF79DFC00BF00080020000000008D
:105A200070B500EB81040C4DE4682E68646982B0A7
:105A3000E260019601262670019E2A686360964204
:105A40004FF00003A36004D102B0BDE8704003F042
:105A50004FB9FBF77DFC00BF0008002000000000EC
:105A6000F0B5124D83B004462B6801930E46FCF747
:105A700037FDA4B1012000FA06F362899BB212EA55
:105A8000030706D1134320466381314603F088FAA9
:105A90003846019A2B689A4205D103B0F0BD0448FC
:105AA000FCF7AEFBE6E7FBF753FC00BF0008002065
:105AB00020E20008000000000000000000000000DC
:105AC000F0B5124D83B004462B6801930E46FCF7E7
:105AD00007FDA4B1012000FA06F322899BB212EA65
