:020000040800F2
:1000000000040020C101000871430008714300088A
:10001000A1340008714300087143000871430008CF
:10002000714300087143000871430008916500089E
:10003000714300087143000871430008A1CE000815
:1000400071430008D19D0008619F0008B19F00081E
:100050007143000871430008119B0008619B000870
:10006000B19B0008019C0008519C0008618D0008AC
:10007000B18D0008018E0008518E0008A18E000885
:10008000F18E0008418F00085198000851A1000826
:10009000C1A1000871A2000821A30008A19C0008CA
:1000A000714300087143000801C90008714300084A
:1000B00061CA0008A1CA0008E1CA0008E1B000084E
:1000C00021B2000871430008714300087143000821
:1000D00071430008714300087143000861CF0008B4
:1000E000319D0008219E0008719E000841C900084A
:1000F000714300087143000871430008918F0008A4
:1001000071430008B1A4000821CB00087143000826
:100110007143000871430008C1C80008714300081A
:10012000E18F00083190000881900008D19000080C
:100130002191000871430008C19E00087143000826
:1001400071430008714300087143000801C50008AD
:1001500071910008C19100081192000871430008D4
:10016000714300087143000871430008714300089F
:10017000119F000871430008212100087143000805
:10018000714300087143000871430008714300087F
:10019000714300087143000871430008714300086F
:1001A000714300087143000871430008714300085F
:1001B000714300087143000871430008714300084F
:1001C00072B62E4880F3098840F20000CCF200009D
:1001D0004EF63471CEF20001086040F20000C0F229
:1001E000F0004EF68851CEF2000108604FF000009A
:1001F000E1EE100A4EF63C71CEF2000108600620D6
:1002000080F31488BFF36F8F0CF09AFF4FF05530D6
:100210001B491C4A91423CBF41F8040BFAE71A49BA
:10022000164A91423CBF41F8040BFAE71749184AB5
:10023000184B9A423EBF51F8040B42F8040BF8E702
:1002400000201549154A91423CBF41F8040BFAE7DA
:1002500004F076F8124C134DAC4203DA54F8041B48
:100260008847F9E701F024F80F4C104DAC4203DA4F
:1002700054F8041B8847F9E704F072B8000800201E
:10028000000000200004002000040020F8240108E1
:10029000000800201C12002020120020B83A002084
:1002A000C0010008C0010008C0010008C00100082A
:1002B0002DE9F04F2DED108AC1F80CD0D0F80CD0FC
:1002C000BDEC108ABDE8F08F04F092F905F0C8F992
:1002D000002383F311882846A047002004F060FF24
:1002E00005F0A6F904F064F904F082FD04F080F949
:1002F00005F0B6F900DFFEE7000000000000000096
:1003000081F0004102E000BF83F0004330B54FEAC6
:1003100041044FEA430594EA050F08BF90EA020F33
:100320001FBF54EA000C55EA020C7FEA645C7FEAC6
:10033000655C00F0E2804FEA5454D4EB5555B8BFE9
:100340006D420CDD2C4480EA020281EA030382EA5A
:10035000000083EA010180EA020281EA0303362DEC
:1003600088BF30BD11F0004F4FEA01314FF4801CBF
:100370004CEA113102D0404261EB410113F0004FD1
:100380004FEA03334CEA133302D0524263EB430388
:1003900094EA050F00F0A780A4F10104D5F1200E26
:1003A0000DDB02FA0EFC22FA05F2801841F1000181
:1003B00003FA0EF2801843FA05F359410EE0A5F155
:1003C00020050EF1200E012A03FA0EFC28BF4CF086
:1003D000020C43FA05F3C01851EBE37101F000453C
:1003E00007D54FF0000EDCF1000C7EEB00006EEB49
:1003F0000101B1F5801F1BD3B1F5001F0CD34908D3
:100400005FEA30004FEA3C0C04F101044FEA445229
:1004100012F5800F80F09A80BCF1004F08BF5FEAB0
:10042000500C50F1000041EB045141EA050130BD90
:100430005FEA4C0C404141EB010111F4801FA4F133
:100440000104E9D191F0000F04BF01460020B1FA88
:1004500081F308BF2033A3F10B03B3F120020CDAC0
:100460000C3208DD02F1140CC2F10C0201FA0CF09E
:1004700021FA02F10CE002F11402D8BFC2F1200C03
:1004800001FA02F120FA0CFCDCBF41EA0C019040B9
:10049000E41AA2BF01EB0451294330BD6FEA040402
:1004A0001F3C1CDA0C340EDC04F11404C4F12002ED
:1004B00020FA04F001FA02F340EA030021FA04F3FF
:1004C00045EA030130BDC4F10C04C4F1200220FA56
:1004D00002F001FA04F340EA0300294630BD21FA94
:1004E00004F0294630BD94F0000F83F4801306BF5A
:1004F00081F480110134013D4EE77FEA645C18BF4E
:100500007FEA655C29D094EA050F08BF90EA020FE4
:1005100005D054EA000C04BF1946104630BD91EADC
:10052000030F1EBF0021002030BD5FEA545C05D1DF
:100530004000494128BF41F0004130BD14F580041E
:100540003CBF01F5801130BD01F0004545F0FE4192
:1005500041F470014FF0000030BD7FEA645C1ABFC7
:10056000194610467FEA655C1CBF0B46024650EAFE
:10057000013406BF52EA033591EA030F41F400212A
:1005800030BD00BF90F0000F04BF0021704730B5B0
:100590004FF4806404F132044FF000054FF0000185
:1005A00050E700BF90F0000F04BF0021704730B546
:1005B0004FF4806404F1320410F0004548BF40421B
:1005C0004FF000013EE700BF42004FEAE2014FEA70
:1005D00031014FEA02701FBF12F07F4393F07F4F4B
:1005E00081F06051704732F07F4208BF704793F04E
:1005F0007F4F04BF41F40021704730B54FF4607461
:1006000001F0004521F000411CE700BF50EA010263
:1006100008BF704730B54FF000050AE050EA01020C
:1006200008BF704730B511F0004502D5404261EB7C
:1006300041014FF4806404F132045FEA915C3FF4BD
:10064000D8AE4FF003025FEADC0C18BF03325FEA5A
:10065000DC0C18BF033202EBDC02C2F1200300FA0B
:1006600003FC20FA02F001FA03FE40EA0E0021FA30
:1006700002F11444BDE600BF0000000000000000CD
:1006800070B54FF0FF0C4CF4E06C1CEA11541DBF28
:100690001CEA135594EA0C0F95EA0C0F00F0DEF8F3
:1006A0002C4481EA030621EA4C5123EA4C5350EAD8
:1006B000013518BF52EA033541F4801143F4801329
:1006C00038D0A0FB02CE4FF00005E1FB02E506F0BA
:1006D0000042E0FB03E54FF00006E1FB03569CF00F
:1006E000000F18BF4EF0010EA4F1FF04B6F5007F15
:1006F00064F5407404D25FEA4E0E6D4146EB060687
:1007000042EAC62141EA55514FEAC52040EA5E500F
:100710004FEACE2EB4F1FD0C88BFBCF5E06F1ED8B9
:10072000BEF1004F08BF5FEA500E50F1000041EBF0
:10073000045170BD06F0004646EA010140EA02009D
:1007400081EA0301B4EB5C04C2BFD4EB0C0541EABF
:10075000045170BD41F480114FF0000E013C00F3D4
:10076000AB8014F1360FDEBF002001F0004170BDF8
:10077000C4F10004203C35DA0C341BDC04F1140411
:10078000C4F1200500FA05F320FA04F001FA05F29D
:1007900040EA020001F0004221F0004110EBD3706A
:1007A00021FA04F642EB06015EEA430E08BF20EA96
:1007B000D37070BDC4F10C04C4F1200500FA04F339
:1007C00020FA05F001FA04F240EA020001F00041CB
:1007D00010EBD37041F100015EEA430E08BF20EA3E
:1007E000D37070BDC4F1200500FA05F24EEA020E86
:1007F00020FA04F301FA05F243EA020321FA04F0B5
:1008000001F0004121FA04F220EA020000EBD3706B
:100810005EEA430E08BF20EAD37070BD94F0000F6B
:100820000FD101F00046400041EB010111F4801F9F
:1008300008BF013CF7D041EA060195F0000F18BF50
:10084000704703F00046520043EB030313F4801F8C
:1008500008BF013DF7D043EA0603704794EA0C0F46
:100860000CEA135518BF95EA0C0F0CD050EA41065C
:1008700018BF52EA4306D1D181EA030101F00041D9
:100880004FF0000070BD50EA410606BF1046194601
:1008900052EA430619D094EA0C0F02D150EA01360D
:1008A00013D195EA0C0F05D152EA03361CBF10464E
:1008B00019460AD181EA030101F0004141F0FE41ED
:1008C00041F470014FF0000070BD41F0FE4141F471
:1008D000780170BD70B54FF0FF0C4CF4E06C1CEA71
:1008E00011541DBF1CEA135594EA0C0F95EA0C0F26
:1008F00000F0A7F8A4EB050481EA030E52EA0335E1
:100900004FEA013100F088804FEA03334FF0805501
:1009100045EA131343EA12634FEA022245EA11152E
:1009200045EA10654FEA00260EF000419D4208BFDF
:10093000964244F1FD0404F5407402D25B084FEA8C
:100940003202B61A65EB03055B084FEA32024FF438
:1009500080104FF4002CB6EB020E75EB030E22BF95
:10096000B61A754640EA0C005B084FEA3202B6EB55
:10097000020E75EB030E22BFB61A754640EA5C0004
:100980005B084FEA3202B6EB020E75EB030E22BF94
:10099000B61A754640EA9C005B084FEA3202B6EB95
:1009A000020E75EB030E22BFB61A754640EADC0054
:1009B00055EA060E18D04FEA051545EA16754FEAB6
:1009C00006164FEAC30343EA52734FEAC2025FEAD4
:1009D0001C1CC0D111F4801F0BD141EA00014FF063
:1009E00000004FF0004CB6E711F4801F04BF014334
:1009F0000020B4F1FD0C88BFBCF5E06F3FF6AFAE50
:100A0000B5EB030C04BFB6EB020C5FEA500C50F1DF
:100A1000000041EB045170BD0EF0004E4EEA113162
:100A200014EB5C04C2BFD4EB0C0541EA045170BD69
:100A300041F480114FF0000E013C90E645EA060EAD
:100A40008DE60CEA135594EA0C0F08BF95EA0C0FDB
:100A50003FF43BAF94EA0C0F0AD150EA01347FF423
:100A600034AF95EA0C0F7FF425AF104619462CE7FA
:100A700095EA0C0F06D152EA03353FF4FDAE10465D
:100A8000194622E750EA410618BF52EA43067FF4AE
:100A9000C5AE50EA41047FF40DAF52EA43057FF43E
:100AA000EBAE12E7000000000000000000000000B4
:100AB0004FF0FF3C06E000BF4FF0010C02E000BF2A
:100AC0004FF0010C4DF804CD4FEA410C7FEA6C5C0D
:100AD0004FEA430C18BF7FEA6C5C1BD001B050EAB0
:100AE000410C0CBF52EA430C91EA030F02BF90EA9B
:100AF000020F0020704710F1000F91EA030F58BF5A
:100B0000994208BF90422CBFD8176FEAE37040F0BB
:100B1000010070474FEA410C7FEA6C5C02D150EA59
:100B2000013C07D14FEA430C7FEA6C5CD6D152EA14
:100B3000033CD3D05DF8040B704700BF84461046D9
:100B400062468C461946634600E000BF01B5FFF7D8
:100B5000B7FF002848BF10F1000F01BD4DF808EDA8
:100B6000FFF7F4FF0CBF012000205DF808FB00BF79
:100B70004DF808EDFFF7EAFF34BF012000205DF8D3
:100B800008FB00BF4DF808EDFFF7E0FF94BF012020
:100B900000205DF808FB00BF4DF808EDFFF7CEFF21
:100BA00094BF012000205DF808FB00BF4DF808ED60
:100BB000FFF7C4FF34BF012000205DF808FB00BF31
:100BC0004FEA410212F5001215D211D56FF4787375
:100BD000B3EB625212D94FEAC12343F0004343EA18
:100BE000505311F0004F23FA02F018BF40427047F3
:100BF0004FF00000704750EA013005D111F000407D
:100C000008BF6FF0004070474FF00000704700BF12
:100C10004FEA4102B2F1E04324BFB3F5001CDCF11E
:100C2000FE5C0DD901F0004C4FEAC0024CEA507056
:100C3000B2F1004F40EB830008BF20F00100704785
:100C400011F0804F21D113F13872BCBF01F0004088
:100C5000704741F480114FEA5252C2F11802C2F1BA
:100C6000200C10FA0CF320FA02F018BF40F001003B
:100C70004FEAC1234FEAD32303FA0CFC40EA0C00ED
:100C800023FA02F34FEA4303CCE77FEA625307D12A
:100C900050EA01331EBF4FF0FE4040F44000704761
:100CA00001F0004040F0FE4040F40000704700BFFB
:100CB00053B94AB9002908BF00281CBF4FF0FF31C3
:100CC0004FF0FF3000F074B9ADF1080C6DE904CEBF
:100CD00000F006F8DDF804E0DDE9022304B0704717
:100CE0002DE9F047089E04468846002B4BD18A42E6
:100CF000154667D9B2FA82F24AB1C2F1200701FA69
:100D000002F320FA07F7954047EA030894404FEAB8
:100D1000154E230CB8FBFEF71FFA85FC0EFB178857
:100D200043EA084307FB0CF1994209D9EB1807F194
:100D3000FF3080F01B81994240F21881023F2B4422
:100D40005B1AA4B2B3FBFEF00EFB103344EA03447B
:100D500000FB0CFCA44509D92C1900F1FF3380F0ED
:100D60000781A44540F2048102382C4440EA074040
:100D7000A4EB0C0400271EB1D4400023C6E90043B5
:100D80003946BDE8F0878B4209D9002E00F0EB8090
:100D90000027C6E9000138463946BDE8F087B3FAB6
:100DA00083F7002F47D18B4202D3824200F2FA80B0
:100DB000841A61EB030301209846002EE0D0C6E9B7
:100DC0000048DDE702B9FFDEB2FA82F2002A40F005
:100DD0008F80491B4FEA154E1FFA85F80127B1FB9A
:100DE000FEFC230C0EFB1C1143EA014308FB0CF133
:100DF000994207D9EB180CF1FF3002D2994200F268
:100E0000CD808446591AA3B2B1FBFEF00EFB10143C
:100E100043EA044408FB00F8A04507D92C1900F167
:100E2000FF3302D2A04500F2B6801846A4EB0804B6
:100E300040EA0C409FE7C7F1200CBB4022FA0CFEB1
:100E40004EEA030E01FA07F420FA0CF521FA0CF32E
:100E50004FEA1E482543B3FBF8F92C0C08FB193365
:100E60001FFA8EFA44EA034309FB0AF49C4202FA91
:100E700007F200FA07F10BD91EEB030309F1FF306B
:100E800080F087809C4240F28480A9F1020973447B
:100E90001B1BADB2B3FBF8F008FB103345EA03446B
:100EA00000FB0AFAA24508D91EEB040400F1FF3347
:100EB0006BD2A24569D90238744440EA0940A0FBCC
:100EC0000289A4EB0A044C45C2464B4654D351D088
:100ED000002E69D0B1EB0A0564EB030404FA0CFCA4
:100EE000FD40FC404CEA0505C6E90054002747E7F1
:100EF000C2F1200320FA03F7954001FA02F021FA2B
:100F000003F34FEA154E3843010CB3FBFEF71FFA0B
:100F100085F80EFB173341EA034107FB08F38B42C8
:100F200004FA02F407D9691807F1FF3C2FD28B426B
:100F30002DD9023F2944CB1A81B2B3FBFEF00EFB40
:100F4000103341EA034100FB08F38B4207D96918CB
:100F500000F1FF3C17D28B4215D902382944C91A37
:100F600040EA07473BE73746304609E70746E7E6EA
:100F70001846FBE64145ABD2B8EB020A69EB0E021C
:100F800001381346A4E76046E9E7184695E7674647
:100F9000D1E781467CE702382C4447E7ACF1020CEC
:100FA0002B442FE7384608E73746E9E60000000003
:100FB000704700BF000000000000000000000000BB
:100FC000844641EA000313F003036DD1403A41D354
:100FD00051F8043B40F8043B51F8043B40F8043B13
:100FE00051F8043B40F8043B51F8043B40F8043B03
:100FF00051F8043B40F8043B51F8043B40F8043BF3
:1010000051F8043B40F8043B51F8043B40F8043BE2
:1010100051F8043B40F8043B51F8043B40F8043BD2
:1010200051F8043B40F8043B51F8043B40F8043BC2
:1010300051F8043B40F8043B51F8043B40F8043BB2
:1010400051F8043B40F8043B51F8043B40F8043BA2
:10105000403ABDD2303211D351F8043B40F8043B42
:1010600051F8043B40F8043B51F8043B40F8043B82
:1010700051F8043B40F8043B103AEDD20C3205D352
:1010800051F8043B40F8043B043AF9D2043208D04A
:10109000D2071CBF11F8013B00F8013B01D30B88BC
:1010A00003806046704700BF082A13D38B078DD09A
:1010B00010F003038AD0C3F10403D21ADB071CBF6C
:1010C00011F8013B00F8013B80D331F8023B20F8D6
:1010D000023B7BE7043AD9D3013A11F8013B00F80F
:1010E000013BF9D20B7803704B7843708B78837097
:1010F0006046704700000000000000000000000093
:1011000090F800F06DE9024520F007016FF0000C47
:1011100010F0070491F820F040F049804FF00004EF
:101120006FF00700D1E9002391F840F000F10800CA
:1011300082FA4CF2A4FA8CF283FA4CF3A2FA8CF302
:101140004BBBD1E9022382FA4CF200F10800A4FA69
:101150008CF283FA4CF3A2FA8CF3E3B9D1E90423BD
:1011600082FA4CF200F10800A4FA8CF283FA4CF3F4
:10117000A2FA8CF37BB9D1E9062301F1200182FAAE
:101180004CF200F10800A4FA8CF283FA4CF3A2FAB4
:101190008CF3002BC6D0002A04BF04301A4612BAC2
:1011A000B2FA82F2FDE8024500EBD2007047D1E9C5
:1011B000002304F00305C4F100004FEAC50514F054
:1011C000040F91F840F00CFA05F562EA05021CBF25
:1011D00063EA050362464FF00004A9E7000000003F
:1011E00001F0FF01102A2BDB10F0070F08D010F8D8
:1011F000013B013A8B422DD010F0070F42B3F6D1DC
:10120000F0B441EA012141EA014122F007047FF0F4
:1012100000070023F0E80256083C85EA010586EA4B
:10122000010685FA47F5A3FA87F586FA47F6A5FA87
:1012300087F68EB9EED1F0BC01F0FF0102F0070293
:1012400032B110F8013B013A83EA010313B1F8D13E
:101250000020704701387047002D06BF354603381F
:10126000073815F0010F07D1013015F4807F02BF58
:10127000013015F4C03F0130F0BC0138704700BFA9
:101280004FEA410C7FEA6C5C02D150EA013C0AD182
:101290004FEA430C7FEA6C5C02D152EA033C02D174
:1012A0004FF0000070474FF0010070470000000051
:1012B00000B5124B83B01B68019305F0C9F903F028
:1012C0006FF802F095F802F0ABFE01F049FA01F078
:1012D0001FFE02F0C5FB0A4A0A490B4802F080FFD4
:1012E00002F0AEFD02F0FCFD00F072FB00F090FE9B
:1012F0004FF47A7003F094FEFAE700BF0008002074
:10130000040800200C08002020120020000000002B
:1013100000B5084B83B01A680192019A1B689A4283
:1013200005D1054803B05DF804EB03F0A1B8FFF761
:10133000EFFF00BF0008002050110108000000006E
:1013400070B52DED028B284E82B03368019308EE04
:10135000100A002002F054FB002002F069FB234831
:1013600002F0EEFA4FF4A57002F002FB02F018FB57
:10137000054602F02DFB9FED1E6ADFED1E6ADFEDD4
:101380001E7AB8EE488A88EE067AB5EE006A27EE35
:10139000267AF2EE0A6A27EE067A27EE277AC7EE59
:1013A000267AFDEEE77A17EE904AA5420BDAA042C4
:1013B00002DB08E0844206DD02F0F2FA054602F0A4
:1013C00007FBAC42F6DC002002F0BAFA019A33685F
:1013D0009A4207D1002002B0BDEC028BBDE87040FC
:1013E00002F0C6BAFFF794FF00080020B6FEFFFF28
:1013F0000000B442CD75864100007A440000000030
:1014000070B52DED028B284E82B03368019308EE43
:10141000100A002002F0F4FA002002F009FB4FF459
:10142000A57002F08DFA214802F0A2FA02F0B8FA93
:10143000054602F0CDFA9FED1E6ADFED1E6ADFED74
:101440001E7AB8EE488A88EE067AB5EE006A27EE74
:10145000267AF2EE0A6A27EE067A27EE277AC7EE98
:10146000267AFDEEE77A17EE904AA5420BDAA04203
:1014700002DB08E0844206DD02F092FA054602F043
:10148000A7FAAC42F6DC002002F05AFA019A33685F
:101490009A4207D1002002B0BDEC028BBDE870403B
:1014A00002F066BAFFF734FF00080020B6FEFFFF27
:1014B0000000B442CD75864100007A44000000006F
:1014C00000B50A4B83B01A680192019A1B6820B9D3
:1014D0009A4209D103B05DF804FB9A4204D103B0EB
:1014E0005DF804EBFFF72CBFFFF712FF00080020A8
:1014F00000B50A4B83B01A680192019A1B6820B9A3
:101500009A4209D103B05DF804FB9A4204D103B0BA
:101510005DF804EBFFF774BFFFF7FAFE0008002048
:1015200010B51F4C82B023680193032831D8DFE83F
:1015300000F023160C02019A23689A4227D15A2000
:1015400002B0BDE81040FFF75BBF019A23689A42E2
:101550001DD15A2002B0BDE81040FFF7F1BE11487E
:1015600002F0EEF9019A23689A4210D10D4802B0B8
:10157000BDE8104002F0FCB94FF4A57002F0E0F9AC
:10158000019A23689A4208BF4FF4A570EFD0FFF785
:10159000BFFE019A23689A42F9D102B010BD00BF84
:1015A00000080020B6FEFFFF000000000000000061
:1015B00030B52B4D83B0441A2B6801932046FEF7BB
:1015C000F1FF21F00043194623A3D3E90023FFF7DD
:1015D000CFFAA8BB234A9FED247A1368234407EE71
:1015E000903AF8EEE77AF4EEC77AF1EE10FA1ADDE7
:1015F0004FF49D739FED1D7A13604FF4487000FB0C
:1016000004F307EE903AF8EEE77A77EE877AF5EE94
:10161000C07AF1EE10FA12DD0020019A2B689A428E
:1016200018D103B030BD9FED127AF4EEC77AF1EE17
:1016300010FA07D50F4B9FED107A1360DDE707D442
:101640000220EAE7B0EE0C7A136027EE877AD4E73F
:101650000120E2E7FFF75CFE0000000000C06240EE
:10166000000800204412002092249D430060894419
:1016700092249DC3C6FEFFFF006089C400000000E5
:1016800030B5184C83B023680193022002F048FC67
:101690004FF47A71FFF78CFF40B9134B1B78A3B955
:1016A000019A23689A420ED103B030BD0128F7D1C8
:1016B0000D4B1B78002BF3D00220FFF719FF019A86
:1016C00023689A4208D0FFF723FE0220FFF7F8FEB6
:1016D000019A23689A42F6D1002003B0BDE8304059
:1016E000FFF71EBF000800202008002000000000B7
:1016F0002DE9F04F854D864F2B6885B0022003936E
:1017000002F00EFC8046002002F00AFC8146052013
:1017100002F006FC3B788246002B3DD1B8F1770FF2
:101720007C4C7D4E00F38A80B9F1FA0F00F3E38020
:1017300040F0B280794900220023C1E9002300274C
:10174000B420C6E900232770FFF7D2FE3846FFF722
:10175000E7FE202383F31188714E03F069FF02F046
:1017600027FFB76A02F044FF03F07AFF3368B34201
:1017700007D0B2699B6892689A4202D2694802F027
:1017800077FE002383F3118807F23B51384603F0BC
:1017900087FC0123237078E05F4EDFF880B15D4C59
:1017A000D6E90023DBE900015B084FEA32028B42F5
:1017B0004FF0000C08BF824284F800C05AD30022C8
:1017C00000235A20CBE90023C6E9002387F800C094
:1017D000CDF804C0FFF78CFEDDF804C06046FFF7CB
:1017E0009FFE202383F31188DFF834B103F020FF3C
:1017F00002F0DEFEDBF82830019302F0F9FE03F080
:101800002FFFDBF80020019B5A4509D0DBF81810A8
:1018100092688968914203D2424802F029FE019BF6
:10182000002282F3118803F23B51184603F038FC82
:101830000123B8F1770F23707FF776AFB8F1780FF7
:101840003FF478AFB9F1F90F3ADDB9F1FA0F3FF48F
:1018500071AFBAF1590F3FF76DAF30490022002345
:1018600000275A20C1E90023C6E900232770FFF7AB
:1018700027FE6BE70120FFF753FEDBE9002312F19F
:10188000FF3043F1FF31CBE90001039A2B689A4204
:1018900039D105B0BDE8F08F204FD7E90023D6E954
:1018A000000112F1010A43F1000B10F1010841F1AE
:1018B00000090023C7E900ABC6E900892370E4E70B
:1018C0004FF00108002084F80080FFF729FED6E9D8
:1018D0000023002B08BF0B2AD7D3039A2B6887F865
:1018E000008000219A4221700DD1404605B0BDE82C
:1018F000F04FFFF715BE0949002200230027C1E978
:1019000000235A201DE7FFF703FD00BF0008002059
:101910004012002020080020381200203012002041
:10192000D82B0020801101080000000000000000FA
:101930002DE9F047204C214BA26921491B68DFF8B3
:101940008890204EDFF884A0916182B04FF020088B
:10195000019300270DE0FFF7CBFE3368052B18BF7E
:10196000013305F1640128460CBF3760336003F092
:1019700097FB88F3118803F05BFE02F019FEA56A5D
:1019800002F036FE03F06CFE2368A34207D0A26982
:101990009B6892689A4202D2504602F069FD87F332
:1019A000118899F80030002BD5D03368052BD2D19F
:1019B000FFF766FECFE700BFD82B0020000800200D
:1019C000701101082C12002020080020801101084D
:1019D00010B50A4C0A4B22680A4884B04FF45E7175
:1019E000039200220092412203F0C2FA039A236874
:1019F0009A4201D104B010BDFFF78AFC0008002014
:101A0000311900084812002000000000000000000A
:101A10000EB410B583B005AA094C52F8041B236814
:101A20000848009201930BF0E3FB019A23689A4265
:101A300004D103B0BDE8104003B07047FFF768FC65
:101A400000080020442900200000000000000000E1
:101A500080B5244C244BA2692449916186B01B684F
:101A60000593002001F084FA202502230A22002198
:101A70000093CDE901554FF4207330201C4E1D4FCB
:101A800000F0EEFF00F0F4FE002000F029FFB04669
:101A900000F08EFE13E003F083F902F0A9FD03F0DD
:101AA000DFFD2368A34207D0A2699B6892689A422F
:101AB00002D2384602F0DCFC002383F3118800F0E8
:101AC0004FFF00F0B5FE85F3118803F0B1FD02F081
:101AD0006FFD02F03DFEB368002BDCDC404603F0F6
:101AE0007FFED8E7D82B002000080020F012010864
:101AF000240800201013010800000000000000006E
:101B00002DE9F04F9A4A9B4B92699B499161ADF246
:101B1000545D0DF14C081B68CDF84C3540464FF430
:101B2000A06200210CF00CF9944803F021FE944BC4
:101B300000221A60934B1A60934B1A60934B1A6001
:101B4000934B1A60934B1A60934B1A60934B1A6035
:101B5000934B1A60934B1A60934B1A60934B1A6025
:101B600000F0D6FE0023C25C08F80320C11808EB81
:101B70000302023349785170B3F5A06FF3D1804B63
:101B80001E68804B1196D3F800A07F4BD3F80090CD
:101B90007E4BD3F800E07E4BD3F800B07D4BD3F8FA
:101BA00000C07D4B1F687D4B1B6800937C4B1B68FE
:101BB00001937C4B1B6802937B4B1B6803937B4B0D
:101BC0001B6804930023CDE90F33CDE90D33CDE934
:101BD0000B33CDE90633CDE908330A93059340462C
:101BE00003784278D900DB0801F03801192B01EBAA
:101BF000521102F01F0202D9012401360894A1F10A
:101C00000D04062C03D801240AF1010A0994A2F15B
:101C10001104072C03D8012409F1010906940B3B98
:101C2000DBB2062B03D801240EF1010E0794A1F1BB
:101C30001004E4B20D2C03D801250BF1010B05951E
:101C4000A2F10F05052D03D801250CF1010C0A9511
:101C5000062B02D8012501370B95142C04D8009CC3
:101C60000134009401240C94042A04D8019C01340A
:101C7000019401240D94052B04D8029B0133029397
:101C800001230E931239072904D8039B01330393D0
:101C900001230F93063A122A04D8049B01330493BC
:101CA0000123109302300DF24C53834298D1059BCF
:101CB000002B40F08481089B13B1314B11961E60BC
:101CC000099B13B12F4BC3F800A0069B13B12E4BF9
:101CD000C3F80090079B13B12C4BC3F800E00A9B9C
:101CE00013B12C4BC3F800C00B9B0BB12A4B1F60E8
:101CF0000C9B13B1294B009A1A600D9B13B1284B12
:101D0000019A1A600E9B13B1264B029A1A600F9B20
:101D100013B1254B039A1A60109B13B1234B049AFD
:101D20001A60184C119A22492248174DFFF770FE8D
:101D3000226821491F48FFF76BFE2A681F491D488A
:101D4000FFF766FE114B1E491A681A48FFF760FE3E
:101D50000F4B1C491A681748FFF75AFE0D4B1A49DA
:101D60001A681448FFF754FE0B4B18491A682FE005
:101D7000D82B0020000800200013010824080020B0
:101D8000EC150020DC150020CC150020E815002003
:101D9000D8150020C8150020E0150020D01500201F
:101DA000C0150020E4150020D4150020C415002023
:101DB0009011010844290020AC110108C811010844
:101DC000E4110108001201081C1201083812010870
:101DD0007D48FFF71DFE7D4B7D491A687A48FFF765
:101DE00017FE7C4B7C491A687748FFF711FE7B4B46
:101DF0007B491A687448FFF70BFE7A4B7A491A68D8
:101E00007148FFF705FE794B79491A686E48FFF76C
:101E1000FFFD784B1B68642B05DD2368642B02DD16
:101E20002B68642B51DC744B1B68642B07DD734BF0
:101E30001B68642B03DD724B1B68642B6DDC674BE6
:101E40001B68642B08DD674B1B68642B04DD674B44
:101E50001B68642B00F389806A4B1B68642B7FF737
:101E600063AE5A4B1B68642B7FF75EAE594B1B6801
:101E7000642B7FF759AE0121002001F0C1F9202326
:101E800083F3118803F0D4FB02F092FB5E4A1546FF
:101E9000946A02F0ADFB03F0E3FB2B68AB4207D082
:101EA000AA699B6892689A4202D2584802F0E0FA06
:101EB000002383F3118804F5FA61204603F0F0F85B
:101EC0000021084601F09CF92EE6012001F0F0F90E
:101ED000202383F3118803F0ABFB02F069FB4A4A2D
:101EE0001546946A02F084FB03F0BAFB2B68AB4200
:101EF00007D0AA699B6892689A4202D2434802F0CE
:101F0000B7FA002383F3118804F5FA61204603F041
:101F1000C7F8002001F0CCF985E7012001F0E8F9CD
:101F2000202383F3118803F083FB02F041FB364A40
:101F30001546946A02F05CFB03F092FB2B68AB42FF
:101F400007D0AA699B6892689A4202D22F4802F091
:101F50008FFA002383F3118804F5FA61204603F019
:101F60009FF8002001F0C4F969E70121084601F05B
:101F700047F9202383F3118803F05AFB02F018FB82
:101F8000214A1546946A02F033FB03F069FB2B6883
:101F9000AB4207D0AA699B6892689A4202D21B485A
:101FA00002F066FA002383F3118804F5FA612046F3
:101FB00003F076F80021012001F022F94CE70F4BE5
:101FC000C3F800B077E600BF44290020D0150020F8
:101FD00054120108C015002070120108E4150020F9
:101FE0008C120108D4150020AC120108C415002081
:101FF000CC120108EC150020E8150020D8150020AF
:10200000C8150020E0150020D82B0020101301086F
:1020100030B50E4C0E4B22680E4885B00025039259
:1020200040F678114022009502F0A2FF0A4B00957D
:1020300040220A484FF4AF6102F09AFF039A2368E6
:102040009A4201D105B030BDFFF762F900080020C7
:10205000011B0008681B0020511A0008F015002021
:1020600030B5104D81682B680F4A83B001930B681F
:1020700023F001030B608168946A03E0936A1B1BE1
:10208000C72B09D8086810F00100F7D1019A2B6816
:102090009A4204D103B030BD4FF0FF30F6E7FFF7AE
:1020A00037F900BF00080020D82B002000000000F6
:1020B00030B5184D83B02B68019311F00C0F044616
:1020C0000AD00378032B13D00622636822709A6823
:1020D0001AB100212046904763685B688BB1019973
:1020E0002A68914213D1204603B0BDE8304018471A
:1020F000FFF7B6FF0622636822709A68002AE8D1CB
:10210000EBE7019A2B689A4201D103B030BDFFF78B
:10211000FFF800BF000800200000000000000000E1
:10212000F0B5284D83B02B68019303F049FA02F013
:10213000BFFA254B1E69F20715D55A69234C42F0A8
:1021400001025A612778BB1F012B2AD90522636837
:1021500022701B680BB120469847042F27D0022F0E
:1021600025D003232370B30710D5174A174C5369A2
:1021700043F0020353612378032B1DD063689B68EF
:102180000622227013B101211048984702F0B8FAD4
:10219000019A2B689A4213D103B0BDE8F04004F0D5
:1021A00017BA019A2B689A420AD103B0F0BD0223F4
:1021B0002370B307EAD5D8E72046FFF751FFDDE7E4
:1021C000FFF7A6F80008002000000550E0240020DA
:1021D00030B50B4D0B4C2B6883B02046019300F0BB
:1021E0002FF9019A2B680848084D094921619A4244
:1021F000C4E9025001D103B030BDFFF789F800BF38
:1022000000080020E02400202C1F010800000550D9
:10221000165502020000000000000000000000004F
:102220002DE9F0412F4C0578266882B0012D0196EA
:1022300006D0019A23689A4252D102B0BDE8F081DB
:10224000294DA842F5D10E4690461F46274AE86818
:102250002B460C2107F03CF8002839D1D5E9023291
:10226000126828339360EB681A68042151611B6877
:10227000C3F80C80EB681A6817611B68B6085E60CB
:102280002B694FB343F480232B61E968184A09682E
:102290000B60EB6819680B6843F001030B60536B2C
:1022A00043F0010353630B214E2006F0F1FCD5E906
:1022B0000113DA6842F00102DA60DA6842F00202E1
:1022C000DA60CA6822F4804222F001021A60B0E7A4
:1022D000084802F0CDF8C1E723F480232B61D4E74E
:1022E000FFF716F800080020E0240020B1200008C5
:1022F0000038024020130108000000000000000028
:1023000030B5184C0378226883B0022B019205D0B7
:10231000019A23689A4223D103B030BD124B9842F0
:102320000546F5D18168114A0B6823F4804323F0F8
:1023300001030B608168CB6823F00F03CB60536B04
:1023400023F0010353634E2006F0CAFC019A236870
:102350009A4205D1E86803B0BDE8304007F020B8E4
:10236000FEF7D6FF00080020E024002000380240DD
:1023700000B50F4B0278196883B0022A01910ED183
:1023800081680A6842F002020A6081680A6842F4C1
:1023900080420A6081680A6842F001020A60019A7C
:1023A0001B689A4202D103B05DF804FBFEF7B0FF50
:1023B00000080020000000000000000000000000F5
:1023C00000B50F4B0278196883B0022A01910ED133
:1023D00081680A6822F002020A6081680A6842F491
:1023E00080420A6081680A6842F001020A60019A2C
:1023F0001B689A4202D103B05DF804FBFEF788FF28
:1024000000080020000000000000000000000000A4
:1024100000B5074B83B01A680192019A1B689A4273
:1024200004D103B05DF804EBFFF7D2BEFEF770FFF6
:102430000008002000000000000000000000000074
:1024400000B5084B83B01A68019201220270019A0C
:102450001B6800219A42416002D103B05DF804FB81
:10246000FEF756FF000800200000000000000000FA
:102470002DE9F043254D83B02C680194DDF82890B8
:102480000F4616469846044618B111B1204B9A42A1
:102490002FD9204801F0ECFF202383F3118803F0AB
:1024A000C7F802F085F82378012B02D0194801F013
:1024B000DFFF4246314620464B466760FFF7B0FEDD
:1024C0000223237002F094F803F0CAF8124B1A6842
:1024D0009A4204D0996993688A689A420FD300237C
:1024E00083F31188019A2B689A420CD103B0BDE89E
:1024F000F0839307CDD1B8F1000FCDD1C9E70748DC
:1025000001F0B6FFEBE7FEF703FF00BF0008002075
:10251000FCFF030050130108D82B002040130108D2
:1025200030B51C4D83B02B680193044658B320236B
:1025300083F3118803F07CF802F03AF82378022B39
:1025400002D0154801F094FF2046FFF7D9FE012381
:10255000237002F04DF803F083F8104B1A689A428A
:1025600004D0996993688A689A4208D3002383F358
:102570001188019A2B689A4209D103B030BD0848EE
:1025800001F076FFF2E7044801F072FFCFE7FEF7B3
:10259000BFFE00BF0008002060130108D82B0020F8
:1025A00040130108000000000000000000000000CF
:1025B00030B51C4D83B02B680193044658B32023DB
:1025C00083F3118803F034F801F0F2FF2378022B33
:1025D00002D0154801F04CFF2046FFF7C9FE042346
:1025E000237002F005F803F03BF8104B1A689A428A
:1025F00004D0996993688A689A4208D3002383F3C8
:102600001188019A2B689A4209D103B030BD08485D
:1026100001F02EFFF2E7044801F02AFFCFE7FEF7B2
:1026200077FE00BF0008002070130108D82B00209F
:10263000401301080000000000000000000000003E
:1026400030B51C4D83B02B680193044658B320234A
:1026500083F3118802F0ECFF01F0AAFF2378022B2C
:1026600002D0154801F004FF2046FFF7A9FE03231E
:10267000237001F0BDFF02F0F3FF104B1A689A427D
:1026800004D0996993688A689A4208D3002383F337
:102690001188019A2B689A4209D103B030BD0848CD
:1026A00001F0E6FEF2E7044801F0E2FECFE7FEF7B4
:1026B0002FFE00BF0008002090130108D82B002037
:1026C00040130108000000000000000000000000AE
:1026D00000B5064B83B01A680192019A1B689A42B2
:1026E00002D103B05DF804FBFEF712FE00080020E3
:1026F00000B5064B83B01A680192019A1B689A4292
:1027000002D103B05DF804FBFEF702FE00080020D2
:1027100010B5104C104B226882B0019201221A7041
:10272000202383F3118802F0B3FF01F081FF0B48EF
:1027300003F0B6FA01F09CFF02F0C2FF002383F31E
:102740001188019A23689A4201D102B010BDFEF7A8
:10275000DFFD00BF00080020002500203008002019
:1027600030B50E4D0E4C2B6883B00193FFF750FE31
:10277000206808B10BF01CF84FF496400BF010F8ED
:1027800001992A682060B0FA80F35B099142C3F195
:10279000000001D103B030BDFEF7BAFD00080020F3
:1027A000F8240020000000000000000000000000ED
:1027B00030B5174D174C2B78226885B0012B03924A
:1027C00020D000F005FC144B1B78ABB9B0F5964F48
:1027D00015D8124A124B12681B6812490092024621
:1027E0001148FFF745FE01232B700020039A236850
:1027F0009A420BD105B030BDB0F5165FE9D94FF064
:10280000FF30F3E70848FFF78BFEDAE7FEF780FDBD
:10281000F524002000080020F6240020FC240020DD
:10282000F8240020A0130108E0240020000000008C
:1028300010B50B4C0B48236882B0019303F0F8F8F5
:10284000094803F0D5FA019A23689A4205D1054850
:1028500002B0BDE8104003F023B9FEF759FD00BFF8
:102860000008002038080020300800200000000088
:1028700030B5154D154C164B2268286883B001926F
:1028800001221A7008B10AF093FF4FF416500AF0B3
:1028900087FF286098B10F4D286808B10AF088FFBB
:1028A0004FF416500AF07CFFB0FA80F35B09286001
:1028B0005842019A23689A4204D103B030BD4FF0C8
:1028C000FF30F6E7FEF724FDF82400200008002082
:1028D000F6240020FC24002000000000000000007E
:1028E00000B5074B07491A68087083B00192019A36
:1028F0001B689A4202D103B05DF804FBFEF708FDA5
:1029000000080020F4240020000000000000000067
:1029100000B50D4A0D4B1278196883B0019142B190
:102920000B4AD26812681268120302D4094A10686E
:1029300001E0094A1068019A1B689A4202D103B06B
:102940005DF804FBFEF7E4FCF624002000080020FC
:10295000E0240020FC240020F824002000000000D7
:1029600000B50E4A0E4B1278196883B001914AB136
:10297000019A1B689A420FD10A4803B05DF804EB34
:10298000FFF75EBE019A1B689A4205D1054803B065
:102990005DF804EBFFF70CBEFEF7BAFCF424002050
:1029A00000080020E02400200000000000000000DB
:1029B00070B5274D82B02B68019306460122032192
:1029C0006E2000F0CDFB044630B1019A2B689A428C
:1029D00020463AD102B070BD32464E216E2000F042
:1029E000BFFB04460028F0D1442E07D00246B72191
:1029F0006E2000F0B5FBB8B10446E6E70122B7212E
:102A00006E2000F0ADFB0028F6D1224603216E2097
:102A100000F0A6FB0028EFD1032211216E2000F068
:102A20009FFB78B10446D0E7224603216E2000F0D8
:102A300097FB0028E0D10A2211216E2000F090FBC4
:102A40000028D9D1034B1E71BFE7FEF761FC00BF20
:102A50000008002004250020000000000000000005
:102A60002DE9F04F8FB0DFF80084DDF860C0D8F8B2
:102A700000400D940CF1FF355C1EB3F5207F9DF8EE
:102A800064909DF868B00C44154400F21282BCF5C5
:102A9000F07F00F20E82B1F5207F0E4600F2128226
:102AA000B2F5F07F174600F21082A14280F0048256
:102AB000B4F5207F00F20082AA4280F00082B5F5D2
:102AC000F07F00F2FC81B9F1400F824600F0B08146
:102AD000B9F1800F23D0B9F1200F00F09C810023C1
:102AE000CDE90033BBF1400F2FD0BBF1800F00F0D8
:102AF000CB81BBF1200F00F0B9810023CDE9023377
:102B0000002203216E2000F02BFBA0B30D9AD8F811
:102B100000309A4240F0E2810FB0BDE8F08F9A0792
:102B200040F0D681CC4A8C085900661CA2FB0101FA
:102B3000A2FB030204EB930406EBD2030093BBF168
:102B4000400F06EBD1030193CFD11CF0010F40F0F1
:102B5000C281C14B7D084FEA4C026F1CA3FB0212DD
:102B6000A3FB0C1307EB9303029307EB920305EB14
:102B70005C050393C4E702465B216E2000F0F0FA87
:102B80000028C3D15046FFF713FF0028BED10246EC
:102B900003216E2000F0E4FA0028B7D1C6F3072322
:102BA0001A4608216E20049300F0DAFA0028ADD10D
:102BB000F3B21A4609216E20059300F0D1FA0028DD
:102BC000A4D1C7F307231A460A216E20069300F00A
:102BD000C7FA00289AD1FBB21A460B216E20079340
:102BE00000F0BEFA002891D1C4F307231A460C2145
:102BF0006E20089300F0B4FA002887D1E3B21A4699
:102C00000D216E20099300F0ABFA00287FF47EAF0F
:102C1000C5F307231A460E216E200A9300F0A0FA8E
:102C200000287FF473AFEBB21A460F216E200B938E
:102C300000F096FA00287FF469AF049A35216E20DF
:102C400000F08EFA00287FF461AF059A36216E20DD
:102C500000F086FA00287FF459AF089A37216E20D9
:102C600000F07EFA00287FF451AF099A38216E20D7
:102C700000F076FA00287FF449AF069A39216E20D9
:102C800000F06EFA00287FF441AF079A3A216E20D7
:102C900000F066FA00287FF439AF0A9A3B216E20D3
:102CA00000F05EFA00287FF431AF0B9A3C216E20D1
:102CB00000F056FA00287FF429AF009B3D21C3F3B2
:102CC00007226E2000F04CFA00287FF41FAF9DF819
:102CD00000203E216E2000F043FA00287FF416AF5A
:102CE000019B3F21C3F307226E2000F039FA002830
:102CF0007FF40CAF9DF8042040216E2000F030FAE4
:102D000000287FF403AF029B4121C3F307226E200A
:102D100000F026FA00287FF4F9AE9DF80820422141
:102D20006E2000F01DFA00287FF4F0AE039B4321D3
:102D3000C3F307226E2000F013FA00287FF4E6AEFA
:102D40009DF80C2044216E2000F00AFA00287FF440
:102D5000DDAE012203216E2000F002FA00287FF48C
:102D6000D5AE4A4693216E2000F0FAF900287FF490
:102D7000CDAE5A4694216E2000F0F2F900287FF47F
:102D8000C5AE012203216E2000F0EAF900287FF48D
:102D9000BDAE0134A31B07EE103ADFED307AB8EE7A
:102DA000477ABAF1440F77EEC77A00F09980B0EE17
:102DB000006AF2EE006AE7EE066A77EEA77AB0EEF6
:102DC000667A67EE877ADFED266A87EEA67AFCEEF2
:102DD000C77ACDED007A009B9521C3F307226E20C0
:102DE00000F0BEF900287FF491AE9DF800209621F6
:102DF0006E2000F0B5F900287FF488AE194B01353C
:102E0000EF1BA41B5F801C8083F804A083F805904F
:102E100083F806B07AE610495A00A1FB030306EBDB
:102E20005303A1FB0212009306EB5203019359E6F0
:102E3000D9074DD4084A74085900661CA2FB010149
:102E4000A2FB030204EB530406EB9203009306EB90
:102E50009103019346E600BFABAAAAAA0000224450
:102E60000000A3440425002000080020244A4FEA63
:102E70004C03A2FB0C1CA2FB032307EB530307EB41
:102E80005C02029203933BE61CF0030F23D11C4B20
:102E9000BD084FEA4C026F1CA3FB0212A3FB0C13EC
:102EA00007EBD303029307EBD20305EB9C050393D7
:102EB00026E66FF0070029E66FF0030026E66FF0C4
:102EC000040023E66FF0010020E66FF002001DE62B
:102ED0006FF005001AE66FF0060017E6FEF718FA25
:102EE000F2EE006A37EE267ADFED066A67EE277AA1
:102EF00087EEA67AFCEEC77ACDED007A6BE700BFCD
:102F0000ABAAAAAA000024440000000000000000B0
:102F100010B5114C86B02368059300F0B1F80F4945
:102F20000F4804F04DF8012200210D4804F0E0F8AC
:102F300020237822CDE901330092A023B422F0218E
:102F40000220FFF78DFD059A23689A4201D106B051
:102F500010BDFEF7DDF900BF00080020B013010826
:102F6000F039002000000000000000000000000018
:102F700030B5164C83B02368019305460023022226
:102F800003216E208DF8033000F0EAF828B1019A91
:102F900023689A4218D103B030BD0DF10302042119
:102FA0006E2000F08DF80028F1D19DF80320012D4E
:102FB0000CBF02F0FB0242F0040204216E208DF8E7
:102FC000032000F0CDF8E2E7FEF7A2F900080020A8
:102FD00010B50A4B0A4A1988146858881B7982B0C0
:102FE000442B019400FB01F00199136818BF4000C5
:102FF000994201D102B010BDFEF78AF904250020E4
:103000000008002000000000000000000000000098
:1030100070B5164E16483368154D82B005224FF430
:103020008071019307F07CFF20246B6983F4807327
:103030006B61012001F0F4FF631E13F0FF04F4D173
:103040004FF4807140F206222983094807F068FF97
:10305000019A33689A4206D10649074802B0BDE892
:10306000704003F0F5BDFEF753F900BF00080020E3
:1030700000040240F0130108583600200000000050
:1030800000B50C4A0C4B1278196883B0012A0191E3
:10309000019A1B6804D09A4209D103B05DF804FB81
:1030A0009A4204D103B05DF804EBFFF7B1BFFEF71D
:1030B0002FF900BF58360020000800200000000053
:1030C0002DE9F041224C234E88B0002335688DF85D
:1030D0001830804620468DF814101746079503F0E7
:1030E000CFFE2378012B0CD00420012306AACDE9C2
:1030F00001300092414605AA204603F051FE0546E4
:1031000068B9134803F0DCFE9DF818303B700020CE
:10311000079A33689A4218D108B0BDE8F08120467A
:1031200003F026FE23780C4A052B106004D00848D3
:1031300003F0C6FE68B2EBE7204603F0D1FD23782A
:10314000012BF4D1FFF764FFF1E7FEF7E1F800BFD0
:1031500058360020000800200C2500200000000048
:10316000F0B5214C214E89B03368079307460025FE
:1031700020468DF818108DF819208DF8145003F0A2
:103180007FFE2378012B0CD0042205AB019502921F
:1031900000933946022306AA204603F001FE0546A5
:1031A00048B9114803F08CFE0020079A33689A4210
:1031B00017D109B0F0BD204603F0DAFD23780C4AA0
:1031C000052B106004D0084803F07AFE68B2ECE7E3
:1031D000204603F085FD2378012BF4D1FFF718FF7B
:1031E000F1E7FEF795F800BF5836002000080020F0
:1031F0000C2500200000000000000000000000007E
:1032000070B5294D82B02B6801930E46032841D832
:10321000DFE800F01A120A02012922D9234A536971
:1032200083F40063536116E0012926D91F4A5369CC
:1032300083F4806353610EE0012918D91B4A536956
:1032400083F04003536106E001291CD9174A5369F2
:1032500083F020035361019A2B689A4218D102B07F
:1032600070BD124B4FF4006229B15A83F3E70F4B44
:1032700040220029F9D11A83EDE70C4B4FF480620C
:103280000029F8D0F1E7094B20220029F3D0ECE720
:10329000FEF73EF80024E0B231460134FFF7B0FFFC
:1032A000042CF8D1D7E700BF00080020000C024032
:1032B00000B50D4B83B01A68019201280BD90B4958
:1032C0004A6982F004024A61019A1B689A4209D154
:1032D00003B05DF804FB054A042108B95183F3E704
:1032E0001183F1E7FEF714F8000800200004024003
:1032F00000B50E4B83B01A68019201280BD90C4916
:103300004A6982F480424A61019A1B689A420AD152
:1033100003B05DF804FB064A4FF4804108B95183BD
:10332000F2E71183F0E7FDF7F3FF00BF000800208C
:10333000000C02400000000000000000000000003F
:103340002DE9F043254E83B034680194042A9DF89A
:103350002890144605460F46984639D9B9F1000F12
:1033600014BF00224FF08052640002EB0863013C5E
:103370001C4405F00F0527F01F07202383F3118855
:1033800002F056F93D4301F013F9154B1035DD609D
:103390001C6101F02DF902F063F9124B1A689A4290
:1033A00004D0996993688A689A420DD3002383F305
:1033B0001188BFF36F8FBFF34F8F019A33689A4222
:1033C0000AD103B0BDE8F083074801F051F8EDE7FA
:1033D000064801F04DF8C1E7FDF79AFF000800200C
:1033E00090ED00E0D82B0020801401086014010843
:1033F00030B5224D224C2B68224A85B00393636876
:1034000043F004036360536A43F480335362202320
:1034100083F3118802F00CF901F0CAF817221A4B55
:10342000E260236101F0E4F802F01AF9174B1A6820
:103430009A4204D0996993688A689A4218D3002006
:1034400080F31188BFF36F8FBFF34F8F03231D22CB
:1034500000904FF00051FFF773FF094A536843F0A3
:1034600001035360039A2B689A4205D105B030BD21
:10347000074800F0FDFFE2E7FDF74AFF00080020E3
:1034800090ED00E000ED00E009000010D82B0020D6
:10349000801401080000000000000000000000008F
:1034A00070B51A4D1A4C1B4E0FCD0FC49EB02A6832
:1034B000336822801D93EFF30981682203A8FDF78A
:1034C0007FFD154B9D6AAA0714D4EB0708D5124B54
:1034D00008995B6B114A00910D4880210AF080FC2D
:1034E0001D9A33689A420FD109481EB0BDE870405A
:1034F00000F0BEBF099A5B6B0092A4F11000084A6D
:1035000080210AF06DFCE0E7FDF702FF441401089A
:10351000102500200008002000ED00E02014010824
:10352000001401080000000000000000000000007E
:1035300000B51F4B0278196883B00191E2B11D4AB2
:103540004FF4005111834278EAB11A4A4FF4805186
:1035500011838278F2B1174A4FF480411183C27807
:10356000FAB9144A4FF400415183019A1B689A42F8
:103570001CD103B05DF804FB0E4A4FF40051518397
:103580004278002AE1D10B4A4FF48051518382786E
:10359000002AE0D1074A4FF480415183C278002AC3
:1035A000DFD0044A4FF400411183DEE7FDF7B0FE9F
:1035B0000008002000100240000000000000000091
:1035C00000B51F4B0278196883B00191E2B11D4A22
:1035D0004FF4007111834278EAB11A4A4FF48071B6
:1035E00011838278F2B1174A4FF400611183C278D7
:1035F000FAB9144A4FF480615183019A1B689A42C8
:103600001CD103B05DF804FB0E4A4FF400715183E6
:103610004278002AE1D10B4A4FF4807151838278BD
:10362000002AE0D1074A4FF400615183C278002A92
:10363000DFD0044A4FF480611183DEE7FDF768FEB6
:103640000008002000100240000000000000000000
:1036500030B50C4A0C4B116883B04FF40055019102
:103660004FF480544FF400414FF480405D835C83FD
:103670005883598301991368994201D103B030BD31
:10368000FDF746FE00080020001002400000000088
:1036900030B50C4A0C4B116883B04FF400750191A2
:1036A0004FF480744FF480614FF400605D835C835D
:1036B0005883598301991368994201D103B030BDF1
:1036C000FDF726FE00080020001002400000000068
:1036D00010B50B4C0B48236882B09922002101934E
:1036E00003F006FD019A23689A4206D1054800219D
:1036F00002B0BDE8104003F0E3BDFDF709FE00BFD6
:1037000000080020B8390020000000000000000080
:1037100010B50B4C0B48236882B09922002101930D
:1037200003F0E6FC019A23689A4206D1054800217D
:1037300002B0BDE8104003F0C3BDFDF7E9FD00BFD6
:1037400000080020D4390020000000000000000024
:1037500000B5084B83B01A680192019A1B689A421F
:1037600006D10548002103B05DF804EB03F010BD5D
:10377000FDF7CEFD00080020B83900200000000051
:1037800000B5084B83B01A680192019A1B689A42EF
:1037900006D10548002103B05DF804EB03F0F8BC46
:1037A000FDF7B6FD00080020D4390020000000001D
:1037B00070B51A4C1A4E2378326882B0022B0192EF
:1037C000A26811D165781748013505F0070500EBAF
:1037D0008500904763686570013B6360019A3368B8
:1037E0009A4219D102B070BD012B08D001993368FB
:1037F000994211D10C4802B0BDE87040104765787D
:103800000848013D05F0070500EB85009047636817
:10381000657001336360E1E7FDF77AFDA8250020BC
:103820000008002020150108101501080000000004
:1038300070B51A4C1A4E2378326882B0012B01926F
:10384000A26811D165781748013505F0070500EB2E
:10385000850090476368657001336360019A33683F
:103860009A4219D102B070BD022B08D00199336879
:10387000994211D10C4802B0BDE8704010476578FC
:103880000848013D05F0070500EB85009047636897
:103890006570013B6360E1E7FDF73AFD902500208C
:1038A0000008002020150108101501080000000084
:1038B00030B51F4D85B02B68039340F24C439942BD
:1038C000044626DCA3F69803994211DB4B00002B3B
:1038D00029D10370036998474FF47A71039A2B68D2
:1038E0009A421ED1606905B0BDE8304003F0B8BB14
:1038F000104B02225B42227040F2892293420E4911
:1039000091FBF3F189B207DC0191E36898470199D3
:10391000E4E7012303702D21019123699847019960
:10392000DCE7FDF7F5FCE4DD01220270E4E700BF0F
:103930000008002068F7FFFFA086010000000000DB
:1039400000B5084B83B01A680192019A1B689A422D
:1039500006D10146044803B05DF804EBFFF7A8BFA9
:10396000FDF7D6FC00080020902500200000000094
:1039700000B5084B83B01A680192019A1B689A42FD
:1039800006D10146044803B05DF804EBFFF790BF91
:10399000FDF7BEFC00080020A82500200000000064
:1039A00000B5094B094A1968506883B000EBD07024
:1039B0000191019A1B689A4203D1401003B05DF84F
:1039C00004FBFDF7A5FC00BF0008002090250020A7
:1039D00000B5094B094A1968506883B000EBD070F4
:1039E0000191019A1B689A4203D1401003B05DF81F
:1039F00004FBFDF78DFC00BF00080020A825002077
:103A000000B5084B08491A6883B040000192019A3A
:103A10001B6848609A4202D103B05DF804FBFDF7D1
:103A200077FC00BF00080020902500200000000067
:103A300000B5084B08491A6883B040000192019A0A
:103A40001B6848609A4202D103B05DF804FBFDF7A1
:103A50005FFC00BF00080020A82500200000000037
:103A600070B51D4E1D4A1E4B30681E491E4C91609C
:103A700082B00021D46001901C4C1D481D4D9D60FA
:103A8000117051705160106154611B481B4A1C4DEC
:103A9000D8601C48197059705960C3E90425FFF7B4
:103AA00047FD1848FFF78CFD1749204603F088FAB8
:103AB000204603F0BDFB2846144903F081FA019A21
:103AC00033689A4205D1284602B0BDE8704003F041
:103AD000AFBBFDF71DFC00BF00080020A82500209B
:103AE0009025002031350008D1360008B839002073
:103AF00051370008C1350008113700088137000828
:103B0000D439002010150108D014010890140108C0
:103B10000A490B4B09680B4A82B0202001914021D1
:103B200058834FF4806559834FF400644FF480400C
:103B300004215D835C8358835183FEE700080020E5
:103B4000000C0240000402400000000000000000E1
:103B500010B51E491E4A0B78106882B0013B0190D7
:103B6000072B0AD8DFE803F012151C1F26290F04C3
:103B700018480824012304830B70019913689942A3
:103B800021D102B010BD08230B70F6E702230B70A1
:103B9000F3E711484FF48054032304830B70ECE7E0
:103BA00004230B70E9E70C484FF480440523048399
:103BB0000B70E2E706230B70DFE7064804240723B7
:103BC00004830B70D9E7FDF7A3FB00BF4029002059
:103BD0000008002000100240000402400000000025
:103BE00030B50C4B0C4918680C4A83B04FF4804533
:103BF00001904FF480504883042408204D8354835F
:103C00005083019A1B689A4201D103B030BDFDF781
:103C10007FFB00BF000800200004024000100240AB
:103C20002DE9F04F4E4B4F4A9B694F499961A5B022
:103C300007AE05AD80231768009331462A4600245D
:103C40000CA84A4B2397CDE90766CDE90555CDE988
:103C500009440B9400F0DCFA0CA9454A4548434C52
:103C6000454DDFF83481DFF834B1DFF834A100F0DE
:103C7000F7FA04F11C0604F16007A146504601F072
:103C800077FD2A682B69226063602A6A2B6BA26029
:103C9000E3606A686B69226163616A6A6B6BA26147
:103CA000E361AA68AB6922626362AA6AAB6BA26233
:103CB000E362EA68EB6922636363EA6AEB6B2F49AC
:103CC000A263E36351F8043F0A6AB142A3EB020323
:103CD0000B64F7D1802249460CA800F0F1FA98F85D
:103CE0000030002BCAD09BF8003033B3012BC5D174
:103CF000DFF8B0C02248614650F8042B51F8043F69
:103D0000B84213440B60F7D11E4A13780133DBB27B
:103D1000642B1370B2D11C495CF8043F1B4A82FB30
:103D20000302DB17C3EB621341F8043B184B9C45BD
:103D3000F2D1002388F80030A0E71946202212486B
:103D4000039309F0FDFF039B12481946202209F056
:103D5000F7FF0C49039B0B7001228BF800208DE7C5
:103D6000D82B002000080020401501084426002020
:103D70008015010820120020E025002040260020A8
:103D80008426002021260020A42600201F85EB5138
:103D90004026002024260020202600202226002065
:103DA0004C08002020260020000000000000000039
:103DB00070B502691E4D52882B6882B006460C46CB
:103DC0001C4801939200002109F0BAFF33695B8817
:103DD0005BB1184AA11E002331F8020F42F8040B10
:103DE0003069408801339842F6D8202383F3118844
:103DF00001F04EFC00F01CFC00F0AAFC0E488368A9
:103E0000002B0FDD00F034FC01F05AFC002383F39B
:103E10001188019A2B68094901209A42087004D13F
:103E200002B070BD01F0DCFCECE7FDF771FA00BFF9
:103E300000080020E02500204C0800204029002038
:103E400070B51F4D1F4C2E78236884B0012E03934C
:103E500005D0039A23689A422FD104B070BD002187
:103E6000284602F00DFD284602F0CAFD33462846DA
:103E7000154A164902F084FD1549164803F0A0F8CA
:103E80004FF496720021134803F032F900211148D3
:103E900003F016FA0F4803F0CBF931464FF4827263
:103EA0000C4803F025F90023009340220A4B0B48ED
:103EB0004FF41E7101F05CF8CBE7FDF729FA00BF63
:103EC0003433002000080020C025002050150108D0
:103ED000901501089C390020213C0008C8260020CC
:103EE00030B50C4D0C4A2B680C4C83B0002101936B
:103EF000012311702370142001F092F82378002B15
:103F0000F9D1019A2B689A4201D103B030BDFDF777
:103F1000FFF900BF000800202226002020260020F4
:103F200000B50A4B83B01A68019207289BBF084A64
:103F30001030002052F82000019A1B689A4202D1EA
:103F400003B05DF804FBFDF7E3F900BF00080020B3
:103F500044260020000000000000000000000000D7
:103F600000B50F4B83B01868019002290CD00329CB
:103F70000CD001290B4818BF0020019A1B689A42F7
:103F80000BD103B05DF804FB0748F6E7032A96BFA0
:103F90000648002000EBC200EFE7FDF7B9F900BFCB
:103FA00000080020B016010850160108601701082B
:103FB00070B5154C82B02368019302291CD10D46BF
:103FC0000646202383F3118801F062FB00F030FBEA
:103FD00030460E4A012104F0B3FA29460C4A304615
:103FE00004F0AEFA0B4804F0ABF800F041FB01F02E
:103FF00067FB002383F31188019A23689A4201D159
:1040000002B070BDFDF784F900080020D01501084A
:1040100000160108442900200000000000000000F4
:1040200030B5134D134C2B68134883B0019303F044
:10403000FFFF1249104804F02BF8226D936B23F414
:10404000002393634FF47A7000F0EAFF20460C4996
:1040500004F026FA226D936B43F400239363019AD4
:104060002B689A4201D103B030BDFDF751F900BF72
:10407000000800209836002044290020301601084E
:1040800040160108000000000000000000000000D1
:1040900000B5084B83B01A680192019A1B689A42D6
:1040A00005D1054803B05DF804EB01F0C1BCFDF794
:1040B0002FF900BF00080020580800200000000071
:1040C00000B5084B83B01A680192019A1B689A42A6
:1040D00005D1054803B05DF804EB01F0E1BCFDF744
:1040E00017F900BF00080020580800200000000059
:1040F00070B50D4C82B0236801930D1E06460DDD90
:10410000284602F0DDF918B90C2333604FF0FF3078
:10411000019A23689A4205D102B070BD034800F0AD
:10412000A7F9EDE7FDF7F4F8000800208017010873
:1041300000B5064B83B01A680192019A1B689A4237
:1041400002D103B05DF804FBFDF7E2F8000800209F
:1041500000B5074B83B01A680192019A1B689A4216
:1041600004D103B05DF804EB01F062BCFDF7D0F8B8
:104170000008002000000000000000000000000017
:1041800000B5074B83B01A680192019A1B689A42E6
:1041900004D103B05DF804EB01F082BCFDF7B8F880
:1041A00000080020000000000000000000000000E7
:1041B00000B5074B83B01A680192019A1B689A42B6
:1041C00004D103B05DF804EB01F092BDFDF7A0F857
:1041D00000080020000000000000000000000000B7
:1041E00010B5084B82B01C68019400240460019C47
:1041F0001B689C42C0E9011201D102B010BDFDF75D
:1042000087F800BF00080020000000000000000048
:104210002DE9F0430E4D83B02C6801940446994675
:104220000F46164610304C220021DDF8288009F098
:1042300087FDC4F80090019A2B68E6609A42C4E9B1
:10424000018702D103B0BDE8F083FDF761F800BF3C
:104250000008002000000000000000000000000036
:10426000F0B5144E83B001F1100317463268019285
:104270000446412218460D46002109F061FD3946E9
:10428000402209F0F5FD6068FFF762FF236803B183
:10429000AB652560A068FFF78BFF019A33689A42EF
:1042A00005D1606803B0BDE8F040FFF769BFFDF7D6
:1042B0002FF800BF000800200000000000000000F0
:1042C000F0B51C4E436883B00546934230680190B8
:1042D00006D20020019A33689A4229D103B0F0BD7A
:1042E00014460F46A868FFF733FF22463946286870
:1042F000FCF766FE012385F85130E868FFF758FFA8
:104300006C6D84B123681868FFF722FF23689D60F5
:1043100023685868FFF74CFF23681868FFF730FFE1
:104320006468002CEED1A868FFF72AFF0120D1E7CE
:10433000FCF7EEFF00080020000000000000000075
:1043400000B5064B83B01A680192019A1B689A4225
:1043500002D103B05DF804FBFCF7DAFF000800208F
:10436000024B82B01B680193FEE700BF00080020EB
:1043700000B5044B04481B6883B0019300F078F843
:10438000FEE700BF000800209017010800000000B1
:10439000024B82B01B680193FEE700BF00080020BB
:1043A000F0B5294E294B3268294885B00024039284
:1043B0009C60D968274A4FF6FF0529400A43DA6016
:1043C000C2682549254D42F08072C2600A6842F0F9
:1043D00001020A6010202022D87783F8222000F002
:1043E000DFFA00F045FA01F073F802F041F802F04C
:1043F000AFF801F0C5F800F0FBF9402105F5886041
:1044000000F01EFD0127164BC36180F82070A861E3
:1044100000F0A6F884F3118862B6AB69114A9A617C
:104420004FF4C4713A46104B009405F59D6000F0BE
:104430009FFD039A33680D4981619A4201D105B00D
:10444000F0BDFCF765FF00BF0008002000ED00E0B4
:10445000F0ED00E00003FA05001000E0D82B00208A
:10446000000400203019010891430008B01701082A
:1044700000B5054B83B01B680193044672B6FFF785
:1044800047FB024BDC62FEE700080020D82B00202F
:104490002DE9F047DFF890A0224DDAF8003082B025
:1044A000019300F055F9AB6993F8232012B1013A5A
:1044B00083F823205A6ADFF8748001325A6200F0D0
:1044C00047F9AB6AEA6901334245AB6220D0936891
:1044D000013B9360EC69A668D6B94FF020092368C8
:1044E000E768E660C3F804802368EB6100F0C0F879
:1044F00001F0E6F886F311882069B84789F311883E
:1045000001F0C6F800F094F8EC69A368002BE6D03F
:10451000019ADAF800309A4202D102B0BDE8F08781
:10452000FCF7F6FED82B002000080020F42B00201A
:1045300010B5094C094A236882B001935168536849
:104540005B1A9842FBD8019A23689A4201D102B0C3
:1045500010BDFCF7DDFE00BF00080020001000E0E9
:1045600000B50E4A0E4B116B186883B0019009B963
:10457000526B4AB1019A1B689A420CD1094803B0A8
:104580005DF804EBFFF774BF019A1B689A4202D1F1
:1045900003B05DF804FBFCF7BBFE00BFD82B002086
:1045A00000080020C0170108000000000000000003
:1045B00030B50B4C0B4D236B2A6883B001920BB9BD
:1045C000636B13B10848FFF753FF019A2B68012171
:1045D0009A42616301D103B030BDFCF799FE00BF80
:1045E000D82B002000080020F01701080000000070
:1045F00030B50C4C0C4D236B2A6883B0019253B933
:10460000636B002B07DD019A2B6800219A426163DE
:1046100005D103B030BD0548FFF72AFFF3E7FCF7EB
:1046200077FE00BFD82B00200008002010180108DA
:1046300030B50B4C0B4D236B2A6883B0002B0192D5
:1046400001DD636B13B10848FFF712FF019A2B6875
:1046500001219A42616301D103B030BDFCF758FEDD
:10466000D82B0020000800200018010800000000DE
:1046700030B50C4C0C4D236B2A6883B0002B019293
:104680000ADD636B002B07DD019A2B6800219A423B
:10469000616305D103B030BD0448FFF7E9FEF3E7DD
:1046A000FCF736FED82B0020000800202018010857
:1046B00030B50F4D83B02B680193202383F311880D
:1046C0000C4C236B002B01DB626B1AB10A48FFF71D
:1046D000CFFE236B01332363002383F31188019AF8
:1046E0002B689A4201D103B030BDFCF711FE00BF28
:1046F00000080020D82B0020D0170108000000007F
:1047000030B50F4D83B02B680193202383F31188BC
:104710000C4C236B002B01DD626B1AB10A48FFF7CA
:10472000A7FE236B013B2363002383F31188019AC7
:104730002B689A4201D103B030BDFCF7E9FD00BF00
:1047400000080020D82B0020E0170108000000001E
:1047500000B50F4A0F4B116B186883B00029019008
:1047600009DB526B002A06DD019A1B689A420CD1C4
:1047700003B05DF804FB019A1B689A4205D1064814
:1047800003B05DF804EBFFF773BEFCF7C1FD00BF9B
:10479000D82B00200008002030180108000000007D
:1047A00000B50E4A0E4B116B186883B0019049B9E1
:1047B000526B002A06DD019A1B689A420CD103B0A5
:1047C0005DF804FB019A1B689A4205D1054803B0C5
:1047D0005DF804EBFFF74CBEFCF79AFDD82B0020E8
:1047E0000008002040180108000000000000000040
:1047F00010B5084A084B116882B040240191019914
:10480000126818199142C3E90E4001D102B010BDDF
:10481000FCF77EFD00080020D82B002000000000DF
:1048200010B51149114B0A6882B00192DA6B9C6A8B
:104830001460DA6B9C695460DA6B846A9460DA6B9A
:1048400090F820001073DA6B03F588601032824212
:1048500028BF03F14002DA63019A0B689A4201D142
:1048600002B010BDFCF754FD00080020D82B00203A
:1048700010B50B4A0B4B116882B04FF0FF34019119
:1048800000219962019811685C6203F11C02884260
:10489000C3E9072201D102B010BDFCF739FD00BF0A
:1048A00000080020D82B00200000000000000000BD
:1048B0002DE9F041184E82B00546306801900C4653
:1048C00017469846FFF744FF05B3FFB1F4B1C5E9B9
:1048D00003781248C3699A68944204D91B68A41AE1
:1048E0009A68A242FAD32B605A686A6015605D60CC
:1048F000AC609968019D3268091B95424FF0FF3406
:104900009960446206D102B0BDE8F0810448FFF727
:10491000AFFDDCE7FCF7FCFC00080020D82B0020F2
:104920005018010800000000000000000000000016
:1049300030B5164D83B004462B680193FFF708FF8E
:10494000ECB1E368BBB12268A068936801990344A5
:104950009360D4E900231A6020682B680C4A6568CC
:10496000456099424FF000054FF0FF30E56050621E
:1049700009D103B030BD0748FFF77AFDE3E70548EA
:10498000FFF776FDDDE7FCF7C3FC00BF0008002061
:10499000D82B002060180108000000000000000073
:1049A00000B50A4A0A4B11681B6083B000200191D0
:1049B000019912685B609142C3E90433986002D1A7
:1049C00003B05DF804FBFCF7A3FC00BF0008002067
:1049D000D82B0020000000000000000000000000B4
:1049E00030B5164D83B004462B680193FFF7B0FE37
:1049F000ECB194F82030B3B10F2B14D00022A16891
:104A00000F4B84F820201B689A688A42FBD22360EF
:104A10005A686260146001992A685C60914220467D
:104A200009D103B030BD0748FFF722FDE6E705488E
:104A3000FFF71EFDDDE7FCF76BFC00BF0008002060
:104A4000D82B0020701801080000000000000000B2
:104A500070B5204D82B02B6801930446202383F368
:104A6000118800F015FEFFF7E3FD94F82030072BC6
:104A700011D8DFE803F0161010230A04100AA66A02
:104A8000FFF766FEB3680133B360D4E900231A6010
:104A9000D4E900325A604FF0FF33A3622046FFF79B
:104AA0009FFFFFF7E5FD00F00BFE002383F3118865
:104AB000019A2B689A420BD102B070BDA36A002202
:104AC0001A604FF0FF33A3622046FFF789FFE8E743
:104AD000FCF71EFC000800200000000000000000A1
:104AE000F0B5194E194C336883B007460193FFF7B0
:104AF00057FEA569236885F82070142285F82320C5
:104B00001A68226001215460284683F82010A361AE
:104B1000FFF786FE2946A06900F06AFDEFF30983DE
:104B2000EA69643B9A4202D90948FFF7A1FC019A5D
:104B300033689A4206D1A069294603B0BDE8F04027
:104B4000FBF7B6BBFCF7E4FB00080020D82B0020E5
:104B500080180108000000000000000000000000B4
:104B6000F0B5154C87B0236805930E460746FFF74E
:104B700017FE731C18D0114D114AAB6931466846B7
:104B8000FFF796FE3846FFF7ABFFFFF7E1FD039B0B
:104B900013B16846FFF7CCFE059A2368A9699A42CB
:104BA000886A06D107B0F0BD3846FFF799FF034D7C
:104BB000F2E7FCF7ADFB00BF00080020D82B002077
:104BC000514A000800000000000000000000000042
:104BD000F0B51E4D1E4E2B6883B0044601930F4660
:104BE000FFF7DEFDB069A7628368A2689A421DD90B
:104BF000FFF7F6FE0123074684F82030B461FFF783
:104C00000FFE3946204600F0F3FCEFF30983FA6902
:104C1000643B9A4214D8019A2B689A4214D13946BF
:104C2000204603B0BDE8F040FBF742BB019A2B6879
:104C30009A4209D1204603B0BDE8F040FFF7D0BE4C
:104C40000448FFF715FCE6E7FCF762FB00080020CC
:104C5000D82B002080180108000000000000000090
:104C600010B50E490E4B8A69086892F823101C682B
:104C70008068926882B0019449B9904234BF0020A4
:104C80000120019A1B689A4206D102B010BD9042E1
:104C900094BF00200120F4E7FCF73AFBD82B00205A
:104CA00000080020000000000000000000000000DC
:104CB00070B5184C184E2368A5691A6822605460B4
:104CC000012283F8202082B01422316885F8232045
:104CD0002846A3610191FFF783FE2846FFF7A0FD58
:104CE0002946A06900F084FCEFF30983EA69643B7C
:104CF0009A4202D90948FFF7BBFB019A33689A42EE
:104D000006D1A069294602B0BDE87040FBF7D0BAD1
:104D1000FCF7FEFAD82B00200008002080180108BC
:104D200070B51C4D1C4E2A68AC6913682B600121BC
:104D300082B05D60002082F82010AA613268A1680C
:104D400084F82000019200E01B689A688A42FBD830
:104D500023605A686260204614605C60FFF760FD63
:104D60002146A86900F044FCEFF30983E269643B43
:104D70009A4202D90948FFF77BFB019A33689A42AD
:104D800006D1A869214602B0BDE87040FBF790BA91
:104D9000FCF7BEFAD82B002000080020801801087C
:104DA00010B50F4C82B023680193FFF7F9FCFFF7B1
:104DB000CFFC0C4B1A689B6992689B689A42019AD7
:104DC000236803D89A4208D102B010BD9A4204D198
:104DD00002B0BDE81040FFF7A3BFFCF799FA00BF8F
:104DE00000080020D82B0020000000000000000078
:104DF00000B50E4A0E4B9269196892F8232083B0D1
:104E0000019142B1019A1B689A420DD103B05DF83D
:104E100004EBFFF785BF019A1B689A4204D103B0E7
:104E20005DF804EBFFF744BFFCF772FAD82B0020C3
:104E3000000800200000000000000000000000004A
:104E4000F0B51A4A1A4D02610446816083B01423FA
:104E500050692E68616484F8233002270023012101
:104E6000278484F82210C4E90F3304F16801A36198
:104E7000019604F12C07636204F1500604F130033B
:104E800060610461C4E90C33E1613046E76254615A
:104E900000F0B6FA304600F0D3FA019A2B689A4235
:104EA00002D1204603B0F0BDFCF732FAD82B002027
:104EB00000080020000000000000000000000000CA
:104EC00010B5094B82B01C680194884203D200F8E7
:104ED000012B8142FBD1019A1B689A4201D102B099
:104EE00010BDFCF715FA00BF00080020000000000C
:104EF0002DE9F043184E83B0346801940546DDF87F
:104F000028900C4617469846FFF722FC15B1B4F5D9
:104F1000BC7F19D21148FFF7ABFAA4F16401294410
:104F2000E960C1F84080EB68019AC3F844903368A7
:104F3000E9680B4808669A420CD13946284603B006
:104F4000BDE8F043FFF77CBF7F2FE3D8B8F1000F37
:104F5000E3D1DFE7FCF7DCF900080020D0180108F6
:104F6000C90200080000000000000000000000006E
:104F70002DE9F04FDFF8A48087B0D8F80040DDF8C5
:104F80004090059407468A46934600F16806044619
:104F9000FF2504F8015BA642FBD107EB0A05A542F9
:104FA00004D9552604F8016BA542FBD103932022B6
:104FB00082F3118800F03CFBFFF7FAFA039BCDF86F
:104FC00000905A4651463846FFF792FF00210446AA
:104FD000FFF7FEFDFFF70CFB00F042FB0D4B1A68DC
:104FE0009A4204D0996993688A689A420BD3002345
:104FF00083F31188059AD8F800309A42204606D1EA
:1050000007B0BDE8F08F0448FFF732FAEFE7FCF78E
:105010007FF900BFD82B002090180108000800205D
:1050200030B5184C83B0236801930546202383F3E1
:10503000118800F0FDFAFFF7BBFA15B91248FFF727
:1050400017FA29460820FFF78BFDFFF7D1FA00F089
:1050500007FB0E4B1A689A4204D0996993688A68D4
:105060009A4208D3002383F31188019A23689A4255
:1050700005D103B030BD0648FFF7FAF9F2E7FCF7B7
:1050800047F900BF00080020A0180108D82B002015
:10509000901801080000000000000000000000005F
:1050A000F0B51C4F83B03B68019304460E462023A5
:1050B00083F31188184D00F0BBFAFFF779FAA96A5B
:1050C000331B0C1B9C4219D3FFF792FA00F0C8FA6D
:1050D0002B68AB4204D0AA699B6892689A4209D3B4
:1050E000002383F31188019A3B689A4230460FD11E
:1050F00003B0F0BD0948FFF7BBF9F1E7741A02D11C
:105100000748FFF7B5F921460820FFF729FDDBE73F
:10511000FCF7FEF800080020D82B002090180108AA
:10512000A0180108000000000000000000000000BE
:1051300070B5164B164E9C693268E36AA06282B065
:1051400004F12C05AB42019207D01A68E2621846BE
:10515000FFF746FCE36AAB42F7D194F821309B0796
:1051600005D1D4E904231A61D4E904325A610F202D
:10517000FFF7B6FC019A33689A4205D1054802B0A0
:10518000BDE87040FFF774B9FCF7C2F8D82B0020D7
:1051900000080020E01801080000000000000000E6
:1051A00030B50C4C83B0236801930546202383F36C
:1051B000118800F03DFAFFF7FBF9019A23689A4243
:1051C00005D1284603B0BDE83040FFF7B1BFFCF77A
:1051D0009FF800BF00080020000000000000000051
:1051E000F0B50D4D0D4E03682A68B76983B00446CB
:1051F000019213B10A48FFF73BF927600320BC6214
:10520000FFF76EFC019A2B68B1699A42886A01D156
:1052100003B0F0BDFCF77CF800080020D82B00207C
:10522000F01801080000000000000000000000006D
:10523000F0B5124D0368124A83B004462868019005
:105240000E46976913B10F48FFF712F966B1276050
:10525000019A2B68BC629A420ED13146032003B0FA
:10526000BDE8F040FFF77CBC019A2B689A424FF0F2
:10527000FF3001D103B0F0BDFCF74AF80008002070
:10528000D82B0020001901080000000000000000D9
:10529000F0B5124D04682B6883B00193B4B194F853
:1052A0002030032B06460F460CD100233360019AB1
:1052B0002B68A7629A420FD1204603B0BDE8F040A8
:1052C000FFF78EBB0648FFF7D3F8EEE7019A2B688D
:1052D0009A4201D103B0F0BDFCF71AF80008002093
:1052E000201901080000000000000000000000007C
:1052F00030B5104A83B01368019381B10E4B019D04
:105300009B69186044685C60236012684360954242
:105310000DD1042003B0BDE83040FFF721BC019956
:10532000136899424FF0FF3001D103B030BDFBF755
:10533000EFFF00BF00080020D82B00200000000075
:1053400070B5124D04682B6882B0A042019315D04D
:1053500023680360586094F82030042B0E4602D076
:105360000B48FFF785F8019A2B68A6629A420BD189
:10537000204602B0BDE87040FFF732BB019A2B68AF
:105380009A4201D102B070BDFBF7C2FF00080020B5
:10539000B01801080000000000000000000000003C
:1053A0002DE9F041DFF850800468D8F8003082B071
:1053B000A042019313D00F4F05460E4623682B6081
:1053C0005D6094F82030042B02D03846FFF750F887
:1053D000A6622046FFF704FB2C68A542EED1019A95
:1053E000D8F800309A4202D102B0BDE8F081FBF754
:1053F0008FFF00BFB0180108000800200000000067
:1054000030B50B4B83B01A6801924FF0FF32026047
:1054100001991A680024002300259142C0E904453F
:10542000C0E90133C36001D103B030BDFBF770FFA9
:105430000008002000000000000000000000000044
:1054400000B5084B084A196883B001915168019A68
:105450001B6881609A4202D103B05DF804FBFBF740
:1054600057FF00BF00080020001000E0000000000F
:10547000F0B51449144B0A68846883B00192134A4A
:105480005B68D2F8A864C2681B1BD0E904450132EE
:105490009B1BC26042688360E61845F10007934297
:1054A000C0E9046709D80268934238BF0360019AD3
:1054B0000B689A4203D103B0F0BD4360F7E7FBF7F6
:1054C00027FF00BF00080020001000E0D82B0020BC
:1054D00030B5114D114C2B6889B04FF0FF31079357
:1054E000002300226846C4F8A834CDE901330393B1
:1054F0000023CDE904230091FFF7A2FF6846FFF7E0
:10550000B7FF079A2B680299C4F8A8149A4201D1F0
:1055100009B030BDFBF7FCFE00080020D82B0020AE
:105520002DE97048134E144B326883B001925B68CA
:105530008B60D0E902411B1BD0E90445426814EBA3
:10554000030B45F1000C01319342C0E90231C0E97F
:1055500004BC0AD80268934238BF0360019A3368DA
:105560009A4204D103B0BDE870884360F6E7FBF7C8
:10557000CFFE00BF00080020001000E00000000087
:1055800030B50D4D0D4C2B6883B004F59760019339
:105590000023C4F8B034C4F8B434FFF731FF019AE3
:1055A0002B689A4206D104F59A6003B0BDE83040FA
:1055B000FFF726BFFBF7ACFE00080020D82B002029
:1055C00000B50949094A0B6883B001930198D2F8E4
:1055D000B034096801338842C2F8B03402D103B054
:1055E0005DF804FBFBF794FE00080020D82B002098
:1055F00070B50D4C0D4A236882B00193019DD2F81D
:10560000B43424680133A542C2F8B43409D10E463B
:1056100000F1500106F1500002B0BDE87040FFF704
:105620007FBFFBF775FE00BF00080020D82B0020CD
:1056300000B5084B83B01A680192019A1B689A4220
:1056400005D1054803B05DF804EBFFF7F9BEFBF7A1
:105650005FFE00BF00080020903000200000000026
:1056600000B5084B83B01A680192019A1B689A42F0
:1056700005D1054803B05DF804EBFFF7F9BEFBF771
:1056800047FE00BF0008002090300020000000000E
:1056900000B5084B83B01A680192019A1B689A42C0
:1056A00005D1054803B05DF804EBFFF7C9BEFBF771
:1056B0002FFE00BF00080020A830002000000000DE
:1056C00000B5084B83B01A680192019A1B689A4290
:1056D00005D1054803B05DF804EBFFF7C9BEFBF741
:1056E00017FE00BF00080020A830002000000000C6
:1056F00070B51B4D82B004462B680193FFF750F83C
:1057000044B3A3682268002B10DBA24203D01548E3
:10571000FEF7AEFEA368013B002BA3600CDB00206C
:10572000019A2B689A4219D102B070BDA242EED004
:10573000013B002BA360F2DA0B4EB3699C621C6044
:1057400062685A60052013606360FFF7C9F9B369A6
:10575000986AE5E70348FEF78BFED2E7FBF7D8FD32
:105760000008002060190108D82B0020000000006C
:1057700030B5164C83B0236801930546202383F38C
:105780001188FFF755FFFEF713FF2846FFF7B0FF1C
:105790000546FEF72DFFFFF763FF0D4B1A689A428F
:1057A00004D0996993688A689A4209D3002383F3E5
:1057B0001188019A23689A42284605D103B030BD6A
:1057C0000448FEF755FEF1E7FBF7A2FD00080020B4
:1057D000D82B002050190108000000000000000034
:1057E00030B51C4D83B004462B680193FEF7B0FF23
:1057F0004CB3A3682268002B0FDBA24203D01648EB
:10580000FEF736FEA3680133002BA3600BDD019A7F
:105810002B689A421BD103B030BDA242EFD00133B6
:10582000002BA360F3DC20680199036823602A68D9
:105830005C6091424FF00003836208D103B0BDE881
:105840003040FFF7CDB80448FEF712FED1E7FBF772
:105850005FFD00BF00080020701901080000000073
:1058600030B50B4D83B02B680193044650B12460D2
:1058700001992A68646000239142A360236105D1E5
:1058800003B030BD0348FEF7F3FDF0E7FBF740FD42
:10589000000800209019010800000000000000002E
:1058A000F0B55D4E5D4B32689D6983B00446019250
:1058B000FEF776FF002C00F08480A06823690028A2
:1058C00043D0002B40F39780854276D0AA68836846
:1058D0009A4208D990F820308260062B40D0072BDE
:1058E00073D0002B5DD02746234603E09968AA6851
:1058F000914233D31B689C42F8D12F607B686B6068
:1059000006201D607D60AC62FFF7EAF8A368AB4239
:1059100002D04348FEF7ACFD2B6CA34202D04048B6
:10592000FEF7A6FD2369012B05D1019A33689A423F
:105930006FD103B0F0BD019A33689A4269D13848FB
:1059400003B0BDE8F040FEF793BD002B58D1013302
:10595000A56023612B6CE3602C64E6E71F46CCE76F
:10596000D0E900231A60D0E900325A60876A3B46CA
:1059700003E099688268914247D31B689F42F8D13F
:1059800007607B68436018607860836AAA689868DB
:1059900083689342A7D290F820308260062B9ED174
:1059A000DEE7D0E90023012180F820101A60D0E959
:1059B00000325A60FFF714F895E723690133236139
:1059C000B3E71748FEF754FD77E7D0E900231A60E4
:1059D000D0E900325A60876A3B4603E099688268E2
:1059E000914214D31B689F42F8D107607B684360E3
:1059F0001860786077E70A48FEF73AFDA06863E729
:105A00000748FEF735FD2369A1E71F46B8E71F46A3
:105A1000EBE7FBF77DFC00BF00080020D82B00203F
:105A2000A0190108000000000000000000000000B4
:105A300030B5154C83B0236801930546202383F3CA
:105A40001188FFF7F5FDFEF7B3FD2846FFF728FFA5
:105A5000FEF7CEFDFFF704FE0C4B1A689A4204D005
:105A6000996993688A689A4208D3002383F311885E
:105A7000019A23689A4205D103B030BD0448FEF76D
:105A8000F7FCF2E7FBF744FC00080020D82B0020CD
:105A90008019010800000000000000000000000064
:105AA0002DE9F043DFF800813C4FD8F80030BE69A3
:105AB00083B005460193002864D0202383F3118826
:105AC000FFF7B6FDFEF774FD336C002B5ED09B68CC
:105AD000B34202D03248FEF7CBFC2B69002B49DDE4
