:020000040800F2
:1000000000040020C1010008914700089147000842
:10001000F137000891470008914700089147000810
:10002000914700089147000891470008116A0008AD
:10003000914700089147000891470008B1E1000886
:100040009147000851A90008E1AA000831AB000857
:10005000914700089147000891A60008E1A6000812
:1000600031A7000881A70008D1A70008E19800087F
:100070003199000881990008D1990008219A000857
:10008000719A0008C19A0008D1A30008D1AC0008F9
:1000900041AD0008F1AD0008A1AE000821A800089C
:1000A000914700089147000881DA0008914700084D
:1000B00071DD0008B1DD0008F1DD0008C1BF0008F6
:1000C00001C10008914700089147000891470008C6
:1000D00091470008914700089147000871E2000825
:1000E000B1A80008A1A90008F1A90008C1DA000818
:1000F000914700089147000891470008119B0008AC
:100100009147000831B0000831DE0008914700082F
:10011000914700089147000841DA0008914700081C
:10012000619B0008B19B0008019C0008519C0008DD
:10013000A19C00089147000841AA000891470008C7
:10014000914700089147000891470008E1D3000853
:10015000F19C0008419D0008919D0008914700080E
:10016000914700089147000891470008914700080F
:1001700091AA000891470008F12100089147000862
:1001800091470008914700089147000891470008EF
:1001900091470008914700089147000891470008DF
:1001A00091470008914700089147000891470008CF
:1001B00091470008914700089147000891470008BF
:1001C00072B62E4880F3098840F20000CCF200009D
:1001D0004EF63471CEF20001086040F20000C0F229
:1001E000F0004EF68851CEF2000108604FF000009A
:1001F000E1EE100A4EF63C71CEF2000108600620D6
:1002000080F31488BFF36F8F0EF022F94FF0553052
:100210001B491C4A91423CBF41F8040BFAE71A49BA
:10022000164A91423CBF41F8040BFAE71749184AB5
:10023000184B9A423EBF51F8040B42F8040BF8E702
:1002400000201549154A91423CBF41F8040BFAE7DA
:1002500004F086FA124C134DAC4203DA54F8041B36
:100260008847F9E701F08CF90F4C104DAC4203DAE6
:1002700054F8041B8847F9E704F082BA000800200C
:100280000000002000040020000400206835010860
:100290000008002034120020381200204865002099
:1002A000C0010008C0010008C0010008C00100082A
:1002B0002DE9F04F2DED108AC1F80CD0D0F80CD0FC
:1002C000BDEC108ABDE8F08F04F0A2FB05F008FC3D
:1002D000002383F311882846A047002005F070F919
:1002E00005F0E6FB04F074FB04F092FF04F090FBD1
:1002F00005F0F6FB00DFFEE7000000000000000054
:1003000081F0004102E000BF83F0004330B54FEAC6
:1003100041044FEA430594EA050F08BF90EA020F33
:100320001FBF54EA000C55EA020C7FEA645C7FEAC6
:10033000655C00F0E2804FEA5454D4EB5555B8BFE9
:100340006D420CDD2C4480EA020281EA030382EA5A
:10035000000083EA010180EA020281EA0303362DEC
:1003600088BF30BD11F0004F4FEA01314FF4801CBF
:100370004CEA113102D0404261EB410113F0004FD1
:100380004FEA03334CEA133302D0524263EB430388
:1003900094EA050F00F0A780A4F10104D5F1200E26
:1003A0000DDB02FA0EFC22FA05F2801841F1000181
:1003B00003FA0EF2801843FA05F359410EE0A5F155
:1003C00020050EF1200E012A03FA0EFC28BF4CF086
:1003D000020C43FA05F3C01851EBE37101F000453C
:1003E00007D54FF0000EDCF1000C7EEB00006EEB49
:1003F0000101B1F5801F1BD3B1F5001F0CD34908D3
:100400005FEA30004FEA3C0C04F101044FEA445229
:1004100012F5800F80F09A80BCF1004F08BF5FEAB0
:10042000500C50F1000041EB045141EA050130BD90
:100430005FEA4C0C404141EB010111F4801FA4F133
:100440000104E9D191F0000F04BF01460020B1FA88
:1004500081F308BF2033A3F10B03B3F120020CDAC0
:100460000C3208DD02F1140CC2F10C0201FA0CF09E
:1004700021FA02F10CE002F11402D8BFC2F1200C03
:1004800001FA02F120FA0CFCDCBF41EA0C019040B9
:10049000E41AA2BF01EB0451294330BD6FEA040402
:1004A0001F3C1CDA0C340EDC04F11404C4F12002ED
:1004B00020FA04F001FA02F340EA030021FA04F3FF
:1004C00045EA030130BDC4F10C04C4F1200220FA56
:1004D00002F001FA04F340EA0300294630BD21FA94
:1004E00004F0294630BD94F0000F83F4801306BF5A
:1004F00081F480110134013D4EE77FEA645C18BF4E
:100500007FEA655C29D094EA050F08BF90EA020FE4
:1005100005D054EA000C04BF1946104630BD91EADC
:10052000030F1EBF0021002030BD5FEA545C05D1DF
:100530004000494128BF41F0004130BD14F580041E
:100540003CBF01F5801130BD01F0004545F0FE4192
:1005500041F470014FF0000030BD7FEA645C1ABFC7
:10056000194610467FEA655C1CBF0B46024650EAFE
:10057000013406BF52EA033591EA030F41F400212A
:1005800030BD00BF90F0000F04BF0021704730B5B0
:100590004FF4806404F132044FF000054FF0000185
:1005A00050E700BF90F0000F04BF0021704730B546
:1005B0004FF4806404F1320410F0004548BF40421B
:1005C0004FF000013EE700BF42004FEAE2014FEA70
:1005D00031014FEA02701FBF12F07F4393F07F4F4B
:1005E00081F06051704732F07F4208BF704793F04E
:1005F0007F4F04BF41F40021704730B54FF4607461
:1006000001F0004521F000411CE700BF50EA010263
:1006100008BF704730B54FF000050AE050EA01020C
:1006200008BF704730B511F0004502D5404261EB7C
:1006300041014FF4806404F132045FEA915C3FF4BD
:10064000D8AE4FF003025FEADC0C18BF03325FEA5A
:10065000DC0C18BF033202EBDC02C2F1200300FA0B
:1006600003FC20FA02F001FA03FE40EA0E0021FA30
:1006700002F11444BDE600BF0000000000000000CD
:1006800070B54FF0FF0C4CF4E06C1CEA11541DBF28
:100690001CEA135594EA0C0F95EA0C0F00F0DEF8F3
:1006A0002C4481EA030621EA4C5123EA4C5350EAD8
:1006B000013518BF52EA033541F4801143F4801329
:1006C00038D0A0FB02CE4FF00005E1FB02E506F0BA
:1006D0000042E0FB03E54FF00006E1FB03569CF00F
:1006E000000F18BF4EF0010EA4F1FF04B6F5007F15
:1006F00064F5407404D25FEA4E0E6D4146EB060687
:1007000042EAC62141EA55514FEAC52040EA5E500F
:100710004FEACE2EB4F1FD0C88BFBCF5E06F1ED8B9
:10072000BEF1004F08BF5FEA500E50F1000041EBF0
:10073000045170BD06F0004646EA010140EA02009D
:1007400081EA0301B4EB5C04C2BFD4EB0C0541EABF
:10075000045170BD41F480114FF0000E013C00F3D4
:10076000AB8014F1360FDEBF002001F0004170BDF8
:10077000C4F10004203C35DA0C341BDC04F1140411
:10078000C4F1200500FA05F320FA04F001FA05F29D
:1007900040EA020001F0004221F0004110EBD3706A
:1007A00021FA04F642EB06015EEA430E08BF20EA96
:1007B000D37070BDC4F10C04C4F1200500FA04F339
:1007C00020FA05F001FA04F240EA020001F00041CB
:1007D00010EBD37041F100015EEA430E08BF20EA3E
:1007E000D37070BDC4F1200500FA05F24EEA020E86
:1007F00020FA04F301FA05F243EA020321FA04F0B5
:1008000001F0004121FA04F220EA020000EBD3706B
:100810005EEA430E08BF20EAD37070BD94F0000F6B
:100820000FD101F00046400041EB010111F4801F9F
:1008300008BF013CF7D041EA060195F0000F18BF50
:10084000704703F00046520043EB030313F4801F8C
:1008500008BF013DF7D043EA0603704794EA0C0F46
:100860000CEA135518BF95EA0C0F0CD050EA41065C
:1008700018BF52EA4306D1D181EA030101F00041D9
:100880004FF0000070BD50EA410606BF1046194601
:1008900052EA430619D094EA0C0F02D150EA01360D
:1008A00013D195EA0C0F05D152EA03361CBF10464E
:1008B00019460AD181EA030101F0004141F0FE41ED
:1008C00041F470014FF0000070BD41F0FE4141F471
:1008D000780170BD70B54FF0FF0C4CF4E06C1CEA71
:1008E00011541DBF1CEA135594EA0C0F95EA0C0F26
:1008F00000F0A7F8A4EB050481EA030E52EA0335E1
:100900004FEA013100F088804FEA03334FF0805501
:1009100045EA131343EA12634FEA022245EA11152E
:1009200045EA10654FEA00260EF000419D4208BFDF
:10093000964244F1FD0404F5407402D25B084FEA8C
:100940003202B61A65EB03055B084FEA32024FF438
:1009500080104FF4002CB6EB020E75EB030E22BF95
:10096000B61A754640EA0C005B084FEA3202B6EB55
:10097000020E75EB030E22BFB61A754640EA5C0004
:100980005B084FEA3202B6EB020E75EB030E22BF94
:10099000B61A754640EA9C005B084FEA3202B6EB95
:1009A000020E75EB030E22BFB61A754640EADC0054
:1009B00055EA060E18D04FEA051545EA16754FEAB6
:1009C00006164FEAC30343EA52734FEAC2025FEAD4
:1009D0001C1CC0D111F4801F0BD141EA00014FF063
:1009E00000004FF0004CB6E711F4801F04BF014334
:1009F0000020B4F1FD0C88BFBCF5E06F3FF6AFAE50
:100A0000B5EB030C04BFB6EB020C5FEA500C50F1DF
:100A1000000041EB045170BD0EF0004E4EEA113162
:100A200014EB5C04C2BFD4EB0C0541EA045170BD69
:100A300041F480114FF0000E013C90E645EA060EAD
:100A40008DE60CEA135594EA0C0F08BF95EA0C0FDB
:100A50003FF43BAF94EA0C0F0AD150EA01347FF423
:100A600034AF95EA0C0F7FF425AF104619462CE7FA
:100A700095EA0C0F06D152EA03353FF4FDAE10465D
:100A8000194622E750EA410618BF52EA43067FF4AE
:100A9000C5AE50EA41047FF40DAF52EA43057FF43E
:100AA000EBAE12E7000000000000000000000000B4
:100AB0004FF0FF3C06E000BF4FF0010C02E000BF2A
:100AC0004FF0010C4DF804CD4FEA410C7FEA6C5C0D
:100AD0004FEA430C18BF7FEA6C5C1BD001B050EAB0
:100AE000410C0CBF52EA430C91EA030F02BF90EA9B
:100AF000020F0020704710F1000F91EA030F58BF5A
:100B0000994208BF90422CBFD8176FEAE37040F0BB
:100B1000010070474FEA410C7FEA6C5C02D150EA59
:100B2000013C07D14FEA430C7FEA6C5CD6D152EA14
:100B3000033CD3D05DF8040B704700BF84461046D9
:100B400062468C461946634600E000BF01B5FFF7D8
:100B5000B7FF002848BF10F1000F01BD4DF808EDA8
:100B6000FFF7F4FF0CBF012000205DF808FB00BF79
:100B70004DF808EDFFF7EAFF34BF012000205DF8D3
:100B800008FB00BF4DF808EDFFF7E0FF94BF012020
:100B900000205DF808FB00BF4DF808EDFFF7CEFF21
:100BA00094BF012000205DF808FB00BF4DF808ED60
:100BB000FFF7C4FF34BF012000205DF808FB00BF31
:100BC0004FEA410212F5001215D211D56FF4787375
:100BD000B3EB625212D94FEAC12343F0004343EA18
:100BE000505311F0004F23FA02F018BF40427047F3
:100BF0004FF00000704750EA013005D111F000407D
:100C000008BF6FF0004070474FF00000704700BF12
:100C100053B94AB9002908BF00281CBF4FF0FF3163
:100C20004FF0FF3000F074B9ADF1080C6DE904CE5F
:100C300000F006F8DDF804E0DDE9022304B07047B7
:100C40002DE9F047089E04468846002B4BD18A4286
:100C5000154667D9B2FA82F24AB1C2F1200701FA09
:100C600002F320FA07F7954047EA030894404FEA59
:100C7000154E230CB8FBFEF71FFA85FC0EFB1788F8
:100C800043EA084307FB0CF1994209D9EB1807F135
:100C9000FF3080F01B81994240F21881023F2B44C3
:100CA0005B1AA4B2B3FBFEF00EFB103344EA03441C
:100CB00000FB0CFCA44509D92C1900F1FF3380F08E
:100CC0000781A44540F2048102382C4440EA0740E1
:100CD000A4EB0C0400271EB1D4400023C6E9004356
:100CE0003946BDE8F0878B4209D9002E00F0EB8031
:100CF0000027C6E9000138463946BDE8F087B3FA57
:100D000083F7002F47D18B4202D3824200F2FA8050
:100D1000841A61EB030301209846002EE0D0C6E957
:100D20000048DDE702B9FFDEB2FA82F2002A40F0A5
:100D30008F80491B4FEA154E1FFA85F80127B1FB3A
:100D4000FEFC230C0EFB1C1143EA014308FB0CF1D3
:100D5000994207D9EB180CF1FF3002D2994200F208
:100D6000CD808446591AA3B2B1FBFEF00EFB1014DD
:100D700043EA044408FB00F8A04507D92C1900F108
:100D8000FF3302D2A04500F2B6801846A4EB080457
:100D900040EA0C409FE7C7F1200CBB4022FA0CFE52
:100DA0004EEA030E01FA07F420FA0CF521FA0CF3CF
:100DB0004FEA1E482543B3FBF8F92C0C08FB193306
:100DC0001FFA8EFA44EA034309FB0AF49C4202FA32
:100DD00007F200FA07F10BD91EEB030309F1FF300C
:100DE00080F087809C4240F28480A9F1020973441C
:100DF0001B1BADB2B3FBF8F008FB103345EA03440C
:100E000000FB0AFAA24508D91EEB040400F1FF33E7
:100E10006BD2A24569D90238744440EA0940A0FB6C
:100E20000289A4EB0A044C45C2464B4654D351D028
:100E3000002E69D0B1EB0A0564EB030404FA0CFC44
:100E4000FD40FC404CEA0505C6E90054002747E791
:100E5000C2F1200320FA03F7954001FA02F021FACB
:100E600003F34FEA154E3843010CB3FBFEF71FFAAC
:100E700085F80EFB173341EA034107FB08F38B4269
:100E800004FA02F407D9691807F1FF3C2FD28B420C
:100E90002DD9023F2944CB1A81B2B3FBFEF00EFBE1
:100EA000103341EA034100FB08F38B4207D969186C
:100EB00000F1FF3C17D28B4215D902382944C91AD8
:100EC00040EA07473BE73746304609E70746E7E68B
:100ED0001846FBE64145ABD2B8EB020A69EB0E02BD
:100EE00001381346A4E76046E9E7184695E76746E8
:100EF000D1E781467CE702382C4447E7ACF1020C8D
:100F00002B442FE7384608E73746E9E600000000A3
:100F1000704700BF0000000000000000000000005B
:100F2000844641EA000313F003036DD1403A41D3F4
:100F300051F8043B40F8043B51F8043B40F8043BB3
:100F400051F8043B40F8043B51F8043B40F8043BA3
:100F500051F8043B40F8043B51F8043B40F8043B93
:100F600051F8043B40F8043B51F8043B40F8043B83
:100F700051F8043B40F8043B51F8043B40F8043B73
:100F800051F8043B40F8043B51F8043B40F8043B63
:100F900051F8043B40F8043B51F8043B40F8043B53
:100FA00051F8043B40F8043B51F8043B40F8043B43
:100FB000403ABDD2303211D351F8043B40F8043BE3
:100FC00051F8043B40F8043B51F8043B40F8043B23
:100FD00051F8043B40F8043B103AEDD20C3205D3F3
:100FE00051F8043B40F8043B043AF9D2043208D0EB
:100FF000D2071CBF11F8013B00F8013B01D30B885D
:1010000003806046704700BF082A13D38B078DD03A
:1010100010F003038AD0C3F10403D21ADB071CBF0C
:1010200011F8013B00F8013B80D331F8023B20F876
:10103000023B7BE7043AD9D3013A11F8013B00F8AF
:10104000013BF9D20B7803704B7843708B78837037
:101050006046704700000000000000000000000033
:1010600090F800F06DE9024520F007016FF0000CE8
:1010700010F0070491F820F040F049804FF0000490
:101080006FF00700D1E9002391F840F000F108006B
:1010900082FA4CF2A4FA8CF283FA4CF3A2FA8CF3A3
:1010A0004BBBD1E9022382FA4CF200F10800A4FA0A
:1010B0008CF283FA4CF3A2FA8CF3E3B9D1E904235E
:1010C00082FA4CF200F10800A4FA8CF283FA4CF395
:1010D000A2FA8CF37BB9D1E9062301F1200182FA4F
:1010E0004CF200F10800A4FA8CF283FA4CF3A2FA55
:1010F0008CF3002BC6D0002A04BF04301A4612BA63
:10110000B2FA82F2FDE8024500EBD2007047D1E965
:10111000002304F00305C4F100004FEAC50514F0F4
:10112000040F91F840F00CFA05F562EA05021CBFC5
:1011300063EA050362464FF00004A9E700000000DF
:1011400001F0FF01102A2BDB10F0070F08D010F878
:10115000013B013A8B422DD010F0070F42B3F6D17C
:10116000F0B441EA012141EA014122F007047FF095
:1011700000070023F0E80256083C85EA010586EAEC
:10118000010685FA47F5A3FA87F586FA47F6A5FA28
:1011900087F68EB9EED1F0BC01F0FF0102F0070234
:1011A00032B110F8013B013A83EA010313B1F8D1DF
:1011B0000020704701387047002D06BF35460338C0
:1011C000073815F0010F07D1013015F4807F02BFF9
:1011D000013015F4C03F0130F0BC0138704700BF4A
:1011E0004FEA410C7FEA6C5C02D150EA013C0AD123
:1011F0004FEA430C7FEA6C5C02D152EA033C02D115
:101200004FF0000070474FF00100704700000000F1
:1012100000B5074B07491A68087883B00192019A14
:101220001B689A4202D103B05DF804FB00F0E0F9BC
:101230000008002044120020000000000000000010
:1012400000B5074B07491A68087083B00192019AEC
:101250001B689A4202D103B05DF804FB00F0C8F9A4
:1012600000080020441200200000000000000000E0
:1012700000B5074B07491A68088883B00192019AA4
:101280001B689A4202D103B05DF804FB00F0B0F98C
:1012900000080020220800200000000000000000DC
:1012A00000B5074B07491A68088083B00192019A7C
:1012B0001B689A4202D103B05DF804FB00F098F974
:1012C00000080020220800200000000000000000AC
:1012D00000B5074B07491A68087083B00192019A5C
:1012E0001B689A4202D103B05DF804FB00F080F95C
:1012F000000800202008002000000000000000007E
:1013000000B5074B07491A68087883B00192019A23
:101310001B689A4202D103B05DF804FB00F068F943
:10132000000800204512002000000000000000001E
:1013300000B5074B07491A68087083B00192019AFB
:101340001B689A4202D103B05DF804FB00F050F92B
:1013500000080020451200200000000000000000EE
:1013600010B5594B594C1B78226882B00192042B5E
:1013700000F2A180DFE803F0234261800300002334
:1013800019461846FF2202F053F900231946FF229E
:10139000012002F04DF900231946FF22022002F03D
:1013A00047F9019A23689A4240F08B80002319463E
:1013B000FF22032002B0BDE8104002F039B9FF233C
:1013C0001A461946002002F033F9FF231A4619463F
:1013D000012002F02DF9FF231A461946022002F0DF
:1013E00027F9019A23689A426BD1FF231A461946BE
:1013F000032002B0BDE8104002F01AB90023FF221A
:101400001846114602F014F9FF221146002301206C
:1014100002F00EF9FF2211460023022002F008F923
:10142000019A23689A424CD1FF22114600230320DF
:1014300002B0BDE8104002F0FBB800221146104691
:10144000FF2302F0F5F800221146FF23012002F0ED
:10145000EFF800221146FF23022002F0E9F8019A7A
:1014600023689A422DD100221146FF23032002B0A7
:10147000BDE8104002F0DCB8FF23002219461046F8
:1014800002F0D6F8FF2319460022012002F0D0F81E
:10149000FF2319460022022002F0CAF8019A2368AD
:1014A0009A420ED1FF2319460022032002B0BDE864
:1014B000104002F0BDB8019A23689A4201D102B0EF
:1014C00010BD00F095F800BF2008002000080020A3
:1014D00010B5124C82B000232268019219461A46B8
:1014E000184602F0A5F800231A461946012002F01A
:1014F0009FF800231A461946022002F099F8019A33
:1015000023689A4208D100231A461946032002B0E4
:10151000BDE8104002F08CB800F06AF80008002026
:10152000F0B5144D144F2B68144E83B04FF47A74F9
:101530000193FFF715FF388804FB00F000F2E73055
:10154000A6FB0030800903F07BFFFFF7C1FF019A83
:101550002B689A420CD1388804FB00F000F2E73087
:10156000A6FB0030800903B0BDE8F04003F068BF7F
:1015700000F03EF80008002022080020D34D621041
:1015800000B5144B83B01B68019305F0A1FA03F07A
:1015900017F902F0D5F802F053FF02F0C9FE01F08E
:1015A00087F901F075FA01F0F3FA01F0C9FE02F0D3
:1015B000FFFB094A09490A4803F022F802F0E8FD56
:1015C00002F036FE00F0E4FB00F08AFDFFF7A8FF12
:1015D000FCE700BF00080020040800200C080020E1
:1015E0003812002000000000000000000000000091
:1015F00000B5084B83B01A680192019A1B689A42A1
:1016000005D1054803B05DF804EB03F041B9FFF7DD
:10161000EFFF00BF00080020B01E0108000000001E
:1016200070B52DED028B274E274C336882B008EE43
:10163000100A0020019302F08BFB002002F0A0FBB7
:101640002068404202F024FB206802F039FB02F0DF
:101650004FFB054602F064FBDFED1C6A9FED1C6A40
:10166000DFED1C7AB8EE488A88EE267AF2EE0A6A36
:1016700027EE067A27EE277AC7EE267AFDEEE77A7E
:1016800017EE904AA5420BDAA04202DB08E0844242
:1016900006DD02F02DFB054602F042FBAC42F6DC13
:1016A000002002F0F5FA019A33689A4207D100202F
:1016B00002B0BDEC028BBDE8704002F001BBFFF749
:1016C00097FF00BF00080020240800200000B4435A
:1016D000CD75864100007A44000000000000000043
:1016E00070B52DED028B274E274C336882B008EE83
:1016F000100A0020019302F02BFB002002F040FBB7
:10170000206802F0C5FA2068404202F0D9FA02F0DF
:10171000EFFA054602F004FBDFED1C6A9FED1C6A40
:10172000DFED1C7AB8EE488A88EE267AF2EE0A6A75
:1017300027EE067A27EE277AC7EE267AFDEEE77ABD
:1017400017EE904AA5420BDAA04202DB08E0844281
:1017500006DD02F0CDFA054602F0E2FAAC42F6DC14
:10176000002002F095FA019A33689A4207D10020CE
:1017700002B0BDEC028BBDE8704002F0A1BAFFF7E9
:1017800037FF00BF00080020240800200000B443F9
:10179000CD75864100007A44000000000000000082
:1017A00000B50A4B83B01A680192019A1B6820B9F0
:1017B0009A4209D103B05DF804FB9A4204D103B008
:1017C0005DF804EBFFF72CBFFFF712FF00080020C5
:1017D00000B50A4B83B01A680192019A1B6820B9C0
:1017E0009A4209D103B05DF804FB9A4204D103B0D8
:1017F0005DF804EBFFF774BFFFF7FAFE0008002066
:1018000030B5224C83B023680193032835D8DFE834
:1018100000F026160C02019A23689A4233D15A200E
:1018200003B0BDE83040FFF75BBF019A23689A42DE
:1018300029D15A2003B0BDE83040FFF7F1BE144D66
:101840002868404202F024FA019A23689A421AD189
:101850002868404203B0BDE8304002F031BA0C4D78
:10186000286802F015FA019A23689A420BD1286879
:1018700003B0BDE8304002F023BA019A23689A42CF
:1018800001D103B030BDFFF7B3FE00BF0008002058
:1018900024080020000000000000000000000000FC
:1018A00070B5411A8DB22E4E82B02CB233680193BE
:1018B0002046FEF777FE21F00043194626A3D3E920
:1018C0000023FFF755F9002838D1264B9FED267AE3
:1018D00019880D442DB207EE905AF8EEE77AF4EE2F
:1018E000C77AF1EE10FA1BDD4FF49D729FED1F7A5F
:1018F0001A8004EB840404EB8404640107EE904A2C
:10190000F8EEE77A77EE877AF5EEC07AF1EE10FA24
:1019100013DD0020019A33689A4219D102B070BDDC
:101920009FED137AF4EEC77AF1EE10FA08D54FF670
:10193000C6629FED107A1A80DBE707D40220E9E740
:10194000B0EE0C7A1D8027EE877AD2E70120E1E71E
:10195000FFF74EFEAFF300800000000000C06240C1
:10196000000800204E12002092249D43006089440C
:1019700092249DC3006089C40000000000000000A4
:10198000F0B51C4D83B02B6801930746202383F3E9
:101990001188194C04F08CF803F01AF8A66A03F0C9
:1019A00037F804F09DF82368A34204D0A2699B682D
:1019B00092689A4217D3002383F31188019A2B6807
:1019C0009A4214D14FF47A7101FB07F10B4B01F2EB
:1019D000E731A3FB013106EB9111304603B0BDE8BE
:1019E000F04003F06DBD064802F052FFE3E7FFF759
:1019F000FFFD00BF0008002068560020D34D621094
:101A0000E01E0108000000000000000000000000CF
:101A100030B5184C83B023680193022002F028FCF3
:101A20004FF47A71FFF73CFF40B9134B1B78A3B911
:101A3000019A23689A420ED103B030BD0128F7D134
:101A40000D4B1B78002BF3D00220FFF7C1FE019A4B
:101A500023689A4208D0FFF7CBFD0220FFF7A0FED3
:101A6000019A23689A42F6D1002003B0BDE83040C5
:101A7000FFF7C6BE00080020290800200000000073
:101A800010B50C4C82B0236801930120FFF750FC85
:101A90005A20FFF79DFE0020FFF7B2FE019A23684F
:101AA0009A4205D1002002B0BDE81040FFF740BCCB
:101AB000FFF79EFD0008002000000000000000006D
:101AC0002DE9F0435A4DDFF884812B6883B0022062
:101AD000019302F0CDFB0646002002F0C9FB074649
:101AE000052002F0C5FB534B9FED536AD3ED007AFE
:101AF000DFED526A98F80090F8EEE77AB2EE0A7AD3
:101B000067EE877A87EE867AC6EE877AFCEEE77A0A
:101B100017EE903A9CB2B9F1000F1AD0484F494ED7
:101B20003A883388B3EB520F35D9FFF7A9FF204627
:101B3000FFF726FF444A00230121117033803B80C8
:101B400088F80030019A2B689A426ED103B0BDE844
:101B5000F083B6B2772EBFB224D8FA2F36D82DD163
:101B6000384A374B0026012016801E80FFF7E0FB25
:101B7000B420FFF715FE3046FFF742FE3046FFF770
:101B8000D7FB019A2B689A424FD1204603B0BDE89B
:101B9000F043FFF7F5BE0120FFF732FE3388013333
:101BA0003380CFE7782EDBD0F92F28D8244B1B8841
:101BB0000A2BC7D9012388F80030C3E7204A2249FD
:101BC000138881F8009001331380BBE71D4A1C4B3A
:101BD000A2F800900120A3F80090FFF7A9FB5A207B
:101BE000FFF7F6FD4846FFF70BFE4846FFF7A0FB60
:101BF0002046FFF7C5FE144B01221A70A2E7FA2F08
:101C0000AED080B25928ABD80E4A0D4BA2F8009046
:101C10000120A3F80090FFF78BFB5A20FFF7C0FDCF
:101C20004846FFF7EDFD4846A9E7FFF7E1FC00BF96
:101C3000000800202408002000007A440048A34542
:101C40004C12002048120020290800204A120020CF
:101C500010B51A4C82B023680193FFF709FBB0F569
:101C60007A7F1FD0B0F5FA6F12D0B0F5FA7F05D0A9
:101C7000019A23689A421FD102B010BD104B1A7806
:101C8000042AF5D00F490020042208701A70EFE7EB
:101C90000B4B1A78142AEBD00A4900201422087042
:101CA0001A70E5E7064B1A780A2AE1D005490020A8
:101CB0000A2208701A70DBE7FFF79AFC0008002080
:101CC000280800204612002000000000000000004C
:101CD0002DE9F04F274C284BA26928491B68DFF8F3
:101CE000A8B0274D274FDFF8A4A0916183B04FF033
:101CF00020090193002632E089F3118803F0D8FE11
:101D000002F066FED4F8288002F082FE03F0E8FEBE
:101D10002368A34207D0A2699B6892689A4202D2C4
:101D2000504602F0B5FD86F31188FFF7C9FE9BF817
:101D300000302BB12A783B789A4201D1FFF768FE38
:101D4000FFF786FF2B783A789A4218BF013308F1E3
:101D5000320140460CBF2E702B7003F0B1FBFFF731
:101D600057FA0028C8D0322003F06AFB322003F073
:101D700067FBF8E76856002000080020D01E010825
:101D8000461200202808002029080020E01E010833
:101D900010B50A4C0A4B22680A4884B04FF4AF6170
:101DA0000392002200923F2203F0F2FA039A236882
:101DB0009A4201D104B010BDFFF71AFC00080020C0
:101DC000D11C00085012002000000000000000009C
:101DD00080B5264C264AA3692649996186B002231C
:101DE0002025166800930A224FF420730021CDE9C4
:101DF00001553020059601F04BF800F051FF00200E
:101E000000F086FF1C4E1D4F00F0EAFE0A2003F092
:101E100017FB002001F0C4FAB04613E003F0D0F93C
:101E200002F0F6FD03F05CFE2368A34207D0A2692E
:101E30009B6892689A4202D2384602F029FD00233C
:101E400083F3118800F0A4FF00F00AFF85F31188E6
:101E500003F02EFE02F0BCFD02F08AFEB368002BF8
:101E6000DCDC404603F0FCFED8E700BF68560020EB
:101E700000080020F01E01082C080020101F010897
:101E800030B5164C164D174A2968237883B0019156
:101E90004FF425711160BBB1022B4FF0B4000DD08F
:101EA000FFF77EFCB420FFF793FC237801992A68A2
:101EB0000133914223700ED103B030BDFFF770FCA7
:101EC0005A20FFF785FCF0E75A20FFF769FCB420A1
:101ED000FFF77EFCE9E7FFF78BFB00BFC817002088
:101EE000000800202408002000000000000000007E
:101EF0002DE9F047DFF8B480264FD8F80030264EA1
:101F0000264D274882B0019303F072FE00233B80E8
:101F100033802B8000F014FF2249B7F800E0B6F8B8
:101F200000C02C88013001F5A06910F8013C01F8CF
:101F3000013C10F8022B01F8022B4FEAC30A0AF009
:101F4000380A0AEB521A02F01F020EEBD303D444F4
:101F5000224449451FFA83FE1FFA8CFC94B2E4D157
:101F6000114ADDF80490D8F80080A2FB0E13A2FB02
:101F70000C01A2FB0402490A580AC1454FEA522348
:101F8000388031802B8002D102B0BDE8F087FFF7A6
:101F90002FFB00BFD01C0020CE1C0020CC1C00203A
:101FA0002C080020CD170020CDCCCCCC0008002080
:101FB00030B5374D374C2B88226883B0073B022B56
:101FC00001921CD8344B1B880B3B022B17D8334B88
:101FD0001B88073B022B12D80120FFF731F90320A1
:101FE000FFF776F92E4B1B78022B46D92D4B00229A
:101FF0001A60019A23689A4248D103B030BDFFF7B6
:1020000007F90028E8D12B885A1F022A1DD8224B35
:102010001B88113B022BECD8204B1B88093B022B61
:10202000E7D802F025F99628E3DDFFF769F90028E3
:10203000DFD1FFF74DF9019A23689A4226D1B420E7
:1020400003B0BDE83040FFF7C3BB022BD1D8124B21
:102050001B88053B012BCCD8104B1B88053B012B63
:10206000C7D84FF4FA70FFF71BF90220FFF730F9D9
:102070000C4B4FF4DC721A60BBE7019A23689A425A
:1020800004D103B0BDE83040FFF7FABEFFF7B0FA65
:10209000D01C002000080020CE1C0020CC1C0020FA
:1020A000C8170020240800200000000000000000E5
:1020B00000B5064A064B926906491B68916183B0D8
:1020C0000193FFF715FFFFF773FFFAE7685600204B
:1020D00000080020001F01080000000000000000B0
:1020E00030B50E4C0E4B22680E4885B00025039289
:1020F0004FF4AF614022009503F04AF90A4B009576
:1021000040220A484FF4AF6103F042F9039A236872
:102110009A4201D105B030BDFFF76AFA00080020ED
:10212000B120000850220020D11D0008D81C00203A
:1021300030B5104D81682B680F4A83B001930B684E
:1021400023F001030B608168946A03E0936A1B1B10
:10215000C72B09D8086810F00100F7D1019A2B6845
:102160009A4204D103B030BD4FF0FF30F6E7FFF7DD
:102170003FFA00BF00080020685600200000000061
:1021800030B5184D83B02B68019311F00C0F044645
:102190000AD00378032B13D00622636822709A6852
:1021A0001AB100212046904763685B688BB10199A2
:1021B0002A68914213D1204603B0BDE83040184749
:1021C000FFF7B6FF0622636822709A68002AE8D1FA
:1021D000EBE7019A2B689A4201D103B030BDFFF7BB
:1021E00007FA00BF00080020000000000000000007
:1021F000F0B5284D83B02B68019303F021FC02F069
:1022000067FC254B1E69F20715D55A69234C42F02D
:1022100001025A612778BB1F012B2AD90522636866
:1022200022701B680BB120469847042F27D0022F3D
:1022300025D003232370B30710D5174A174C5369D1
:1022400043F0020353612378032B1DD063689B681E
:102250000622227013B101211048984702F060FC59
:10226000019A2B689A4213D103B0BDE8F04004F004
:10227000EFBB019A2B689A420AD103B0F0BD02234A
:102280002370B307EAD5D8E72046FFF751FFDDE713
:10229000FFF7AEF90008002000000550C827002015
:1022A00030B50B4D0B4C2B6883B02046019300F0EA
:1022B0002FF9019A2B680848084D094921619A4273
:1022C000C4E9025001D103B030BDFFF791F900BF5E
:1022D00000080020C82700207C2F010800000550BE
:1022E000165502020000000000000000000000007F
:1022F0002DE9F0412F4C0578266882B0012D01961A
:1023000006D0019A23689A4252D102B0BDE8F0810A
:10231000294DA842F5D10E4690461F46274AE86847
:102320002B460C2107F094FD002839D1D5E9023263
:10233000126828339360EB681A68042151611B68A6
:10234000C3F80C80EB681A6817611B68B6085E60FA
:102350002B694FB343F480232B61E968184A09685D
:102360000B60EB6819680B6843F001030B60536B5B
:1023700043F0010353630B214E2007F049FAD5E9DE
:102380000113DA6842F00102DA60DA6842F0020210
:10239000DA60CA6822F4804222F001021A60B0E7D3
:1023A000084802F075FAC1E723F480232B61D4E7D3
:1023B000FFF71EF900080020C8270020812100082F
:1023C00000380240201F010800000000000000004B
:1023D00030B5184C0378226883B0022B019205D0E7
:1023E000019A23689A4223D103B030BD124B984220
:1023F0000546F5D18168114A0B6823F4804323F028
:1024000001030B608168CB6823F00F03CB60536B33
:1024100023F0010353634E2007F022FA019A236848
:102420009A4205D1E86803B0BDE8304007F078BDB6
:10243000FFF7DEF800080020C8270020003802401F
:1024400000B50F4B0278196883B0022A01910ED1B2
:1024500081680A6842F002020A6081680A6842F4F0
:1024600080420A6081680A6842F001020A60019AAB
:102470001B689A4202D103B05DF804FBFFF7B8F87D
:102480000008002000000000000000000000000024
:1024900000B50F4B0278196883B0022A01910ED162
:1024A00081680A6822F002020A6081680A6842F4C0
:1024B00080420A6081680A6842F001020A60019A5B
:1024C0001B689A4202D103B05DF804FBFFF790F855
:1024D00000080020000000000000000000000000D4
:1024E00000B5074B83B01A680192019A1B689A42A3
:1024F00004D103B05DF804EBFFF7D2BEFFF778F824
:1025000000080020000000000000000000000000A3
:1025100000B5084B83B01A68019201220270019A3B
:102520001B6800219A42416002D103B05DF804FBB0
:10253000FFF75EF800080020000000000000000027
:102540002DE9F043254D83B02C680194DDF82890E7
:102550000F4616469846044618B111B1204B9A42D0
:102560002FD9204802F094F9202383F3118803F037
:102570009FFA02F02DFA2378012B02D0194802F0BD
:1025800087F94246314620464B466760FFF7B0FE6A
:102590000223237002F03CFA03F0A2FA124B1A68ED
:1025A0009A4204D0996993688A689A420FD30023AB
:1025B00083F31188019A2B689A420CD103B0BDE8CD
:1025C000F0839307CDD1B8F1000FCDD1C9E707480B
:1025D00002F05EF9EBE7FFF70BF800BF0008002000
:1025E000FCFF0300501F010868560020401F01082F
:1025F00030B51C4D83B02B680193044658B320239B
:1026000083F3118803F054FA02F0E2F92378022BE5
:1026100002D0154802F03CF92046FFF7D9FE01230D
:10262000237002F0F5F903F05BFA104B1A689A4236
:1026300004D0996993688A689A4208D3002383F387
:102640001188019A2B689A4209D103B030BD08481D
:1026500002F01EF9F2E7044802F01AF9CFE7FEF79C
:10266000C7FF00BF00080020601F01086856002057
:10267000401F0108000000000000000000000000F2
:1026800030B51C4D83B02B680193044658B320230A
:1026900083F3118803F00CFA02F09AF92378022BE5
:1026A00002D0154802F0F4F82046FFF7C9FE0423D3
:1026B000237002F0ADF903F013FA104B1A689A4236
:1026C00004D0996993688A689A4208D3002383F3F7
:1026D0001188019A2B689A4209D103B030BD08488D
:1026E00002F0D6F8F2E7044802F0D2F8CFE7FEF79E
:1026F0007FFF00BF00080020701F010868560020FF
:10270000401F010800000000000000000000000061
:1027100030B51C4D83B02B680193044658B3202379
:1027200083F3118803F0C4F902F052F92378022BE5
:1027300002D0154802F0ACF82046FFF7A9FE0323AB
:10274000237002F065F903F0CBF9104B1A689A4236
:1027500004D0996993688A689A4208D3002383F366
:102760001188019A2B689A4209D103B030BD0848FC
:1027700002F08EF8F2E7044802F08AF8CFE7FEF79D
:1027800037FF00BF00080020901F01086856002096
:10279000401F0108000000000000000000000000D1
:1027A00000B5084B83B01A680192019A1B689A42DF
:1027B00005D1054803B05DF804EB02F069B8FEF7F7
:1027C00017FF00BF00080020A01F01080000000044
:1027D00070B51849184C0A78236882B001934FF4F9
:1027E000B47303FB00F562B1019A23689A421FD1CA
:1027F00012481349B1FBF5F102B0BDE8704004F096
:102800008FBD1048104A01260E70802141830F4968
:102810000F4804F04DFC019A23689A4208D10748FA
:102820000749B1FBF5F102B0BDE8704004F0E0BD2E
:10283000FEF7DEFE00280020000800201C640020B7
:1028400000BD0105000C0240B01F0108F027002068
:10285000B860002000000000000000000000000040
:1028600010B50C4C0C4B22680C4882B001928022AF
:102870001A8304F01DFE0A4804F05AFC019A2368EA
:10288000084900209A42087001D102B010BDFEF73D
:10289000AFFE00BF00080020000C02401C640020B6
:1028A000B8600020002800200000000000000000A8
:1028B00070B5154D154A164B2968164E9E6082B0AC
:1028C00000244FF40060108001919470114612486A
:1028D0005C6001221A60DC6004F06AFB0F4B104E52
:1028E00010485C60202219469A60DC601E6004F08B
:1028F000CFFC019A2B689A4204D102B0BDE8704027
:10290000FFF7AEBFFEF774FE00080020EC270020A2
:10291000F0270020A1270008B8600020DC27002055
:1029200000BD01051C640020000000000000000044
:1029300030B50F4C83B0236801930D4608B1FFF703
:1029400047FF4FF47A700B4900FB05F000F2E730C7
:10295000A1FB0030800902F073FD019A23689A42BE
:1029600004D103B0BDE83040FFF77ABFFEF740FE68
:1029700000080020D34D621000000000000000009D
:102980002DE9F0432DED028BDFF8FC80344BD8F8B5
:10299000182034491B68344DDFED348A9FED348AAA
:1029A000344E354F916183B00193202383F3118816
:1029B00003F07EF802F00CF8304802F021FE2860A7
:1029C00002F026F803F08CF8D8F80030434508D020
:1029D000D8F818209B6892689A4202D2284801F0E1
:1029E00057FF4FF0000989F311882B681A8972BBD1
:1029F00030E0D3E9001202EB890393ED007A31F85D
:102A00001900C8EE877A09F10109FCEEE77A17EEA2
:102A1000903A9CB22146FFF78BFF07EE904AF8EE02
:102A2000E77A4FF47A7367EE887AFCEEE77A17EE6E
:102A3000902A90B203FB00F000F2E730A7FB0030D1
:102A4000800902F0FDFC2B681A894A4502DD3278C4
:102A5000002ACED100230B48337003F089FBA4E792
:102A600000080020802201080828002000007A4485
:102A70006666A63F38080020D34D62100428002067
:102A8000902201083C080020685600200000000049
:102A900010B50A4C0A4B22680A4884B04FF4FC7106
:102AA000039200220092402202F072FC039A2368F3
:102AB0009A4201D104B010BDFEF79AFD0008002033
:102AC00081290008102800200000000000000000FC
:102AD00000B5074B07491A68087083B00192019A44
:102AE0001B689A4202D103B05DF804FBFEF780FD3B
:102AF00000080020082A002000000000000000005C
:102B000000B5064B83B01A680192019A1B689A427D
:102B100002D103B05DF804FBFEF76AFD0008002057
:102B200000B5064B83B01A680192019A1B689A425D
:102B300002D103B05DF804FBFEF75AFD0008002047
:102B400010B5104C104B226882B0019201221A700D
:102B5000202383F3118802F0DBFF01F079FF0B489B
:102B600003F0DEFA01F094FF02F0EAFF002383F3A2
:102B70001188019A23689A4201D102B010BDFEF774
:102B800037FD00BF00080020142A00204408002060
:102B900030B50E4D0E4C2B6883B00193FFF7A0FCAF
:102BA000206808B10BF0B4FC4FF496400BF0A8FC81
:102BB00001992A682060B0FA80F35B099142C3F161
:102BC000000001D103B030BDFEF712FD0008002067
:102BD0000C2A00200000000000000000000000009F
:102BE00030B5174D174C2B78226885B0012B039216
:102BF00020D000F005FC144B1B78ABB9B0F5964F14
:102C000015D8124A124B12681B68124900920246EC
:102C10001148FFF795FC01232B700020039A2368CD
:102C20009A420BD105B030BDB0F5165FE9D94FF02F
:102C3000FF30F3E70848FFF7DBFCDAE7FEF7D8FCE4
:102C40000A2A0020000800200B2A0020102A002059
:102C50000C2A0020A0220108C82700200000000044
:102C600010B50B4C0B48236882B0019303F020F998
:102C7000094803F0FDFA019A23689A4205D10548F4
:102C800002B0BDE8104003F04BB9FEF7B1FC00BF45
:102C9000000800204C08002044080020000000002C
:102CA00030B5154D154C164B2268286883B001923B
:102CB00001221A7008B10BF02BFC4FF416500BF0E8
:102CC0001FFC286098B10F4D286808B10BF020FC5C
:102CD0004FF416500BF014FCB0FA80F35B09286037
:102CE0005842019A23689A4204D103B030BD4FF094
:102CF000FF30F6E7FEF77CFC0C2A002000080020DD
:102D00000B2A0020102A0020000000000000000014
:102D100000B5074B07491A68087083B00192019A01
:102D20001B689A4202D103B05DF804FBFEF760FC19
:102D300000080020092A0020000000000000000018
:102D400000B50D4A0D4B1278196883B0019142B15C
:102D50000B4AD26812681268120302D4094A10683A
:102D600001E0094A1068019A1B689A4202D103B037
:102D70005DF804FBFEF73CFC0B2A00200008002055
:102D8000C8270020102A00200C2A00200000000084
:102D900000B50E4A0E4B1278196883B001914AB102
:102DA000019A1B689A420FD10A4803B05DF804EB00
:102DB000FFF7AEBC019A1B689A4205D1054803B0E3
:102DC0005DF804EBFFF75CBCFEF712FC092A00205B
:102DD00000080020C82700200000000000000000BC
:102DE00070B5274D82B02B6801930646012203215E
:102DF0006E2000F0CDFB044630B1019A2B689A4258
:102E000020463AD102B070BD32464E216E2000F00D
:102E1000BFFB04460028F0D1442E07D00246B7215C
:102E20006E2000F0B5FBB8B10446E6E70122B721F9
:102E30006E2000F0ADFB0028F6D1224603216E2063
:102E400000F0A6FB0028EFD1032211216E2000F034
:102E50009FFB78B10446D0E7224603216E2000F0A4
:102E600097FB0028E0D10A2211216E2000F090FB90
:102E70000028D9D1034B1E71BFE7FEF7B9FB00BF95
:102E800000080020182A00200000000000000000B8
:102E90002DE9F04F8FB0DFF80084DDF860C0D8F87E
:102EA00000400D940CF1FF355C1EB3F5207F9DF8BA
:102EB00064909DF868B00C44154400F21282BCF591
:102EC000F07F00F20E82B1F5207F0E4600F21282F2
:102ED000B2F5F07F174600F21082A14280F0048222
:102EE000B4F5207F00F20082AA4280F00082B5F59E
:102EF000F07F00F2FC81B9F1400F824600F0B08112
:102F0000B9F1800F23D0B9F1200F00F09C8100238C
:102F1000CDE90033BBF1400F2FD0BBF1800F00F0A3
:102F2000CB81BBF1200F00F0B9810023CDE9023342
:102F3000002203216E2000F02BFBA0B30D9AD8F8DD
:102F400000309A4240F0E2810FB0BDE8F08F9A075E
:102F500040F0D681CC4A8C085900661CA2FB0101C6
:102F6000A2FB030204EB930406EBD2030093BBF134
:102F7000400F06EBD1030193CFD11CF0010F40F0BD
:102F8000C281C14B7D084FEA4C026F1CA3FB0212A9
:102F9000A3FB0C1307EB9303029307EB920305EBE0
:102FA0005C050393C4E702465B216E2000F0F0FA53
:102FB0000028C3D15046FFF713FF0028BED10246B8
:102FC00003216E2000F0E4FA0028B7D1C6F30723EE
:102FD0001A4608216E20049300F0DAFA0028ADD1D9
:102FE000F3B21A4609216E20059300F0D1FA0028A9
:102FF000A4D1C7F307231A460A216E20069300F0D6
:10300000C7FA00289AD1FBB21A460B216E2007930B
:1030100000F0BEFA002891D1C4F307231A460C2110
:103020006E20089300F0B4FA002887D1E3B21A4664
:103030000D216E20099300F0ABFA00287FF47EAFDB
:10304000C5F307231A460E216E200A9300F0A0FA5A
:1030500000287FF473AFEBB21A460F216E200B935A
:1030600000F096FA00287FF469AF049A35216E20AB
:1030700000F08EFA00287FF461AF059A36216E20A9
:1030800000F086FA00287FF459AF089A37216E20A5
:1030900000F07EFA00287FF451AF099A38216E20A3
:1030A00000F076FA00287FF449AF069A39216E20A5
:1030B00000F06EFA00287FF441AF079A3A216E20A3
:1030C00000F066FA00287FF439AF0A9A3B216E209F
:1030D00000F05EFA00287FF431AF0B9A3C216E209D
:1030E00000F056FA00287FF429AF009B3D21C3F37E
:1030F00007226E2000F04CFA00287FF41FAF9DF8E5
:1031000000203E216E2000F043FA00287FF416AF25
:10311000019B3F21C3F307226E2000F039FA0028FB
:103120007FF40CAF9DF8042040216E2000F030FAAF
:1031300000287FF403AF029B4121C3F307226E20D6
:1031400000F026FA00287FF4F9AE9DF8082042210D
:103150006E2000F01DFA00287FF4F0AE039B43219F
:10316000C3F307226E2000F013FA00287FF4E6AEC6
:103170009DF80C2044216E2000F00AFA00287FF40C
:10318000DDAE012203216E2000F002FA00287FF458
:10319000D5AE4A4693216E2000F0FAF900287FF45C
:1031A000CDAE5A4694216E2000F0F2F900287FF44B
:1031B000C5AE012203216E2000F0EAF900287FF459
:1031C000BDAE0134A31B07EE103ADFED307AB8EE46
:1031D000477ABAF1440F77EEC77A00F09980B0EEE3
:1031E000006AF2EE006AE7EE066A77EEA77AB0EEC2
:1031F000667A67EE877ADFED266A87EEA67AFCEEBE
:10320000C77ACDED007A009B9521C3F307226E208B
:1032100000F0BEF900287FF491AE9DF800209621C1
:103220006E2000F0B5F900287FF488AE194B013507
:10323000EF1BA41B5F801C8083F804A083F805901B
:1032400083F806B07AE610495A00A1FB030306EBA7
:103250005303A1FB0212009306EB5203019359E6BC
:10326000D9074DD4084A74085900661CA2FB010115
:10327000A2FB030204EB530406EB9203009306EB5C
:103280009103019346E600BFABAAAAAA000022441C
:103290000000A344182A002000080020244A4FEA16
:1032A0004C03A2FB0C1CA2FB032307EB530307EB0D
:1032B0005C02029203933BE61CF0030F23D11C4BEC
:1032C000BD084FEA4C026F1CA3FB0212A3FB0C13B8
:1032D00007EBD303029307EBD20305EB9C050393A3
:1032E00026E66FF0070029E66FF0030026E66FF090
:1032F000040023E66FF0010020E66FF002001DE6F7
:103300006FF005001AE66FF0060017E6FEF770F999
:10331000F2EE006A37EE267ADFED066A67EE277A6C
:1033200087EEA67AFCEEC77ACDED007A6BE700BF98
:10333000ABAAAAAA0000244400000000000000007C
:1033400010B5114C86B02368059300F0B1F80F4911
:103350000F4804F0CDFA012200210D4804F060FB73
:1033600020237822CDE901330092A023B422F0215A
:103370000220FFF78DFD059A23689A4201D106B01D
:1033800010BDFEF735F900BF00080020B02201088B
:103390008064002000000000000000000000000029
:1033A00030B5164C83B023680193054600230222F2
:1033B00003216E208DF8033000F0EAF828B1019A5D
:1033C00023689A4218D103B030BD0DF103020421E5
:1033D0006E2000F08DF80028F1D19DF80320012D1A
:1033E0000CBF02F0FB0242F0040204216E208DF8B3
:1033F000032000F0CDF8E2E7FEF7FAF8000800201D
:1034000010B50A4B0A4A1988146858881B7982B08B
:10341000442B019400FB01F00199136818BF400090
:10342000994201D102B010BDFEF7E2F8182A00203F
:103430000008002000000000000000000000000064
:1034400070B5164E16483368154D82B005224FF4FC
:103450008071019308F0D4FC20246B6983F480739D
:103460006B61012001F0ECFF631E13F0FF04F4D147
:103470004FF4807140F206222983094808F0C0FC0D
:10348000019A33689A4206D10649074802B0BDE85E
:10349000704004F075B8FEF7ABF800BF00080020DC
:1034A00000040240F0220108E86000200000000053
:1034B00000B50C4A0C4B1278196883B0012A0191AF
:1034C000019A1B6804D09A4209D103B05DF804FB4D
:1034D0009A4204D103B05DF804EBFFF7B1BFFEF7E9
:1034E00087F800BFE860002000080020000000000E
:1034F0002DE9F041224C234E88B0002335688DF829
:103500001830804620468DF814101746079504F0B1
:103510004FF92378012B0CD00420012306AACDE912
:1035200001300092414605AA204604F0D1F8054634
:1035300068B9134804F05CF99DF818303B7000201E
:10354000079A33689A4218D108B0BDE8F081204646
:1035500004F0A6F823780C4A052B106004D0084824
:1035600004F046F968B2EBE7204604F051F82378FE
:10357000012BF4D1FFF764FFF1E7FEF739F800BF44
:10358000E860002000080020202A00200000000041
:10359000F0B5214C214E89B03368079307460025CA
:1035A00020468DF818108DF819208DF8145004F06D
:1035B000FFF82378012B0CD0042205AB0195029271
:1035C00000933946022306AA204604F081F80546F6
:1035D00048B9114804F00CF90020079A33689A4260
:1035E00017D109B0F0BD204604F05AF823780C4AF0
:1035F000052B106004D0084804F0FAF868B2ECE734
:10360000204604F005F82378012BF4D1FFF718FFCA
:10361000F1E7FDF7EDFF00BFE860002000080020A3
:10362000202A002000000000000000000000000030
:1036300070B5094D094E2C6882B000EB4000019432
:10364000315434180198296862708842A37001D1FE
:1036500002B070BDFDF7CCFF00080020242A002036
:1036600030B5094B094D044607CB83B02B68019355
:10367000206001982B6861609842A26001D103B07C
:1036800030BDFDF7B5FF00BF242A00200008002050
:103690002DE9F043254E83B034680194042A9DF847
:1036A0002890144605460F46984639D9B9F1000FBF
:1036B00014BF00224FF08052640002EB0863013C0B
:1036C0001C4405F00F0527F01F07202383F3118802
:1036D00002F0EEF93D4301F07BF9154B1035DD604A
:1036E0001C6101F095F902F0FBF9124B1A689A423D
:1036F00004D0996993688A689A420DD3002383F3B2
:103700001188BFF36F8FBFF34F8F019A33689A42CE
:103710000AD103B0BDE8F083074801F0B9F8EDE73E
:10372000064801F0B5F8C1E7FDF762FF0008002088
:1037300090ED00E068560020802301086023010816
:1037400030B5224D224C2B68224A85B00393636822
:1037500043F004036360536A43F4803353622023CD
:1037600083F3118802F0A4F901F032F917221A4B01
:10377000E260236101F04CF902F0B2F9174B1A68CC
:103780009A4204D0996993688A689A4218D30020B3
:1037900080F31188BFF36F8FBFF34F8F03231D2278
:1037A00000904FF00051FFF773FF094A536843F050
:1037B00001035360039A2B689A4205D105B030BDCE
:1037C000074801F065F8E2E7FDF712FF0008002066
:1037D00090ED00E000ED00E00900001068560020C8
:1037E000802301080000000000000000000000002D
:1037F00070B51A4D1A4C1B4E0FCD0FC49EB02A68DF
:10380000336822801D93EFF30981682203A8FDF736
:1038100087FB154B9D6AAA0714D4EB0708D5124BFA
:1038200008995B6B114A00910D4880210BF088F9D3
:103830001D9A33689A420FD109481EB0BDE8704006
:1038400001F026B8099A5B6B0092A4F11000084AB7
:1038500080210BF075F9E0E7FDF7CAFE442301086B
:10386000302A00200008002000ED00E0202301089D
:10387000002301080000000000000000000000001C
:1038800000B51F4B0278196883B00191E2B11D4A5F
:103890004FF4005111834278EAB11A4A4FF4805133
:1038A00011838278F2B1174A4FF480411183C278B4
:1038B000FAB9144A4FF400415183019A1B689A42A5
:1038C0001CD103B05DF804FB0E4A4FF40051518344
:1038D0004278002AE1D10B4A4FF48051518382781B
:1038E000002AE0D1074A4FF480415183C278002A70
:1038F000DFD0044A4FF400411183DEE7FDF778FE84
:10390000000800200010024000000000000000003D
:1039100000B51F4B0278196883B00191E2B11D4ACE
:103920004FF4007111834278EAB11A4A4FF4807162
:1039300011838278F2B1174A4FF400611183C27883
:10394000FAB9144A4FF480615183019A1B689A4274
:103950001CD103B05DF804FB0E4A4FF40071518393
:103960004278002AE1D10B4A4FF48071518382786A
:10397000002AE0D1074A4FF400615183C278002A3F
:10398000DFD0044A4FF480611183DEE7FDF730FE9B
:1039900000080020001002400000000000000000AD
:1039A00030B50C4A0C4B116883B04FF400550191AF
:1039B0004FF480544FF400414FF480405D835C83AA
:1039C0005883598301991368994201D103B030BDDE
:1039D000FDF70EFE0008002000100240000000006D
:1039E00030B50C4A0C4B116883B04FF4007501914F
:1039F0004FF480744FF480614FF400605D835C830A
:103A00005883598301991368994201D103B030BD9D
:103A1000FDF7EEFD0008002000100240000000004D
:103A200010B50B4C0B48236882B0992200210193FA
:103A300003F0F6FF019A23689A4206D10548002157
:103A400002B0BDE8104004F0D3B8FDF7D1FD00BFCF
:103A50000008002048640020000000000000000072
:103A600010B50B4C0B48236882B0992200210193BA
:103A700003F0D6FF019A23689A4206D10548002137
:103A800002B0BDE8104004F0B3B8FDF7B1FD00BFCF
:103A90000008002064640020000000000000000016
:103AA00000B5084B83B01A680192019A1B689A42CC
:103AB00006D10548002103B05DF804EB04F000B81E
:103AC000FDF796FD0008002048640020000000007B
:103AD00000B5084B83B01A680192019A1B689A429C
:103AE00006D10548002103B05DF804EB03F0E8BF00
:103AF000FDF77EFD00080020646400200000000047
:103B000070B51A4C1A4E2378326882B0022B01929B
:103B1000A26811D165781748013505F0070500EB5B
:103B20008500904763686570013B6360019A336864
:103B30009A4219D102B070BD012B08D001993368A7
:103B4000994211D10C4802B0BDE870401047657829
:103B50000848013D05F0070500EB850090476368C4
:103B6000657001336360E1E7FDF742FDC82A00207C
:103B70000008002020240108102401080000000093
:103B800070B51A4C1A4E2378326882B0012B01921C
:103B9000A26811D165781748013505F0070500EBDB
:103BA000850090476368657001336360019A3368EC
:103BB0009A4219D102B070BD022B08D00199336826
:103BC000994211D10C4802B0BDE8704010476578A9
:103BD0000848013D05F0070500EB85009047636844
:103BE0006570013B6360E1E7FDF702FDB02A00204C
:103BF0000008002020240108102401080000000013
:103C000030B51F4D85B02B68039340F24C43994269
:103C1000044626DCA3F69803994211DB4B00002BE7
:103C200029D10370036998474FF47A71039A2B687E
:103C30009A421ED1606905B0BDE8304003F0A8BECD
:103C4000104B02225B42227040F2892293420E49BD
:103C500091FBF3F189B207DC0191E3689847019980
:103C6000E4E7012303702D2101912369984701990D
:103C7000DCE7FDF7BDFCE4DD01220270E4E700BFF4
:103C80000008002068F7FFFFA08601000000000088
:103C900000B5084B83B01A680192019A1B689A42DA
:103CA00006D10146044803B05DF804EBFFF7A8BF56
:103CB000FDF79EFC00080020B02A00200000000054
:103CC00000B5084B83B01A680192019A1B689A42AA
:103CD00006D10146044803B05DF804EBFFF790BF3E
:103CE000FDF786FC00080020C82A00200000000024
:103CF00000B5094B094A1968506883B000EBD070D1
:103D00000191019A1B689A4203D1401003B05DF8FB
:103D100004FBFDF76DFC00BF00080020B02A002066
:103D200000B5094B094A1968506883B000EBD070A0
:103D30000191019A1B689A4203D1401003B05DF8CB
:103D400004FBFDF755FC00BF00080020C82A002036
:103D500000B5084B08491A6883B040000192019AE7
:103D60001B6848609A4202D103B05DF804FBFDF77E
:103D70003FFC00BF00080020B02A00200000000027
:103D800000B5084B08491A6883B040000192019AB7
:103D90001B6848609A4202D103B05DF804FBFDF74E
:103DA00027FC00BF00080020C82A002000000000F7
:103DB00070B51D4E1D4A1E4B30681E491E4C916049
:103DC00082B00021D46001901C4C1D481D4D9D60A7
:103DD000117051705160106154611B481B4A1C4D99
:103DE000D8601C48197059705960C3E90425FFF761
:103DF00047FD1848FFF78CFD1749204603F078FD72
:103E0000204603F0ADFE2846144903F071FD019AE7
:103E100033689A4205D1284602B0BDE8704003F0ED
:103E20009FBEFDF7E5FB00BF00080020C82A002068
:103E3000B02A002081380008213A00084864002098
:103E4000A13A000811390008613A0008D13A000887
:103E50006464002010240108D02301089023010885
:103E60000A490B4B09680B4A82B02020019140217E
:103E700058834FF4806559834FF400644FF48040B9
:103E800004215D835C8358835183FEE70008002092
:103E9000000C02400004024000000000000000008E
:103EA00010B51E491E4A0B78106882B0013B019084
:103EB000072B0AD8DFE803F012151C1F26290F0470
:103EC00018480824012304830B7001991368994250
:103ED00021D102B010BD08230B70F6E702230B704E
:103EE000F3E711484FF48054032304830B70ECE78D
:103EF00004230B70E9E70C484FF480440523048346
:103F00000B70E2E706230B70DFE706480424072363
:103F100004830B70D9E7FDF76BFB00BF602E002018
:103F200000080020001002400004024000000000D1
:103F300030B50C4B0C4918680C4A83B04FF48045DF
:103F400001904FF480504883042408204D8354830B
:103F50005083019A1B689A4201D103B030BDFDF72E
:103F600047FB00BF00080020000402400010024090
:103F70002DE9F04F4E4B4F4A9B694F499961A5B0CF
:103F800007AE05AD80231768009331462A4600240A
:103F90000CA84A4B2397CDE90766CDE90555CDE935
:103FA00009440B9400F044FB0CA9454A4548434C96
:103FB000454DDFF83481DFF834B1DFF834A100F08B
:103FC0005FFB04F11C0604F16007A146504601F0B6
:103FD0000FFE2A682B69226063602A6A2B6BA2603D
:103FE000E3606A686B69226163616A6A6B6BA261F4
:103FF000E361AA68AB6922626362AA6AAB6BA262E0
:10400000E362EA68EB6922636363EA6AEB6B2F4958
:10401000A263E36351F8043F0A6AB142A3EB0203CF
:104020000B64F7D1802249460CA800F059FB98F8A0
:104030000030002BCAD09BF8003033B3012BC5D120
:10404000DFF8B0C02248614650F8042B51F8043F15
:10405000B84213440B60F7D11E4A13780133DBB228
:10406000642B1370B2D11C495CF8043F1B4A82FBDD
:104070000302DB17C3EB621341F8043B184B9C456A
:10408000F2D1002388F80030A0E719462022124818
:1040900003930AF005FD039B1248194620220AF0FB
:1040A000FFFC0C49039B0B7001228BF800208DE76D
:1040B000685600200008002040240108642B0020DE
:1040C0008024010838120020002B0020602B0020E3
:1040D000A42B0020412B0020C42B00201F85EB5176
:1040E000602B0020442B0020402B0020422B00207E
:1040F00060080020402B00200000000000000000AD
:1041000070B502691E4D52882B6882B006460C4677
:104110001C480193920000210AF0C2FC33695B88BD
:104120005BB1184AA11E002331F8020F42F8040BBC
:104130003069408801339842F6D8202383F31188F0
:1041400001F0E6FC00F084FC00F012FD0E488368EC
:10415000002B0FDD00F09CFC01F0F2FC002383F348
:104160001188019A2B68094901209A42087004D1EC
:1041700002B070BD01F074FDECE7FDF739FA00BF45
:1041800000080020002B002060080020602E002086
:1041900070B51F4D1F4C2E78236884B0012E0393F9
:1041A00005D0039A23689A422FD104B070BD002134
:1041B000284602F0A5FD284602F062FE3346284656
:1041C000154A164902F01CFE1549164803F090FBEB
:1041D0004FF496720021134803F022FC002111488D
:1041E00003F006FD0F4803F0BBFC31464FF482722A
:1041F0000C4803F015FC0023009340220A4B0B48A7
:104200004FF41E7101F0C4F8CBE7FDF7F1F900BFE0
:10421000C45D002000080020E02A0020502401088E
:10422000902401082C640020713F0008E82B002036
:1042300030B50C4D0C4A2B680C4C83B00021019317
:10424000012311702370142001F0FAF82378002B59
:10425000F9D1019A2B689A4201D103B030BDFDF724
:10426000C7F900BF00080020422B0020402B00208F
:1042700000B50A4B83B01A68019207289BBF084A11
:104280001030002052F82000019A1B689A4202D197
:1042900003B05DF804FBFDF7ABF900BF0008002098
:1042A000642B00200000000000000000000000005F
:1042B00080B5164A164B9269164E17491B68DFF8EF
:1042C0006480164D164C916182B0374601932846A2
:1042D000FFF7C6F9204604F073FD3B462A460C2141
:1042E000204604F0EDFD204604F0AAFD3078FEF7EC
:1042F000EFFB98F80030033B012B4FF0140002D97C
:1043000001F09EF8E3E7FEF7ABFCE0E7685600201B
:1043100000080020642E0020E0240108D84300207B
:10432000C4630020C8270020000000000000000037
:1043300010B50C4C0C4923680C4884B0039304F06E
:10434000F7FC002300934122094B0A484FF4AF6168
:1043500001F01EF8039A23689A4201D104B010BDFF
:10436000FDF746F900080020D0240108C4630020AE
:10437000B1420008603E0020000000000000000084
:1043800000B50F4B83B01868019002290CD00329A7
:104390000CD001290B4818BF0020019A1B689A42D3
:1043A0000BD103B05DF804FB0748F6E7032A96BF7C
:1043B0000648002000EBC200EFE7FDF719F900BF47
:1043C00000080020D025010870250108802601087A
:1043D00070B5154C82B02368019302291CD10D469B
:1043E0000646202383F3118801F092FB00F030FB96
:1043F00030460E4A012104F063FE29460C4A30463D
:1044000004F05EFE0B4804F033FB00F041FB01F0CA
:1044100097FB002383F31188019A23689A4201D104
:1044200002B070BDFDF7E4F800080020F024010898
:1044300020250108D45300200000000000000000E7
:1044400030B5134D134C2B68134883B0019304F01F
:1044500087FA1249104804F0B3FA226D936B23F4E3
:10446000002393634FF47A7000F0EAFF20460C4972
:1044700004F0D6FD226D936B43F400239363019AFD
:104480002B689A4201D103B030BDFDF7B1F800BFEF
:104490000008002028610020D45300205025010886
:1044A000602501080000000000000000000000007E
:1044B00000B5084B83B01A680192019A1B689A42B2
:1044C00005D1054803B05DF804EB01F0F1BCFDF740
:1044D0008FF800BF000800206C08002000000000DA
:1044E00000B5084B83B01A680192019A1B689A4282
:1044F00005D1054803B05DF804EB01F011BDFDF7EF
:1045000077F800BF000800206C08002000000000C1
:1045100070B50D4C82B0236801930D1E06460DDD6B
:10452000284602F00DFA18B90C2333604FF0FF3023
:10453000019A23689A4205D102B070BD034800F089
:10454000A7F9EDE7FDF754F800080020A0260108C0
:1045500000B5064B83B01A680192019A1B689A4213
:1045600002D103B05DF804FBFDF742F8000800201B
:1045700000B5074B83B01A680192019A1B689A42F2
:1045800004D103B05DF804EB01F092BCFDF730F804
:1045900000080020000000000000000000000000F3
:1045A00000B5074B83B01A680192019A1B689A42C2
:1045B00004D103B05DF804EB01F0B2BCFDF718F8CC
:1045C00000080020000000000000000000000000C3
:1045D00000B5074B83B01A680192019A1B689A4292
:1045E00004D103B05DF804EB01F0C2BDFDF700F8A3
:1045F0000008002000000000000000000000000093
:1046000010B5084B82B01C68019400240460019C22
:104610001B689C42C0E9011201D102B010BDFCF739
:10462000E7FF00BF000800200000000000000000BD
:104630002DE9F0430E4D83B02C6801940446994651
:104640000F46164610304C220021DDF828800AF073
:1046500027FAC4F80090019A2B68E6609A42C4E9F0
:10466000018702D103B0BDE8F083FCF7C1FF00BFB2
:104670000008002000000000000000000000000012
:10468000F0B5144E83B001F1100317463268019261
:104690000446412218460D4600210AF001FA394627
:1046A00040220AF095FA6068FFF762FF236803B1C1
:1046B000AB652560A068FFF78BFF019A33689A42CB
:1046C00005D1606803B0BDE8F040FFF769BFFCF7B3
:1046D0008FFF00BF00080020000000000000000065
:1046E000F0B51C4E436883B0054693423068019094
:1046F00006D20020019A33689A4229D103B0F0BD56
:1047000014460F46A868FFF733FF2246394628684B
:10471000FCF706FC012385F85130E868FFF758FFE5
:104720006C6D84B123681868FFF722FF23689D60D1
:1047300023685868FFF74CFF23681868FFF730FFBD
:104740006468002CEED1A868FFF72AFF0120D1E7AA
:10475000FCF74EFF000800200000000000000000F1
:1047600000B5064B83B01A680192019A1B689A4201
:1047700002D103B05DF804FBFCF73AFF000800200B
:10478000024B82B01B680193FEE700BF00080020C7
:1047900000B5044B04481B6883B0019300F078F81F
:1047A000FEE700BF00080020B0260108000000005E
:1047B000024B82B01B680193FEE700BF0008002097
:1047C000F0B5294E294B3268294885B00024039260
:1047D0009C60D968274A4FF6FF0529400A43DA60F2
:1047E000C2682549254D42F08072C2600A6842F0D5
:1047F00001020A6010202022D87783F8222000F0DE
:10480000DFFA00F045FA01F0A3F802F071F802F0C7
:10481000DFF801F0F5F800F0FBF9402105F58860BC
:1048200000F01EFD0127164BC36180F82070A861BF
:1048300000F0A6F884F3118862B6AB69114A9A6158
:104840004FF4C4713A46104B009405F59D6000F09A
:104850009FFD039A33680D4981619A4201D105B0E9
:10486000F0BDFCF7C5FE00BF0008002000ED00E031
:10487000F0ED00E00003FA05001000E068560020AB
:104880000004002060280108B1470008D026010874
:1048900000B5054B83B01B680193044672B6FFF761
:1048A000DFFA024BDC62FEE70008002068560020B9
:1048B0002DE9F047DFF890A0224DDAF8003082B001
:1048C000019300F055F9AB6993F8232012B1013A36
:1048D00083F823205A6ADFF8748001325A6200F0AC
:1048E00047F9AB6AEA6901334245AB6220D093686D
:1048F000013B9360EC69A668D6B94FF020092368A4
:10490000E768E660C3F804802368EB6100F0C0F854
:1049100001F016F986F311882069B84789F31188E8
:1049200001F0F6F800F094F8EC69A368002BE6D0EB
:10493000019ADAF800309A4202D102B0BDE8F0875D
:10494000FCF756FE68560020000800208456002020
:1049500010B5094C094A236882B001935168536825
:104960005B1A9842FBD8019A23689A4201D102B09F
:1049700010BDFCF73DFE00BF00080020001000E065
:1049800000B50E4A0E4B116B186883B0019009B93F
:10499000526B4AB1019A1B689A420CD1094803B084
:1049A0005DF804EBFFF774BF019A1B689A4202D1CD
:1049B00003B05DF804FBFCF71BFE00BF6856002047
:1049C00000080020E02601080000000000000000B0
:1049D00030B50B4C0B4D236B2A6883B001920BB999
:1049E000636B13B10848FFF753FF019A2B6801214D
:1049F0009A42616301D103B030BDFCF7F9FD00BFFD
:104A00006856002000080020102701080000000060
:104A100030B50C4C0C4D236B2A6883B0019253B90E
:104A2000636B002B07DD019A2B6800219A426163BA
:104A300005D103B030BD0548FFF72AFFF3E7FCF7C7
:104A4000D7FD00BF6856002000080020302701086D
:104A500030B50B4C0B4D236B2A6883B0002B0192B1
:104A600001DD636B13B10848FFF712FF019A2B6851
:104A700001219A42616301D103B030BDFCF7B8FD5A
:104A800068560020000800202027010800000000D0
:104A900030B50C4C0C4D236B2A6883B0002B01926F
:104AA0000ADD636B002B07DD019A2B6800219A4217
:104AB000616305D103B030BD0448FFF7E9FEF3E7B9
:104AC000FCF796FD685600200008002040270108EA
:104AD00030B50F4D83B02B680193202383F31188E9
:104AE0000C4C236B002B01DB626B1AB10A48FFF7F9
:104AF000CFFE236B01332363002383F31188019AD4
:104B00002B689A4201D103B030BDFCF771FD00BFA4
:104B10000008002068560020F02601080000000070
:104B200030B50F4D83B02B680193202383F3118898
:104B30000C4C236B002B01DD626B1AB10A48FFF7A6
:104B4000A7FE236B013B2363002383F31188019AA3
:104B50002B689A4201D103B030BDFCF749FD00BF7C
:104B6000000800206856002000270108000000000F
:104B700000B50F4A0F4B116B186883B000290190E4
:104B800009DB526B002A06DD019A1B689A420CD1A0
:104B900003B05DF804FB019A1B689A4205D10648F0
:104BA00003B05DF804EBFFF773BEFCF721FD00BF17
:104BB000685600200008002050270108000000006F
:104BC00000B50E4A0E4B116B186883B0019049B9BD
:104BD000526B002A06DD019A1B689A420CD103B081
:104BE0005DF804FB019A1B689A4205D1054803B0A1
:104BF0005DF804EBFFF74CBEFCF7FAFC68560020AA
:104C000000080020602701080000000000000000EC
:104C100010B5084A084B116882B0402401910199EF
:104C2000126818199142C3E90E4001D102B010BDBB
:104C3000FCF7DEFC000800206856002000000000A1
:104C400010B51149114B0A6882B00192DA6B9C6A67
:104C50001460DA6B9C695460DA6B846A9460DA6B76
:104C600090F820001073DA6B03F5886010328242EE
:104C700028BF03F14002DA63019A0B689A4201D11E
:104C800002B010BDFCF7B4FC0008002068560020FC
:104C900010B50B4A0B4B116882B04FF0FF340191F5
:104CA00000219962019811685C6203F11C0288423C
:104CB000C3E9072201D102B010BDFCF799FC00BF87
:104CC00000080020685600200000000000000000DE
:104CD0002DE9F041184E82B00546306801900C462F
:104CE00017469846FFF744FF05B3FFB1F4B1C5E995
:104CF00003781248C3699A68944204D91B68A41ABD
:104D00009A68A242FAD32B605A686A6015605D60A7
:104D1000AC609968019D3268091B95424FF0FF34E1
:104D20009960446206D102B0BDE8F0810448FFF703
:104D3000AFFDDCE7FCF75CFC0008002068560020B3
:104D400070270108000000000000000000000000C3
:104D500030B5164D83B004462B680193FFF708FF6A
:104D6000ECB1E368BBB12268A06893680199034481
:104D70009360D4E900231A6020682B680C4A6568A8
:104D8000456099424FF000054FF0FF30E5605062FA
:104D900009D103B030BD0748FFF77AFDE3E70548C6
:104DA000FFF776FDDDE7FCF723FC00BF00080020DD
:104DB0006856002080270108000000000000000065
:104DC00000B50A4A0A4B11681B6083B000200191AC
:104DD000019912685B609142C3E90433986002D183
:104DE00003B05DF804FBFCF703FC00BF00080020E3
:104DF00068560020000000000000000000000000D5
:104E000030B5164D83B004462B680193FFF7B0FE12
:104E1000ECB194F82030B3B10F2B14D00022A1686C
:104E20000F4B84F820201B689A688A42FBD22360CB
:104E30005A686260146001992A685C609142204659
:104E400009D103B030BD0748FFF722FDE6E705486A
:104E5000FFF71EFDDDE7FCF7CBFB00BF00080020DD
:104E600068560020902701080000000000000000A4
:104E700070B5204D82B02B6801930446202383F344
:104E8000118800F045FEFFF7E3FD94F82030072B72
:104E900011D8DFE803F0161010230A04100AA66ADE
:104EA000FFF766FEB3680133B360D4E900231A60EC
:104EB000D4E900325A604FF0FF33A3622046FFF777
:104EC0009FFFFFF7E5FD00F03BFE002383F3118811
:104ED000019A2B689A420BD102B070BDA36A0022DE
:104EE0001A604FF0FF33A3622046FFF789FFE8E71F
:104EF000FCF77EFB0008002000000000000000001E
:104F0000F0B5194E194C336883B007460193FFF78B
:104F100057FEA569236885F82070142285F82320A0
:104F20001A68226001215460284683F82010A3618A
:104F3000FFF786FE2946A06900F09AFDEFF309838A
:104F4000EA69643B9A4202D90948FFF7A1FC019A39
:104F500033689A4206D1A069294603B0BDE8F04003
:104F6000FBF7A6B9FCF744FB0008002068560020B8
:104F7000A027010800000000000000000000000061
:104F8000F0B5154C87B0236805930E460746FFF72A
:104F900017FE731C18D0114D114AAB693146684693
:104FA000FFF796FE3846FFF7ABFFFFF7E1FD039BE7
:104FB00013B16846FFF7CCFE059A2368A9699A42A7
:104FC000886A06D107B0F0BD3846FFF799FF034D58
:104FD000F2E7FCF70DFB00BF000800206856002038
:104FE000714E0008000000000000000000000000FA
:104FF000F0B51E4D1E4E2B6883B0044601930F463C
:10500000FFF7DEFDB069A7628368A2689A421DD9E6
:10501000FFF7F6FE0123074684F82030B461FFF75E
:105020000FFE3946204600F023FDEFF30983FA69AD
:10503000643B9A4214D8019A2B689A4214D139469B
:10504000204603B0BDE8F040FBF732B9019A2B6867
:105050009A4209D1204603B0BDE8F040FFF7D0BE28
:105060000448FFF715FCE6E7FCF7C2FA0008002049
:1050700068560020A0270108000000000000000082
:1050800010B50E490E4B8A69086892F823101C6807
:105090008068926882B0019449B9904234BF002080
:1050A0000120019A1B689A4206D102B010BD9042BD
:1050B00094BF00200120F4E7FCF79AFA685600201C
:1050C00000080020000000000000000000000000B8
:1050D00070B5184C184E2368A5691A682260546090
:1050E000012283F8202082B01422316885F8232021
:1050F0002846A3610191FFF783FE2846FFF7A0FD34
:105100002946A06900F0B4FCEFF30983EA69643B27
:105110009A4202D90948FFF7BBFB019A33689A42C9
:1051200006D1A069294602B0BDE87040FBF7C0B8BF
:10513000FCF75EFA6856002000080020A02701084E
:1051400070B51C4D1C4E2A68AC6913682B60012198
:1051500082B05D60002082F82010AA613268A168E8
:1051600084F82000019200E01B689A688A42FBD80C
:1051700023605A686260204614605C60FFF760FD3F
:105180002146A86900F074FCEFF30983E269643BEF
:105190009A4202D90948FFF77BFB019A33689A4289
:1051A00006D1A869214602B0BDE87040FBF780B87F
:1051B000FCF71EFA6856002000080020A02701080E
:1051C00010B50F4C82B023680193FFF7F9FCFFF78D
:1051D000CFFC0C4B1A689B6992689B689A42019AB3
:1051E000236803D89A4208D102B010BD9A4204D174
:1051F00002B0BDE81040FFF7A3BFFCF7F9F900BF0C
:105200000008002068560020000000000000000098
:1052100000B50E4A0E4B9269196892F8232083B0AC
:10522000019142B1019A1B689A420DD103B05DF819
:1052300004EBFFF785BF019A1B689A4204D103B0C3
:105240005DF804EBFFF744BFFCF7D2F96856002085
:105250000008002000000000000000000000000026
:10526000F0B51A4A1A4D02610446816083B01423D6
:1052700050692E68616484F82330022700230121DD
:10528000278484F82210C4E90F3304F16801A36174
:10529000019604F12C07636204F1500604F1300317
:1052A00060610461C4E90C33E1613046E762546136
:1052B00000F0E6FA304600F003FB019A2B689A42B0
:1052C00002D1204603B0F0BDFCF792F968560020E9
:1052D00000080020000000000000000000000000A6
:1052E00010B5094B82B01C680194884203D200F8C3
:1052F000012B8142FBD1019A1B689A4201D102B075
:1053000010BDFCF775F900BF000800200000000088
:105310002DE9F043184E83B0346801940546DDF85A
:1053200028900C4617469846FFF722FC15B1B4F5B5
:10533000BC7F19D21148FFF7ABFAA4F164012944EC
:10534000E960C1F84080EB68019AC3F84490336883
:10535000E9680B4808669A420CD13946284603B0E2
:10536000BDE8F043FFF77CBF7F2FE3D8B8F1000F13
:10537000E3D1DFE7FCF73CF900080020F027010843
:10538000C90200080000000000000000000000004A
:105390002DE9F04FDFF8A48087B0D8F80040DDF8A1
:1053A0004090059407468A46934600F168060446F5
:1053B000FF2504F8015BA642FBD107EB0A05A542D5
:1053C00004D9552604F8016BA542FBD10393202292
:1053D00082F3118800F06CFBFFF7FAFA039BCDF81B
:1053E00000905A4651463846FFF792FF0021044686
:1053F000FFF7FEFDFFF70CFB00F072FB0D4B1A6888
:105400009A4204D0996993688A689A420BD3002320
:1054100083F31188059AD8F800309A42204606D1C5
:1054200007B0BDE8F08F0448FFF732FAEFE7FCF76A
:10543000DFF800BF68560020B027010800080020F0
:1054400030B5184C83B0236801930546202383F3BD
:10545000118800F02DFBFFF7BBFA15B91248FFF7D2
:1054600017FA29460820FFF78BFDFFF7D1FA00F065
:1054700037FB0E4B1A689A4204D0996993688A6880
:105480009A4208D3002383F31188019A23689A4231
:1054900005D103B030BD0648FFF7FAF9F2E7FCF793
:1054A000A7F800BF00080020C027010868560020A8
:1054B000B02701080000000000000000000000000C
:1054C000F0B51C4F83B03B68019304460E46202381
:1054D00083F31188184D00F0EBFAFFF779FAA96A07
:1054E000331B0C1B9C4219D3FFF792FA00F0F8FA19
:1054F0002B68AB4204D0AA699B6892689A4209D390
:10550000002383F31188019A3B689A4230460FD1F9
:1055100003B0F0BD0948FFF7BBF9F1E7741A02D1F7
:105520000748FFF7B5F921460820FFF729FDDBE71B
:10553000FCF75EF80008002068560020B02701083C
:10554000C02701080000000000000000000000006B
:1055500070B5164B164E9C693268E36AA06282B041
:1055600004F12C05AB42019207D01A68E26218469A
:10557000FFF746FCE36AAB42F7D194F821309B0772
:1055800005D1D4E904231A61D4E904325A610F2009
:10559000FFF7B6FC019A33689A4205D1054802B07C
:1055A000BDE87040FFF774B9FCF722F86856002098
:1055B0000008002000280108000000000000000092
:1055C00030B50C4C83B0236801930546202383F348
:1055D000118800F06DFAFFF7FBF9019A23689A42EF
:1055E00005D1284603B0BDE83040FFF7B1BFFBF757
:1055F000FFFF00BF000800200000000000000000C6
:10560000F0B50D4D0D4E03682A68B76983B00446A6
:10561000019213B10A48FFF73BF927600320BC62EF
:10562000FFF76EFC019A2B68B1699A42886A01D132
:1056300003B0F0BDFBF7DCFF000800206856002037
:105640001028010800000000000000000000000019
:10565000F0B5124D0368124A83B0044628680190E1
:105660000E46976913B10F48FFF712F966B127602C
:10567000019A2B68BC629A420ED13146032003B0D6
:10568000BDE8F040FFF77CBC019A2B689A424FF0CE
:10569000FF3001D103B0F0BDFBF7AAFF00080020E6
:1056A00068560020202801080000000000000000CB
:1056B000F0B5124D04682B6883B00193B4B194F82F
:1056C0002030032B06460F460CD100233360019A8D
:1056D0002B68A7629A420FD1204603B0BDE8F04084
:1056E000FFF78EBB0648FFF7D3F8EEE7019A2B6869
:1056F0009A4201D103B0F0BDFBF77AFF0008002009
:105700004028010800000000000000000000000028
:10571000F0B5124D04682B6883B00193B4B194F8CE
:105720002030032B06460F460CD100233360019A2C
:105730002B689A4210D13946204603B0BDE8F040AC
:10574000FFF756BC0648FFF7A3F8EEE7019A2B686F
:105750009A4201D103B0F0BDFBF74AFF00080020D8
:1057600050280108000000000000000000000000B8
:1057700030B5104A83B01368019381B10E4B019D7F
:105780009B69186044685C602360126843609542BE
:105790000DD1042003B0BDE83040FFF7F1BB019903
:1057A000136899424FF0FF3001D103B030BDFBF7D1
:1057B0001FFF00BF00080020685600200000000006
:1057C00070B5124D04682B6882B0A042019315D0C9
:1057D00023680360586094F82030042B0E4602D0F2
:1057E0000B48FFF755F8019A2B68A6629A420BD135
:1057F000204602B0BDE87040FFF702BB019A2B685B
:105800009A4201D102B070BDFBF7F2FE0008002001
:10581000D027010800000000000000000000000088
:105820002DE9F041DFF850800468D8F8003082B0EC
:10583000A042019313D00F4F05460E4623682B60FC
:105840005D6094F82030042B02D03846FFF720F832
:10585000A6622046FFF7D4FA2C68A542EED1019A41
:10586000D8F800309A4202D102B0BDE8F081FBF7CF
:10587000BFFE00BFD0270108000800200000000084
:1058800030B50B4B83B01A6801924FF0FF320260C3
:1058900001991A680024002300259142C0E90445BB
:1058A000C0E90133C36001D103B030BDFBF7A0FEF6
:1058B00000080020000000000000000000000000C0
:1058C00000B5084B084A196883B001915168019AE4
:1058D0001B6881609A4202D103B05DF804FBFBF7BC
:1058E00087FE00BF00080020001000E0000000005C
:1058F000F0B51449144B0A68846883B00192134AC6
:105900005B68D2F8A864C2681B1BD0E90445013269
:105910009B1BC26042688360E61845F10007934212
:10592000C0E9046709D80268934238BF0360019A4E
:105930000B689A4203D103B0F0BD4360F7E7FBF771
:1059400057FE00BF00080020001000E0685600204D
:1059500030B5114D114C2B6889B04FF0FF310793D2
:10596000002300226846C4F8A834CDE9013303932C
:105970000023CDE904230091FFF7A2FF6846FFF75B
:10598000B7FF079A2B680299C4F8A8149A4201D16C
:1059900009B030BDFBF72CFE00080020685600203F
:1059A0002DE97048134E144B326883B001925B6846
:1059B0008B60D0E902411B1BD0E90445426814EB1F
:1059C000030B45F1000C01319342C0E90231C0E9FB
:1059D00004BC0AD80268934238BF0360019A336856
:1059E0009A4204D103B0BDE870884360F6E7FBF744
:1059F000FFFD00BF00080020001000E000000000D4
:105A000030B50D4D0D4C2B6883B004F597600193B4
:105A10000023C4F8B034C4F8B434FFF731FF019A5E
:105A20002B689A4206D104F59A6003B0BDE8304075
:105A3000FFF726BFFBF7DCFD0008002068560020BA
:105A400000B50949094A0B6883B001930198D2F85F
:105A5000B034096801338842C2F8B03402D103B0CF
:105A60005DF804FBFBF7C4FD000800206856002029
:105A700070B50D4C0D4A236882B00193019DD2F898
:105A8000B43424680133A542C2F8B43409D10E46B7
:105A900000F1500106F1500002B0BDE87040FFF780
:105AA0007FBFFBF7A5FD00BF00080020685600205F
:105AB00000B5084B83B01A680192019A1B689A429C
:105AC00005D1054803B05DF804EBFFF7F9BEFBF71D
:105AD0008FFD00BF00080020205B002000000000B8
