:020000040800F2
:1000000000040020C101000811490008114900083E
:10001000A13A0008114900081149000811490008D7
:10002000114900081149000811490008816B0008B6
:10003000114900081149000811490008E1D20008DF
:100040001149000891A2000821A4000871A4000829
:100050001149000811490008D19F000821A000089B
:1000600071A00008C1A0000811A100082192000899
:1000700071920008C1920008119300086193000872
:10008000B193000801940008119D000811A6000812
:1000900081A6000831A70008E1A7000861A10008B7
:1000A0001149000811490008B1CB000811490008A6
:1000B000A1CE0008E1CE000821CF000801B9000858
:1000C00041BA000811490008114900081149000807
:1000D000114900081149000811490008A1D300087E
:1000E000F1A10008E1A2000831A30008F1CB00084B
:1000F00011490008114900081149000851940008ED
:100100001149000871A9000861CF000811490008D1
:10011000114900081149000871CB00081149000875
:10012000A1940008F19400084195000891950008F9
:10013000E19500081149000881A300081149000851
:1001400011490008114900081149000811C50008AB
:100150003196000881960008D196000811490008E0
:100160001149000811490008114900081149000807
:10017000D1A3000811490008D12300081149000843
:1001800011490008114900081149000811490008E7
:1001900011490008114900081149000811490008D7
:1001A00011490008114900081149000811490008C7
:1001B00011490008114900081149000811490008B7
:1001C00072B62E4880F3098840F20000CCF200009D
:1001D0004EF63471CEF20001086040F20000C0F229
:1001E000F0004EF68851CEF2000108604FF000009A
:1001F000E1EE100A4EF63C71CEF2000108600620D6
:1002000080F31488BFF36F8F0DF0BAF94FF05530BB
:100210001B491C4A91423CBF41F8040BFAE71A49BA
:10022000164A91423CBF41F8040BFAE71749184AB5
:10023000184B9A423EBF51F8040B42F8040BF8E702
:1002400000201549154A91423CBF41F8040BFAE7DA
:1002500004F046FB124C134DAC4203DA54F8041B75
:100260008847F9E701F044F90F4C104DAC4203DA2E
:1002700054F8041B8847F9E704F042BB000800204B
:10028000000000200004002000040020783601084F
:10029000000800203C12002040120020C062002014
:1002A000C0010008C0010008C0010008C00100082A
:1002B0002DE9F04F2DED108AC1F80CD0D0F80CD0FC
:1002C000BDEC108ABDE8F08F04F062FC05F000FD83
:1002D000002383F311882846A047002005F030FA58
:1002E00005F0DEFC04F034FC05F052F804F050FC9C
:1002F00005F0EEFC00DFFEE700000000000000005B
:1003000081F0004102E000BF83F0004330B54FEAC6
:1003100041044FEA430594EA050F08BF90EA020F33
:100320001FBF54EA000C55EA020C7FEA645C7FEAC6
:10033000655C00F0E2804FEA5454D4EB5555B8BFE9
:100340006D420CDD2C4480EA020281EA030382EA5A
:10035000000083EA010180EA020281EA0303362DEC
:1003600088BF30BD11F0004F4FEA01314FF4801CBF
:100370004CEA113102D0404261EB410113F0004FD1
:100380004FEA03334CEA133302D0524263EB430388
:1003900094EA050F00F0A780A4F10104D5F1200E26
:1003A0000DDB02FA0EFC22FA05F2801841F1000181
:1003B00003FA0EF2801843FA05F359410EE0A5F155
:1003C00020050EF1200E012A03FA0EFC28BF4CF086
:1003D000020C43FA05F3C01851EBE37101F000453C
:1003E00007D54FF0000EDCF1000C7EEB00006EEB49
:1003F0000101B1F5801F1BD3B1F5001F0CD34908D3
:100400005FEA30004FEA3C0C04F101044FEA445229
:1004100012F5800F80F09A80BCF1004F08BF5FEAB0
:10042000500C50F1000041EB045141EA050130BD90
:100430005FEA4C0C404141EB010111F4801FA4F133
:100440000104E9D191F0000F04BF01460020B1FA88
:1004500081F308BF2033A3F10B03B3F120020CDAC0
:100460000C3208DD02F1140CC2F10C0201FA0CF09E
:1004700021FA02F10CE002F11402D8BFC2F1200C03
:1004800001FA02F120FA0CFCDCBF41EA0C019040B9
:10049000E41AA2BF01EB0451294330BD6FEA040402
:1004A0001F3C1CDA0C340EDC04F11404C4F12002ED
:1004B00020FA04F001FA02F340EA030021FA04F3FF
:1004C00045EA030130BDC4F10C04C4F1200220FA56
:1004D00002F001FA04F340EA0300294630BD21FA94
:1004E00004F0294630BD94F0000F83F4801306BF5A
:1004F00081F480110134013D4EE77FEA645C18BF4E
:100500007FEA655C29D094EA050F08BF90EA020FE4
:1005100005D054EA000C04BF1946104630BD91EADC
:10052000030F1EBF0021002030BD5FEA545C05D1DF
:100530004000494128BF41F0004130BD14F580041E
:100540003CBF01F5801130BD01F0004545F0FE4192
:1005500041F470014FF0000030BD7FEA645C1ABFC7
:10056000194610467FEA655C1CBF0B46024650EAFE
:10057000013406BF52EA033591EA030F41F400212A
:1005800030BD00BF90F0000F04BF0021704730B5B0
:100590004FF4806404F132044FF000054FF0000185
:1005A00050E700BF90F0000F04BF0021704730B546
:1005B0004FF4806404F1320410F0004548BF40421B
:1005C0004FF000013EE700BF42004FEAE2014FEA70
:1005D00031014FEA02701FBF12F07F4393F07F4F4B
:1005E00081F06051704732F07F4208BF704793F04E
:1005F0007F4F04BF41F40021704730B54FF4607461
:1006000001F0004521F000411CE700BF50EA010263
:1006100008BF704730B54FF000050AE050EA01020C
:1006200008BF704730B511F0004502D5404261EB7C
:1006300041014FF4806404F132045FEA915C3FF4BD
:10064000D8AE4FF003025FEADC0C18BF03325FEA5A
:10065000DC0C18BF033202EBDC02C2F1200300FA0B
:1006600003FC20FA02F001FA03FE40EA0E0021FA30
:1006700002F11444BDE600BF0000000000000000CD
:1006800070B54FF0FF0C4CF4E06C1CEA11541DBF28
:100690001CEA135594EA0C0F95EA0C0F00F0DEF8F3
:1006A0002C4481EA030621EA4C5123EA4C5350EAD8
:1006B000013518BF52EA033541F4801143F4801329
:1006C00038D0A0FB02CE4FF00005E1FB02E506F0BA
:1006D0000042E0FB03E54FF00006E1FB03569CF00F
:1006E000000F18BF4EF0010EA4F1FF04B6F5007F15
:1006F00064F5407404D25FEA4E0E6D4146EB060687
:1007000042EAC62141EA55514FEAC52040EA5E500F
:100710004FEACE2EB4F1FD0C88BFBCF5E06F1ED8B9
:10072000BEF1004F08BF5FEA500E50F1000041EBF0
:10073000045170BD06F0004646EA010140EA02009D
:1007400081EA0301B4EB5C04C2BFD4EB0C0541EABF
:10075000045170BD41F480114FF0000E013C00F3D4
:10076000AB8014F1360FDEBF002001F0004170BDF8
:10077000C4F10004203C35DA0C341BDC04F1140411
:10078000C4F1200500FA05F320FA04F001FA05F29D
:1007900040EA020001F0004221F0004110EBD3706A
:1007A00021FA04F642EB06015EEA430E08BF20EA96
:1007B000D37070BDC4F10C04C4F1200500FA04F339
:1007C00020FA05F001FA04F240EA020001F00041CB
:1007D00010EBD37041F100015EEA430E08BF20EA3E
:1007E000D37070BDC4F1200500FA05F24EEA020E86
:1007F00020FA04F301FA05F243EA020321FA04F0B5
:1008000001F0004121FA04F220EA020000EBD3706B
:100810005EEA430E08BF20EAD37070BD94F0000F6B
:100820000FD101F00046400041EB010111F4801F9F
:1008300008BF013CF7D041EA060195F0000F18BF50
:10084000704703F00046520043EB030313F4801F8C
:1008500008BF013DF7D043EA0603704794EA0C0F46
:100860000CEA135518BF95EA0C0F0CD050EA41065C
:1008700018BF52EA4306D1D181EA030101F00041D9
:100880004FF0000070BD50EA410606BF1046194601
:1008900052EA430619D094EA0C0F02D150EA01360D
:1008A00013D195EA0C0F05D152EA03361CBF10464E
:1008B00019460AD181EA030101F0004141F0FE41ED
:1008C00041F470014FF0000070BD41F0FE4141F471
:1008D000780170BD70B54FF0FF0C4CF4E06C1CEA71
:1008E00011541DBF1CEA135594EA0C0F95EA0C0F26
:1008F00000F0A7F8A4EB050481EA030E52EA0335E1
:100900004FEA013100F088804FEA03334FF0805501
:1009100045EA131343EA12634FEA022245EA11152E
:1009200045EA10654FEA00260EF000419D4208BFDF
:10093000964244F1FD0404F5407402D25B084FEA8C
:100940003202B61A65EB03055B084FEA32024FF438
:1009500080104FF4002CB6EB020E75EB030E22BF95
:10096000B61A754640EA0C005B084FEA3202B6EB55
:10097000020E75EB030E22BFB61A754640EA5C0004
:100980005B084FEA3202B6EB020E75EB030E22BF94
:10099000B61A754640EA9C005B084FEA3202B6EB95
:1009A000020E75EB030E22BFB61A754640EADC0054
:1009B00055EA060E18D04FEA051545EA16754FEAB6
:1009C00006164FEAC30343EA52734FEAC2025FEAD4
:1009D0001C1CC0D111F4801F0BD141EA00014FF063
:1009E00000004FF0004CB6E711F4801F04BF014334
:1009F0000020B4F1FD0C88BFBCF5E06F3FF6AFAE50
:100A0000B5EB030C04BFB6EB020C5FEA500C50F1DF
:100A1000000041EB045170BD0EF0004E4EEA113162
:100A200014EB5C04C2BFD4EB0C0541EA045170BD69
:100A300041F480114FF0000E013C90E645EA060EAD
:100A40008DE60CEA135594EA0C0F08BF95EA0C0FDB
:100A50003FF43BAF94EA0C0F0AD150EA01347FF423
:100A600034AF95EA0C0F7FF425AF104619462CE7FA
:100A700095EA0C0F06D152EA03353FF4FDAE10465D
:100A8000194622E750EA410618BF52EA43067FF4AE
:100A9000C5AE50EA41047FF40DAF52EA43057FF43E
:100AA000EBAE12E7000000000000000000000000B4
:100AB0004FF0FF3C06E000BF4FF0010C02E000BF2A
:100AC0004FF0010C4DF804CD4FEA410C7FEA6C5C0D
:100AD0004FEA430C18BF7FEA6C5C1BD001B050EAB0
:100AE000410C0CBF52EA430C91EA030F02BF90EA9B
:100AF000020F0020704710F1000F91EA030F58BF5A
:100B0000994208BF90422CBFD8176FEAE37040F0BB
:100B1000010070474FEA410C7FEA6C5C02D150EA59
:100B2000013C07D14FEA430C7FEA6C5CD6D152EA14
:100B3000033CD3D05DF8040B704700BF84461046D9
:100B400062468C461946634600E000BF01B5FFF7D8
:100B5000B7FF002848BF10F1000F01BD4DF808EDA8
:100B6000FFF7F4FF0CBF012000205DF808FB00BF79
:100B70004DF808EDFFF7EAFF34BF012000205DF8D3
:100B800008FB00BF4DF808EDFFF7E0FF94BF012020
:100B900000205DF808FB00BF4DF808EDFFF7CEFF21
:100BA00094BF012000205DF808FB00BF4DF808ED60
:100BB000FFF7C4FF34BF012000205DF808FB00BF31
:100BC0004FEA410212F5001215D211D56FF4787375
:100BD000B3EB625212D94FEAC12343F0004343EA18
:100BE000505311F0004F23FA02F018BF40427047F3
:100BF0004FF00000704750EA013005D111F000407D
:100C000008BF6FF0004070474FF00000704700BF12
:100C100053B94AB9002908BF00281CBF4FF0FF3163
:100C20004FF0FF3000F074B9ADF1080C6DE904CE5F
:100C300000F006F8DDF804E0DDE9022304B07047B7
:100C40002DE9F047089E04468846002B4BD18A4286
:100C5000154667D9B2FA82F24AB1C2F1200701FA09
:100C600002F320FA07F7954047EA030894404FEA59
:100C7000154E230CB8FBFEF71FFA85FC0EFB1788F8
:100C800043EA084307FB0CF1994209D9EB1807F135
:100C9000FF3080F01B81994240F21881023F2B44C3
:100CA0005B1AA4B2B3FBFEF00EFB103344EA03441C
:100CB00000FB0CFCA44509D92C1900F1FF3380F08E
:100CC0000781A44540F2048102382C4440EA0740E1
:100CD000A4EB0C0400271EB1D4400023C6E9004356
:100CE0003946BDE8F0878B4209D9002E00F0EB8031
:100CF0000027C6E9000138463946BDE8F087B3FA57
:100D000083F7002F47D18B4202D3824200F2FA8050
:100D1000841A61EB030301209846002EE0D0C6E957
:100D20000048DDE702B9FFDEB2FA82F2002A40F0A5
:100D30008F80491B4FEA154E1FFA85F80127B1FB3A
:100D4000FEFC230C0EFB1C1143EA014308FB0CF1D3
:100D5000994207D9EB180CF1FF3002D2994200F208
:100D6000CD808446591AA3B2B1FBFEF00EFB1014DD
:100D700043EA044408FB00F8A04507D92C1900F108
:100D8000FF3302D2A04500F2B6801846A4EB080457
:100D900040EA0C409FE7C7F1200CBB4022FA0CFE52
:100DA0004EEA030E01FA07F420FA0CF521FA0CF3CF
:100DB0004FEA1E482543B3FBF8F92C0C08FB193306
:100DC0001FFA8EFA44EA034309FB0AF49C4202FA32
:100DD00007F200FA07F10BD91EEB030309F1FF300C
:100DE00080F087809C4240F28480A9F1020973441C
:100DF0001B1BADB2B3FBF8F008FB103345EA03440C
:100E000000FB0AFAA24508D91EEB040400F1FF33E7
:100E10006BD2A24569D90238744440EA0940A0FB6C
:100E20000289A4EB0A044C45C2464B4654D351D028
:100E3000002E69D0B1EB0A0564EB030404FA0CFC44
:100E4000FD40FC404CEA0505C6E90054002747E791
:100E5000C2F1200320FA03F7954001FA02F021FACB
:100E600003F34FEA154E3843010CB3FBFEF71FFAAC
:100E700085F80EFB173341EA034107FB08F38B4269
:100E800004FA02F407D9691807F1FF3C2FD28B420C
:100E90002DD9023F2944CB1A81B2B3FBFEF00EFBE1
:100EA000103341EA034100FB08F38B4207D969186C
:100EB00000F1FF3C17D28B4215D902382944C91AD8
:100EC00040EA07473BE73746304609E70746E7E68B
:100ED0001846FBE64145ABD2B8EB020A69EB0E02BD
:100EE00001381346A4E76046E9E7184695E76746E8
:100EF000D1E781467CE702382C4447E7ACF1020C8D
:100F00002B442FE7384608E73746E9E600000000A3
:100F1000704700BF0000000000000000000000005B
:100F2000844641EA000313F003036DD1403A41D3F4
:100F300051F8043B40F8043B51F8043B40F8043BB3
:100F400051F8043B40F8043B51F8043B40F8043BA3
:100F500051F8043B40F8043B51F8043B40F8043B93
:100F600051F8043B40F8043B51F8043B40F8043B83
:100F700051F8043B40F8043B51F8043B40F8043B73
:100F800051F8043B40F8043B51F8043B40F8043B63
:100F900051F8043B40F8043B51F8043B40F8043B53
:100FA00051F8043B40F8043B51F8043B40F8043B43
:100FB000403ABDD2303211D351F8043B40F8043BE3
:100FC00051F8043B40F8043B51F8043B40F8043B23
:100FD00051F8043B40F8043B103AEDD20C3205D3F3
:100FE00051F8043B40F8043B043AF9D2043208D0EB
:100FF000D2071CBF11F8013B00F8013B01D30B885D
:1010000003806046704700BF082A13D38B078DD03A
:1010100010F003038AD0C3F10403D21ADB071CBF0C
:1010200011F8013B00F8013B80D331F8023B20F876
:10103000023B7BE7043AD9D3013A11F8013B00F8AF
:10104000013BF9D20B7803704B7843708B78837037
:101050006046704700000000000000000000000033
:1010600090F800F06DE9024520F007016FF0000CE8
:1010700010F0070491F820F040F049804FF0000490
:101080006FF00700D1E9002391F840F000F108006B
:1010900082FA4CF2A4FA8CF283FA4CF3A2FA8CF3A3
:1010A0004BBBD1E9022382FA4CF200F10800A4FA0A
:1010B0008CF283FA4CF3A2FA8CF3E3B9D1E904235E
:1010C00082FA4CF200F10800A4FA8CF283FA4CF395
:1010D000A2FA8CF37BB9D1E9062301F1200182FA4F
:1010E0004CF200F10800A4FA8CF283FA4CF3A2FA55
:1010F0008CF3002BC6D0002A04BF04301A4612BA63
:10110000B2FA82F2FDE8024500EBD2007047D1E965
:10111000002304F00305C4F100004FEAC50514F0F4
:10112000040F91F840F00CFA05F562EA05021CBFC5
:1011300063EA050362464FF00004A9E700000000DF
:1011400001F0FF01102A2BDB10F0070F08D010F878
:10115000013B013A8B422DD010F0070F42B3F6D17C
:10116000F0B441EA012141EA014122F007047FF095
:1011700000070023F0E80256083C85EA010586EAEC
:10118000010685FA47F5A3FA87F586FA47F6A5FA28
:1011900087F68EB9EED1F0BC01F0FF0102F0070234
:1011A00032B110F8013B013A83EA010313B1F8D1DF
:1011B0000020704701387047002D06BF35460338C0
:1011C000073815F0010F07D1013015F4807F02BFF9
:1011D000013015F4C03F0130F0BC0138704700BF4A
:1011E0004FEA410C7FEA6C5C02D150EA013C0AD123
:1011F0004FEA430C7FEA6C5C02D152EA033C02D115
:101200004FF0000070474FF00100704700000000F1
:1012100000B5074B07491A68087083B00192019A1C
:101220001B689A4202D103B05DF804FB00F0B0F9EC
:10123000000800202108002000000000000000003D
:1012400000B5074B07491A68088883B00192019AD4
:101250001B689A4202D103B05DF804FB00F098F9D4
:10126000000800202208002000000000000000000C
:1012700000B5074B07491A68088083B00192019AAC
:101280001B689A4202D103B05DF804FB00F080F9BC
:1012900000080020220800200000000000000000DC
:1012A00000B5074B07491A68087083B00192019A8C
:1012B0001B689A4202D103B05DF804FB00F068F9A4
:1012C00000080020200800200000000000000000AE
:1012D00010B5594B594C1B78226882B00192042BEF
:1012E00000F2A180DFE803F02342618003000023C5
:1012F00019461846FF2202F0F3FA00231946FF228E
:10130000012002F0EDFA00231946FF22022002F02C
:10131000E7FA019A23689A4240F08B80002319462D
:10132000FF22032002B0BDE8104002F0D9BAFF232B
:101330001A461946002002F0D3FAFF231A4619462E
:10134000012002F0CDFAFF231A461946022002F0CE
:10135000C7FA019A23689A426BD1FF231A461946AD
:10136000032002B0BDE8104002F0BABA0023FF2209
:101370001846114602F0B4FAFF221146002301205C
:1013800002F0AEFAFF2211460023022002F0A8FA72
:10139000019A23689A424CD1FF2211460023032070
:1013A00002B0BDE8104002F09BBA00221146104680
:1013B000FF2302F095FA00221146FF23012002F0DC
:1013C0008FFA00221146FF23022002F089FA019AC7
:1013D00023689A422DD100221146FF23032002B038
:1013E000BDE8104002F07CBAFF23002219461046E7
:1013F00002F076FAFF2319460022012002F070FA6B
:10140000FF2319460022022002F06AFA019A23689B
:101410009A420ED1FF2319460022032002B0BDE8F4
:10142000104002F05DBA019A23689A4201D102B0DD
:1014300010BD00F0ADF800BF20080020000800201B
:1014400010B5124C82B000232268019219461A4648
:10145000184602F045FA00231A461946012002F008
:101460003FFA00231A461946022002F039FA019A7F
:1014700023689A4208D100231A461946032002B075
:10148000BDE8104002F02CBA00F082F800080020FD
:10149000F0B5144D144F2B68144E83B04FF47A748A
:1014A0000193FFF715FF388804FB00F000F2E730E6
:1014B000A6FB0030800904F083F8FFF7C1FF019A12
:1014C0002B689A420CD1388804FB00F000F2E73018
:1014D000A6FB0030800903B0BDE8F04004F070B80E
:1014E00000F056F80008002022080020D34D6210BA
:1014F00080B5204B204F1B68204E214D82B04FF409
:101500007A74019305F09CFB03F01AFA02F070FA6A
:1015100003F066F801F0BCFA01F0CAFB01F090FCA0
:1015200002F066F802F09CFD164A1749174803F0CE
:1015300027F902F085FF02F0D3FF002202210520E7
:1015400001F0D6FB00F094FC00F0BAFE0BE0FFF7D0
:101550009FFF308804FB00F000F2E730A5FB00306D
:10156000800904F02DF83B78002BF0D1FFF768FFDD
:10157000EFE700BF0008002021080020220800201B
:10158000D34D6210040800200C08002040120020F7
:1015900000B5084B83B01A680192019A1B689A4201
:1015A00005D1054803B05DF804EB03F031BAFFF74D
:1015B000EFFF00BF00080020E00F0108000000005E
:1015C00070B52DED028B274E274C336882B008EEA4
:1015D000100A0020019302F013FD002002F028FD04
:1015E0002068404202F0ACFC206802F0C1FC02F02E
:1015F000D7FC054602F0ECFCDFED1C6A9FED1C6A8F
:10160000DFED1C7AB8EE488A88EE267AF2EE0A6A96
:1016100027EE067A27EE277AC7EE267AFDEEE77ADE
:1016200017EE904AA5420BDAA04202DB08E08442A2
:1016300006DD02F0B5FC054602F0CAFCAC42F6DC61
:10164000002002F07DFC019A33689A4207D1002005
:1016500002B0BDEC028BBDE8704002F089BCFFF720
:1016600097FF00BF00080020240800200000B443BA
:10167000CD75864100007A440000000000000000A3
:1016800070B52DED028B274E274C336882B008EEE3
:10169000100A0020019302F0B3FC002002F0C8FC05
:1016A000206802F04DFC2068404202F061FC02F02C
:1016B00077FC054602F08CFCDFED1C6A9FED1C6A8E
:1016C000DFED1C7AB8EE488A88EE267AF2EE0A6AD6
:1016D00027EE067A27EE277AC7EE267AFDEEE77A1E
:1016E00017EE904AA5420BDAA04202DB08E08442E2
:1016F00006DD02F055FC054602F06AFCAC42F6DC61
:10170000002002F01DFC019A33689A4207D10020A4
:1017100002B0BDEC028BBDE8704002F029BCFFF7BF
:1017200037FF00BF00080020240800200000B44359
:10173000CD75864100007A440000000000000000E2
:1017400000B5074B07491A68086883B00192019AEF
:101750001B689A4202D103B05DF804FBFFF718FF43
:101760000008002024080020000000000000000005
:1017700000B5074B07491A68086083B00192019AC7
:101780001B689A4202D103B05DF804FBFFF700FF2B
:1017900000080020240800200000000000000000D5
:1017A00000B50A4B83B01A680192019A1B6820B9F0
:1017B0009A4209D103B05DF804FB9A4204D103B008
:1017C0005DF804EBFFF7FCBEFFF7E2FE0008002027
:1017D00000B50A4B83B01A680192019A1B6820B9C0
:1017E0009A4209D103B05DF804FB9A4204D103B0D8
:1017F0005DF804EBFFF744BFFFF7CAFE00080020C6
:1018000030B5224C83B023680193032835D8DFE834
:1018100000F026160C02019A23689A4233D15A200E
:1018200003B0BDE83040FFF72BBF019A23689A420E
:1018300029D15A2003B0BDE83040FFF7C1BE144D96
:101840002868404202F07CFB019A23689A421AD130
:101850002868404203B0BDE8304002F089BB0C4D1F
:10186000286802F06DFB019A23689A420BD1286820
:1018700003B0BDE8304002F07BBB019A23689A4276
:1018800001D103B030BDFFF783FE00BF0008002088
:1018900024080020000000000000000000000000FC
:1018A00010B5094C82B023680193002002F048FB78
:1018B000019A23689A4205D1002002B0BDE8104089
:1018C00002F056BBFFF764FE000800200000000095
:1018D00000B5074B07491A68087883B00192019A4E
:1018E0001B689A4202D103B05DF804FBFFF750FE7B
:1018F000000800205012002000000000000000003E
:1019000070B5411A8DB22E4E82B02CB2336801935D
:101910002046FEF747FE21F00043194626A3D3E9EF
:101920000023FFF725F9002838D1264B9FED267AB2
:1019300019880D442DB207EE905AF8EEE77AF4EECE
:10194000C77AF1EE10FA1BDD4FF49D729FED1F7AFE
:101950001A8004EB840404EB8404640107EE904ACB
:10196000F8EEE77A77EE877AF5EEC07AF1EE10FAC4
:1019700013DD0020019A33689A4219D102B070BD7C
:101980009FED137AF4EEC77AF1EE10FA08D54FF610
:10199000C6629FED107A1A80DBE707D40220E9E7E0
:1019A000B0EE0C7A1D8027EE877AD2E70120E1E7BE
:1019B000FFF7EEFDAFF300800000000000C06240C2
:1019C000000800205412002092249D4300608944A6
:1019D00092249DC3006089C4000000000000000044
:1019E000F0B51C4D83B02B6801930746202383F389
:1019F0001188194C04F054F903F0AAF8A66A03F010
:101A0000C7F804F065F92368A34204D0A2699B6873
:101A100092689A4217D3002383F31188019A2B68A6
:101A20009A4214D14FF47A7101FB07F10B4B01F28A
:101A3000E731A3FB013106EB9111304603B0BDE85D
:101A4000F04003F0FDBD064802F0E2FFE3E7FFF7D8
:101A50009FFD00BF00080020E0530020D34D62101E
:101A6000101001080000000000000000000000004D
:101A700030B5184C83B023680193022002F050FD6A
:101A80004FF47A71FFF73CFF40B9134B1B78A3B9B1
:101A9000019A23689A420ED103B030BD0128F7D1D4
:101AA0000D4B1B78002BF3D00220FFF791FE019A1B
:101AB00023689A4208D0FFF76BFD0220FFF770FE03
:101AC000019A23689A42F6D1002003B0BDE8304065
:101AD000FFF796BE00080020290800200000000043
:101AE0002DE9F04F814D83B02B680193022002F065
:101AF00017FD0746002002F013FD86B2052002F014
:101B00000FFD8246FFF71CFE07EE900AF8EEE77A1B
:101B1000B2EE0A7A67EE877A9FED756ADFED756A35
:101B200087EE867AFA2EC6EE877AFCEEE77A17EE13
:101B3000903A9CB235D8DFF8D09199F80080B8F18E
:101B4000000F1FD06C4F6D4E3A883388B3EB520FA5
:101B500062D95A20FFF73CFE0020FFF751FE2046D5
:101B6000FFF73EFF664A00230121117033803B805E
:101B700089F80030019A2B689A4240F0B58003B092
:101B8000BDE8F08FBFB2772F4DD8FA2E00F29380C8
:101B9000F0D0594A5A49138881F8008001331380E4
:101BA000E8E70020DFF86491FFF732FBFFF748FC1D
:101BB000012389F80030FFF773FE202383F3118897
:101BC000DFF84C8104F06CF802F0C2FFD8F828B0BE
:101BD00002F0DEFF04F07CF8D8F80030434505D071
:101BE000D8F818209B6892689A423ED34FF00008BC
:101BF00088F311880BF57A71584603F021FD012016
:101C000089F80080FFF704FB00F0AAF9B8B900F0EA
:101C1000D7F900288FD0ADE70120FFF7F1FD338819
:101C200001333380A6E7782FA4D0F92E21D8324B88
:101C30001B88142B9ED9012389F800309AE72F4A7C
:101C40002D4BA2F80080B420A3F80080FFF7C0FD60
:101C50004046FFF7D5FD019A2B689A4244D1404691
:101C600003B0BDE8F04F00F093B9264802F0D0FE73
:101C7000BCE7FA2E3FF47EAF1FFA8AFABAF1590F89
:101C80002CD9BAF15A0F3FF475AF1C4A1A4BA2F87F
:101C90000080B420A3F80080FFF782FD4046FFF7E4
:101CA000AFFD019A2B689A421ED1204603B0BDE8D1
:101CB000F04FFFF795BE114A0F4BA2F800805A2053
:101CC000A3F80080FFF784FD4046FFF799FD20460A
:101CD000FFF786FE0A4B01221A704BE7074A064BB4
:101CE000A2F800805A20D5E7FFF752FC0008002038
:101CF00000007A440048A345521200204E120020F2
:101D00002908002010100108511200205012002054
:101D1000E053002000000000000000000000000070
:101D200010B51A4C82B023680193FFF789FAB0F519
:101D30007A7F1FD0B0F5FA6F12D0B0F5FA7F05D0D8
:101D4000019A23689A421FD102B010BD104B1A7835
:101D5000042AF5D00F490020042208701A70EFE71A
:101D60000B4B1A78142AEBD00A4900201422087071
:101D70001A70E5E7064B1A780A2AE1D005490020D7
:101D80000A2208701A70DBE7FFF702FC0008002047
:101D9000280800204C120020000000000000000075
:101DA0002DE9F04F294C2A4BA2692A491B68916101
:101DB00083B000200193DFF8A8B0274D274FDFF84C
:101DC000A4A0FFF71DFD4FF02009002632E089F3A3
:101DD000118803F065FF02F0BBFED4F8288002F002
:101DE000D7FE03F075FF2368A34207D0A2699B6862
:101DF00092689A4202D2504602F00AFE86F3118897
:101E0000FFF76EFE9BF800302BB12A783B789A42A0
:101E100001D1FFF72DFEFFF783FF2B783A789A4226
:101E200018BF013308F1320140460CBF2E702B70F1
:101E300003F006FC00F0C4F80028C8D0322003F0FC
:101E4000BFFB322003F0BCFBF8E700BFE0530020EB
:101E500000080020001001084C1200202808002073
:101E600029080020101001080000000000000000F8
:101E700010B50A4C0A4B22680A4884B04FF4AF618F
:101E8000039200220092402203F042FB039A23684F
:101E90009A4201D104B010BDFFF77AFB0008002080
:101EA000A11D0008581200200000000000000000E2
:101EB00080B5264C264AA3692649996186B002233B
:101EC0002025166800930A224FF420730021CDE9E3
:101ED00001553020059601F033F901F039F8002062
:101EE00001F06EF81C4E1D4F00F0D2FF0A2003F0E7
:101EF00067FB002001F0ACFBB04613E003F020FAD2
:101F000002F046FE03F0E4FE2368A34207D0A26974
:101F10009B6892689A4202D2384602F079FD00230B
:101F200083F3118801F08CF800F0F2FF85F311883B
:101F300003F0B6FE02F00CFE02F0DAFEB368002BEE
:101F4000DCDC404603F084FFD8E700BFE05300200C
:101F500000080020201001082C0800204010010873
:101F600000B5074B07491A68087883B00192019AB7
:101F70001B689A4202D103B05DF804FBFFF708FB2F
:101F800000080020DB1C0020000000000000000012
:101F900000B5074B07491A68087083B00192019A8F
:101FA0001B689A4202D103B05DF804FBFFF7F0FA18
:101FB00000080020DB1C00200000000000000000E2
:101FC00000B5074B07491A68087883B00192019A57
:101FD0001B689A4202D103B05DF804FBFFF7D8FA00
:101FE00000080020DA1C00200000000000000000B3
:101FF00030B5164D164C2B6883B04FF42570019305
:10200000FFF7B6FB2378BBB1022B4FF0B4000DD025
:10201000FFF7C6FBB420FFF7DBFB237801992A68A2
:102020000133914223700ED103B030BDFFF7B8FBEE
:102030005A20FFF7CDFBF0E75A20FFF7B1FBB420A1
:10204000FFF7C6FBE9E7FFF7A3FA00BF000800208F
:10205000D017002000000000000000000000000079
:102060002DE9F047DFF8B480264FD8F80030264E2F
:10207000264D274882B0019303F0B2FE00233B8037
:1020800033802B8000F0B4FF2249B7F800E0B6F8A7
:1020900000C02C88013001F5A06910F8013C01F85E
:1020A000013C10F8022B01F8022B4FEAC30A0AF098
:1020B000380A0AEB521A02F01F020EEBD303D44483
:1020C000224449451FFA83FE1FFA8CFC94B2E4D1E6
:1020D000114ADDF80490D8F80080A2FB0E13A2FB91
:1020E0000C01A2FB0402490A580AC1454FEA5223D7
:1020F000388031802B8002D102B0BDE8F087FFF735
:1021000047FA00BFD81C0020D61C0020D41C002099
:102110002C080020D5170020CDCCCCCC0008002006
:10212000F0B5544E544C3578236883B00193ADB16B
:10213000524B019A1B78022B236806D89A4266D12B
:1021400003B0BDE8F040FFF753BF9A4208BF00203C
:102150005DD103B0BDE8F040FFF70ABBFFF7B8FB65
:10216000002837D0464B1B881A1F022A1AD8454A26
:102170001288053A022A15D8434A1288033A022ADD
:1021800010D8012703203770FFF78AF8019A2368D7
:102190009A423CD12A463846022103B0BDE8F040BD
:1021A00000F0A6BD5A1F022A04D8364A1288113AF6
:1021B000022A2ED95A1E022A04D8324A1288093A13
:1021C000032A3DD9023B032B04D82E4B1B880E3B20
:1021D000032B05D9019A23689A4218D103B0F0BDA8
:1021E000294B1B88053B022BF4D800220221072033
:1021F00000F07EFD4FF4FA60FFF73AF80420FFF795
:102200004FF8019A23689A4208BFDC20A1D0FFF75B
:10221000BFF91D4A1288093A022ACBD800220221AE
:10222000062000F065FD019A2368184901209A42B2
:102230000870ECD1002003B0BDE8F040FFF730B8E3
:10224000114A1288073A022ABCD80022022107202C
:1022500000F04EFD4FF4FA70FFF70AF80220FFF786
:102260001FF8019A23689A4208BF4FF4DC703FF4CC
:1022700070AFCCE7DA1C002000080020D017002047
:10228000D81C0020D61C0020D41C0020DB1C002001
:1022900000B5064A064B926906491B68916183B0F6
:1022A0000193FFF7DDFEFFF73BFFFAE7E053002065
:1022B00000080020301001080000000000000000AD
:1022C00030B50E4C0E4B22680E4885B000250392A7
:1022D0004FF4AF614022009503F01AF90A4B0095C4
:1022E00040220A484FF4AF6103F012F9039A2368C1
:1022F0009A4201D105B030BDFFF74AF9000800202D
:102300009122000858220020B11E0008E01C002085
:1023100030B5104D81682B680F4A83B001930B686C
:1023200023F001030B608168946A03E0936A1B1B2E
:10233000C72B09D8086810F00100F7D1019A2B6863
:102340009A4204D103B030BD4FF0FF30F6E7FFF7FB
:102350001FF900BF00080020E0530020000000002B
:1023600030B5184D83B02B68019311F00C0F044663
:102370000AD00378032B13D00622636822709A6870
:102380001AB100212046904763685B688BB10199C0
:102390002A68914213D1204603B0BDE83040184767
:1023A000FFF7B6FF0622636822709A68002AE8D118
:1023B000EBE7019A2B689A4201D103B030BDFFF7D9
:1023C000E7F800BF00080020000000000000000047
:1023D000F0B5284D83B02B68019303F029FC02F07F
:1023E00037FC254B1E69F20715D55A69234C42F07C
:1023F00001025A612778BB1F012B2AD90522636885
:1024000022701B680BB120469847042F27D0022F5B
:1024100025D003232370B30710D5174A174C5369EF
:1024200043F0020353612378032B1DD063689B683C
:102430000622227013B101211048984702F030FCA7
:10244000019A2B689A4213D103B0BDE8F04004F022
:10245000B7BB019A2B689A420AD103B0F0BD0223A0
:102460002370B307EAD5D8E72046FFF751FFDDE731
:10247000FFF78EF80008002000000550D02700204C
:1024800030B50B4D0B4C2B6883B02046019300F008
:102490002FF9019A2B680848084D094921619A4291
:1024A000C4E9025001D103B030BDFFF771F800BF9D
:1024B00000080020D0270020BC3001080000055093
:1024C000165502020000000000000000000000009D
:1024D0002DE9F0412F4C0578266882B0012D019638
:1024E00006D0019A23689A4252D102B0BDE8F08129
:1024F000294DA842F5D10E4690461F46274AE86866
:102500002B460C2107F044F9002839D1D5E90232D5
:10251000126828339360EB681A68042151611B68C4
:10252000C3F80C80EB681A6817611B68B6085E6018
:102530002B694FB343F480232B61E968184A09687B
:102540000B60EB6819680B6843F001030B60536B79
:1025500043F0010353630B214E2006F0F9FDD5E94A
:102560000113DA6842F00102DA60DA6842F002022E
:10257000DA60CA6822F4804222F001021A60B0E7F1
:10258000084802F045FAC1E723F480232B61D4E721
:10259000FEF7FEFF00080020D0270020612300087E
:1025A0000038024050100108000000000000000048
:1025B00030B5184C0378226883B0022B019205D005
:1025C000019A23689A4223D103B030BD124B98423E
:1025D0000546F5D18168114A0B6823F4804323F046
:1025E00001030B608168CB6823F00F03CB60536B52
:1025F00023F0010353634E2006F0D2FD019A2368B5
:102600009A4205D1E86803B0BDE8304007F028B928
:10261000FEF7BEFF00080020D0270020003802404F
:1026200000B50F4B0278196883B0022A01910ED1D0
:1026300081680A6842F002020A6081680A6842F40E
:1026400080420A6081680A6842F001020A60019AC9
:102650001B689A4202D103B05DF804FBFEF798FFB5
:102660000008002000000000000000000000000042
:1026700000B50F4B0278196883B0022A01910ED180
:1026800081680A6822F002020A6081680A6842F4DE
:1026900080420A6081680A6842F001020A60019A79
:1026A0001B689A4202D103B05DF804FBFEF770FF8D
:1026B00000080020000000000000000000000000F2
:1026C00000B5074B83B01A680192019A1B689A42C1
:1026D00004D103B05DF804EBFFF7D2BEFEF758FF5C
:1026E00000080020000000000000000000000000C2
:1026F00000B5084B83B01A68019201220270019A5A
:102700001B6800219A42416002D103B05DF804FBCE
:10271000FEF73EFF0008002000000000000000005F
:102720002DE9F043254D83B02C680194DDF8289005
:102730000F4616469846044618B111B1204B9A42EE
:102740002FD9204802F064F9202383F3118803F085
:10275000A7FA02F0FDF92378012B02D0194802F004
:1027600057F94246314620464B466760FFF7B0FEB8
:102770000223237002F00CFA03F0AAFA124B1A6833
:102780009A4204D0996993688A689A420FD30023C9
:1027900083F31188019A2B689A420CD103B0BDE8EB
:1027A000F0839307CDD1B8F1000FCDD1C9E7074829
:1027B00002F02EF9EBE7FEF7EBFE00BF0008002069
:1027C000FCFF030080100108E05300207010010896
:1027D00030B51C4D83B02B680193044658B32023B9
:1027E00083F3118803F05CFA02F0B2F92378022B2C
:1027F00002D0154802F00CF92046FFF7D9FE01235C
:10280000237002F0C5F903F063FA104B1A689A427C
:1028100004D0996993688A689A4208D3002383F3A5
:102820001188019A2B689A4209D103B030BD08483B
:1028300002F0EEF8F2E7044802F0EAF8CFE7FEF71C
:10284000A7FE00BF0008002090100108E053002000
:1028500070100108000000000000000000000000EF
:1028600030B51C4D83B02B680193044658B3202328
:1028700083F3118803F014FA02F06AF92378022B2B
:1028800002D0154802F0C4F82046FFF7C9FE042321
:10289000237002F07DF903F01BFA104B1A689A427C
:1028A00004D0996993688A689A4208D3002383F315
:1028B0001188019A2B689A4209D103B030BD0848AB
:1028C00002F0A6F8F2E7044802F0A2F8CFE7FEF71C
:1028D0005FFE00BF00080020A0100108E0530020A8
:1028E000701001080000000000000000000000005F
:1028F00030B51C4D83B02B680193044658B3202398
:1029000083F3118803F0CCF902F022F92378022B2B
:1029100002D0154802F07CF82046FFF7A9FE0323F9
:10292000237002F035F903F0D3F9104B1A689A427C
:1029300004D0996993688A689A4208D3002383F384
:102940001188019A2B689A4209D103B030BD08481A
:1029500002F05EF8F2E7044802F05AF8CFE7FEF71B
:1029600017FE00BF00080020C0100108E05300203F
:1029700070100108000000000000000000000000CE
:1029800000B5084B83B01A680192019A1B689A42FD
:1029900005D1054803B05DF804EB02F039B8FEF745
:1029A000F7FD00BF00080020D01001080000000063
:1029B00070B51849184C0A78236882B001934FF417
:1029C000B47303FB00F562B1019A23689A421FD1E8
:1029D00012481349B1FBF5F102B0BDE8704004F0B4
:1029E00057BD1048104A01260E70802141830F49BF
:1029F0000F4804F015FC019A23689A4208D1074851
:102A00000749B1FBF5F102B0BDE8704004F0A8BD84
:102A1000FEF7BEFD08280020000800209461002079
:102A200000BD0105000C0240E0100108F82700205D
:102A3000305E0020000000000000000000000000E8
:102A400010B50C4C0C4B22680C4882B001928022CD
:102A50001A8304F0E5FD0A4804F022FC019A236879
:102A6000084900209A42087001D102B010BDFEF75B
:102A70008FFD00BF00080020000C02409461002080
:102A8000305E002008280020000000000000000048
:102A900070B5154D154A164B2968164E9E6082B0CA
:102AA00000244FF400601080019194701146124888
:102AB0005C6001221A60DC6004F032FB0F4B104EA8
:102AC00010485C60202219469A60DC601E6004F0A9
:102AD00097FC019A2B689A4204D102B0BDE870407D
:102AE000FFF7AEBFFEF754FD00080020F4270020DA
:102AF000F827002081290008305E0020E42700200C
:102B000000BD0105946100200000000000000000ED
:102B100010B50B4C0B48236882B0019303F0C0FA48
:102B2000094803F09DFC019A23689A4205D10548A3
:102B300002B0BDE8104003F0EBBAFEF729FD00BF7C
:102B400000080020440800203C080020000000008D
:102B500030B50F4C83B0236801930D4608B1FFF7E1
:102B600027FF4FF47A700B4900FB05F000F2E730C5
:102B7000A1FB0030800902F023FD019A23689A42EC
:102B800004D103B0BDE83040FFF75ABFFEF700FDA7
:102B900000080020D34D621000000000000000007B
:102BA0002DE9F0432DED028BDFF8FC80344BD8F893
:102BB000182034491B68344DDFED348A9FED348A88
:102BC000344E354F916183B00193202383F31188F4
:102BD00003F066F801F0BCFF304802F0D1FD286038
:102BE00001F0D6FF03F074F8D8F80030434508D060
:102BF000D8F818209B6892689A4202D2284801F0BF
:102C000007FF4FF0000989F311882B681A8972BBFE
:102C100030E0D3E9001202EB890393ED007A31F83A
:102C20001900C8EE877A09F10109FCEEE77A17EE80
:102C3000903A9CB22146FFF78BFF07EE904AF8EEE0
:102C4000E77A4FF47A7367EE887AFCEEE77A17EE4C
:102C5000902A90B203FB00F000F2E730A7FB0030AF
:102C6000800902F0ADFC2B681A894A4502DD3278F2
:102C7000002ACED100230B48337003F071FBA4E788
:102C800000080020B01301081028002000007A443A
:102C90006666A63F38080020D34D62100C2800203D
:102CA000C01301083C080020E05300200000000091
:102CB00010B50A4C0A4B22680A4884B04FF4FC71E4
:102CC000039200220092402202F022FC039A236821
:102CD0009A4201D104B010BDFEF75AFC0008002052
:102CE000A12B0008182800200000000000000000B0
:102CF00030B51E4C85B0236803930F2815D00E28DD
:102D000015D81B4A00EB400002EB8002194803680B
:102D100099B963B103992368174D012499422C7026
:102D200008BF114617D0FEF733FC002AEED1039AF4
:102D300023689A42F7D105B030BD02290E4D04BF79
:102D40000021297063B103992368012099422870FA
:102D5000E9D10848114605B0BDE8304002F0C8BDD1
:102D60000192FFF7D5FE019AEDE700BF00080020B1
:102D7000D01801080C2800203808002000000000AE
:102D800000B5074B07491A68087083B00192019A91
:102D90001B689A4202D103B05DF804FBFEF7F8FB12
:102DA00000080020102A00200000000000000000A1
:102DB00000B5064B83B01A680192019A1B689A42CB
:102DC00002D103B05DF804FBFEF7E2FB000800202F
:102DD00000B5064B83B01A680192019A1B689A42AB
:102DE00002D103B05DF804FBFEF7D2FB000800201F
:102DF00010B5104C104B226882B0019201221A705B
:102E0000202383F3118802F07BFF01F0E1FE0B48E1
:102E100003F07EFA01F0FCFE02F08AFF002383F348
:102E20001188019A23689A4201D102B010BDFEF7C1
:102E3000AFFB00BF000800201C2A0020580800201B
:102E400030B50E4D0E4C2B6883B00193FFF738FC64
:102E5000206808B10AF0F4FB4FF496400AF0E8FB52
:102E600001992A682060B0FA80F35B099142C3F1AE
:102E7000000001D103B030BDFEF78AFB000800203E
:102E8000142A0020000000000000000000000000E4
:102E900030B5174D174C2B78226885B0012B039263
:102EA00020D000F005FC144B1B78ABB9B0F5964F61
:102EB00015D8124A124B12681B681249009202463A
:102EC0001148FFF72DFC01232B700020039A236883
:102ED0009A420BD105B030BDB0F5165FE9D94FF07D
:102EE000FF30F3E70848FFF773FCDAE7FEF750FB23
:102EF000122A002000080020132A0020182A00208F
:102F0000142A002010260108D0270020000000000D
:102F100010B50B4C0B48236882B0019303F0C0F846
:102F2000094803F09DFA019A23689A4205D10548A1
:102F300002B0BDE8104003F0EBB8FEF729FB00BF7C
:102F40000008002060080020580800200000000051
:102F500030B5154D154C164B2268286883B0019288
:102F600001221A7008B10AF06BFB4FF416500AF0F8
:102F70005FFB286098B10F4D286808B10AF060FB2C
:102F80004FF416500AF054FBB0FA80F35B09286046
:102F90005842019A23689A4204D103B030BD4FF0E1
:102FA000FF30F6E7FEF7F4FA142A002000080020AC
:102FB000132A0020182A0020000000000000000052
:102FC00000B5074B07491A68087083B00192019A4F
:102FD0001B689A4202D103B05DF804FBFEF7D8FAF1
:102FE00000080020112A002000000000000000005E
:102FF00000B50D4A0D4B1278196883B0019142B1AA
:103000000B4AD26812681268120302D4094A106887
:1030100001E0094A1068019A1B689A4202D103B084
:103020005DF804FBFEF7B4FA132A00200008002024
:10303000D0270020182A0020142A002000000000B9
:1030400000B50E4A0E4B1278196883B001914AB14F
:10305000019A1B689A420FD10A4803B05DF804EB4D
:10306000FFF746BC019A1B689A4205D1054803B098
:103070005DF804EBFFF7F4BBFEF78AFA112A002093
:1030800000080020D0270020000000000000000001
:1030900070B5274D82B02B680193064601220321AB
:1030A0006E2000F0CDFB044630B1019A2B689A42A5
:1030B00020463AD102B070BD32464E216E2000F05B
:1030C000BFFB04460028F0D1442E07D00246B721AA
:1030D0006E2000F0B5FBB8B10446E6E70122B72147
:1030E0006E2000F0ADFB0028F6D1224603216E20B1
:1030F00000F0A6FB0028EFD1032211216E2000F082
:103100009FFB78B10446D0E7224603216E2000F0F1
:1031100097FB0028E0D10A2211216E2000F090FBDD
:103120000028D9D1034B1E71BFE7FEF731FA00BF6B
:1031300000080020202A00200000000000000000FD
:103140002DE9F04F8FB0DFF80084DDF860C0D8F8CB
:1031500000400D940CF1FF355C1EB3F5207F9DF807
:1031600064909DF868B00C44154400F21282BCF5DE
:10317000F07F00F20E82B1F5207F0E4600F212823F
:10318000B2F5F07F174600F21082A14280F004826F
:10319000B4F5207F00F20082AA4280F00082B5F5EB
:1031A000F07F00F2FC81B9F1400F824600F0B0815F
:1031B000B9F1800F23D0B9F1200F00F09C810023DA
:1031C000CDE90033BBF1400F2FD0BBF1800F00F0F1
:1031D000CB81BBF1200F00F0B9810023CDE9023390
:1031E000002203216E2000F02BFBA0B30D9AD8F82B
:1031F00000309A4240F0E2810FB0BDE8F08F9A07AC
:1032000040F0D681CC4A8C085900661CA2FB010113
:10321000A2FB030204EB930406EBD2030093BBF181
:10322000400F06EBD1030193CFD11CF0010F40F00A
:10323000C281C14B7D084FEA4C026F1CA3FB0212F6
:10324000A3FB0C1307EB9303029307EB920305EB2D
:103250005C050393C4E702465B216E2000F0F0FAA0
:103260000028C3D15046FFF713FF0028BED1024605
:1032700003216E2000F0E4FA0028B7D1C6F307233B
:103280001A4608216E20049300F0DAFA0028ADD126
:10329000F3B21A4609216E20059300F0D1FA0028F6
:1032A000A4D1C7F307231A460A216E20069300F023
:1032B000C7FA00289AD1FBB21A460B216E20079359
:1032C00000F0BEFA002891D1C4F307231A460C215E
:1032D0006E20089300F0B4FA002887D1E3B21A46B2
:1032E0000D216E20099300F0ABFA00287FF47EAF29
:1032F000C5F307231A460E216E200A9300F0A0FAA8
:1033000000287FF473AFEBB21A460F216E200B93A7
:1033100000F096FA00287FF469AF049A35216E20F8
:1033200000F08EFA00287FF461AF059A36216E20F6
:1033300000F086FA00287FF459AF089A37216E20F2
:1033400000F07EFA00287FF451AF099A38216E20F0
:1033500000F076FA00287FF449AF069A39216E20F2
:1033600000F06EFA00287FF441AF079A3A216E20F0
:1033700000F066FA00287FF439AF0A9A3B216E20EC
:1033800000F05EFA00287FF431AF0B9A3C216E20EA
:1033900000F056FA00287FF429AF009B3D21C3F3CB
:1033A00007226E2000F04CFA00287FF41FAF9DF832
:1033B00000203E216E2000F043FA00287FF416AF73
:1033C000019B3F21C3F307226E2000F039FA002849
:1033D0007FF40CAF9DF8042040216E2000F030FAFD
:1033E00000287FF403AF029B4121C3F307226E2024
:1033F00000F026FA00287FF4F9AE9DF8082042215B
:103400006E2000F01DFA00287FF4F0AE039B4321EC
:10341000C3F307226E2000F013FA00287FF4E6AE13
:103420009DF80C2044216E2000F00AFA00287FF459
:10343000DDAE012203216E2000F002FA00287FF4A5
:10344000D5AE4A4693216E2000F0FAF900287FF4A9
:10345000CDAE5A4694216E2000F0F2F900287FF498
:10346000C5AE012203216E2000F0EAF900287FF4A6
:10347000BDAE0134A31B07EE103ADFED307AB8EE93
:10348000477ABAF1440F77EEC77A00F09980B0EE30
:10349000006AF2EE006AE7EE066A77EEA77AB0EE0F
:1034A000667A67EE877ADFED266A87EEA67AFCEE0B
:1034B000C77ACDED007A009B9521C3F307226E20D9
:1034C00000F0BEF900287FF491AE9DF8002096210F
:1034D0006E2000F0B5F900287FF488AE194B013555
:1034E000EF1BA41B5F801C8083F804A083F8059069
:1034F00083F806B07AE610495A00A1FB030306EBF5
:103500005303A1FB0212009306EB5203019359E609
:10351000D9074DD4084A74085900661CA2FB010162
:10352000A2FB030204EB530406EB9203009306EBA9
:103530009103019346E600BFABAAAAAA0000224469
:103540000000A344202A002000080020244A4FEA5B
:103550004C03A2FB0C1CA2FB032307EB530307EB5A
:103560005C02029203933BE61CF0030F23D11C4B39
:10357000BD084FEA4C026F1CA3FB0212A3FB0C1305
:1035800007EBD303029307EBD20305EB9C050393F0
:1035900026E66FF0070029E66FF0030026E66FF0DD
:1035A000040023E66FF0010020E66FF002001DE644
:1035B0006FF005001AE66FF0060017E6FDF7E8FF6A
:1035C000F2EE006A37EE267ADFED066A67EE277ABA
:1035D00087EEA67AFCEEC77ACDED007A6BE700BFE6
:1035E000ABAAAAAA000024440000000000000000CA
:1035F00010B5114C86B02368059300F0B1F80F495F
:103600000F4804F02DFA012200210D4804F0C0FA01
:1036100020237822CDE901330092A023B422F021A7
:103620000220FFF78DFD059A23689A4201D106B06A
:1036300010BDFDF7ADFF00BF0008002020260108E7
:10364000F861002000000000000000000000000001
:1036500030B5164C83B0236801930546002302223F
:1036600003216E208DF8033000F0EAF828B1019AAA
:1036700023689A4218D103B030BD0DF10302042132
:103680006E2000F08DF80028F1D19DF80320012D67
:103690000CBF02F0FB0242F0040204216E208DF800
:1036A000032000F0CDF8E2E7FDF772FF00080020EC
:1036B00010B50A4B0A4A1988146858881B7982B0D9
:1036C000442B019400FB01F00199136818BF4000DE
:1036D000994201D102B010BDFDF75AFF202A002007
:1036E00000080020000000000000000000000000B2
:1036F00070B5164E16483368154D82B005224FF44A
:103700008071019308F01CF820246B6983F48073A6
:103710006B61012001F054FF631E13F0FF04F4D12C
:103720004FF4807140F206222983094808F008F816
:10373000019A33689A4206D10649074802B0BDE8AB
:10374000704003F0D5BFFDF723FF00BF0008002045
:103750000004024060260108605E002000000000B6
:1037600000B50C4A0C4B1278196883B0012A0191FC
:10377000019A1B6804D09A4209D103B05DF804FB9A
:103780009A4204D103B05DF804EBFFF7B1BFFDF737
:10379000FFFE00BF605E0020000800200000000067
:1037A0002DE9F041224C234E88B0002335688DF876
:1037B0001830804620468DF814101746079504F0FF
:1037C000AFF82378012B0CD00420012306AACDE901
:1037D00001300092414605AA204604F031F8054622
:1037E00068B9134804F0BCF89DF818303B7000200D
:1037F000079A33689A4218D108B0BDE8F081204694
:1038000004F006F823780C4A052B106004D0084811
:1038100004F0A6F868B2EBE7204603F0B1FF237886
:10382000012BF4D1FFF764FFF1E7FDF7B1FE00BF14
:10383000605E002000080020282A00200000000010
:10384000F0B5214C214E89B0336807930746002517
:1038500020468DF818108DF819208DF8145004F0BA
:103860005FF82378012B0CD0042205AB019502925E
:1038700000933946022306AA204603F0E1FF0546DD
:1038800048B9114804F06CF80020079A33689A424E
:1038900017D109B0F0BD204603F0BAFF23780C4AD7
:1038A000052B106004D0084804F05AF868B2ECE721
:1038B000204603F065FF2378012BF4D1FFF718FFB2
:1038C000F1E7FDF765FE00BF605E00200008002004
:1038D000282A002000000000000000000000000076
:1038E00070B5094D094E2C6882B000EB4000019480
:1038F000315434180198296862708842A37001D14C
:1039000002B070BDFDF744FE000800202C2A002004
:1039100030B5094B094D044607CB83B02B680193A2
:10392000206001982B6861609842A26001D103B0C9
:1039300030BDFDF72DFE00BF2C2A0020000800201E
:103940002DE9F043254E83B034680194042A9DF894
:103950002890144605460F46984639D9B9F1000F0C
:1039600014BF00224FF08052640002EB0863013C58
:103970001C4405F00F0527F01F07202383F311884F
:1039800002F08EF93D4301F0E3F8154B1035DD6090
:103990001C6101F0FDF802F09BF9124B1A689A4283
:1039A00004D0996993688A689A420DD3002383F3FF
:1039B0001188BFF36F8FBFF34F8F019A33689A421C
:1039C0000AD103B0BDE8F083074801F021F8EDE724
:1039D000064801F01DF8C1E7FDF7DAFD00080020F8
:1039E00090ED00E0E0530020F0260108D026010809
:1039F00030B5224D224C2B68224A85B00393636870
:103A000043F004036360536A43F48033536220231A
:103A100083F3118802F044F901F09AF817221A4B47
:103A2000E260236101F0B4F802F052F9174B1A6812
:103A30009A4204D0996993688A689A4218D3002000
:103A400080F31188BFF36F8FBFF34F8F03231D22C5
:103A500000904FF00051FFF773FF094A536843F09D
:103A600001035360039A2B689A4205D105B030BD1B
:103A7000074800F0CDFFE2E7FDF78AFD00080020CF
:103A800090ED00E000ED00E009000010E0530020A0
:103A9000F026010800000000000000000000000007
:103AA00070B51A4D1A4C1B4E0FCD0FC49EB02A682C
:103AB000336822801D93EFF30981682203A8FDF784
:103AC0002FFA154B9D6AAA0714D4EB0708D5124BA1
:103AD00008995B6B114A00910D4880210AF0C8F8E3
:103AE0001D9A33689A420FD109481EB0BDE8704054
:103AF00000F08EBF099A5B6B0092A4F11000084A97
:103B000080210AF0B5F8E0E7FDF742FDB426010890
:103B1000382A00200008002000ED00E0902601086F
:103B200070260108000000000000000000000000F6
:103B300000B51F4B0278196883B00191E2B11D4AAC
:103B40004FF4005111834278EAB11A4A4FF4805180
:103B500011838278F2B1174A4FF480411183C27801
:103B6000FAB9144A4FF400415183019A1B689A42F2
:103B70001CD103B05DF804FB0E4A4FF40051518391
:103B80004278002AE1D10B4A4FF480515183827868
:103B9000002AE0D1074A4FF480415183C278002ABD
:103BA000DFD0044A4FF400411183DEE7FDF7F0FC5B
:103BB000000800200010024000000000000000008B
:103BC00000B51F4B0278196883B00191E2B11D4A1C
:103BD0004FF4007111834278EAB11A4A4FF48071B0
:103BE00011838278F2B1174A4FF400611183C278D1
:103BF000FAB9144A4FF480615183019A1B689A42C2
:103C00001CD103B05DF804FB0E4A4FF400715183E0
:103C10004278002AE1D10B4A4FF4807151838278B7
:103C2000002AE0D1074A4FF400615183C278002A8C
:103C3000DFD0044A4FF480611183DEE7FDF7A8FC72
:103C400000080020001002400000000000000000FA
:103C500030B50C4A0C4B116883B04FF400550191FC
:103C60004FF480544FF400414FF480405D835C83F7
:103C70005883598301991368994201D103B030BD2B
:103C8000FDF786FC00080020001002400000000044
:103C900030B50C4A0C4B116883B04FF4007501919C
:103CA0004FF480744FF480614FF400605D835C8357
:103CB0005883598301991368994201D103B030BDEB
:103CC000FDF766FC00080020001002400000000024
:103CD00010B50B4C0B48236882B099220021019348
:103CE00003F056FF019A23689A4206D10548002145
:103CF00002B0BDE8104004F033B8FDF749FC00BF46
:103D000000080020C061002000000000000000004A
:103D100010B50B4C0B48236882B099220021019307
:103D200003F036FF019A23689A4206D10548002124
:103D300002B0BDE8104004F013B8FDF729FC00BF45
:103D400000080020DC6100200000000000000000EE
:103D500000B5084B83B01A680192019A1B689A4219
:103D600006D10548002103B05DF804EB03F060BF05
:103D7000FDF70EFC00080020C061002000000000DC
:103D800000B5084B83B01A680192019A1B689A42E9
:103D900006D10548002103B05DF804EB03F048BFED
:103DA000FDF7F6FB00080020DC61002000000000A9
:103DB00070B51A4C1A4E2378326882B0022B0192E9
:103DC000A26811D165781748013505F0070500EBA9
:103DD0008500904763686570013B6360019A3368B2
:103DE0009A4219D102B070BD012B08D001993368F5
:103DF000994211D10C4802B0BDE870401047657877
:103E00000848013D05F0070500EB85009047636811
:103E1000657001336360E1E7FDF7BAFBD02A00204B
:103E200000080020902701088027010800000000FA
:103E300070B51A4C1A4E2378326882B0012B019269
:103E4000A26811D165781748013505F0070500EB28
:103E5000850090476368657001336360019A336839
:103E60009A4219D102B070BD022B08D00199336873
:103E7000994211D10C4802B0BDE8704010476578F6
:103E80000848013D05F0070500EB85009047636891
:103E90006570013B6360E1E7FDF77AFBB82A00201B
:103EA000000800209027010880270108000000007A
:103EB00030B51F4D85B02B68039340F24C439942B7
:103EC000044626DCA3F69803994211DB4B00002B35
:103ED00029D10370036998474FF47A71039A2B68CC
:103EE0009A421ED1606905B0BDE8304003F008BEBB
:103EF000104B02225B42227040F2892293420E490B
:103F000091FBF3F189B207DC0191E36898470199CD
:103F1000E4E7012303702D2101912369984701995A
:103F2000DCE7FDF735FBE4DD01220270E4E700BFCA
:103F30000008002068F7FFFFA086010000000000D5
:103F400000B5084B83B01A680192019A1B689A4227
:103F500006D10146044803B05DF804EBFFF7A8BFA3
:103F6000FDF716FB00080020B82A00200000000022
:103F700000B5084B83B01A680192019A1B689A42F7
:103F800006D10146044803B05DF804EBFFF790BF8B
:103F9000FDF7FEFA00080020D02A002000000000F3
:103FA00000B5094B094A1968506883B000EBD0701E
:103FB0000191019A1B689A4203D1401003B05DF849
:103FC00004FBFDF7E5FA00BF00080020B82A002036
:103FD00000B5094B094A1968506883B000EBD070EE
:103FE0000191019A1B689A4203D1401003B05DF819
:103FF00004FBFDF7CDFA00BF00080020D02A002006
:1040000000B5084B08491A6883B040000192019A34
:104010001B6848609A4202D103B05DF804FBFDF7CB
:10402000B7FA00BF00080020B82A002000000000F6
:1040300000B5084B08491A6883B040000192019A04
:104040001B6848609A4202D103B05DF804FBFDF79B
:104050009FFA00BF00080020D02A002000000000C6
:1040600070B51D4E1D4A1E4B30681E491E4C916096
:1040700082B00021D46001901C4C1D481D4D9D60F4
:10408000117051705160106154611B481B4A1C4DE6
:10409000D8601C48197059705960C3E90425FFF7AE
:1040A00047FD1848FFF78CFD1749204603F0D8FC60
:1040B000204603F00DFE2846144903F0D1FC019A76
:1040C00033689A4205D1284602B0BDE8704003F03B
:1040D000FFBDFDF75DFA00BF00080020D02A0020D8
:1040E000B82A0020313B0008D13C0008C061002004
:1040F000513D0008C13B0008113D0008813D00080A
:10410000DC61002080270108402701080027010802
:104110000A490B4B09680B4A82B0202001914021CB
:1041200058834FF4806559834FF400644FF4804006
:1041300004215D835C8358835183FEE700080020DF
:10414000000C0240000402400000000000000000DB
:1041500010B51E491E4A0B78106882B0013B0190D1
:10416000072B0AD8DFE803F012151C1F26290F04BD
:1041700018480824012304830B700199136899429D
:1041800021D102B010BD08230B70F6E702230B709B
:10419000F3E711484FF48054032304830B70ECE7DA
:1041A00004230B70E9E70C484FF480440523048393
:1041B0000B70E2E706230B70DFE7064804240723B1
:1041C00004830B70D9E7FDF7E3F900BF682E0020E8
:1041D000000800200010024000040240000000001F
:1041E00030B50C4B0C4918680C4A83B04FF480452D
:1041F00001904FF480504883042408204D83548359
:104200005083019A1B689A4201D103B030BDFDF77B
:10421000BFF900BF00080020000402400010024067
:104220002DE9F04F4E4B4F4A9B694F499961A5B01C
:1042300007AE05AD80231768009331462A46002457
:104240000CA84A4B2397CDE90766CDE90555CDE982
:1042500009440B9400F0ACFA0CA9454A4548434C7C
:10426000454DDFF83481DFF834B1DFF834A100F0D8
:10427000C7FA04F11C0604F16007A146504601F09C
:10428000AFFD2A682B69226063602A6A2B6BA260EB
:10429000E3606A686B69226163616A6A6B6BA26141
:1042A000E361AA68AB6922626362AA6AAB6BA2622D
:1042B000E362EA68EB6922636363EA6AEB6B2F49A6
:1042C000A263E36351F8043F0A6AB142A3EB02031D
:1042D0000B64F7D1802249460CA800F0C1FA98F887
:1042E0000030002BCAD09BF8003033B3012BC5D16E
:1042F000DFF8B0C02248614650F8042B51F8043F63
:10430000B84213440B60F7D11E4A13780133DBB275
:10431000642B1370B2D11C495CF8043F1B4A82FB2A
:104320000302DB17C3EB621341F8043B184B9C45B7
:10433000F2D1002388F80030A0E719462022124865
:10434000039309F045FC039B12481946202209F00B
:104350003FFC0C49039B0B7001228BF800208DE77A
:10436000E053002000080020B02701086C2B00203B
:10437000F027010840120020082B0020682B0020A5
:10438000AC2B0020492B0020CC2B00201F85EB51AB
:10439000682B00204C2B0020482B00204A2B0020AB
:1043A00074080020482B00200000000000000000DE
:1043B00070B502691E4D52882B6882B006460C46C5
:1043C0001C4801939200002109F002FC33695B88CC
:1043D0005BB1184AA11E002331F8020F42F8040B0A
:1043E0003069408801339842F6D8202383F311883E
:1043F00001F086FC00F0ECFB00F07AFC0E488368CC
:10440000002B0FDD00F004FC01F092FC002383F38D
:104410001188019A2B68094901209A42087004D139
:1044200002B070BD01F014FDECE7FDF7B1F800BF7C
:1044300000080020082B002074080020682E0020AF
:1044400070B51F4D1F4C2E78236884B0012E039346
:1044500005D0039A23689A422FD104B070BD002181
:10446000284602F005FD284602F0C2FD33462846E4
:10447000154A164902F07CFD1549164803F0F0FA7A
:104480004FF496720021134803F082FB002111487B
:1044900003F066FC0F4803F01BFC31464FF48272B8
:1044A0000C4803F075FB0023009340220A4B0B4895
:1044B0004FF41E7101F02CF8CBE7FDF769F800BF4F
:1044C0003C5B002000080020E82A0020C0270108EB
:1044D00000280108A461002021420008F02B0020E0
:1044E00030B50C4D0C4A2B680C4C83B00021019365
:1044F000012311702370142001F062F82378002B3F
:10450000F9D1019A2B689A4201D103B030BDFDF771
:104510003FF800BF000800204A2B0020482B002055
:1045200000B50A4B83B01A68019207289BBF084A5E
:104530001030002052F82000019A1B689A4202D1E4
:1045400003B05DF804FBFDF723F800BF000800206E
:104550006C2B0020000000000000000000000000A4
:1045600080B5164A164B9269164E17491B68DFF83C
:104570006480164D164C916182B0374601932846EF
:10458000FFF7C6F9204604F093F93B462A460C2172
:10459000204604F00DFA204604F0CAF93078FEF700
:1045A000EFFB98F80030033B012B4FF0140002D9C9
:1045B00001F006F8E3E7FEF7ABFCE0E7E05300208C
:1045C000000800206C2E002050280108E043002045
:1045D0003C610020D0270020000000000000000007
:1045E00010B50C4C0C4923680C4884B0039304F0BC
:1045F00017F9002300934122094B0A484FF4AF6199
:1046000000F086FF039A23689A4201D104B010BDDE
:10461000FCF7BEFF00080020402801083C61002094
:1046200061450008683E0020000000000000000016
:1046300000B5084B83B01A680192019A1B689A4230
:1046400005D1054803B05DF804EB01F029BDFCF786
:104650009FFF00BF0008002080080020000000002D
:1046600000B5084B83B01A680192019A1B689A4200
:1046700005D1054803B05DF804EB01F049BDFCF736
:1046800087FF00BF00080020800800200000000015
:1046900070B50D4C82B0236801930D1E06460DDDEA
:1046A000284602F005FA18B90C2333604FF0FF30AA
:1046B000019A23689A4205D102B070BD034800F008
:1046C000A7F9EDE7FCF764FF000800206028010867
:1046D00000B5064B83B01A680192019A1B689A4292
:1046E00002D103B05DF804FBFCF752FF0008002084
:1046F00000B5074B83B01A680192019A1B689A4271
:1047000004D103B05DF804EB01F0CABCFCF740FF34
:104710000008002000000000000000000000000071
:1047200000B5074B83B01A680192019A1B689A4240
:1047300004D103B05DF804EB01F0EABCFCF728FFFC
:104740000008002000000000000000000000000041
:1047500000B5074B83B01A680192019A1B689A4210
:1047600004D103B05DF804EB01F0FABDFCF710FFD3
:104770000008002000000000000000000000000011
:1047800010B5084B82B01C68019400240460019CA1
:104790001B689C42C0E9011201D102B010BDFCF7B8
:1047A000F7FE00BF0008002000000000000000002D
:1047B0002DE9F0430E4D83B02C68019404469946D0
:1047C0000F46164610304C220021DDF8288009F0F3
:1047D000FFF9C4F80090019A2B68E6609A42C4E998
:1047E000018702D103B0BDE8F083FCF7D1FE00BF22
:1047F0000008002000000000000000000000000091
:10480000F0B5144E83B001F11003174632680192DF
:104810000446412218460D46002109F0D9F93946CF
:10482000402209F06DFA6068FFF762FF236803B168
:10483000AB652560A068FFF78BFF019A33689A4249
:1048400005D1606803B0BDE8F040FFF769BFFCF731
:104850009FFE00BF000800200000000000000000D4
:10486000F0B51C4E436883B0054693423068019012
:1048700006D20020019A33689A4229D103B0F0BDD4
:1048800014460F46A868FFF733FF224639462868CA
:10489000FCF746FB012385F85130E868FFF758FF25
:1048A0006C6D84B123681868FFF722FF23689D6050
:1048B00023685868FFF74CFF23681868FFF730FF3C
:1048C0006468002CEED1A868FFF72AFF0120D1E729
:1048D000FCF75EFE00080020000000000000000061
:1048E00000B5064B83B01A680192019A1B689A4280
:1048F00002D103B05DF804FBFCF74AFE000800207B
:10490000024B82B01B680193FEE700BF0008002045
:1049100000B5044B04481B6883B0019300F078F89D
:10492000FEE700BF0008002070280108000000001A
:10493000024B82B01B680193FEE700BF0008002015
:10494000F0B5294E294B3268294885B000240392DE
:104950009C60D968274A4FF6FF0529400A43DA6070
:10496000C2682549254D42F08072C2600A6842F053
:1049700001020A6010202022D87783F8222000F05C
:10498000DFFA00F045FA01F0DBF802F069F802F016
:10499000D7F801F02DF900F0FBF9402105F588600A
:1049A00000F01EFD0127164BC36180F82070A8613E
:1049B00000F0A6F884F3118862B6AB69114A9A61D7
:1049C0004FF4C4713A46104B009405F59D6000F019
:1049D0009FFD039A33680D4981619A4201D105B068
:1049E000F0BDFCF7D5FD00BF0008002000ED00E0A1
:1049F000F0ED00E00003FA05001000E0E0530020B5
:104A000000040020202A01083149000890280108EC
:104A100000B5054B83B01B680193044672B6FFF7DF
:104A200077FB024BDC62FEE700080020E053002029
:104A30002DE9F047DFF890A0224DDAF8003082B07F
:104A4000019300F055F9AB6993F8232012B1013AB4
:104A500083F823205A6ADFF8748001325A6200F02A
:104A600047F9AB6AEA6901334245AB6220D09368EB
:104A7000013B9360EC69A668D6B94FF02009236822
:104A8000E768E660C3F804802368EB6100F0C0F8D3
:104A900001F04EF986F311882069B84789F311882F
:104AA00001F02EF900F094F8EC69A368002BE6D031
:104AB000019ADAF800309A4202D102B0BDE8F087DC
:104AC000FCF766FDE053002000080020FC530020A6
:104AD00010B5094C094A236882B0019351685368A4
:104AE0005B1A9842FBD8019A23689A4201D102B01E
:104AF00010BDFCF74DFD00BF00080020001000E0D5
:104B000000B50E4A0E4B116B186883B0019009B9BD
:104B1000526B4AB1019A1B689A420CD1094803B002
:104B20005DF804EBFFF774BF019A1B689A4202D14B
:104B300003B05DF804FBFCF72BFD00BFE053002041
:104B400000080020A028010800000000000000006C
:104B500030B50B4C0B4D236B2A6883B001920BB917
:104B6000636B13B10848FFF753FF019A2B680121CB
:104B70009A42616301D103B030BDFCF709FD00BF6B
:104B8000E053002000080020D028010800000000A9
:104B900030B50C4C0C4D236B2A6883B0019253B98D
:104BA000636B002B07DD019A2B6800219A42616339
:104BB00005D103B030BD0548FFF72AFFF3E7FCF746
:104BC000E7FC00BFE053002000080020F0280108A7
:104BD00030B50B4C0B4D236B2A6883B0002B019230
:104BE00001DD636B13B10848FFF712FF019A2B68D0
:104BF00001219A42616301D103B030BDFCF7C8FCCA
:104C0000E053002000080020E02801080000000018
:104C100030B50C4C0C4D236B2A6883B0002B0192ED
:104C20000ADD636B002B07DD019A2B6800219A4295
:104C3000616305D103B030BD0448FFF7E9FEF3E737
:104C4000FCF7A6FCE0530020000800200029010822
:104C500030B50F4D83B02B680193202383F3118867
:104C60000C4C236B002B01DB626B1AB10A48FFF777
:104C7000CFFE236B01332363002383F31188019A52
:104C80002B689A4201D103B030BDFCF781FC00BF14
:104C900000080020E0530020B028010800000000B8
:104CA00030B50F4D83B02B680193202383F3118817
:104CB0000C4C236B002B01DD626B1AB10A48FFF725
:104CC000A7FE236B013B2363002383F31188019A22
:104CD0002B689A4201D103B030BDFCF759FC00BFEC
:104CE00000080020E0530020C02801080000000058
:104CF00000B50F4A0F4B116B186883B00029019063
:104D000009DB526B002A06DD019A1B689A420CD11E
:104D100003B05DF804FB019A1B689A4205D106486E
:104D200003B05DF804EBFFF773BEFCF731FC00BF86
:104D3000E0530020000800201029010800000000B6
:104D400000B50E4A0E4B116B186883B0019049B93B
:104D5000526B002A06DD019A1B689A420CD103B0FF
:104D60005DF804FB019A1B689A4205D1054803B01F
:104D70005DF804EBFFF74CBEFCF70AFCE0530020A3
:104D800000080020202901080000000000000000A9
:104D900010B5084A084B116882B04024019101996E
:104DA000126818199142C3E90E4001D102B010BD3A
:104DB000FCF7EEFB00080020E0530020000000009C
:104DC00010B51149114B0A6882B00192DA6B9C6AE6
:104DD0001460DA6B9C695460DA6B846A9460DA6BF5
:104DE00090F820001073DA6B03F58860103282426D
:104DF00028BF03F14002DA63019A0B689A4201D19D
:104E000002B010BDFCF7C4FB00080020E0530020F6
:104E100010B50B4A0B4B116882B04FF0FF34019173
:104E200000219962019811685C6203F11C028842BA
:104E3000C3E9072201D102B010BDFCF7A9FB00BFF6
:104E400000080020E05300200000000000000000E7
:104E50002DE9F041184E82B00546306801900C46AD
:104E600017469846FFF744FF05B3FFB1F4B1C5E913
:104E700003781248C3699A68944204D91B68A41A3B
:104E80009A68A242FAD32B605A686A6015605D6026
:104E9000AC609968019D3268091B95424FF0FF3460
:104EA0009960446206D102B0BDE8F0810448FFF782
:104EB000AFFDDCE7FCF76CFB00080020E0530020AE
:104EC0003029010800000000000000000000000080
:104ED00030B5164D83B004462B680193FFF708FFE9
:104EE000ECB1E368BBB12268A06893680199034400
:104EF0009360D4E900231A6020682B680C4A656827
:104F0000456099424FF000054FF0FF30E560506278
:104F100009D103B030BD0748FFF77AFDE3E7054844
:104F2000FFF776FDDDE7FCF733FB00BF000800204C
:104F3000E0530020402901080000000000000000AC
:104F400000B50A4A0A4B11681B6083B0002001912A
:104F5000019912685B609142C3E90433986002D101
:104F600003B05DF804FBFCF713FB00BF0008002052
:104F7000E0530020000000000000000000000000DE
:104F800030B5164D83B004462B680193FFF7B0FE91
:104F9000ECB194F82030B3B10F2B14D00022A168EB
:104FA0000F4B84F820201B689A688A42FBD223604A
:104FB0005A686260146001992A685C6091422046D8
:104FC00009D103B030BD0748FFF722FDE6E70548E9
:104FD000FFF71EFDDDE7FCF7DBFA00BF000800204D
:104FE000E0530020502901080000000000000000EC
:104FF00070B5204D82B02B6801930446202383F3C3
:10500000118800F07DFEFFF7E3FD94F82030072BB8
:1050100011D8DFE803F0161010230A04100AA66A5C
:10502000FFF766FEB3680133B360D4E900231A606A
:10503000D4E900325A604FF0FF33A3622046FFF7F5
:105040009FFFFFF7E5FD00F073FE002383F3118857
:10505000019A2B689A420BD102B070BDA36A00225C
:105060001A604FF0FF33A3622046FFF789FFE8E79D
:10507000FCF78EFA0008002000000000000000008D
:10508000F0B5194E194C336883B007460193FFF70A
:1050900057FEA569236885F82070142285F823201F
:1050A0001A68226001215460284683F82010A36109
:1050B000FFF786FE2946A06900F0D2FDEFF30983D1
:1050C000EA69643B9A4202D90948FFF7A1FC019AB8
:1050D00033689A4206D1A069294603B0BDE8F04082
:1050E000FBF7E6B8FCF754FA00080020E053002074
:1050F000602901080000000000000000000000001E
:10510000F0B5154C87B0236805930E460746FFF7A8
:1051100017FE731C18D0114D114AAB693146684611
:10512000FFF796FE3846FFF7ABFFFFF7E1FD039B65
:1051300013B16846FFF7CCFE059A2368A9699A4225
:10514000886A06D107B0F0BD3846FFF799FF034DD6
:10515000F2E7FCF71DFA00BF00080020E053002032
:10516000F14F0008000000000000000000000000F7
:10517000F0B51E4D1E4E2B6883B0044601930F46BA
:10518000FFF7DEFDB069A7628368A2689A421DD965
:10519000FFF7F6FE0123074684F82030B461FFF7DD
:1051A0000FFE3946204600F05BFDEFF30983FA69F4
:1051B000643B9A4214D8019A2B689A4214D139461A
:1051C000204603B0BDE8F040FBF772B8019A2B68A7
:1051D0009A4209D1204603B0BDE8F040FFF7D0BEA7
:1051E0000448FFF715FCE6E7FCF7D2F900080020B9
:1051F000E0530020602901080000000000000000CA
:1052000010B50E490E4B8A69086892F823101C6885
:105210008068926882B0019449B9904234BF0020FE
:105220000120019A1B689A4206D102B010BD90423B
:1052300094BF00200120F4E7FCF7AAF9E053002016
:105240000008002000000000000000000000000036
:1052500070B5184C184E2368A5691A68226054600E
:10526000012283F8202082B01422316885F823209F
:105270002846A3610191FFF783FE2846FFF7A0FDB2
:105280002946A06900F0ECFCEFF30983EA69643B6E
:105290009A4202D90948FFF7BBFB019A33689A4248
:1052A00006D1A069294602B0BDE87040FBF700B8FE
:1052B000FCF76EF9E0530020000800206029010887
:1052C00070B51C4D1C4E2A68AC6913682B60012117
:1052D00082B05D60002082F82010AA613268A16867
:1052E00084F82000019200E01B689A688A42FBD88B
:1052F00023605A686260204614605C60FFF760FDBE
:105300002146A86900F0ACFCEFF30983E269643B35
:105310009A4202D90948FFF77BFB019A33689A4207
:1053200006D1A869214602B0BDE87040FAF7C0BFB7
:10533000FCF72EF9E0530020000800206029010846
:1053400010B50F4C82B023680193FFF7F9FCFFF70B
:10535000CFFC0C4B1A689B6992689B689A42019A31
:10536000236803D89A4208D102B010BD9A4204D1F2
:1053700002B0BDE81040FFF7A3BFFCF709F900BF7A
:1053800000080020E05300200000000000000000A2
:1053900000B50E4A0E4B9269196892F8232083B02B
:1053A000019142B1019A1B689A420DD103B05DF898
:1053B00004EBFFF785BF019A1B689A4204D103B042
:1053C0005DF804EBFFF744BFFCF7E2F8E053002080
:1053D00000080020000000000000000000000000A5
:1053E000F0B51A4A1A4D02610446816083B0142355
:1053F00050692E68616484F823300227002301215C
:10540000278484F82210C4E90F3304F16801A361F2
:10541000019604F12C07636204F1500604F1300395
:1054200060610461C4E90C33E1613046E7625461B4
:1054300000F01EFB304600F03BFB019A2B689A42BD
:1054400002D1204603B0F0BDFCF7A2F8E0530020E3
:105450000008002000000000000000000000000024
:1054600010B5094B82B01C680194884203D200F841
:10547000012B8142FBD1019A1B689A4201D102B0F3
:1054800010BDFCF785F800BF0008002000000000F8
:105490002DE9F043184E83B0346801940546DDF8D9
:1054A00028900C4617469846FFF722FC15B1B4F534
:1054B000BC7F19D21148FFF7ABFAA4F1640129446B
:1054C000E960C1F84080EB68019AC3F84490336802
:1054D000E9680B4808669A420CD13946284603B061
:1054E000BDE8F043FFF77CBF7F2FE3D8B8F1000F92
:1054F000E3D1DFE7FCF74CF800080020B0290108F1
:10550000C9020008000000000000000000000000C8
:105510002DE9F04FDFF8A48087B0D8F80040DDF81F
:105520004090059407468A46934600F16806044673
:10553000FF2504F8015BA642FBD107EB0A05A54253
:1055400004D9552604F8016BA542FBD10393202210
:1055500082F3118800F0A4FBFFF7FAFA039BCDF861
:1055600000905A4651463846FFF792FF0021044604
:10557000FFF7FEFDFFF70CFB00F0AAFB0D4B1A68CE
:105580009A4204D0996993688A689A420BD300239F
:1055900083F31188059AD8F800309A42204606D144
:1055A00007B0BDE8F08F0448FFF732FAEFE7FBF7EA
:1055B000EFFF00BFE0530020702901080008002021
:1055C00030B5184C83B0236801930546202383F33C
:1055D000118800F065FBFFF7BBFA15B91248FFF719
:1055E00017FA29460820FFF78BFDFFF7D1FA00F0E4
:1055F0006FFB0E4B1A689A4204D0996993688A68C7
:105600009A4208D3002383F31188019A23689A42AF
:1056100005D103B030BD0648FFF7FAF9F2E7FBF712
:10562000B7FF00BF0008002080290108E0530020D8
:1056300070290108000000000000000000000000C8
:10564000F0B51C4F83B03B68019304460E462023FF
:1056500083F31188184D00F023FBFFF779FAA96A4C
:10566000331B0C1B9C4219D3FFF792FA00F030FB5E
:105670002B68AB4204D0AA699B6892689A4209D30E
:10568000002383F31188019A3B689A4230460FD178
:1056900003B0F0BD0948FFF7BBF9F1E7741A02D176
:1056A0000748FFF7B5F921460820FFF729FDDBE79A
:1056B000FBF76EFF00080020E0530020702901086E
:1056C0008029010800000000000000000000000028
:1056D00070B5164B164E9C693268E36AA06282B0C0
:1056E00004F12C05AB42019207D01A68E262184619
:1056F000FFF746FCE36AAB42F7D194F821309B07F1
:1057000005D1D4E904231A61D4E904325A610F2087
:10571000FFF7B6FC019A33689A4205D1054802B0FA
:10572000BDE87040FFF774B9FBF732FFE05300208B
:1057300000080020C029010800000000000000004F
:1057400030B50C4C83B0236801930546202383F3C6
:10575000118800F0A5FAFFF7FBF9019A23689A4235
:1057600005D1284603B0BDE83040FFF7B1BFFBF7D5
:105770000FFF00BF00080020000000000000000034
:10578000F0B50D4D0D4E03682A68B76983B0044625
:10579000019213B10A48FFF73BF927600320BC626E
:1057A000FFF76EFC019A2B68B1699A42886A01D1B1
:1057B00003B0F0BDFBF7ECFE00080020E053002032
:1057C000D0290108000000000000000000000000D7
:1057D000F0B5124D0368124A83B004462868019060
:1057E0000E46976913B10F48FFF712F966B12760AB
:1057F000019A2B68BC629A420ED13146032003B055
:10580000BDE8F040FFF77CBC019A2B689A424FF04C
:10581000FF3001D103B0F0BDFBF7BAFE0008002055
:10582000E0530020E0290108000000000000000013
:10583000F0B5124D04682B6883B00193B4B194F8AD
:105840002030032B06460F460CD100233360019A0B
:105850002B68A7629A420FD1204603B0BDE8F04002
:10586000FFF78EBB0648FFF7D3F8EEE7019A2B68E7
:105870009A4201D103B0F0BDFBF78AFE0008002078
:10588000002A0108000000000000000000000000E5
:10589000F0B5124D04682B6883B00193B4B194F84D
:1058A0002030032B06460F460CD100233360019AAB
:1058B0002B689A4210D13946204603B0BDE8F0402B
:1058C000FFF756BC0648FFF7A3F8EEE7019A2B68EE
:1058D0009A4201D103B0F0BDFBF75AFE0008002048
:1058E000102A010800000000000000000000000075
:1058F00070B5164C82B02368019305460E462023EE
:1059000083F3118800F0CCF9FFF722F931462846DD
:10591000FFF7BEFFFFF73CF900F0DAF90C4B1A680D
:105920009A4204D0996993688A689A4208D30023FE
:1059300083F31188019A23689A4205D102B070BDA1
:105940000448FFF765F8F2E7FBF722FE00080020A5
:10595000E053002070290108000000000000000052
:1059600030B5104A83B01368019381B10E4B019D8D
:105970009B69186044685C602360126843609542CC
:105980000DD1042003B0BDE83040FFF7B9BB019949
:10599000136899424FF0FF3001D103B030BDFBF7DF
:1059A000F7FD00BF00080020E053002000000000C9
:1059B00070B5124D04682B6882B0A042019315D0D7
:1059C00023680360586094F82030042B0E4602D000
:1059D0000B48FFF71DF8019A2B68A6629A420BD17B
:1059E000204602B0BDE87040FFF7CABA019A2B68A2
:1059F0009A4201D102B070BDFBF7CAFD0008002039
:105A000090290108000000000000000000000000D4
:105A10002DE9F041DFF850800468D8F8003082B0FA
:105A2000A042019313D00F4F05460E4623682B600A
:105A30005D6094F82030042B02D03846FEF7E8FF72
:105A4000A6622046FFF79CFA2C68A542EED1019A87
:105A5000D8F800309A4202D102B0BDE8F081FBF7DD
:105A600097FD00BF902901080008002000000000F9
:105A700030B50B4B83B01A6801924FF0FF320260D1
:105A800001991A680024002300259142C0E90445C9
:105A9000C0E90133C36001D103B030BDFBF778FD2D
:105AA00000080020000000000000000000000000CE
:105AB00000B5084B084A196883B001915168019AF2
:105AC0001B6881609A4202D103B05DF804FBFBF7CA
:105AD0005FFD00BF00080020001000E00000000093
