:020000040800F2
:1000000000040020C1010008912A0008912A00087C
:10001000C11B0008912A0008912A0008912A0008B3
:10002000912A0008912A0008912A0008614A0008D4
:10003000912A0008912A0008912A0008E1A90008E5
:10004000912A0008317F0008C18000081181000852
:10005000912A0008912A0008717C0008C17C0008E0
:10006000117D0008617D0008B17D0008416F000826
:10007000916F0008E16F000831700008817000087E
:10008000D170000821710008B1790008B182000820
:1000900021830008D183000881840008017E0008C4
:1000A000912A0008912A000841A40008912A00081A
:1000B000A1A50008E1A5000821A60008819000087C
:1000C000C1910008912A0008912A0008912A00088D
:1000D000912A0008912A0008912A0008A1AA000884
:1000E000917E0008817F0008D17F000881A400086C
:1000F000912A0008912A0008912A000871710008CD
:10010000912A00081186000861A60008912A0008BB
:10011000912A0008912A000801A40008912A0008E9
:10012000C17100081172000861720008B172000804
:1001300001730008912A000821800008912A000814
:10014000912A0008912A0008912A000841A000087D
:1001500051730008A1730008F1730008912A000888
:10016000912A0008912A0008912A0008912A000883
:1001700071800008912A0008B1190008912A00082E
:10018000912A0008912A0008912A0008912A000863
:10019000912A0008912A0008912A0008912A000853
:1001A000912A0008912A0008912A0008912A000843
:1001B000912A0008912A0008912A0008912A000833
:1001C00072B62E4880F3098840F20000CCF200009D
:1001D0004EF63471CEF20001086040F20000C0F229
:1001E000F0004EF68851CEF2000108604FF000009A
:1001F000E1EE100A4EF63C71CEF2000108600620D6
:1002000080F31488BFF36F8F0AF03AFD4FF055303A
:100210001B491C4A91423CBF41F8040BFAE71A49BA
:10022000164A91423CBF41F8040BFAE71749184AB5
:10023000184B9A423EBF51F8040B42F8040BF8E702
:1002400000201549154A91423CBF41F8040BFAE7DA
:1002500002F006FC124C134DAC4203DA54F8041BB6
:100260008847F9E700F0D4FF0F4C104DAC4203DA99
:1002700054F8041B8847F9E702F002BC000800208C
:1002800000000020000400200004002088F6000880
:1002900000080020F4110020F8110020502B00204D
:1002A000C0010008C0010008C0010008C00100082A
:1002B0002DE9F04F2DED108AC1F80CD0D0F80CD0FC
:1002C000BDEC108ABDE8F08F02F022FD03F028FD9E
:1002D000002383F311882846A047002003F0F0FA9A
:1002E00003F006FD02F0F4FC03F012F902F010FD39
:1002F00003F016FD00DFFEE7000000000000000034
:1003000081F0004102E000BF83F0004330B54FEAC6
:1003100041044FEA430594EA050F08BF90EA020F33
:100320001FBF54EA000C55EA020C7FEA645C7FEAC6
:10033000655C00F0E2804FEA5454D4EB5555B8BFE9
:100340006D420CDD2C4480EA020281EA030382EA5A
:10035000000083EA010180EA020281EA0303362DEC
:1003600088BF30BD11F0004F4FEA01314FF4801CBF
:100370004CEA113102D0404261EB410113F0004FD1
:100380004FEA03334CEA133302D0524263EB430388
:1003900094EA050F00F0A780A4F10104D5F1200E26
:1003A0000DDB02FA0EFC22FA05F2801841F1000181
:1003B00003FA0EF2801843FA05F359410EE0A5F155
:1003C00020050EF1200E012A03FA0EFC28BF4CF086
:1003D000020C43FA05F3C01851EBE37101F000453C
:1003E00007D54FF0000EDCF1000C7EEB00006EEB49
:1003F0000101B1F5801F1BD3B1F5001F0CD34908D3
:100400005FEA30004FEA3C0C04F101044FEA445229
:1004100012F5800F80F09A80BCF1004F08BF5FEAB0
:10042000500C50F1000041EB045141EA050130BD90
:100430005FEA4C0C404141EB010111F4801FA4F133
:100440000104E9D191F0000F04BF01460020B1FA88
:1004500081F308BF2033A3F10B03B3F120020CDAC0
:100460000C3208DD02F1140CC2F10C0201FA0CF09E
:1004700021FA02F10CE002F11402D8BFC2F1200C03
:1004800001FA02F120FA0CFCDCBF41EA0C019040B9
:10049000E41AA2BF01EB0451294330BD6FEA040402
:1004A0001F3C1CDA0C340EDC04F11404C4F12002ED
:1004B00020FA04F001FA02F340EA030021FA04F3FF
:1004C00045EA030130BDC4F10C04C4F1200220FA56
:1004D00002F001FA04F340EA0300294630BD21FA94
:1004E00004F0294630BD94F0000F83F4801306BF5A
:1004F00081F480110134013D4EE77FEA645C18BF4E
:100500007FEA655C29D094EA050F08BF90EA020FE4
:1005100005D054EA000C04BF1946104630BD91EADC
:10052000030F1EBF0021002030BD5FEA545C05D1DF
:100530004000494128BF41F0004130BD14F580041E
:100540003CBF01F5801130BD01F0004545F0FE4192
:1005500041F470014FF0000030BD7FEA645C1ABFC7
:10056000194610467FEA655C1CBF0B46024650EAFE
:10057000013406BF52EA033591EA030F41F400212A
:1005800030BD00BF90F0000F04BF0021704730B5B0
:100590004FF4806404F132044FF000054FF0000185
:1005A00050E700BF90F0000F04BF0021704730B546
:1005B0004FF4806404F1320410F0004548BF40421B
:1005C0004FF000013EE700BF42004FEAE2014FEA70
:1005D00031014FEA02701FBF12F07F4393F07F4F4B
:1005E00081F06051704732F07F4208BF704793F04E
:1005F0007F4F04BF41F40021704730B54FF4607461
:1006000001F0004521F000411CE700BF50EA010263
:1006100008BF704730B54FF000050AE050EA01020C
:1006200008BF704730B511F0004502D5404261EB7C
:1006300041014FF4806404F132045FEA915C3FF4BD
:10064000D8AE4FF003025FEADC0C18BF03325FEA5A
:10065000DC0C18BF033202EBDC02C2F1200300FA0B
:1006600003FC20FA02F001FA03FE40EA0E0021FA30
:1006700002F11444BDE600BF0000000000000000CD
:1006800070B54FF0FF0C4CF4E06C1CEA11541DBF28
:100690001CEA135594EA0C0F95EA0C0F00F0DEF8F3
:1006A0002C4481EA030621EA4C5123EA4C5350EAD8
:1006B000013518BF52EA033541F4801143F4801329
:1006C00038D0A0FB02CE4FF00005E1FB02E506F0BA
:1006D0000042E0FB03E54FF00006E1FB03569CF00F
:1006E000000F18BF4EF0010EA4F1FF04B6F5007F15
:1006F00064F5407404D25FEA4E0E6D4146EB060687
:1007000042EAC62141EA55514FEAC52040EA5E500F
:100710004FEACE2EB4F1FD0C88BFBCF5E06F1ED8B9
:10072000BEF1004F08BF5FEA500E50F1000041EBF0
:10073000045170BD06F0004646EA010140EA02009D
:1007400081EA0301B4EB5C04C2BFD4EB0C0541EABF
:10075000045170BD41F480114FF0000E013C00F3D4
:10076000AB8014F1360FDEBF002001F0004170BDF8
:10077000C4F10004203C35DA0C341BDC04F1140411
:10078000C4F1200500FA05F320FA04F001FA05F29D
:1007900040EA020001F0004221F0004110EBD3706A
:1007A00021FA04F642EB06015EEA430E08BF20EA96
:1007B000D37070BDC4F10C04C4F1200500FA04F339
:1007C00020FA05F001FA04F240EA020001F00041CB
:1007D00010EBD37041F100015EEA430E08BF20EA3E
:1007E000D37070BDC4F1200500FA05F24EEA020E86
:1007F00020FA04F301FA05F243EA020321FA04F0B5
:1008000001F0004121FA04F220EA020000EBD3706B
:100810005EEA430E08BF20EAD37070BD94F0000F6B
:100820000FD101F00046400041EB010111F4801F9F
:1008300008BF013CF7D041EA060195F0000F18BF50
:10084000704703F00046520043EB030313F4801F8C
:1008500008BF013DF7D043EA0603704794EA0C0F46
:100860000CEA135518BF95EA0C0F0CD050EA41065C
:1008700018BF52EA4306D1D181EA030101F00041D9
:100880004FF0000070BD50EA410606BF1046194601
:1008900052EA430619D094EA0C0F02D150EA01360D
:1008A00013D195EA0C0F05D152EA03361CBF10464E
:1008B00019460AD181EA030101F0004141F0FE41ED
:1008C00041F470014FF0000070BD41F0FE4141F471
:1008D000780170BD70B54FF0FF0C4CF4E06C1CEA71
:1008E00011541DBF1CEA135594EA0C0F95EA0C0F26
:1008F00000F0A7F8A4EB050481EA030E52EA0335E1
:100900004FEA013100F088804FEA03334FF0805501
:1009100045EA131343EA12634FEA022245EA11152E
:1009200045EA10654FEA00260EF000419D4208BFDF
:10093000964244F1FD0404F5407402D25B084FEA8C
:100940003202B61A65EB03055B084FEA32024FF438
:1009500080104FF4002CB6EB020E75EB030E22BF95
:10096000B61A754640EA0C005B084FEA3202B6EB55
:10097000020E75EB030E22BFB61A754640EA5C0004
:100980005B084FEA3202B6EB020E75EB030E22BF94
:10099000B61A754640EA9C005B084FEA3202B6EB95
:1009A000020E75EB030E22BFB61A754640EADC0054
:1009B00055EA060E18D04FEA051545EA16754FEAB6
:1009C00006164FEAC30343EA52734FEAC2025FEAD4
:1009D0001C1CC0D111F4801F0BD141EA00014FF063
:1009E00000004FF0004CB6E711F4801F04BF014334
:1009F0000020B4F1FD0C88BFBCF5E06F3FF6AFAE50
:100A0000B5EB030C04BFB6EB020C5FEA500C50F1DF
:100A1000000041EB045170BD0EF0004E4EEA113162
:100A200014EB5C04C2BFD4EB0C0541EA045170BD69
:100A300041F480114FF0000E013C90E645EA060EAD
:100A40008DE60CEA135594EA0C0F08BF95EA0C0FDB
:100A50003FF43BAF94EA0C0F0AD150EA01347FF423
:100A600034AF95EA0C0F7FF425AF104619462CE7FA
:100A700095EA0C0F06D152EA03353FF4FDAE10465D
:100A8000194622E750EA410618BF52EA43067FF4AE
:100A9000C5AE50EA41047FF40DAF52EA43057FF43E
:100AA000EBAE12E7000000000000000000000000B4
:100AB0004FF0FF3C06E000BF4FF0010C02E000BF2A
:100AC0004FF0010C4DF804CD4FEA410C7FEA6C5C0D
:100AD0004FEA430C18BF7FEA6C5C1BD001B050EAB0
:100AE000410C0CBF52EA430C91EA030F02BF90EA9B
:100AF000020F0020704710F1000F91EA030F58BF5A
:100B0000994208BF90422CBFD8176FEAE37040F0BB
:100B1000010070474FEA410C7FEA6C5C02D150EA59
:100B2000013C07D14FEA430C7FEA6C5CD6D152EA14
:100B3000033CD3D05DF8040B704700BF84461046D9
:100B400062468C461946634600E000BF01B5FFF7D8
:100B5000B7FF002848BF10F1000F01BD4DF808EDA8
:100B6000FFF7F4FF0CBF012000205DF808FB00BF79
:100B70004DF808EDFFF7EAFF34BF012000205DF8D3
:100B800008FB00BF4DF808EDFFF7E0FF94BF012020
:100B900000205DF808FB00BF4DF808EDFFF7CEFF21
:100BA00094BF012000205DF808FB00BF4DF808ED60
:100BB000FFF7C4FF34BF012000205DF808FB00BF31
:100BC0004FEA410212F5001215D211D56FF4787375
:100BD000B3EB625212D94FEAC12343F0004343EA18
:100BE000505311F0004F23FA02F018BF40427047F3
:100BF0004FF00000704750EA013005D111F000407D
:100C000008BF6FF0004070474FF00000704700BF12
:100C100053B94AB9002908BF00281CBF4FF0FF3163
:100C20004FF0FF3000F074B9ADF1080C6DE904CE5F
:100C300000F006F8DDF804E0DDE9022304B07047B7
:100C40002DE9F047089E04468846002B4BD18A4286
:100C5000154667D9B2FA82F24AB1C2F1200701FA09
:100C600002F320FA07F7954047EA030894404FEA59
:100C7000154E230CB8FBFEF71FFA85FC0EFB1788F8
:100C800043EA084307FB0CF1994209D9EB1807F135
:100C9000FF3080F01B81994240F21881023F2B44C3
:100CA0005B1AA4B2B3FBFEF00EFB103344EA03441C
:100CB00000FB0CFCA44509D92C1900F1FF3380F08E
:100CC0000781A44540F2048102382C4440EA0740E1
:100CD000A4EB0C0400271EB1D4400023C6E9004356
:100CE0003946BDE8F0878B4209D9002E00F0EB8031
:100CF0000027C6E9000138463946BDE8F087B3FA57
:100D000083F7002F47D18B4202D3824200F2FA8050
:100D1000841A61EB030301209846002EE0D0C6E957
:100D20000048DDE702B9FFDEB2FA82F2002A40F0A5
:100D30008F80491B4FEA154E1FFA85F80127B1FB3A
:100D4000FEFC230C0EFB1C1143EA014308FB0CF1D3
:100D5000994207D9EB180CF1FF3002D2994200F208
:100D6000CD808446591AA3B2B1FBFEF00EFB1014DD
:100D700043EA044408FB00F8A04507D92C1900F108
:100D8000FF3302D2A04500F2B6801846A4EB080457
:100D900040EA0C409FE7C7F1200CBB4022FA0CFE52
:100DA0004EEA030E01FA07F420FA0CF521FA0CF3CF
:100DB0004FEA1E482543B3FBF8F92C0C08FB193306
:100DC0001FFA8EFA44EA034309FB0AF49C4202FA32
:100DD00007F200FA07F10BD91EEB030309F1FF300C
:100DE00080F087809C4240F28480A9F1020973441C
:100DF0001B1BADB2B3FBF8F008FB103345EA03440C
:100E000000FB0AFAA24508D91EEB040400F1FF33E7
:100E10006BD2A24569D90238744440EA0940A0FB6C
:100E20000289A4EB0A044C45C2464B4654D351D028
:100E3000002E69D0B1EB0A0564EB030404FA0CFC44
:100E4000FD40FC404CEA0505C6E90054002747E791
:100E5000C2F1200320FA03F7954001FA02F021FACB
:100E600003F34FEA154E3843010CB3FBFEF71FFAAC
:100E700085F80EFB173341EA034107FB08F38B4269
:100E800004FA02F407D9691807F1FF3C2FD28B420C
:100E90002DD9023F2944CB1A81B2B3FBFEF00EFBE1
:100EA000103341EA034100FB08F38B4207D969186C
:100EB00000F1FF3C17D28B4215D902382944C91AD8
:100EC00040EA07473BE73746304609E70746E7E68B
:100ED0001846FBE64145ABD2B8EB020A69EB0E02BD
:100EE00001381346A4E76046E9E7184695E76746E8
:100EF000D1E781467CE702382C4447E7ACF1020C8D
:100F00002B442FE7384608E73746E9E600000000A3
:100F1000704700BF0000000000000000000000005B
:100F2000844641EA000313F003036DD1403A41D3F4
:100F300051F8043B40F8043B51F8043B40F8043BB3
:100F400051F8043B40F8043B51F8043B40F8043BA3
:100F500051F8043B40F8043B51F8043B40F8043B93
:100F600051F8043B40F8043B51F8043B40F8043B83
:100F700051F8043B40F8043B51F8043B40F8043B73
:100F800051F8043B40F8043B51F8043B40F8043B63
:100F900051F8043B40F8043B51F8043B40F8043B53
:100FA00051F8043B40F8043B51F8043B40F8043B43
:100FB000403ABDD2303211D351F8043B40F8043BE3
:100FC00051F8043B40F8043B51F8043B40F8043B23
:100FD00051F8043B40F8043B103AEDD20C3205D3F3
:100FE00051F8043B40F8043B043AF9D2043208D0EB
:100FF000D2071CBF11F8013B00F8013B01D30B885D
:1010000003806046704700BF082A13D38B078DD03A
:1010100010F003038AD0C3F10403D21ADB071CBF0C
:1010200011F8013B00F8013B80D331F8023B20F876
:10103000023B7BE7043AD9D3013A11F8013B00F8AF
:10104000013BF9D20B7803704B7843708B78837037
:101050006046704700000000000000000000000033
:1010600090F800F06DE9024520F007016FF0000CE8
:1010700010F0070491F820F040F049804FF0000490
:101080006FF00700D1E9002391F840F000F108006B
:1010900082FA4CF2A4FA8CF283FA4CF3A2FA8CF3A3
:1010A0004BBBD1E9022382FA4CF200F10800A4FA0A
:1010B0008CF283FA4CF3A2FA8CF3E3B9D1E904235E
:1010C00082FA4CF200F10800A4FA8CF283FA4CF395
:1010D000A2FA8CF37BB9D1E9062301F1200182FA4F
:1010E0004CF200F10800A4FA8CF283FA4CF3A2FA55
:1010F0008CF3002BC6D0002A04BF04301A4612BA63
:10110000B2FA82F2FDE8024500EBD2007047D1E965
:10111000002304F00305C4F100004FEAC50514F0F4
:10112000040F91F840F00CFA05F562EA05021CBFC5
:1011300063EA050362464FF00004A9E700000000DF
:1011400001F0FF01102A2BDB10F0070F08D010F878
:10115000013B013A8B422DD010F0070F42B3F6D17C
:10116000F0B441EA012141EA014122F007047FF095
:1011700000070023F0E80256083C85EA010586EAEC
:10118000010685FA47F5A3FA87F586FA47F6A5FA28
:1011900087F68EB9EED1F0BC01F0FF0102F0070234
:1011A00032B110F8013B013A83EA010313B1F8D1DF
:1011B0000020704701387047002D06BF35460338C0
:1011C000073815F0010F07D1013015F4807F02BFF9
:1011D000013015F4C03F0130F0BC0138704700BF4A
:1011E0004FEA410C7FEA6C5C02D150EA013C0AD123
:1011F0004FEA430C7FEA6C5C02D152EA033C02D115
:101200004FF0000070474FF00100704700000000F1
:1012100000B50F4B83B01B68019303F081FC01F014
:101220004FFC00F075FC01F08BFA00F0A9FF094AB1
:1012300009490A4801F064FB01F092F901F0E0F974
:1012400000F06EFB4FF47A7002F07AFAFAE700BF12
:1012500000080020040800200C080020F8110020DD
:1012600000B5084B83B01A680192019A1B689A4234
:1012700005D1054803B05DF804EB01F089BCFFF728
:10128000EFFF00BF00080020C0E6000800000000DB
:1012900070B52DED028B284E82B03368019308EEB5
:1012A000100A002000F03CFF002000F051FF23480E
:1012B00000F0D6FE4FF4A57000F0EAFE00F000FF4B
:1012C000054600F015FF9FED1E6ADFED1E6ADFED9B
:1012D0001E7AB8EE488A88EE067AB5EE006A27EEE6
:1012E000267AF2EE0A6A27EE067A27EE277AC7EE0A
:1012F000267AFDEEE77A17EE904AA5420BDAA04275
:1013000002DB08E0844206DD00F0DAFE054600F06C
:10131000EFFEAC42F6DC002000F0A2FE019A33683A
:101320009A4207D1002002B0BDEC028BBDE87040AC
:1013300000F0AEBEFFF794FF00080020B6FEFFFFEE
:101340000000B442CD75864100007A4400000000E0
:1013500070B52DED028B284E82B03368019308EEF4
:10136000100A002000F0DCFE002000F0F1FE4FF437
:10137000A57000F075FE214800F08AFE00F0A0FE86
:10138000054600F0B5FE9FED1E6ADFED1E6ADFED3B
:101390001E7AB8EE488A88EE067AB5EE006A27EE25
:1013A000267AF2EE0A6A27EE067A27EE277AC7EE49
:1013B000267AFDEEE77A17EE904AA5420BDAA042B4
:1013C00002DB08E0844206DD00F07AFE054600F00C
:1013D0008FFEAC42F6DC002000F042FE019A33683A
:1013E0009A4207D1002002B0BDEC028BBDE87040EC
:1013F00000F04EBEFFF734FF00080020B6FEFFFFEE
:101400000000B442CD75864100007A44000000001F
:1014100000B50A4B83B01A680192019A1B6820B983
:101420009A4209D103B05DF804FB9A4204D103B09B
:101430005DF804EBFFF72CBFFFF712FF0008002058
:1014400000B50A4B83B01A680192019A1B6820B953
:101450009A4209D103B05DF804FB9A4204D103B06B
:101460005DF804EBFFF774BFFFF7FAFE00080020F9
:1014700010B51F4C82B023680193032831D8DFE8F0
:1014800000F023160C02019A23689A4227D15A20B1
:1014900002B0BDE81040FFF75BBF019A23689A4293
:1014A0001DD15A2002B0BDE81040FFF7F1BE11482F
:1014B00000F0D6FD019A23689A4210D10D4802B07F
:1014C000BDE8104000F0E4BD4FF4A57000F0C8FD89
:1014D000019A23689A4208BF4FF4A570EFD0FFF736
:1014E000BFFE019A23689A42F9D102B010BD00BF35
:1014F00000080020B6FEFFFF000000000000000012
:1015000030B52B4D83B0441A2B6801932046FFF76A
:1015100049F821F00043194623A3D3E90023FFF73C
:1015200027FBA8BB234A9FED247A1368234407EEC8
:10153000903AF8EEE77AF4EEC77AF1EE10FA1ADD97
:101540004FF49D739FED1D7A13604FF4487000FBBC
:1015500004F307EE903AF8EEE77A77EE877AF5EE45
:10156000C07AF1EE10FA12DD0020019A2B689A423F
:1015700018D103B030BD9FED127AF4EEC77AF1EEC8
:1015800010FA07D50F4B9FED107A1360DDE707D4F3
:101590000220EAE7B0EE0C7A136027EE877AD4E7F0
:1015A0000120E2E7FFF75CFE0000000000C062409F
:1015B000000800201C12002092249D4300608944F2
:1015C00092249DC3C6FEFFFF006089C40000000096
:1015D00030B5184C83B023680193022001F030F835
:1015E0004FF47A71FFF78CFF40B9134B1B78A3B906
:1015F000019A23689A420ED103B030BD0128F7D179
:101600000D4B1B78002BF3D00220FFF719FF019A36
:1016100023689A4208D0FFF723FE0220FFF7F8FE66
:10162000019A23689A42F6D1002003B0BDE8304009
:10163000FFF71EBF00080020200800200000000067
:101640002DE9F04F854D864F2B6885B0022003931E
:1016500000F0F6FF8046002000F0F2FF81460520F2
:1016600000F0EEFF3B788246002B3DD1B8F1770FBA
:101670007C4C7D4E00F38A80B9F1FA0F00F3E380D1
:1016800040F0B280794900220023C1E900230027FD
:10169000B420C6E900232770FFF7D2FE3846FFF7D3
:1016A000E7FE202383F31188714E02F021FB01F045
:1016B0000FFBB76A01F02CFB02F032FB3368B34238
:1016C00007D0B2699B6892689A4202D2694801F0D9
:1016D0005FFA002383F3118807F23B51384602F08A
:1016E0006FF80123237078E05F4EDFF880B15D4C26
:1016F000D6E90023DBE900015B084FEA32028B42A6
:101700004FF0000C08BF824284F800C05AD3002278
:1017100000235A20CBE90023C6E9002387F800C044
:10172000CDF804C0FFF78CFEDDF804C06046FFF77B
:101730009FFE202383F31188DFF834B102F0D8FA3A
:1017400001F0C6FADBF82830019301F0E1FA02F06B
:10175000E7FADBF80020019B5A4509D0DBF81810A6
:1017600092688968914203D2424801F011FA019BC4
:10177000002282F3118803F23B51184602F020F850
:101780000123B8F1770F23707FF776AFB8F1780FA8
:101790003FF478AFB9F1F90F3ADDB9F1FA0F3FF440
:1017A00071AFBAF1590F3FF76DAF304900220023F6
:1017B00000275A20C1E90023C6E900232770FFF75C
:1017C00027FE6BE70120FFF753FEDBE9002312F150
:1017D000FF3043F1FF31CBE90001039A2B689A42B5
:1017E00039D105B0BDE8F08F204FD7E90023D6E905
:1017F000000112F1010A43F1000B10F1010841F15F
:1018000000090023C7E900ABC6E900892370E4E7BB
:101810004FF00108002084F80080FFF729FED6E988
:101820000023002B08BF0B2AD7D3039A2B6887F815
:10183000008000219A4221700DD1404605B0BDE8DC
:10184000F04FFFF715BE0949002200230027C1E928
:1018500000235A201DE7FFF703FD00BF000800200A
:10186000181200202008002010120020081200206A
:10187000701C0020F0E600080000000000000000DE
:101880002DE9F047204C214BA26921491B68DFF864
:101890008890204EDFF884A0916182B04FF020083C
:1018A000019300270DE0FFF7CBFE3368052B18BF2F
:1018B000013305F1640128460CBF3760336001F045
:1018C0007FFF88F3118802F013FA01F001FAA56A8C
:1018D00001F01EFA02F024FA2368A34207D0A2699D
:1018E0009B6892689A4202D2504601F051F987F300
:1018F000118899F80030002BD5D03368052BD2D150
:10190000FFF766FECFE700BF701C00200008002034
:10191000E0E600080412002020080020F0E600089D
:1019200010B50A4C0A4B22680A4884B04FF45E7125
:10193000039200220092412201F0AAFE039A23683A
:101940009A4201D104B010BDFFF78AFC00080020C4
:101950008118000820120020000000000000000094
:1019600030B5104D81682B680F4A83B001930B6826
:1019700023F001030B608168946A03E0936A1B1BE8
:10198000C72B09D8086810F00100F7D1019A2B681D
:101990009A4204D103B030BD4FF0FF30F6E7FFF7B5
:1019A0005FFC00BF00080020701C00200000000049
:1019B000F0B5284D83B02B68019302F061F901F076
:1019C00007FA254B1E69F20715D55A69234C42F0D8
:1019D00001025A612778BB1F012B2AD905226368AF
:1019E00022701B680BB120469847042F27D0022F86
:1019F00025D003232370B30710D5174A174C53691A
:101A000043F0020353612378032B1DD063689B6866
:101A10000622227013B101211048984701F000FA04
:101A2000019A2B689A4213D103B0BDE8F04003F04D
:101A300037B8019A2B689A420AD103B0F0BD02234D
:101A40002370B307EAD5D8E72046FFF789FFDDE723
:101A5000FFF706FC00080020000005509815002044
:101A60002DE9F043254E83B034680194042A9DF893
:101A70002890144605460F46984639D9B9F1000F0B
:101A800014BF00224FF08052640002EB0863013C57
:101A90001C4405F00F0527F01F07202383F311884E
:101AA00002F026F93D4301F013F9154B1035DD60C6
:101AB0001C6101F02DF902F033F9124B1A689A42B9
:101AC00004D0996993688A689A420DD3002383F3FE
:101AD0001188BFF36F8FBFF34F8F019A33689A421B
:101AE0000AD103B0BDE8F083074801F051F8EDE7F3
:101AF000064801F04DF8C1E7FFF7B2FB00080020EF
:101B000090ED00E0701C002080E7000860E700080E
:101B100030B5224D224C2B68224A85B0039363686E
:101B200043F004036360536A43F480335362202319
:101B300083F3118802F0DCF801F0CAF817221A4B7F
:101B4000E260236101F0E4F802F0EAF8174B1A684A
:101B50009A4204D0996993688A689A4218D30020FF
:101B600080F31188BFF36F8FBFF34F8F03231D22C4
:101B700000904FF00051FFF773FF094A536843F09C
:101B800001035360039A2B689A4205D105B030BD1A
:101B9000074800F0FDFFE2E7FFF762FB00080020C6
:101BA00090ED00E000ED00E009000010701C002046
:101BB00080E70008000000000000000000000000B6
:101BC00070B51A4D1A4C1B4E0FCD0FC49EB02A682B
:101BD000336822801D93EFF30981682203A8FFF781
:101BE0009FF9154B9D6AAA0714D4EB0708D5124B31
:101BF00008995B6B114A00910D48802109F0A8FB00
:101C00001D9A33689A420FD109481EB0BDE8704052
:101C100000F0BEBF099A5B6B0092A4F11000084A65
:101C2000802109F095FBE0E7FFF71AFB44E7000885
:101C3000AC1500200008002000ED00E020E70008BF
:101C400000E70008000000000000000000000000A5
:101C500000B51F4B0278196883B00191E2B11D4AAB
:101C60004FF4005111834278EAB11A4A4FF480517F
:101C700011838278F2B1174A4FF480411183C27800
:101C8000FAB9144A4FF400415183019A1B689A42F1
:101C90001CD103B05DF804FB0E4A4FF40051518390
:101CA0004278002AE1D10B4A4FF480515183827867
:101CB000002AE0D1074A4FF480415183C278002ABC
:101CC000DFD0044A4FF400411183DEE7FFF7C8FA82
:101CD000000800200010024000000000000000008A
:101CE00000B51F4B0278196883B00191E2B11D4A1B
:101CF0004FF4007111834278EAB11A4A4FF48071AF
:101D000011838278F2B1174A4FF400611183C278CF
:101D1000FAB9144A4FF480615183019A1B689A42C0
:101D20001CD103B05DF804FB0E4A4FF400715183DF
:101D30004278002AE1D10B4A4FF4807151838278B6
:101D4000002AE0D1074A4FF400615183C278002A8B
:101D5000DFD0044A4FF480611183DEE7FFF780FA99
:101D600000080020001002400000000000000000F9
:101D700030B50C4A0C4B116883B04FF400550191FB
:101D80004FF480544FF400414FF480405D835C83F6
:101D90005883598301991368994201D103B030BD2A
:101DA000FFF75EFA0008002000100240000000006B
:101DB00030B50C4A0C4B116883B04FF4007501919B
:101DC0004FF480744FF480614FF400605D835C8356
:101DD0005883598301991368994201D103B030BDEA
:101DE000FFF73EFA0008002000100240000000004B
:101DF00010B50B4C0B48236882B099220021019347
:101E000003F086FA019A23689A4206D10548002118
:101E100002B0BDE8104003F063BBFFF721FA00BF3A
:101E200000080020502A00200000000000000000F0
:101E300010B50B4C0B48236882B099220021019306
:101E400003F066FA019A23689A4206D105480021F8
:101E500002B0BDE8104003F043BBFFF701FA00BF3A
:101E6000000800206C2A0020000000000000000094
:101E700000B5084B83B01A680192019A1B689A4218
:101E800006D10548002103B05DF804EB03F090BAD9
:101E9000FFF7E6F900080020502A002000000000AB
:101EA00000B5084B83B01A680192019A1B689A42E8
:101EB00006D10548002103B05DF804EB03F078BAC1
:101EC000FFF7CEF9000800206C2A00200000000077
:101ED00070B51A4C1A4E2378326882B0022B0192E8
:101EE000A26811D165781748013505F0070500EBA8
:101EF0008500904763686570013B6360019A3368B1
:101F00009A4219D102B070BD012B08D001993368F3
:101F1000994211D10C4802B0BDE870401047657875
:101F20000848013D05F0070500EB85009047636810
:101F3000657001336360E1E7FFF792F94416002012
:101F40000008002020E8000810E800080000000059
:101F500070B51A4C1A4E2378326882B0012B019268
:101F6000A26811D165781748013505F0070500EB27
:101F7000850090476368657001336360019A336838
:101F80009A4219D102B070BD022B08D00199336872
:101F9000994211D10C4802B0BDE8704010476578F5
:101FA0000848013D05F0070500EB85009047636890
:101FB0006570013B6360E1E7FFF752F92C160020E2
:101FC0000008002020E8000810E8000800000000D9
:101FD00030B51F4D85B02B68039340F24C439942B6
:101FE000044626DCA3F69803994211DB4B00002B34
:101FF00029D10370036998474FF47A71039A2B68CB
:102000009A421ED1606905B0BDE8304003F038B98E
:10201000104B02225B42227040F2892293420E4909
:1020200091FBF3F189B207DC0191E36898470199CC
:10203000E4E7012303702D21019123699847019959
:10204000DCE7FFF70DF9E4DD01220270E4E700BFF1
:102050000008002068F7FFFFA086010000000000D4
:1020600000B5084B83B01A680192019A1B689A4226
:1020700006D10146044803B05DF804EBFFF7A8BFA2
:10208000FFF7EEF8000800202C16002000000000EA
:1020900000B5084B83B01A680192019A1B689A42F6
:1020A00006D10146044803B05DF804EBFFF790BF8A
:1020B000FFF7D6F8000800204416002000000000BA
:1020C00000B5094B094A1968506883B000EBD0701D
:1020D0000191019A1B689A4203D1401003B05DF848
:1020E00004FBFFF7BDF800BF000800202C160020FD
:1020F00000B5094B094A1968506883B000EBD070ED
:102100000191019A1B689A4203D1401003B05DF817
:1021100004FBFFF7A5F800BF0008002044160020CC
:1021200000B5084B08491A6883B040000192019A33
:102130001B6848609A4202D103B05DF804FBFFF7C8
:102140008FF800BF000800202C16002000000000BF
:1021500000B5084B08491A6883B040000192019A03
:102160001B6848609A4202D103B05DF804FBFFF798
:1021700077F800BF0008002044160020000000008F
:1021800070B51D4E1D4A1E4B30681E491E4C916095
:1021900082B00021D46001901C4C1D481D4D9D60F3
:1021A000117051705160106154611B481B4A1C4DE5
:1021B000D8601C48197059705960C3E90425FFF7AD
:1021C00047FD1848FFF78CFD1749204603F008F833
:1021D000204603F03DF92846144903F001F8019A1E
:1021E00033689A4205D1284602B0BDE8704003F03A
:1021F0002FB9FFF735F800BF000800204416002073
:102200002C160020511C0008F11D0008502A002047
:10221000711E0008E11C0008311E0008A11E000804
:102220006C2A002010E80008D0E7000890E70008BA
:102230000A490B4B09680B4A82B0202001914021CA
:1022400058834FF4806559834FF400644FF4804005
:1022500004215D835C8358835183FEE700080020DE
:10226000000C0240000402400000000000000000DA
:1022700010B51E491E4A0B78106882B0013B0190D0
:10228000072B0AD8DFE803F012151C1F26290F04BC
:1022900018480824012304830B700199136899429C
:1022A00021D102B010BD08230B70F6E702230B709A
:1022B000F3E711484FF48054032304830B70ECE7D9
:1022C00004230B70E9E70C484FF480440523048392
:1022D0000B70E2E706230B70DFE7064804240723B0
:1022E00004830B70D9E7FEF7BBFF00BFD8190020AD
:1022F000000800200010024000040240000000001E
:1023000030B50C4B0C4918680C4A83B04FF480452B
:1023100001904FF480504883042408204D83548357
:102320005083019A1B689A4201D103B030BDFEF779
:1023300097FF00BF00080020000402400010024088
:102340002DE9F04F4E4B4F4A9B694F499961A5B01B
:1023500007AE05AD80231768009331462A46002456
:102360000CA84A4B2397CDE90766CDE90555CDE981
:1023700009440B9400F0DCFA0CA9454A4548434C4B
:10238000454DDFF83481DFF834B1DFF834A100F0D7
:10239000F7FA04F11C0604F16007A146504601F06B
:1023A00047FD2A682B69226063602A6A2B6BA26052
:1023B000E3606A686B69226163616A6A6B6BA26140
:1023C000E361AA68AB6922626362AA6AAB6BA2622C
:1023D000E362EA68EB6922636363EA6AEB6B2F49A5
:1023E000A263E36351F8043F0A6AB142A3EB02031C
:1023F0000B64F7D1802249460CA800F0F1FA98F856
:102400000030002BCAD09BF8003033B3012BC5D16C
:10241000DFF8B0C02248614650F8042B51F8043F61
:10242000B84213440B60F7D11E4A13780133DBB274
:10243000642B1370B2D11C495CF8043F1B4A82FB29
:102440000302DB17C3EB621341F8043B184B9C45B6
:10245000F2D1002388F80030A0E719462022124864
:10246000039308F025FF039B12481946202208F029
:102470001FFF0C49039B0B7001228BF800208DE796
:10248000701C00200008002040E80008E016002032
:1024900080E80008F81100207C160020DC160020DF
:1024A00020170020BD160020401700201F85EB518B
:1024B000DC160020C0160020BC160020BE1600202E
:1024C00024080020BC1600200000000000000000CE
:1024D00070B502691E4D52882B6882B006460C46C4
:1024E0001C4801939200002108F0E2FE33695B88EA
:1024F0005BB1184AA11E002331F8020F42F8040B09
:102500003069408801339842F6D8202383F311883C
:1025100001F01EFC00F01CFC00F0AAFC0E488368D1
:10252000002B0FDD00F034FC01F02AFC002383F3C4
:102530001188019A2B68094901209A42087004D138
:1025400002B070BD01F0ACFCECE7FEF789FE00BF05
:10255000000800207C16002024080020D819002044
:1025600070B51F4D1F4C2E78236884B0012E039345
:1025700005D0039A23689A422FD104B070BD002180
:10258000284602F0E5FB284602F0A2FC3346284626
:10259000154A164902F05CFC1549164802F020FE67
:1025A0004FF496720021134802F0B2FE0021114848
:1025B00002F096FF0F4802F04BFF31464FF4827253
:1025C0000C4802F0A5FE0023009340220A4B0B4862
:1025D0004FF41E7101F05CF8CBE7FEF741FE00BF3F
:1025E000CC230020000800205C16002050E80008E2
:1025F00090E80008342A00204123000860170020DA
:1026000030B50C4D0C4A2B680C4C83B00021019363
:10261000012311702370142001F092F82378002B0D
:10262000F9D1019A2B689A4201D103B030BDFEF76F
:1026300017FE00BF00080020BE160020BC160020B8
:1026400000B50A4B83B01A68019207289BBF084A5D
:102650001030002052F82000019A1B689A4202D1E3
:1026600003B05DF804FBFEF7FBFD00BF000800208F
:10267000E016002000000000000000000000000044
:1026800000B50F4B83B01868019002290CD00329C4
:102690000CD001290B4818BF0020019A1B689A42F0
:1026A0000BD103B05DF804FB0748F6E7032A96BF99
:1026B0000648002000EBC200EFE7FEF7D1FD00BFA7
:1026C00000080020B0E9000850E9000860EA0008AE
:1026D00070B5154C82B02368019302291CD10D46B8
:1026E0000646202383F3118801F032FB00F030FB13
:1026F00030460E4A012104F033F829460C4A304690
:1027000004F02EF80B4803F02BFE00F041FB01F023
:1027100037FB002383F31188019A23689A4201D181
:1027200002B070BDFEF79CFD00080020D0E8000854
:1027300000E90008DC190020000000000000000093
:1027400030B5134D134C2B68134883B0019303F03D
:102750007FFD1249104803F0ABFD226D936B23F40B
:10276000002393634FF47A7000F0EAFF20460C498F
:1027700003F0A6FF226D936B43F400239363019A49
:102780002B689A4201D103B030BDFEF769FD00BF4E
:102790000008002030270020DC19002030E9000864
:1027A00040E90008000000000000000000000000F8
:1027B00000B5084B83B01A680192019A1B689A42CF
:1027C00005D1054803B05DF804EB01F091BCFEF7BC
:1027D00047FD00BF00080020300800200000000076
:1027E00000B5084B83B01A680192019A1B689A429F
:1027F00005D1054803B05DF804EB01F0B1BCFEF76C
:102800002FFD00BF0008002030080020000000005D
:1028100070B50D4C82B0236801930D1E06460DDD88
:10282000284602F0B5F818B90C2333604FF0FF309A
:10283000019A23689A4205D102B070BD034800F0A6
:10284000A7F9EDE7FEF70CFD0008002080EA00087C
:1028500000B5064B83B01A680192019A1B689A4230
:1028600002D103B05DF804FBFEF7FAFC000800207B
:1028700000B5074B83B01A680192019A1B689A420F
:1028800004D103B05DF804EB01F032BCFEF7E8FCC4
:102890000008002000000000000000000000000010
:1028A00000B5074B83B01A680192019A1B689A42DF
:1028B00004D103B05DF804EB01F052BCFEF7D0FC8C
:1028C00000080020000000000000000000000000E0
:1028D00000B5074B83B01A680192019A1B689A42AF
:1028E00004D103B05DF804EB01F0EABCFEF7B8FCDC
:1028F00000080020000000000000000000000000B0
:1029000010B5084B82B01C68019400240460019C3F
:102910001B689C42C0E9011201D102B010BDFEF754
:102920009FFC00BF00080020000000000000000025
:102930002DE9F0430E4D83B02C680194044699466E
:102940000F46164610304C220021DDF8288008F092
:10295000AFFCC4F80090019A2B68E6609A42C4E983
:10296000018702D103B0BDE8F083FEF779FC00BF18
:10297000000800200000000000000000000000002F
:10298000F0B5144E83B001F110031746326801927E
:102990000446412218460D46002108F089FC3946BC
:1029A000402208F01DFD6068FFF762FF236803B155
:1029B000AB652560A068FFF78BFF019A33689A42E8
:1029C00005D1606803B0BDE8F040FFF769BFFEF7CE
:1029D00047FC00BF000800200000000000000000CD
:1029E000F0B51C4E436883B00546934230680190B1
:1029F00006D20020019A33689A4229D103B0F0BD73
:102A000014460F46A868FFF733FF22463946286868
:102A1000FEF786FA012385F85130E868FFF758FF82
:102A20006C6D84B123681868FFF722FF23689D60EE
:102A300023685868FFF74CFF23681868FFF730FFDA
:102A40006468002CEED1A868FFF72AFF0120D1E7C7
:102A5000FEF706FC00080020000000000000000057
:102A600000B5064B83B01A680192019A1B689A421E
:102A700002D103B05DF804FBFEF7F2FB0008002072
:102A8000024B82B01B680193FEE700BF00080020E4
:102A900000B5044B04481B6883B0019300F078F83C
:102AA000FEE700BF0008002090EA000800000000D8
:102AB000024B82B01B680193FEE700BF00080020B4
:102AC000F0B5294E294B3268294885B0002403927D
:102AD0009C60D968274A4FF6FF0529400A43DA600F
:102AE000C2682549254D42F08072C2600A6842F0F2
:102AF00001020A6010202022D87783F8222000F0FB
:102B0000DFFA00F045FA01F043F801F019FF01F097
:102B100087FF01F095F800F0FBF9402105F588608A
:102B200000F01EFD0127164BC36180F82070A861DC
:102B300000F0A6F884F3118862B6AB69114A9A6175
:102B40004FF4C4713A46104B009405F59D6000F0B7
:102B50009FFD039A33680D4981619A4201D105B006
:102B6000F0BDFEF77DFB00BF0008002000ED00E097
:102B7000F0ED00E00003FA05001000E0701C0020FA
:102B80000004002010EC0008B12A0008B0EA000898
:102B900000B5054B83B01B680193044672B6FFF77E
:102BA00047FB024BDC62FEE700080020701C00209F
:102BB0002DE9F047DFF890A0224DDAF8003082B01E
:102BC000019300F055F9AB6993F8232012B1013A53
:102BD00083F823205A6ADFF8748001325A6200F0C9
:102BE00047F9AB6AEA6901334245AB6220D093688A
:102BF000013B9360EC69A668D6B94FF020092368C1
:102C0000E768E660C3F804802368EB6100F0C0F871
:102C100001F0B6F886F311882069B84789F3118866
:102C200001F096F800F094F8EC69A368002BE6D068
:102C3000019ADAF800309A4202D102B0BDE8F0877A
:102C4000FEF70EFB701C0020000800208C1C0020EA
:102C500010B5094C094A236882B001935168536842
:102C60005B1A9842FBD8019A23689A4201D102B0BC
:102C700010BDFEF7F5FA00BF00080020001000E0CC
:102C800000B50E4A0E4B116B186883B0019009B95C
:102C9000526B4AB1019A1B689A420CD1094803B0A1
:102CA0005DF804EBFFF774BF019A1B689A4202D1EA
:102CB00003B05DF804FBFEF7D3FA00BF701C0020E0
:102CC00000080020C0EA000800000000000000002A
:102CD00030B50B4C0B4D236B2A6883B001920BB9B6
:102CE000636B13B10848FFF753FF019A2B6801216A
:102CF0009A42616301D103B030BDFEF7B1FA00BF63
:102D0000701C002000080020F0EA0008000000000D
:102D100030B50C4C0C4D236B2A6883B0019253B92B
:102D2000636B002B07DD019A2B6800219A426163D7
:102D300005D103B030BD0548FFF72AFFF3E7FEF7E2
:102D40008FFA00BF701C00200008002010EB000864
:102D500030B50B4C0B4D236B2A6883B0002B0192CE
:102D600001DD636B13B10848FFF712FF019A2B686E
:102D700001219A42616301D103B030BDFEF770FAC0
:102D8000701C00200008002000EB0008000000007C
:102D900030B50C4C0C4D236B2A6883B0002B01928C
:102DA0000ADD636B002B07DD019A2B6800219A4234
:102DB000616305D103B030BD0448FFF7E9FEF3E7D6
:102DC000FEF74EFA701C00200008002020EB0008DF
:102DD00030B50F4D83B02B680193202383F3118806
:102DE0000C4C236B002B01DB626B1AB10A48FFF716
:102DF000CFFE236B01332363002383F31188019AF1
:102E00002B689A4201D103B030BDFEF729FA00BF0A
:102E100000080020701C0020D0EA0008000000001C
:102E200030B50F4D83B02B680193202383F31188B5
:102E30000C4C236B002B01DD626B1AB10A48FFF7C3
:102E4000A7FE236B013B2363002383F31188019AC0
:102E50002B689A4201D103B030BDFEF701FA00BFE2
:102E600000080020701C0020E0EA000800000000BC
:102E700000B50F4A0F4B116B186883B00029019001
:102E800009DB526B002A06DD019A1B689A420CD1BD
:102E900003B05DF804FB019A1B689A4205D106480D
:102EA00003B05DF804EBFFF773BEFEF7D9F900BF7E
:102EB000701C00200008002030EB0008000000001B
:102EC00000B50E4A0E4B116B186883B0019049B9DA
:102ED000526B002A06DD019A1B689A420CD103B09E
:102EE0005DF804FB019A1B689A4205D1054803B0BE
:102EF0005DF804EBFFF74CBEFEF7B2F9701C002042
:102F00000008002040EB0008000000000000000066
:102F100010B5084A084B116882B04024019101990C
:102F2000126818199142C3E90E4001D102B010BDD8
:102F3000FEF796F900080020701C00200000000039
:102F400010B51149114B0A6882B00192DA6B9C6A84
:102F50001460DA6B9C695460DA6B846A9460DA6B93
:102F600090F820001073DA6B03F58860103282420B
:102F700028BF03F14002DA63019A0B689A4201D13B
:102F800002B010BDFEF76CF900080020701C002094
:102F900010B50B4A0B4B116882B04FF0FF34019112
:102FA00000219962019811685C6203F11C02884259
:102FB000C3E9072201D102B010BDFEF751F900BFED
:102FC00000080020701C002000000000000000002D
:102FD0002DE9F041184E82B00546306801900C464C
:102FE00017469846FFF744FF05B3FFB1F4B1C5E9B2
:102FF00003781248C3699A68944204D91B68A41ADA
:103000009A68A242FAD32B605A686A6015605D60C4
:10301000AC609968019D3268091B95424FF0FF34FE
:103020009960446206D102B0BDE8F0810448FFF720
:10303000AFFDDCE7FEF714F900080020701C00204B
:1030400050EB00080000000000000000000000003D
:1030500030B5164D83B004462B680193FFF708FF87
:10306000ECB1E368BBB12268A0689368019903449E
:103070009360D4E900231A6020682B680C4A6568C5
:10308000456099424FF000054FF0FF30E560506217
:1030900009D103B030BD0748FFF77AFDE3E70548E3
:1030A000FFF776FDDDE7FEF7DBF800BF0008002044
:1030B000701C002060EB0008000000000000000011
:1030C00000B50A4A0A4B11681B6083B000200191C9
:1030D000019912685B609142C3E90433986002D1A0
:1030E00003B05DF804FBFEF7BBF800BF000800204A
:1030F000701C002000000000000000000000000024
:1031000030B5164D83B004462B680193FFF7B0FE2F
:10311000ECB194F82030B3B10F2B14D00022A16889
:103120000F4B84F820201B689A688A42FBD22360E8
:103130005A686260146001992A685C609142204676
:1031400009D103B030BD0748FFF722FDE6E7054887
:10315000FFF71EFDDDE7FEF783F800BF0008002043
:10316000701C002070EB0008000000000000000050
:1031700070B5204D82B02B6801930446202383F361
:10318000118800F0E5FDFFF7E3FD94F82030072BF0
:1031900011D8DFE803F0161010230A04100AA66AFB
:1031A000FFF766FEB3680133B360D4E900231A6009
:1031B000D4E900325A604FF0FF33A3622046FFF794
:1031C0009FFFFFF7E5FD00F0DBFD002383F311888F
:1031D000019A2B689A420BD102B070BDA36A0022FB
:1031E0001A604FF0FF33A3622046FFF789FFE8E73C
:1031F000FEF736F800080020000000000000000084
:10320000F0B5194E194C336883B007460193FFF7A8
:1032100057FEA569236885F82070142285F82320BD
:103220001A68226001215460284683F82010A361A7
:10323000FFF786FE2946A06900F03AFDEFF3098307
:10324000EA69643B9A4202D90948FFF7A1FC019A56
:1032500033689A4206D1A069294603B0BDE8F04020
:10326000FDF726B8FDF7FCFF00080020701C0020C9
:1032700080EB0008000000000000000000000000DB
:10328000F0B5154C87B0236805930E460746FFF747
:1032900017FE731C18D0114D114AAB6931466846B0
:1032A000FFF796FE3846FFF7ABFFFFF7E1FD039B04
:1032B00013B16846FFF7CCFE059A2368A9699A42C4
:1032C000886A06D107B0F0BD3846FFF799FF034D75
:1032D000F2E7FDF7C5FF00BF00080020701C0020CA
:1032E0007131000800000000000000000000000034
:1032F000F0B51E4D1E4E2B6883B0044601930F4659
:10330000FFF7DEFDB069A7628368A2689A421DD903
:10331000FFF7F6FE0123074684F82030B461FFF77B
:103320000FFE3946204600F0C3FCEFF30983FA692B
:10333000643B9A4214D8019A2B689A4214D13946B8
:10334000204603B0BDE8F040FCF7B2BF019A2B68FD
:103350009A4209D1204603B0BDE8F040FFF7D0BE45
:103360000448FFF715FCE6E7FDF77AFF00080020A8
:10337000701C002080EB000800000000000000002E
:1033800010B50E490E4B8A69086892F823101C6824
:103390008068926882B0019449B9904234BF00209D
:1033A0000120019A1B689A4206D102B010BD9042DA
:1033B00094BF00200120F4E7FDF752FF701C0020AD
:1033C00000080020000000000000000000000000D5
:1033D00070B5184C184E2368A5691A6822605460AD
:1033E000012283F8202082B01422316885F823203E
:1033F0002846A3610191FFF783FE2846FFF7A0FD51
:103400002946A06900F054FCEFF30983EA69643BA4
:103410009A4202D90948FFF7BBFB019A33689A42E6
:1034200006D1A069294602B0BDE87040FCF740BF54
:10343000FDF716FF701C00200008002080EB00083C
:1034400070B51C4D1C4E2A68AC6913682B600121B5
:1034500082B05D60002082F82010AA613268A16805
:1034600084F82000019200E01B689A688A42FBD829
:1034700023605A686260204614605C60FFF760FD5C
:103480002146A86900F014FCEFF30983E269643B6C
:103490009A4202D90948FFF77BFB019A33689A42A6
:1034A00006D1A869214602B0BDE87040FCF700BF14
:1034B000FDF7D6FE701C00200008002080EB0008FD
:1034C00010B50F4C82B023680193FFF7F9FCFFF7AA
:1034D000CFFC0C4B1A689B6992689B689A42019AD0
:1034E000236803D89A4208D102B010BD9A4204D191
:1034F00002B0BDE81040FFF7A3BFFDF7B1FE00BF6B
:1035000000080020701C00200000000000000000E7
:1035100000B50E4A0E4B9269196892F8232083B0C9
:10352000019142B1019A1B689A420DD103B05DF836
:1035300004EBFFF785BF019A1B689A4204D103B0E0
:103540005DF804EBFFF744BFFDF78AFE701C002016
:103550000008002000000000000000000000000043
:10356000F0B51A4A1A4D02610446816083B01423F3
:1035700050692E68616484F82330022700230121FA
:10358000278484F82210C4E90F3304F16801A36191
:10359000019604F12C07636204F1500604F1300334
:1035A00060610461C4E90C33E1613046E762546153
:1035B00000F086FA304600F0A3FA019A2B689A428E
:1035C00002D1204603B0F0BDFDF74AFE701C00207A
:1035D00000080020000000000000000000000000C3
:1035E00010B5094B82B01C680194884203D200F8E0
:1035F000012B8142FBD1019A1B689A4201D102B092
:1036000010BDFDF72DFE00BF0008002000000000E7
:103610002DE9F043184E83B0346801940546DDF877
:1036200028900C4617469846FFF722FC15B1B4F5D2
:10363000BC7F19D21148FFF7ABFAA4F16401294409
:10364000E960C1F84080EB68019AC3F844903368A0
:10365000E9680B4808669A420CD13946284603B0FF
:10366000BDE8F043FFF77CBF7F2FE3D8B8F1000F30
:10367000E3D1DFE7FDF7F4FD00080020D0EB000800
:10368000C902000800000000000000000000000067
:103690002DE9F04FDFF8A48087B0D8F80040DDF8BE
:1036A0004090059407468A46934600F16806044612
:1036B000FF2504F8015BA642FBD107EB0A05A542F2
:1036C00004D9552604F8016BA542FBD103932022AF
:1036D00082F3118800F00CFBFFF7FAFA039BCDF898
:1036E00000905A4651463846FFF792FF00210446A3
:1036F000FFF7FEFDFFF70CFB00F012FB0D4B1A6805
:103700009A4204D0996993688A689A420BD300233D
:1037100083F31188059AD8F800309A42204606D1E2
:1037200007B0BDE8F08F0448FFF732FAEFE7FDF786
:1037300097FD00BF701C002090EB000800080020DF
:1037400030B5184C83B0236801930546202383F3DA
:10375000118800F0CDFAFFF7BBFA15B91248FFF750
:1037600017FA29460820FFF78BFDFFF7D1FA00F082
:10377000D7FA0E4B1A689A4204D0996993688A68FE
:103780009A4208D3002383F31188019A23689A424E
:1037900005D103B030BD0648FFF7FAF9F2E7FDF7AF
:1037A0005FFD00BF00080020A0EB0008701C002097
:1037B00090EB000800000000000000000000000086
:1037C000F0B51C4F83B03B68019304460E4620239E
:1037D00083F31188184D00F08BFAFFF779FAA96A84
:1037E000331B0C1B9C4219D3FFF792FA00F098FA96
:1037F0002B68AB4204D0AA699B6892689A4209D3AD
:10380000002383F31188019A3B689A4230460FD116
:1038100003B0F0BD0948FFF7BBF9F1E7741A02D114
:103820000748FFF7B5F921460820FFF729FDDBE738
:10383000FDF716FD00080020701C002090EB00082A
:10384000A0EB0008000000000000000000000000E5
:1038500070B5164B164E9C693268E36AA06282B05E
:1038600004F12C05AB42019207D01A68E2621846B7
:10387000FFF746FCE36AAB42F7D194F821309B078F
:1038800005D1D4E904231A61D4E904325A610F2026
:10389000FFF7B6FC019A33689A4205D1054802B099
:1038A000BDE87040FFF774B9FDF7DAFC701C00202A
:1038B00000080020E0EB000800000000000000000D
:1038C00030B50C4C83B0236801930546202383F365
:1038D000118800F00DFAFFF7FBF9019A23689A426C
:1038E00005D1284603B0BDE83040FFF7B1BFFDF772
:1038F000B7FC00BF0008002000000000000000002E
:10390000F0B50D4D0D4E03682A68B76983B00446C3
:10391000019213B10A48FFF73BF927600320BC620C
:10392000FFF76EFC019A2B68B1699A42886A01D14F
:1039300003B0F0BDFDF794FC00080020701C0020CF
:10394000F0EB000800000000000000000000000094
:10395000F0B5124D04682B6883B00193B4B194F8AC
:103960002030032B06460F460CD100233360019A0A
:103970002B68A7629A420FD1204603B0BDE8F04001
:10398000FFF7BEBB0648FFF703F9EEE7019A2B6885
:103990009A4201D103B0F0BDFDF762FC000800209F
:1039A00000EC000800000000000000000000000023
:1039B00030B5104A83B01368019381B10E4B019D5D
:1039C0009B69186044685C6023601268436095429C
:1039D0000DD1042003B0BDE83040FFF751BC019980
:1039E000136899424FF0FF3001D103B030BDFDF7AD
:1039F00037FC00BF00080020701C00200000000001
:103A000070B5124D04682B6882B0A042019315D0A6
:103A100023680360586094F82030042B0E4602D0CF
:103A20000B48FFF7B5F8019A2B68A6629A420BD1B2
:103A3000204602B0BDE87040FFF762BB019A2B68D8
:103A40009A4201D102B070BDFDF70AFC00080020C7
:103A5000B0EB0008000000000000000000000000C3
:103A60002DE9F041DFF850800468D8F8003082B0CA
:103A7000A042019313D00F4F05460E4623682B60DA
:103A80005D6094F82030042B02D03846FFF780F8B0
:103A9000A6622046FFF734FB2C68A542EED1019ABE
:103AA000D8F800309A4202D102B0BDE8F081FDF7AB
:103AB000D7FB00BFB0EB00080008002000000000AA
:103AC00030B50B4B83B01A6801924FF0FF320260A1
:103AD00001991A680024002300259142C0E9044599
:103AE000C0E90133C36001D103B030BDFDF7B8FBBD
:103AF000000800200000000000000000000000009E
:103B000000B5084B084A196883B001915168019AC1
:103B10001B6881609A4202D103B05DF804FBFDF797
:103B20009FFB00BF00080020001000E00000000024
:103B3000F0B51449144B0A68846883B00192134AA3
:103B40005B68D2F8A864C2681B1BD0E90445013247
:103B50009B1BC26042688360E61845F100079342F0
:103B6000C0E9046709D80268934238BF0360019A2C
:103B70000B689A4203D103B0F0BD4360F7E7FDF74D
:103B80006FFB00BF00080020001000E0701C002048
:103B900030B5114D114C2B6889B04FF0FF310793B0
:103BA000002300226846C4F8A834CDE9013303930A
:103BB0000023CDE904230091FFF7A2FF6846FFF739
:103BC000B7FF079A2B680299C4F8A8149A4201D14A
:103BD00009B030BDFDF744FB00080020701C002038
:103BE0002DE97048134E144B326883B001925B6824
:103BF0008B60D0E902411B1BD0E90445426814EBFD
:103C0000030B45F1000C01319342C0E90231C0E9D8
:103C100004BC0AD80268934238BF0360019A336833
:103C20009A4204D103B0BDE870884360F6E7FDF71F
:103C300017FB00BF00080020001000E0000000009B
:103C400030B50D4D0D4C2B6883B004F59760019392
:103C50000023C4F8B034C4F8B434FFF731FF019A3C
:103C60002B689A4206D104F59A6003B0BDE8304053
:103C7000FFF726BFFDF7F4FA00080020701C0020B3
:103C800000B50949094A0B6883B001930198D2F83D
:103C9000B034096801338842C2F8B03402D103B0AD
:103CA0005DF804FBFDF7DCFA00080020701C002022
:103CB00070B50D4C0D4A236882B00193019DD2F876
:103CC000B43424680133A542C2F8B43409D10E4695
:103CD00000F1500106F1500002B0BDE87040FFF75E
:103CE0007FBFFDF7BDFA00BF00080020701C002058
:103CF00000B5084B83B01A680192019A1B689A427A
:103D000005D1054803B05DF804EBFFF7F9BEFDF7F8
:103D1000A7FA00BF000800202821002000000000B2
:103D200000B5084B83B01A680192019A1B689A4249
:103D300005D1054803B05DF804EBFFF7F9BEFDF7C8
:103D40008FFA00BF0008002028210020000000009A
:103D500000B5084B83B01A680192019A1B689A4219
:103D600005D1054803B05DF804EBFFF7C9BEFDF7C8
:103D700077FA00BF0008002040210020000000006A
:103D800000B5084B83B01A680192019A1B689A42E9
:103D900005D1054803B05DF804EBFFF7C9BEFDF798
:103DA0005FFA00BF00080020402100200000000052
:103DB00070B51B4D82B004462B680193FFF780F865
:103DC00044B3A3682268002B10DBA24203D015483D
:103DD000FEF7DEFEA368013B002BA3600CDB002096
:103DE000019A2B689A4219D102B070BDA242EED05E
:103DF000013B002BA360F2DA0B4EB3699C621C609E
:103E000062685A60052013606360FFF7F9F9B369CF
:103E1000986AE5E70348FEF7BBFED2E7FDF720FA14
:103E20000008002040EC0008701C0020000000008A
:103E300030B5164C83B0236801930546202383F3E5
:103E40001188FFF755FFFEF743FF2846FFF7B0FF45
:103E50000546FEF75DFFFFF763FF0D4B1A689A42B8
:103E600004D0996993688A689A4209D3002383F33E
:103E70001188019A23689A42284605D103B030BDC3
:103E80000448FEF785FEF1E7FDF7EAF90008002097
:103E9000701C002030EC0008000000000000000052
:103EA00030B51C4D83B004462B680193FEF7E0FF4C
:103EB0004CB3A3682268002B0FDBA24203D0164844
:103EC000FEF766FEA3680133002BA3600BDD019AA9
:103ED0002B689A421BD103B030BDA242EFD0013310
:103EE000002BA360F3DC20680199036823602A6833
:103EF0005C6091424FF00003836208D103B0BDE8DB
:103F00003040FFF7FDB80448FEF742FED1E7FDF769
:103F1000A7F900BF0008002050EC000800000000D6
:103F200030B50B4D83B02B680193044650B124602B
:103F300001992A68646000239142A360236105D13E
:103F400003B030BD0348FEF723FEF0E7FDF788F924
:103F50000008002070EC00080000000000000000D5
:103F6000F0B55D4E5D4B32689D6983B004460192A9
:103F7000FEF7A6FF002C00F08480A06823690028CB
:103F800043D0002B40F39780854276D0AA6883689F
:103F90009A4208D990F820308260062B40D0072B37
:103FA00073D0002B5DD02746234603E09968AA68AA
:103FB000914233D31B689C42F8D12F607B686B60C1
:103FC00006201D607D60AC62FFF71AF9A368AB4262
:103FD00002D04348FEF7DCFD2B6CA34202D04048E0
:103FE000FEF7D6FD2369012B05D1019A33689A4269
:103FF0006FD103B0F0BD019A33689A4269D1384855
:1040000003B0BDE8F040FEF7C3BD002B58D101332B
:10401000A56023612B6CE3602C64E6E71F46CCE7C8
:10402000D0E900231A60D0E900325A60876A3B4623
:1040300003E099688268914247D31B689F42F8D198
:1040400007607B68436018607860836AAA68986834
:1040500083689342A7D290F820308260062B9ED1CD
:10406000DEE7D0E90023012180F820101A60D0E9B2
:1040700000325A60FFF744F895E723690133236162
:10408000B3E71748FEF784FD77E7D0E900231A600D
:10409000D0E900325A60876A3B4603E0996882683B
:1040A000914214D31B689F42F8D107607B6843603C
:1040B0001860786077E70A48FEF76AFDA06863E752
:1040C0000748FEF765FD2369A1E71F46B8E71F46CD
:1040D000EBE7FDF7C5F800BF00080020701C0020CA
:1040E00080EC00080000000000000000000000005C
:1040F00030B5154C83B0236801930546202383F324
:104100001188FFF7F5FDFEF7E3FD2846FFF728FFCE
:10411000FEF7FEFDFFF704FE0C4B1A689A4204D02E
:10412000996993688A689A4208D3002383F31188B7
:10413000019A23689A4205D103B030BD0448FEF7C6
:1041400027FDF2E7FDF78CF800080020701C002026
:1041500060EC00080000000000000000000000000B
:104160002DE9F043DFF800813C4FD8F80030BE69FC
:1041700083B005460193002864D0202383F311887F
:10418000FFF7B6FDFEF7A4FD336C002B5ED09B68F5
:10419000B34202D03248FEF7FBFC2B69002B49DD0D
:1041A000013B2B615BBB336CAB4202D02C48FEF76A
:1041B000EFFCEB683364FEF783FE2B689D423ED034
:1041C000D6E910495CB1FEF77BFE23689C4203D020
:1041D0009B68994538BF9946E468002CF3D1C6F82E
:1041E00008902B6801222A611A682A605560AB602A
:1041F0001A6CEA6018461D640021FFF779F8FEF793
:1042000087FDFFF78DFD3B68BB4204D0BA699B6810
:1042100092689A420AD3002383F31188019AD8F84E
:1042200000309A4217D103B0BDE8F0830D48FEF785
:10423000AFFCF0E70A48FEF7ABFC2B69B0E70023C0
:10424000AB60DCE70648FEF7A3FC96E70448FEF700
:104250009FFC336C9BE7FDF703F800BF701C002048
:1042600090EC000860EC000800080020000000004E
:1042700070B5114E82B0044633680193FEF7F8FD25
:104280009CB12068A0420AD06FF00105036823604A
:104290005C60FEF735FF85622068A042F6D1019A86
:1042A00033689A4205D102B070BD0448FEF770FC35
:1042B000E7E7FCF7D5FF00BF00080020B0EC0008DE
:1042C00030B5164C83B0236801930546202383F351
:1042D0001188FFF70DFDFEF7FBFC2846FFF7C8FF2E
:1042E000FFF7EEF8FEF714FDFFF71AFD0C4B1A6806
:1042F0009A4204D0996993688A689A4208D3002345
:1043000083F31188019A23689A4205D103B030BD26
:104310000448FEF73DFCF2E7FCF7A2FF000800208E
:10432000701C0020A0EC000800000000000000004D
:1043300070B5184E82B00446336801930D46FEF7FF
:1043400097FD0CB3E16B94F8203029430A2BE1630D
:1043500016D00B2B05D0019A33689A4218D102B0BF
:1043600070BDA36A8B43F6D1019A336800219A424B
:10437000A1620DD1204602B0BDE87040FEF7C0BE7C
:10438000A36A1942F0D1E6E70348FEF701FCD9E73A
:10439000FCF766FF00080020F0EC000800000000B9
:1043A000F0B5134F83B006463B6801930D46FEF708
:1043B0005FFDB6B13468A6420DD0E3682B43E360DD
:1043C00015B12269134203D0D4E90101FFF7B0FF10
:1043D0002468A642F1D1019A3B689A4205D103B004
:1043E000F0BD0448FEF7D4FBE4E7FCF739FF00BF5B
:1043F00000080020D0EC00080000000000000000D1
:1044000070B50C4CC16082B0266801960A44006009
:10441000019E02612268069D4060C0E90511964236
:104420004FF00001C3618160056201D102B070BD2F
:10443000FCF716FF0008002000000000000000004C
:1044400030B50D4D83B02B6801930446FEF710FD87
:1044500001992A68E368A36100209142A06063612A
:1044600007D120466FF0010103B0BDE83040FFF7EF
:10447000F7BAFCF7F5FE00BF0008002000000000BE
:1044800070B5164D82B004462B6801930E46FEF7B8
:10449000EFFCFEF7EDFCD4E905239A42A36816D0A1
:1044A0000133511CA36061611670D4E904329A4251
:1044B0000AD220460021FFF7A3FA0020019A2B68B8
:1044C0009A4209D102B070BDE3686361F1E7002B45
:1044D000E6D06FF00300F1E7FCF7C2FE0008002011
:1044E000F0B5234F83B03B68019304460E4620236A
:1044F00083F31188FFF7FCFBFEF7EAFBE36943B1A6
:104500002046984705E031462046FFF751FA051E40
:1045100010DBFEF7ADFCA368002BF4D0A169206985
:104520004A1C013B8242A360A26128BFE3680D7868
:1045300028BFA361FEF7ECFBFFF7F2FB0D4B1A68F7
:104540009A4204D0996993688A689A4209D30023F1
:1045500083F31188019A3B689A42284605D103B03B
:10456000F0BD0548FEF714FBF1E7FCF779FE00BF4C
:1045700000080020701C002000ED00080000000072
:104580002DE9F04FDFF8F490044685B0D9F800002B
:1045900003908A461D46D4F81C809346002A60D0BA
:1045A000202383F311880193FFF7A2FBFEF790FB12
:1045B0002F4E0027B8F1000F07D02046C04704E077
:1045C00029462046FFF7F4F960BBFEF751FCA368CB
:1045D000002BF5D0A269013B511CA161A3601378A7
:1045E0000AF8013B2369A2699A4224BFE368A361E8
:1045F000FEF78EFBFFF794FB3368B34204D0B26939
:104600009B6892689A4228D3002383F3118801376C
:10461000BB4519D0019B83F31188FFF769FBFEF7B7
:1046200057FBC7E7FEF774FBFFF77AFB3368B3422B
:1046300007D0B2699B6892689A4202D20D48FEF791
:10464000A7FA002383F31188039AD9F800309A421D
:1046500038460AD105B0BDE8F08F0648FEF798FA53
:10466000D2E70548FEF794FA9AE7FCF7F9FD00BF98
:10467000701C002000ED000810ED0008000800206C
:1046800070B50B4D82602E68C16082B0C0E9000039
:1046900001960A44019E02612A68069C9642C0E97E
:1046A0000511C0E9073401D102B070BDFCF7D8FD97
:1046B00000080020000000000000000000000000D2
:1046C00030B50D4D83B004462B680193FEF7D0FB47
:1046D000D4E9032301982968A2619B1A8842626188
:1046E000A36007D120466FF0010103B0BDE8304060
:1046F000FFF7B6B9FCF7B4FD000800200000000089
:104700002DE9F0412E4F82B03B6801930446884664
:104710001646202383F31188FFF7EAFAFEF7D8FA4A
:1047200005E031462046FFF743F9051E2DDBFEF775
:104730009FFBA368002BF4D06269013B511C6161AF
:10474000A36082F80080D4E904329A4224BFE3686F
:104750006361E3690BB120469847FEF7D9FAFFF78A
:10476000DFFA184B1A689A4204D0996993688A68EC
:104770009A421ED3002585F31188019A3B689A421C
:1047800028461AD102B0BDE8F081FEF7C1FAFFF762
:10479000C7FA0C4B1A689A4207D0996993688A68DD
:1047A0009A4202D20848FEF7F3F9002383F31188F6
:1047B000E3E70548FEF7ECF9DCE7FCF751FD00BF45
:1047C00000080020701C002000ED00080000000020
:1047D00070B5154E82B0044633680193FEF748FB6E
:1047E000FEF746FBD4E905329342A36815D0206951
:1047F000511C0133A360A161814215780AD2204681
:104800000021FFF7FDF82846019A33689A4209D142
:1048100002B070BDE368A361F1E7002BE7D06FF051
:104820000200F1E7FCF71CFD00080020000000007A
:104830002DE9F04F04463B48D4F81C90006885B041
:104840000D46039001931646002A61D04FF0200ACE
:104850008AF31188FFF74CFAFEF73AFA4FF0000896
:10486000314FC346FEF704FBA368002B32D06269C8
:10487000013B511C6161A3602B781370D4E90432B1
:104880009A4224BFE36863610135B9F1000F01D09A
:104890002046C847FEF73CFAFFF742FA3B68BB42A6
:1048A00007D0BA699B6892689A4202D21F48FEF705
:1048B0006FF98BF31188013E08F101081FD08AF3CC
:1048C0001188FFF715FAFEF703FAFEF7D1FAA3688D
:1048D000002BCCD101992046FFF76AF80028C1D0FF
:1048E000FEF716FAFFF71CFA3B68BB4204D0BA6920
:1048F0009B6892689A420FD3002383F31188094B77
:10490000039A1B689A4240460AD105B0BDE8F08F71
:104910000748FEF73DF999E70448FEF739F9EBE758
:10492000FCF79EFC00080020701C002000ED000831
:1049300020ED000800000000000000000000000062
:1049400030B50B490B4A0B680B4D0C4C83B022F071
:104950000702019301980A4B09682A6023F00703B4
:104960008842236001D103B030BDFCF779FC00BF61
:1049700000080020572B0020E4220020E022002025
:104980000000022000000000000000000000000005
:1049900070B51C4E82B0336801930446202383F324
:1049A0001188FFF7A5F9FEF793F9FEF761FA164AA9
:1049B000164B15681B68E01D20F007005B1B984232
:1049C0009ABF401910600025FEF7A2F9FFF7A8F979
:1049D0000F4B1A689A4204D0996993688A689A4280
:1049E00009D3002383F31188019A33689A42284639
:1049F00005D102B070BD0748FEF7CAF8F1E7FCF731
:104A00002FFC00BF00080020E4220020E02200204C
:104A1000701C002040ED00080000000000000000B5
:104A200000B50B4B0B481A6883B0019201991A68C4
:104A3000094B036091424FF00003C0E9023305D1F6
:104A4000103003B05DF804EBFFF76ABAFCF708FC1E
:104A500000080020E8220020914900080000000022
:104A600080B50D4A0D4982B000AF13687B604B687A
:104A700023F001034B60EFF30983683383F3098864
:104A8000002383F3118879681368994202D10837AB
:104A9000BD4680BDFCF7E4FB0008002030EF00E0DD
:104AA000B0B5194C82B000AF23687B60202383F33C
:104AB0001188164B5B6813F4006308D183F31188E7
:104AC0007A6823689A421DD10837BD46B0BDF1EE21
:104AD000103AEFF309854FF080720D4B45F84C2CDE
:104AE000DB6845F8083CA5F1680383F30988FEF705
:104AF00047FC18B1074B45F8503CE1E7064B45F839
:104B0000503CDDE7FCF7ACFB0008002000ED00E0C6
:104B100030EF00E0E1020008F402000800000000AD
:104B200010B5184C82B02368019302F029FD164895
:104B300004F0BEF900F0D4F800F0EAF900F030FA21
:104B400000F05EFA00F08CFA00F0BAFA00F0E8FA31
:104B500000F016FB01F064F901F06AF801F030FD95
:104B600001F076FD01F064FB06F0D2F8019A2368AB
:104B70009A4204D102B0BDE8104001F051BDFCF7EB
:104B80006FFB00BF00080020D0F20008000000000A
:104B9000F0B51A4D83B02B68019391420E4614462E
:104BA000074619D38B1A1F2B16D806F01F03581C63
:104BB0006209012376098340B24203F1FF3304F016
:104BC0001F0457F822000BD31840E040019A2B68CD
:104BD0009A4210D103B0F0BD0948FDF7D9FFE4E7D0
:104BE00057F82610C4F120020B4020FA04F403FA0F
:104BF00002F02043EAE7FCF733FB00BF0008002087
:104C000050ED00080000000000000000000000005F
:104C1000F0B51D4E83B033680193054670B37E2214
:104C20007F212846FFF7B4FF80B1012806D000207D
:104C3000019A33689A4225D103B0F0BD284630224C
:104C40004521FFF7A5FF01308002F1E73E2249210F
:104C50002846FFF79DFF2F22044631212846FFF703
:104C600097FF5022074653212846FFF791FF013452
:104C700002370938BC4004FA00F0D9E70348FDF7D1
:104C800087FFCCE7FCF7ECFA0008002070ED000885
:104C9000F0B5104D83B02B680193044698B194F899
:104CA000D63094F8D770019994F8D4602A6894F8B3
:104CB000D5001B0403EB07633344914203EB002050
:104CC00005D103B0F0BD0448FDF762FFE7E7FCF74C
:104CD000C7FA00BF0008002090ED000800000000A7
:104CE00000B5074B83B01A680192019A1B689A427B
:104CF00004D103B05DF804EB02F002BDFCF7B0FA9A
:104D0000000800200000000000000000000000007B
:104D100000B50C4B83B01A68019201220270019910
:104D20001A6800239142C0E90133C0E903334361AB
:104D300005D1183003B05DF804EBFFF7F1B8FCF7CC
:104D40008FFA00BF000800200000000000000000F3
:104D500070B51D4D82B02B6801930E46044668B3B2
:104D6000202383F31188FEF7C3FFFDF7B1FF2378FB
:104D7000013B012B02D91548FDF70AFF204666606A
:104D800002F00EFD02232370FDF7C2FFFEF7C8FFFD
:104D90000F4B1A689A4204D0996993688A689A42BC
:104DA00008D3002383F31188019A2B689A4209D112
:104DB00002B070BD0748FDF7EBFEF2E70348FDF7D0
:104DC000E7FECDE7FCF74CFA00080020C0ED000834
:104DD000701C0020B0ED0008000000000000000082
:104DE0002DE9F041174D82B00446286801900E4627
:104DF00090461F46FEF73CF83CB136B1B8F1000FC3
:104E000003D0012F04D0FB0702D50F48FDF7C0FEE9
:104E10002378022B05D0043B012B02D90A48FDF769
:104E2000B7FE03232370019A2B6826619A42C4E9D6
:104E3000028705D1204602B0BDE8F04102F030BD46
:104E4000FCF70EFA00080020D0ED0008000000007A
:104E50002DE9F041184C82B0256801959846054629
:104E60000E461746202383F31188FEF741FFFDF716
:104E70002FFF43463A4631462846FFF7B1FFFDF77C
:104E800047FFFEF74DFF0D4B1A689A4204D099690F
:104E900093688A689A4209D3002383F31188019AA0
:104EA00023689A4206D102B0BDE8F0810448FDF7BC
:104EB0006FFEF1E7FCF7D4F900080020701C002019
:104EC000B0ED00080000000000000000000000003D
:104ED00030B50B4C83B023680193054650B1019A5D
:104EE00023689A420AD105F1180003B0BDE83040AA
:104EF000FFF7FEB80348FDF74BFEF0E7FCF7B0F90B
:104F000000080020F0ED0008000000000000000094
:104F100000B5074B83B01A680192019A1B689A4248
:104F200004D103B05DF804EB03F00ABBFCF798F979
:104F30000008002000000000000000000000000049
:104F400030B5134B83B01A68019201220270019CA4
:104F50001968002200F1180300F11C05426083610A
:104F600000F1200200F12403C561026200F128056E
:104F700000F1080243628C4200F110038562C0E92F
:104F80000222C0E9043301D103B030BDFCF768F957
:104F900000080020000000000000000000000000E9
:104FA00000B5074B83B01A680192019A1B689A42B8
:104FB00004D103B05DF804EB03F05ABFFCF750F9DD
:104FC00000080020000000000000000000000000B9
:104FD00000B50A4B83B01A68019201220270019950
:104FE0001A6800239142C0E9043305D1183003B098
:104FF0005DF804EBFEF794BFFCF732F900080020DF
:1050000000B5074B83B01A680192019A1B689A4257
:1050100004D103B05DF804EB03F0B2BAFCF720F959
:105020000008002000000000000000000000000058
:1050300000B5084B83B01A68019201220270019AF0
:105040001B6800219A42416002D103B05DF804FB65
:10505000FCF706F900080020000000000000000036
:1050600000B5074B83B01A680192019A1B689A42F7
:1050700004D103B05DF804EB05F022BAFCF7F0F8B8
:1050800000080020000000000000000000000000F8
:1050900000B5084B83B01A68019201220270019A90
:1050A0001B6800219A42416002D103B05DF804FB05
:1050B000FCF7D6F800080020000000000000000007
:1050C00000B5074B83B01A680192019A1B689A4297
:1050D00004D103B05DF804EB04F002B9FCF7C0F8AA
:1050E0000008002000000000000000000000000098
:1050F00000B50A4B83B01A68019201220270019A2E
:105100001B6800219A42416005D10C3003B05DF864
:1051100004EBFEF705BFFCF7A3F800BF0008002072
:1051200000B5074B83B01A680192019A1B689A4236
:1051300004D103B05DF804EB05F0E2B8FCF790F899
:105140000008002000000000000000000000000037
:1051500000B5084B83B01A68019201220270019ACF
:105160001B6800219A42416002D103B05DF804FB44
:10517000FCF776F8000800200000000000000000A6
:1051800000B5074B83B01A680192019A1B689A42D6
:1051900004D103B05DF804EB05F082BAFCF760F8C7
:1051A00000080020000000000000000000000000D7
:1051B00000B5094B83B01A6801920122027001996F
:1051C0001A68002391424360C360037402D103B0A4
:1051D0005DF804FBFCF744F8000800200000000024
:1051E00070B5214E82B0336801930D460446002805
:1051F00033D0002931D0202383F31188FEF778FDC6
:10520000FDF766FD2378013B012B02D91748FDF716
:10521000BFFC65606B68A360204605F081FA002240
:105220000223E2602370FDF773FDFEF779FD104B5A
:105230001A689A4204D0996993688A689A4208D396
:10524000002383F31188019A33689A4209D102B08E
:1052500070BD0848FDF79CFCF2E70448FDF798FC98
:10526000C9E7FBF7FDFF00BF0008002010EE0008B3
:10527000701C002000EE000800000000000000008C
:1052800070B51C4E82B0336801930C46054650B38E
:10529000202383F31188FEF72BFDFDF719FD2B78F2
:1052A000022B02D01448FDF773FCAB69AC60013CE3
:1052B000DC62FDF72DFDFEF733FD104B1A689A42B4
:1052C00004D0996993688A689A4208D3002383F3CB
:1052D0001188019A33689A4209D102B070BD08481A
:1052E000FDF756FCF2E70448FDF752FCD0E7FBF768
:1052F000B7FF00BF0008002020EE0008701C00204F
:1053000000EE0008000000000000000000000000A7
:10531000F0B5214E83B0336801930D46174604461D
:1053200078B3037C8B422CD9202383F31188FEF7BA
:10533000DFFCFDF7CDFC2378022B02D01748FDF7E8
:1053400027FCE3680122AA401343E3603A4629465A
:10535000204605F0CDFAFDF7DBFCFEF7E1FC104B33
:105360001A689A4204D0996993688A689A420CD361
:10537000002383F31188019A33689A4209D103B05C
:10538000F0BD0648FDF704FCCEE70648FDF700FC3B
:10539000EEE7FBF765FF00BF0008002030EE0008D5
:1053A000701C002000EE000800000000000000005B
:1053B00070B5204E82B0336801930D46044678B331
:1053C000037C8B422CD9202383F31188FEF790FCB9
:1053D000FDF77EFC2378022B02D01748FDF7D8FB9F
:1053E000E3680122AA4023EA0203E360294620463B
:1053F00005F096FAFDF78CFCFEF792FC0F4B1A684D
:105400009A4204D0996993688A689A420CD300231F
:1054100083F31188019A33689A4209D102B070BDB2
:105420000548FDF7B5FBCEE70548FDF7B1FBEEE714
:10543000FBF716FF0008002050EE0008701C00204B
:1054400000EE000800000000000000000000000066
:1054500030B51E4D83B02B680193044680B32023E2
:1054600083F31188FEF744FCFDF732FC2378022B0E
:1054700002D01748FDF78CFB63689B68E3B12046B8
:1054800005F06EFAFDF744FCFEF74AFC114B1A6872
:105490009A4204D0996993688A689A4208D3002393
:1054A00083F31188019A2B689A420DD103B030BD65
:1054B0000948FDF76DFBF2E70548FDF769FBDEE7FC
:1054C0000348FDF765FBCAE7FBF7CAFE00080020AA
:1054D00070EE0008701C002000EE000800000000C4
:1054E00070B5294E82B0336801930D4604460028FA
:1054F00032D0037C8B422FD9202383F31188FEF70F
:10550000F7FBFDF7E5FB2378022B02D01F48FDF7E0
:105510003FFBE368EB40DB0726D5636803EBC5037D
:105520001B6953B32946204605F03AFAFDF7F0FB14
:10553000FEF7F6FB164B1A689A4204D099699368F5
:105540008A689A420CD3002383F31188019A336846
:105550009A4216D102B070BD0C48FDF719FBCBE79B
:105560000C48FDF715FBEEE70848FDF711FB6368F3
:1055700003EBC5031B69002BD4D10448FDF708FBDE
:10558000D0E7FBF76DFE00BF0008002090EE00089A
:10559000701C002000EE0008000000000000000069
:1055A00070B5104D82B02B6801930E46044650B181
:1055B00049B12379052B0CD00120019A2B689A421E
:1055C0000ED102B070BD0848FDF7E2FA2379052B31
:1055D000F2D1A36A73604FF4007333600020ECE7EC
:1055E000FBF73EFE0008002020EF0008000000004E
:1055F0002DE9F047DFF89C8386B002AFD8F8003081
:10560000FB600446002800F019812379022B01D0A9
:10561000052B2BD103232371204603F049F80022E8
:105620001146204603F0BCF807F108034FF4D57289
:105630000821204603F0FCF8E0B9BB680122C3F35F
:1056400003239342226300F0FD80204603F068F8B4
:10565000022323710125FA68D8F800309A422846BF
:1056600040F046811037BD46BDE8F087C048FDF7E1
:105670008FFACFE707F1080300223721204603F015
:10568000D7F8002840F0BE80BB68BA4A1A40002A0A
:1056900040F0B88022631146204603F081F8266B63
:1056A00006F00F03022B00F0AF80B34EB34ADFF8D1
:1056B000C492012B18BF1646642504E0013DC4D0F6
:1056C0000A20FEF73DF807F10803002237212046A3
:1056D00003F0AEF80028B8D1BB6813EA090FB4D1C3
:1056E00007F1080332462921204603F079F8002803
:1056F000ABD1BB68002BE1DA5B0003D5236B43F031
:105700001003236304F1080300220221204603F062
:1057100087F9002899D1024604F138030321204675
:1057200003F086F8002890D104F118052B46A26BEF
:105730000921204603F074F9002886D13B1DA26B95
:105740000721204603F074F8824600287FF47DAFDD
:10575000236B03F00F03022B00F097806E467E222E
:1057600090B07F212846FFF713FA0DF108090028B1
:1057700079D10146B546204602F0BAFF236B03F00B
:105780000F03022B00F096802846FFF741FAA06233
:105790003B1D4FF400721021204603F049F80546E6
:1057A00000287FF452AF7B68724E33427FF44DAFD6
:1057B000236B03F00F03012B40F2B280022B7FF426
:1057C00044AFE36A1A79012A00F0A88017D3022AAD
:1057D00040F0E2806A4E1979204602F0B9FF07F1E5
:1057E000080332460621204603F022F800287FF401
:1057F0002CAFBA685F4B1340002B7FF426AF052314
:10580000237128E7022323635E4E642505E0013DF2
:105810003FF41BAF0A20FDF793FF07F10803324660
:105820000121204602F0DCFF00287FF40EAFBB68A8
:10583000002BECDA5B007FF565AF5FE74C48FDF7C6
:10584000A7F9E2E6024607F108033721204602F0F5
:10585000EFFF00287FF4F9AEBA68464B1340002BE7
:105860007FF4F3AE1BE7CDF800A0062340224946A3
:10587000204603F005F900284ED199F80D3013F0B9
:10588000020337D11946B54675E7E36A1B687BB159
:1058900007F108033C4A0621204602F0C9FF38B947
:1058A000BB6834491940B1FA81F1490963E7B5464B
:1058B000002160E77E227F212846FFF769F9012851
:1058C0007FF662AFE36A1D68002D3FF4BEAE002391
:1058D00000934FF4007208232946204603F0D0F8C5
:1058E00000287FF4B2AE2846FFF7D2F9A0624FE756
:1058F000FBF7B6FC254B0093402206234946204681
:1059000003F0BEF840B999F8103003F00F030F2BE5
:10591000CDD0B54601212EE7B54696E61C4E5AE796
:10592000E36A197900293FF46AAF01297FF48DAE4B
:10593000204602F00DFF07F10803A26B3721204635
:1059400002F076FF00287FF480AEBB6833427FF41C
:105950007CAE07F1080302220621204602F068FF10
:1059600000287FF472AEBB6833423FF448AF6CE668
:10597000D0EE000808E0FFFD000010C0000010801D
:105980000002B7030080FFC00001B903F1FFFF80F0
:105990000001B703000800200248034EFDF7F8F8A5
:1059A000E36A18E7B0EE00080000B703000000004B
:1059B0002DE9F041194D82B02C6801940F469046B4
:1059C0001E460446C0B1BAB1B3B12379052B02D04B
:1059D0001348FDF7DDF8781EA36A304498420FD9CA
:1059E000636B43F0800363630120019A2B689A4242
:1059F00011D102B0BDE8F0810948FDF7C9F8E4E72C
:105A000006203346207142463946204603F098F975
:105A100005232371E9E7FBF723FC00BF0008002002
:105A2000F0EE000800000000000000000000000090
:105A30002DE9F041194D82B02C6801940F46904633
:105A40001E460446C0B1BAB1B3B12379052B02D0CA
:105A50001348FDF79DF8781EA36A304498420FD989
:105A6000636B43F0800363630120019A2B689A42C1
:105A700011D102B0BDE8F0810948FDF789F8E4E7EB
:105A800007203346207142463946204603F098F9F4
:105A900005232371E9E7FBF7E3FB00BF00080020C3
:105AA00000EF0008000000000000000000000000FF
:105AB00070B50E4D82B02B680193044680B12679F3
:105AC000052E06D00120019A2B689A420CD102B013
:105AD00070BD08232371204603F0B2F92671F2E766
