:020000040800F2
:1000000000040020C1010008814A0008814A00085C
:10001000E13A0008814A0008814A0008814A000844
:10002000814A0008814A0008814A0008016D0008E1
:10003000814A0008814A0008814A000831E5000829
:10004000814A0008D1AC000861AE0008B1AE0008DA
:10005000814A0008814A000811AA000861AA000824
:10006000B1AA000801AB000851AB0008619C000870
:10007000B19C0008019D0008519D0008A19D000849
:10008000F19D0008419E000851A7000851B00008EA
:10009000C1B0000871B1000821B20008A1AB00088E
:1000A000814A0008814A000801DE0008814A0008F0
:1000B000F1E0000831E1000871E1000841C30008E7
:1000C00081C40008814A0008814A0008814A00086A
:1000D000814A0008814A0008814A0008F1E50008C9
:1000E00031AC000821AD000871AD000841DE000808
:1000F000814A0008814A0008814A0008919E000850
:10010000814A0008B1B30008B1E10008814A000843
:10011000814A0008814A0008C1DD0008814A0008C0
:10012000E19E0008319F0008819F0008D19F0008D0
:1001300021A00008814A0008C1AD0008814A0008DA
:10014000814A0008814A0008814A000861D70008F6
:1001500071A00008C1A0000811A10008814A000890
:10016000814A0008814A0008814A0008814A000843
:1001700011AE0008814A0008E1240008814A000805
:10018000814A0008814A0008814A0008814A000823
:10019000814A0008814A0008814A0008814A000813
:1001A000814A0008814A0008814A0008814A000803
:1001B000814A0008814A0008814A0008814A0008F3
:1001C00072B62E4880F3098840F20000CCF200009D
:1001D0004EF63471CEF20001086040F20000C0F229
:1001E000F0004EF68851CEF2000108604FF000009A
:1001F000E1EE100A4EF63C71CEF2000108600620D6
:1002000080F31488BFF36F8F0EF03AFB4FF0553038
:100210001B491C4A91423CBF41F8040BFAE71A49BA
:10022000164A91423CBF41F8040BFAE71749184AB5
:10023000184B9A423EBF51F8040B42F8040BF8E702
:1002400000201549154A91423CBF41F8040BFAE7DA
:1002500004F0FEFB124C134DAC4203DA54F8041BBD
:100260008847F9E701F094F90F4C104DAC4203DADE
:1002700054F8041B8847F9E704F0FABB0008002093
:10028000000000200004002000040020F83F0108C6
:100290000008002044120020481200205865002069
:1002A000C0010008C0010008C0010008C00100082A
:1002B0002DE9F04F2DED108AC1F80CD0D0F80CD0FC
:1002C000BDEC108ABDE8F08F04F01AFD05F080FD4A
:1002D000002383F311882846A047002005F0E8FAA0
:1002E00005F05EFD04F0ECFC05F00AF904F008FDF1
:1002F00005F06EFD00DFFEE70000000000000000DA
:1003000081F0004102E000BF83F0004330B54FEAC6
:1003100041044FEA430594EA050F08BF90EA020F33
:100320001FBF54EA000C55EA020C7FEA645C7FEAC6
:10033000655C00F0E2804FEA5454D4EB5555B8BFE9
:100340006D420CDD2C4480EA020281EA030382EA5A
:10035000000083EA010180EA020281EA0303362DEC
:1003600088BF30BD11F0004F4FEA01314FF4801CBF
:100370004CEA113102D0404261EB410113F0004FD1
:100380004FEA03334CEA133302D0524263EB430388
:1003900094EA050F00F0A780A4F10104D5F1200E26
:1003A0000DDB02FA0EFC22FA05F2801841F1000181
:1003B00003FA0EF2801843FA05F359410EE0A5F155
:1003C00020050EF1200E012A03FA0EFC28BF4CF086
:1003D000020C43FA05F3C01851EBE37101F000453C
:1003E00007D54FF0000EDCF1000C7EEB00006EEB49
:1003F0000101B1F5801F1BD3B1F5001F0CD34908D3
:100400005FEA30004FEA3C0C04F101044FEA445229
:1004100012F5800F80F09A80BCF1004F08BF5FEAB0
:10042000500C50F1000041EB045141EA050130BD90
:100430005FEA4C0C404141EB010111F4801FA4F133
:100440000104E9D191F0000F04BF01460020B1FA88
:1004500081F308BF2033A3F10B03B3F120020CDAC0
:100460000C3208DD02F1140CC2F10C0201FA0CF09E
:1004700021FA02F10CE002F11402D8BFC2F1200C03
:1004800001FA02F120FA0CFCDCBF41EA0C019040B9
:10049000E41AA2BF01EB0451294330BD6FEA040402
:1004A0001F3C1CDA0C340EDC04F11404C4F12002ED
:1004B00020FA04F001FA02F340EA030021FA04F3FF
:1004C00045EA030130BDC4F10C04C4F1200220FA56
:1004D00002F001FA04F340EA0300294630BD21FA94
:1004E00004F0294630BD94F0000F83F4801306BF5A
:1004F00081F480110134013D4EE77FEA645C18BF4E
:100500007FEA655C29D094EA050F08BF90EA020FE4
:1005100005D054EA000C04BF1946104630BD91EADC
:10052000030F1EBF0021002030BD5FEA545C05D1DF
:100530004000494128BF41F0004130BD14F580041E
:100540003CBF01F5801130BD01F0004545F0FE4192
:1005500041F470014FF0000030BD7FEA645C1ABFC7
:10056000194610467FEA655C1CBF0B46024650EAFE
:10057000013406BF52EA033591EA030F41F400212A
:1005800030BD00BF90F0000F04BF0021704730B5B0
:100590004FF4806404F132044FF000054FF0000185
:1005A00050E700BF90F0000F04BF0021704730B546
:1005B0004FF4806404F1320410F0004548BF40421B
:1005C0004FF000013EE700BF42004FEAE2014FEA70
:1005D00031014FEA02701FBF12F07F4393F07F4F4B
:1005E00081F06051704732F07F4208BF704793F04E
:1005F0007F4F04BF41F40021704730B54FF4607461
:1006000001F0004521F000411CE700BF50EA010263
:1006100008BF704730B54FF000050AE050EA01020C
:1006200008BF704730B511F0004502D5404261EB7C
:1006300041014FF4806404F132045FEA915C3FF4BD
:10064000D8AE4FF003025FEADC0C18BF03325FEA5A
:10065000DC0C18BF033202EBDC02C2F1200300FA0B
:1006600003FC20FA02F001FA03FE40EA0E0021FA30
:1006700002F11444BDE600BF0000000000000000CD
:1006800070B54FF0FF0C4CF4E06C1CEA11541DBF28
:100690001CEA135594EA0C0F95EA0C0F00F0DEF8F3
:1006A0002C4481EA030621EA4C5123EA4C5350EAD8
:1006B000013518BF52EA033541F4801143F4801329
:1006C00038D0A0FB02CE4FF00005E1FB02E506F0BA
:1006D0000042E0FB03E54FF00006E1FB03569CF00F
:1006E000000F18BF4EF0010EA4F1FF04B6F5007F15
:1006F00064F5407404D25FEA4E0E6D4146EB060687
:1007000042EAC62141EA55514FEAC52040EA5E500F
:100710004FEACE2EB4F1FD0C88BFBCF5E06F1ED8B9
:10072000BEF1004F08BF5FEA500E50F1000041EBF0
:10073000045170BD06F0004646EA010140EA02009D
:1007400081EA0301B4EB5C04C2BFD4EB0C0541EABF
:10075000045170BD41F480114FF0000E013C00F3D4
:10076000AB8014F1360FDEBF002001F0004170BDF8
:10077000C4F10004203C35DA0C341BDC04F1140411
:10078000C4F1200500FA05F320FA04F001FA05F29D
:1007900040EA020001F0004221F0004110EBD3706A
:1007A00021FA04F642EB06015EEA430E08BF20EA96
:1007B000D37070BDC4F10C04C4F1200500FA04F339
:1007C00020FA05F001FA04F240EA020001F00041CB
:1007D00010EBD37041F100015EEA430E08BF20EA3E
:1007E000D37070BDC4F1200500FA05F24EEA020E86
:1007F00020FA04F301FA05F243EA020321FA04F0B5
:1008000001F0004121FA04F220EA020000EBD3706B
:100810005EEA430E08BF20EAD37070BD94F0000F6B
:100820000FD101F00046400041EB010111F4801F9F
:1008300008BF013CF7D041EA060195F0000F18BF50
:10084000704703F00046520043EB030313F4801F8C
:1008500008BF013DF7D043EA0603704794EA0C0F46
:100860000CEA135518BF95EA0C0F0CD050EA41065C
:1008700018BF52EA4306D1D181EA030101F00041D9
:100880004FF0000070BD50EA410606BF1046194601
:1008900052EA430619D094EA0C0F02D150EA01360D
:1008A00013D195EA0C0F05D152EA03361CBF10464E
:1008B00019460AD181EA030101F0004141F0FE41ED
:1008C00041F470014FF0000070BD41F0FE4141F471
:1008D000780170BD70B54FF0FF0C4CF4E06C1CEA71
:1008E00011541DBF1CEA135594EA0C0F95EA0C0F26
:1008F00000F0A7F8A4EB050481EA030E52EA0335E1
:100900004FEA013100F088804FEA03334FF0805501
:1009100045EA131343EA12634FEA022245EA11152E
:1009200045EA10654FEA00260EF000419D4208BFDF
:10093000964244F1FD0404F5407402D25B084FEA8C
:100940003202B61A65EB03055B084FEA32024FF438
:1009500080104FF4002CB6EB020E75EB030E22BF95
:10096000B61A754640EA0C005B084FEA3202B6EB55
:10097000020E75EB030E22BFB61A754640EA5C0004
:100980005B084FEA3202B6EB020E75EB030E22BF94
:10099000B61A754640EA9C005B084FEA3202B6EB95
:1009A000020E75EB030E22BFB61A754640EADC0054
:1009B00055EA060E18D04FEA051545EA16754FEAB6
:1009C00006164FEAC30343EA52734FEAC2025FEAD4
:1009D0001C1CC0D111F4801F0BD141EA00014FF063
:1009E00000004FF0004CB6E711F4801F04BF014334
:1009F0000020B4F1FD0C88BFBCF5E06F3FF6AFAE50
:100A0000B5EB030C04BFB6EB020C5FEA500C50F1DF
:100A1000000041EB045170BD0EF0004E4EEA113162
:100A200014EB5C04C2BFD4EB0C0541EA045170BD69
:100A300041F480114FF0000E013C90E645EA060EAD
:100A40008DE60CEA135594EA0C0F08BF95EA0C0FDB
:100A50003FF43BAF94EA0C0F0AD150EA01347FF423
:100A600034AF95EA0C0F7FF425AF104619462CE7FA
:100A700095EA0C0F06D152EA03353FF4FDAE10465D
:100A8000194622E750EA410618BF52EA43067FF4AE
:100A9000C5AE50EA41047FF40DAF52EA43057FF43E
:100AA000EBAE12E7000000000000000000000000B4
:100AB0004FF0FF3C06E000BF4FF0010C02E000BF2A
:100AC0004FF0010C4DF804CD4FEA410C7FEA6C5C0D
:100AD0004FEA430C18BF7FEA6C5C1BD001B050EAB0
:100AE000410C0CBF52EA430C91EA030F02BF90EA9B
:100AF000020F0020704710F1000F91EA030F58BF5A
:100B0000994208BF90422CBFD8176FEAE37040F0BB
:100B1000010070474FEA410C7FEA6C5C02D150EA59
:100B2000013C07D14FEA430C7FEA6C5CD6D152EA14
:100B3000033CD3D05DF8040B704700BF84461046D9
:100B400062468C461946634600E000BF01B5FFF7D8
:100B5000B7FF002848BF10F1000F01BD4DF808EDA8
:100B6000FFF7F4FF0CBF012000205DF808FB00BF79
:100B70004DF808EDFFF7EAFF34BF012000205DF8D3
:100B800008FB00BF4DF808EDFFF7E0FF94BF012020
:100B900000205DF808FB00BF4DF808EDFFF7CEFF21
:100BA00094BF012000205DF808FB00BF4DF808ED60
:100BB000FFF7C4FF34BF012000205DF808FB00BF31
:100BC0004FEA410212F5001215D211D56FF4787375
:100BD000B3EB625212D94FEAC12343F0004343EA18
:100BE000505311F0004F23FA02F018BF40427047F3
:100BF0004FF00000704750EA013005D111F000407D
:100C000008BF6FF0004070474FF00000704700BF12
:100C10004FEA4102B2F1E04324BFB3F5001CDCF11E
:100C2000FE5C0DD901F0004C4FEAC0024CEA507056
:100C3000B2F1004F40EB830008BF20F00100704785
:100C400011F0804F21D113F13872BCBF01F0004088
:100C5000704741F480114FEA5252C2F11802C2F1BA
:100C6000200C10FA0CF320FA02F018BF40F001003B
:100C70004FEAC1234FEAD32303FA0CFC40EA0C00ED
:100C800023FA02F34FEA4303CCE77FEA625307D12A
:100C900050EA01331EBF4FF0FE4040F44000704761
:100CA00001F0004040F0FE4040F40000704700BFFB
:100CB00053B94AB9002908BF00281CBF4FF0FF31C3
:100CC0004FF0FF3000F074B9ADF1080C6DE904CEBF
:100CD00000F006F8DDF804E0DDE9022304B0704717
:100CE0002DE9F047089E04468846002B4BD18A42E6
:100CF000154667D9B2FA82F24AB1C2F1200701FA69
:100D000002F320FA07F7954047EA030894404FEAB8
:100D1000154E230CB8FBFEF71FFA85FC0EFB178857
:100D200043EA084307FB0CF1994209D9EB1807F194
:100D3000FF3080F01B81994240F21881023F2B4422
:100D40005B1AA4B2B3FBFEF00EFB103344EA03447B
:100D500000FB0CFCA44509D92C1900F1FF3380F0ED
:100D60000781A44540F2048102382C4440EA074040
:100D7000A4EB0C0400271EB1D4400023C6E90043B5
:100D80003946BDE8F0878B4209D9002E00F0EB8090
:100D90000027C6E9000138463946BDE8F087B3FAB6
:100DA00083F7002F47D18B4202D3824200F2FA80B0
:100DB000841A61EB030301209846002EE0D0C6E9B7
:100DC0000048DDE702B9FFDEB2FA82F2002A40F005
:100DD0008F80491B4FEA154E1FFA85F80127B1FB9A
:100DE000FEFC230C0EFB1C1143EA014308FB0CF133
:100DF000994207D9EB180CF1FF3002D2994200F268
:100E0000CD808446591AA3B2B1FBFEF00EFB10143C
:100E100043EA044408FB00F8A04507D92C1900F167
:100E2000FF3302D2A04500F2B6801846A4EB0804B6
:100E300040EA0C409FE7C7F1200CBB4022FA0CFEB1
:100E40004EEA030E01FA07F420FA0CF521FA0CF32E
:100E50004FEA1E482543B3FBF8F92C0C08FB193365
:100E60001FFA8EFA44EA034309FB0AF49C4202FA91
:100E700007F200FA07F10BD91EEB030309F1FF306B
:100E800080F087809C4240F28480A9F1020973447B
:100E90001B1BADB2B3FBF8F008FB103345EA03446B
:100EA00000FB0AFAA24508D91EEB040400F1FF3347
:100EB0006BD2A24569D90238744440EA0940A0FBCC
:100EC0000289A4EB0A044C45C2464B4654D351D088
:100ED000002E69D0B1EB0A0564EB030404FA0CFCA4
:100EE000FD40FC404CEA0505C6E90054002747E7F1
:100EF000C2F1200320FA03F7954001FA02F021FA2B
:100F000003F34FEA154E3843010CB3FBFEF71FFA0B
:100F100085F80EFB173341EA034107FB08F38B42C8
:100F200004FA02F407D9691807F1FF3C2FD28B426B
:100F30002DD9023F2944CB1A81B2B3FBFEF00EFB40
:100F4000103341EA034100FB08F38B4207D96918CB
:100F500000F1FF3C17D28B4215D902382944C91A37
:100F600040EA07473BE73746304609E70746E7E6EA
:100F70001846FBE64145ABD2B8EB020A69EB0E021C
:100F800001381346A4E76046E9E7184695E7674647
:100F9000D1E781467CE702382C4447E7ACF1020CEC
:100FA0002B442FE7384608E73746E9E60000000003
:100FB000704700BF000000000000000000000000BB
:100FC000844641EA000313F003036DD1403A41D354
:100FD00051F8043B40F8043B51F8043B40F8043B13
:100FE00051F8043B40F8043B51F8043B40F8043B03
:100FF00051F8043B40F8043B51F8043B40F8043BF3
:1010000051F8043B40F8043B51F8043B40F8043BE2
:1010100051F8043B40F8043B51F8043B40F8043BD2
:1010200051F8043B40F8043B51F8043B40F8043BC2
:1010300051F8043B40F8043B51F8043B40F8043BB2
:1010400051F8043B40F8043B51F8043B40F8043BA2
:10105000403ABDD2303211D351F8043B40F8043B42
:1010600051F8043B40F8043B51F8043B40F8043B82
:1010700051F8043B40F8043B103AEDD20C3205D352
:1010800051F8043B40F8043B043AF9D2043208D04A
:10109000D2071CBF11F8013B00F8013B01D30B88BC
:1010A00003806046704700BF082A13D38B078DD09A
:1010B00010F003038AD0C3F10403D21ADB071CBF6C
:1010C00011F8013B00F8013B80D331F8023B20F8D6
:1010D000023B7BE7043AD9D3013A11F8013B00F80F
:1010E000013BF9D20B7803704B7843708B78837097
:1010F0006046704700000000000000000000000093
:1011000090F800F06DE9024520F007016FF0000C47
:1011100010F0070491F820F040F049804FF00004EF
:101120006FF00700D1E9002391F840F000F10800CA
:1011300082FA4CF2A4FA8CF283FA4CF3A2FA8CF302
:101140004BBBD1E9022382FA4CF200F10800A4FA69
:101150008CF283FA4CF3A2FA8CF3E3B9D1E90423BD
:1011600082FA4CF200F10800A4FA8CF283FA4CF3F4
:10117000A2FA8CF37BB9D1E9062301F1200182FAAE
:101180004CF200F10800A4FA8CF283FA4CF3A2FAB4
:101190008CF3002BC6D0002A04BF04301A4612BAC2
:1011A000B2FA82F2FDE8024500EBD2007047D1E9C5
:1011B000002304F00305C4F100004FEAC50514F054
:1011C000040F91F840F00CFA05F562EA05021CBF25
:1011D00063EA050362464FF00004A9E7000000003F
:1011E00001F0FF01102A2BDB10F0070F08D010F8D8
:1011F000013B013A8B422DD010F0070F42B3F6D1DC
:10120000F0B441EA012141EA014122F007047FF0F4
:1012100000070023F0E80256083C85EA010586EA4B
:10122000010685FA47F5A3FA87F586FA47F6A5FA87
:1012300087F68EB9EED1F0BC01F0FF0102F0070293
:1012400032B110F8013B013A83EA010313B1F8D13E
:101250000020704701387047002D06BF354603381F
:10126000073815F0010F07D1013015F4807F02BF58
:10127000013015F4C03F0130F0BC0138704700BFA9
:101280004FEA410C7FEA6C5C02D150EA013C0AD182
:101290004FEA430C7FEA6C5C02D152EA033C02D174
:1012A0004FF0000070474FF0010070470000000051
:1012B00000B5074B07491A68087083B00192019A7C
:1012C0001B689A4202D103B05DF804FB00F0B8F944
:1012D000000800202108002000000000000000009D
:1012E00000B5074B07491A68088883B00192019A34
:1012F0001B689A4202D103B05DF804FB00F0A0F92C
:10130000000800203008002000000000000000005D
:1013100000B5074B07491A68088083B00192019A0B
:101320001B689A4202D103B05DF804FB00F088F913
:10133000000800203008002000000000000000002D
:1013400000B5074B07491A68087083B00192019AEB
:101350001B689A4202D103B05DF804FB00F070F9FB
:10136000000800202008002000000000000000000D
:1013700010B5594B594C1B78226882B00192042B4E
:1013800000F2A180DFE803F0234261800300002324
:1013900019461846FF2202F0C3FA00231946FF221D
:1013A000012002F0BDFA00231946FF22022002F0BC
:1013B000B7FA019A23689A4240F08B8000231946BD
:1013C000FF22032002B0BDE8104002F0A9BAFF23BB
:1013D0001A461946002002F0A3FAFF231A461946BE
:1013E000012002F09DFAFF231A461946022002F05E
:1013F00097FA019A23689A426BD1FF231A4619463D
:10140000032002B0BDE8104002F08ABA0023FF2298
:101410001846114602F084FAFF22114600230120EB
:1014200002F07EFAFF2211460023022002F078FA31
:10143000019A23689A424CD1FF22114600230320CF
:1014400002B0BDE8104002F06BBA0022114610460F
:10145000FF2302F065FA00221146FF23012002F06B
:101460005FFA00221146FF23022002F059FA019A86
:1014700023689A422DD100221146FF23032002B097
:10148000BDE8104002F04CBAFF2300221946104676
:1014900002F046FAFF2319460022012002F040FA2A
:1014A000FF2319460022022002F03AFA019A23682B
:1014B0009A420ED1FF2319460022032002B0BDE854
:1014C000104002F02DBA019A23689A4201D102B06D
:1014D00010BD00F0B5F800BF200800200008002073
:1014E00010B5124C82B000232268019219461A46A8
:1014F000184602F015FA00231A461946012002F098
:101500000FFA00231A461946022002F009FA019A3E
:1015100023689A4208D100231A461946032002B0D4
:10152000BDE8104002F0FCB900F08AF80008002085
:10153000F0B5144D144F2B68144E83B04FF47A74E9
:101540000193FFF715FF388804FB00F000F2E73045
:10155000A6FB0030800904F0EBF8FFF7C1FF019A09
:101560002B689A420CD1388804FB00F000F2E73077
:10157000A6FB0030800903B0BDE8F04004F0D8B805
:1015800000F05EF80008002030080020D34D621003
:1015900080B5204B204F1B68204E214D82B04FF468
:1015A0007A74019305F00CFC03F082FA02F040FA21
:1015B0001C491D4807F07CF903F0BAF803F030F835
:1015C00001F0EEFA01F0DCFB01F05AFC02F030F819
:1015D00002F066FD154A1649164803F089F902F033
:1015E0004FFF02F09DFF00F093FC00F0F1FE0BE0D6
:1015F000FFF79EFF308804FB00F000F2E730A5FB08
:101600000030800904F094F83B78002BF0D1FFF70C
:1016100067FFEFE7000800202108002030080020C5
:10162000D34D621024080020AC6400200408002080
:101630000C080020481200200000000000000000FC
:1016400000B5084B83B01A680192019A1B689A4250
:1016500005D1054803B05DF804EB03F091BAFFF73C
:10166000EFFF00BF000800209028010800000000E4
:1016700070B52DED028B274E274C336882B008EEF3
:10168000100A0020019302F0DBFC002002F0F0FCC5
:101690002068404202F074FC206802F089FC02F0ED
:1016A0009FFC054602F0B4FCDFED1C6A9FED1C6A4E
:1016B000DFED1C7AB8EE488A88EE267AF2EE0A6AE6
:1016C00027EE067A27EE277AC7EE267AFDEEE77A2E
:1016D00017EE904AA5420BDAA04202DB08E08442F2
:1016E00006DD02F07DFC054602F092FCAC42F6DC21
:1016F000002002F045FC019A33689A4207D100208D
:1017000002B0BDEC028BBDE8704002F051BCFFF7A7
:1017100097FF00BF00080020340800200000B443F9
:10172000CD75864100007A440000000000000000F2
:1017300070B52DED028B274E274C336882B008EE32
:10174000100A0020019302F07BFC002002F090FCC4
:10175000206802F015FC2068404202F029FC02F0EB
:101760003FFC054602F054FCDFED1C6A9FED1C6A4D
:10177000DFED1C7AB8EE488A88EE267AF2EE0A6A25
:1017800027EE067A27EE277AC7EE267AFDEEE77A6D
:1017900017EE904AA5420BDAA04202DB08E0844231
:1017A00006DD02F01DFC054602F032FCAC42F6DC20
:1017B000002002F0E5FB019A33689A4207D100202D
:1017C00002B0BDEC028BBDE8704002F0F1BBFFF748
:1017D00037FF00BF00080020340800200000B44399
:1017E000CD75864100007A44000000000000000032
:1017F00000B5074B07491A68086883B00192019A3F
:101800001B689A4202D103B05DF804FBFFF718FF92
:101810000008002034080020000000000000000044
:1018200000B5074B07491A68086083B00192019A16
:101830001B689A4202D103B05DF804FBFFF700FF7A
:101840000008002034080020000000000000000014
:1018500000B50A4B83B01A680192019A1B6820B93F
:101860009A4209D103B05DF804FB9A4204D103B057
:101870005DF804EBFFF7FCBEFFF7E2FE0008002076
:1018800000B50A4B83B01A680192019A1B6820B90F
:101890009A4209D103B05DF804FB9A4204D103B027
:1018A0005DF804EBFFF744BFFFF7CAFE0008002015
:1018B00030B5224C83B023680193032835D8DFE884
:1018C00000F026160C02019A23689A4233D15A205E
:1018D00003B0BDE83040FFF72BBF019A23689A425E
:1018E00029D15A2003B0BDE83040FFF7C1BE144DE6
:1018F0002868404202F044FB019A23689A421AD1B8
:101900002868404203B0BDE8304002F051BB0C4DA6
:10191000286802F035FB019A23689A420BD12868A7
:1019200003B0BDE8304002F043BB019A23689A42FD
:1019300001D103B030BDFFF783FE00BF00080020D7
:10194000340800200000000000000000000000003B
:1019500010B5094C82B023680193002002F010FBFF
:10196000019A23689A4205D1002002B0BDE81040D8
:1019700002F01EBBFFF764FE00080020000000001C
:1019800000B5074B07491A68087883B00192019A9D
:101990001B689A4202D103B05DF804FBFFF750FECA
:1019A0000008002058120020000000000000000085
:1019B00070B5411A8DB22E4E82B02CB233680193AD
:1019C0002046FEF7EFFD21F00043194626A3D3E998
:1019D0000023FFF7CDF8002838D1264B9FED267A5B
:1019E00019880D442DB207EE905AF8EEE77AF4EE1E
:1019F000C77AF1EE10FA1BDD4FF49D729FED1F7A4E
:101A00001A8004EB840404EB8404640107EE904A1A
:101A1000F8EEE77A77EE877AF5EEC07AF1EE10FA13
:101A200013DD0020019A33689A4219D102B070BDCB
:101A30009FED137AF4EEC77AF1EE10FA08D54FF65F
:101A4000C6629FED107A1A80DBE707D40220E9E72F
:101A5000B0EE0C7A1D8027EE877AD2E70120E1E70D
:101A6000FFF7EEFDAFF300800000000000C0624011
:101A7000000800205C12002092249D4300608944ED
:101A800092249DC3006089C4000000000000000093
:101A9000F0B51C4D83B02B6801930746202383F3D8
:101AA0001188194C04F07CF903F00AF9A66A03F0D6
:101AB00027F904F08DF92368A34204D0A2699B683A
:101AC00092689A4217D3002383F31188019A2B68F6
:101AD0009A4214D14FF47A7101FB07F10B4B01F2DA
:101AE000E731A3FB013106EB9111304603B0BDE8AD
:101AF000F04003F05DBE064803F042F8E3E7FFF76D
:101B00009FFD00BF0008002078560020D34D6210D2
:101B1000C0280108000000000000000000000000D4
:101B200030B5184C83B023680193022002F018FDF1
:101B30004FF47A71FFF73CFF40B9134B1B78A3B900
:101B4000019A23689A420ED103B030BD0128F7D123
:101B50000D4B1B78002BF3D00220FFF791FE019A6A
:101B600023689A4208D0FFF76BFD0220FFF770FE52
:101B7000019A23689A42F6D1002003B0BDE83040B4
:101B8000FFF796BE00080020390800200000000082
:101B90002DE9F04F814D83B02B680193022002F0B4
:101BA000DFFC0746002002F0DBFC86B2052002F0D5
:101BB000D7FC8246FFF71CFE07EE900AF8EEE77AA4
:101BC000B2EE0A7A67EE877A9FED756ADFED756A85
:101BD00087EE867AFA2EC6EE877AFCEEE77A17EE63
:101BE000903A9CB235D8DFF8D09199F80080B8F1DE
:101BF000000F1FD06C4F6D4E3A883388B3EB520FF5
:101C000062D95A20FFF73CFE0020FFF751FE204624
:101C1000FFF73EFF664A00230121117033803B80AD
:101C200089F80030019A2B689A4240F0B58003B0E1
:101C3000BDE8F08FBFB2772F4DD8FA2E00F2938017
:101C4000F0D0594A5A49138881F800800133138033
:101C5000E8E70020DFF86491FFF72AFBFFF740FC7C
:101C6000012389F80030FFF773FE202383F31188E6
:101C7000DFF84C8104F094F803F022F8D8F828B08B
:101C800003F03EF804F0A4F8D8F80030434505D03E
:101C9000D8F818209B6892689A423ED34FF000080B
:101CA00088F311880BF57A71584603F081FD012005
:101CB00089F80080FFF7FCFA00F0C2F9B8B900F02B
:101CC000EFF900288FD0ADE70120FFF7F1FD338851
:101CD00001333380A6E7782FA4D0F92E21D8324BD8
:101CE0001B88142B9ED9012389F800309AE72F4ACC
:101CF0002D4BA2F80080B420A3F80080FFF7C0FDB0
:101D00004046FFF7D5FD019A2B689A4244D14046E0
:101D100003B0BDE8F04F00F0ABB9264802F030FF49
:101D2000BCE7FA2E3FF47EAF1FFA8AFABAF1590FD8
:101D30002CD9BAF15A0F3FF475AF1C4A1A4BA2F8CE
:101D40000080B420A3F80080FFF782FD4046FFF733
:101D5000AFFD019A2B689A421ED1204603B0BDE820
:101D6000F04FFFF795BE114A0F4BA2F800805A20A2
:101D7000A3F80080FFF784FD4046FFF799FD204659
:101D8000FFF786FE0A4B01221A704BE7074A064B03
:101D9000A2F800805A20D5E7FFF752FC0008002087
:101DA00000007A440048A3455A1200205612002031
:101DB00039080020C02801085912002058120020BC
:101DC0007856002000000000000000000000000025
:101DD00010B51A4C82B023680193FFF781FAB0F571
:101DE0007A7F1FD0B0F5FA6F12D0B0F5FA7F05D028
:101DF000019A23689A421FD102B010BD104B1A7885
:101E0000042AF5D00F490020042208701A70EFE769
:101E10000B4B1A78142AEBD00A49002014220870C0
:101E20001A70E5E7064B1A780A2AE1D00549002026
:101E30000A2208701A70DBE7FFF702FC0008002096
:101E400038080020541200200000000000000000AC
:101E50002DE9F04F274C284BA26928491B68DFF871
:101E6000A8B0274D274FDFF8A4A0916183B04FF0B1
:101E700020090193002632E089F3118803F090FFD6
:101E800002F01EFFD4F8288002F03AFF03F0A0FF12
:101E90002368A34207D0A2699B6892689A4202D243
:101EA000504602F06DFE86F31188FFF771FE9BF835
:101EB00000302BB12A783B789A4201D1FFF730FEEF
:101EC000FFF786FF2B783A789A4218BF013308F162
:101ED000320140460CBF2E702B7003F069FC00F0FD
:101EE000DFF80028C8D0322003F022FC322003F0B3
:101EF0001FFCF8E77856002000080020B0280108F1
:101F0000541200203808002039080020C028010899
:101F100010B50A4C0A4B22680A4884B04FF4AF61EE
:101F2000039200220092402203F0AAFB039A236846
:101F30009A4201D104B010BDFFF782FB00080020D7
:101F4000511E000860120020000000000000000088
:101F50000EB410B583B005AA094C52F8041B2368CF
:101F60000848009201930CF0E3FC019A23689A421E
:101F700004D103B0BDE8104003B07047FFF760FB29
:101F800000080020AC6400200000000000000000F9
:101F900080B5264C264AA3692649996186B002235A
:101FA0002025166800930A224FF420730021CDE902
:101FB00001553020059601F0E3F800F0E9FF00201C
:101FC00001F01EF81C4E1D4F00F082FF0A2003F0A6
:101FD000AFFB002001F05CFBB04613E003F068FAB1
:101FE00002F08EFE03F0F4FE2368A34207D0A2693C
:101FF0009B6892689A4202D2384602F0C1FD0023E3
:1020000083F3118801F03CF800F0A2FF85F31188FA
:1020100003F0C6FE02F054FE02F022FFB368002B6C
:10202000DCDC404603F094FFD8E700BF7856002080
:1020300000080020102901083C0800203029010870
:1020400000B5074B07491A68087883B00192019AD6
:102050001B689A4202D103B05DF804FBFFF7F0FA67
:1020600000080020E31C0020000000000000000029
:1020700000B5074B07491A68087083B00192019AAE
:102080001B689A4202D103B05DF804FBFFF7D8FA4F
:1020900000080020E31C00200000000000000000F9
:1020A00000B5074B07491A68087883B00192019A76
:1020B0001B689A4202D103B05DF804FBFFF7C0FA37
:1020C00000080020E21C00200000000000000000CA
:1020D00030B5164D164C2B6883B04FF42570019324
:1020E000FFF79EFB2378BBB1022B4FF0B4000DD05D
:1020F000FFF7AEFBB420FFF7C3FB237801992A68F2
:102100000133914223700ED103B030BDFFF7A0FB25
:102110005A20FFF7B5FBF0E75A20FFF799FBB420F0
:10212000FFF7AEFBE9E7FFF78BFA00BF00080020DE
:10213000D817002000000000000000000000000090
:102140002DE9F047DFF8B480264FD8F80030264E4E
:10215000264D274882B0019303F0C2FE00233B8046
:1021600033802B8000F064FF2249B7F800E0B6F816
:1021700000C02C88013001F5A06910F8013C01F87D
:10218000013C10F8022B01F8022B4FEAC30A0AF0B7
:10219000380A0AEB521A02F01F020EEBD303D444A2
:1021A000224449451FFA83FE1FFA8CFC94B2E4D105
:1021B000114ADDF80490D8F80080A2FB0E13A2FBB0
:1021C0000C01A2FB0402490A580AC1454FEA5223F6
:1021D000388031802B8002D102B0BDE8F087FFF754
:1021E0002FFA00BFE01C0020DE1C0020DC1C0020B9
:1021F0003C080020DD170020CDCCCCCC000800200E
:1022000030B5494D494C2B78226883B00192ABB16F
:10221000474B019A1B78022B236806D89A425DD15E
:1022200003B0BDE83040FFF753BF9A4208BF00201B
:1022300054D103B0BDE83040FFF7F2BAFFF7A0FB7E
:10224000002833D03B4B1B881A1F022A16D83A4A63
:102250001288053A022A11D8384A1288033A022A0B
:102260000CD8019A236801219A42297008BF0320E3
:1022700034D103B0BDE83040FFF762B85A1F022ADC
:1022800004D82D4A1288113A022A29D95A1E022A44
:1022900004D8294A1288093A032A30D9033B032B70
:1022A00004D8254B1B88123B032B05D9019A2368C0
:1022B0009A4213D103B030BD204B1B88073B042B3F
:1022C000F4D84FF4FA60FFF723F80420FFF738F84A
:1022D000019A23689A4208BFDC20AAD0FFF7B0F920
:1022E000164A1288093A022AD0D8019A236814495A
:1022F00001209A42087008BF0020BAD0EEE70F4ACA
:102300001288083A022AC9D84FF4FA70FFF700F889
:102310000220FFF715F8019A23689A4208BF4FF48C
:10232000DC7086D0DAE700BFE21C00200008002045
:10233000D8170020E01C0020DE1C0020DC1C002040
:10234000E31C00200000000000000000000000006E
:1023500080B5134A134B926913491B68DFF86090EC
:10236000DFF86080114F124E124C134D916182B014
:102370000193FFF7E5FEFFF743FFB9F80020314670
:102380002046FFF7E5FDB8F8002029462046FFF774
:10239000DFFD3A8809492046FFF7DAFDE9E700BF8B
:1023A000785600200008002020290108DC1C0020AD
:1023B000D0280108AC640020E0280108F4280108B6
:1023C000E01C0020DE1C00200000000000000000D7
:1023D00030B50E4C0E4B22680E4885B00025039296
:1023E0004FF4AF614022009503F04AF90A4B009583
:1023F00040220A484FF4AF6103F042F9039A236880
:102400009A4201D105B030BDFFF71AF9000800204B
:102410005123000860220020911F0008E81C0020C2
:1024200030B5104D81682B680F4A83B001930B685B
:1024300023F001030B608168946A03E0936A1B1B1D
:10244000C72B09D8086810F00100F7D1019A2B6852
:102450009A4204D103B030BD4FF0FF30F6E7FFF7EA
:10246000EFF800BF000800207856002000000000B0
:1024700030B5184D83B02B68019311F00C0F044652
:102480000AD00378032B13D00622636822709A685F
:102490001AB100212046904763685B688BB10199AF
:1024A0002A68914213D1204603B0BDE83040184756
:1024B000FFF7B6FF0622636822709A68002AE8D107
:1024C000EBE7019A2B689A4201D103B030BDFFF7C8
:1024D000B7F800BF00080020000000000000000066
:1024E000F0B5284D83B02B68019303F021FC02F076
:1024F00067FC254B1E69F20715D55A69234C42F03B
:1025000001025A612778BB1F012B2AD90522636873
:1025100022701B680BB120469847042F27D0022F4A
:1025200025D003232370B30710D5174A174C5369DE
:1025300043F0020353612378032B1DD063689B682B
:102540000622227013B101211048984702F060FC66
:10255000019A2B689A4213D103B0BDE8F04004F011
:10256000EFBB019A2B689A420AD103B0F0BD022357
:102570002370B307EAD5D8E72046FFF751FFDDE720
:10258000FFF75EF80008002000000550D827002063
:1025900030B50B4D0B4C2B6883B02046019300F0F7
:1025A0002FF9019A2B680848084D094921619A4280
:1025B000C4E9025001D103B030BDFFF741F800BFBC
:1025C00000080020D8270020BC3901080000055071
:1025D000165502020000000000000000000000008C
:1025E0002DE9F0412F4C0578266882B0012D019627
:1025F00006D0019A23689A4252D102B0BDE8F08118
:10260000294DA842F5D10E4690461F46274AE86854
:102610002B460C2107F0DCFD002839D1D5E9023228
:10262000126828339360EB681A68042151611B68B3
:10263000C3F80C80EB681A6817611B68B6085E6007
:102640002B694FB343F480232B61E968184A09686A
:102650000B60EB6819680B6843F001030B60536B68
:1026600043F0010353630B214E2007F091FAD5E9A3
:102670000113DA6842F00102DA60DA6842F002021D
:10268000DA60CA6822F4804222F001021A60B0E7E0
:10269000084802F075FAC1E723F480232B61D4E7E0
:1026A000FEF7CEFF00080020D82700207124000884
:1026B000003802404029010800000000000000002E
:1026C00030B5184C0378226883B0022B019205D0F4
:1026D000019A23689A4223D103B030BD124B98422D
:1026E0000546F5D18168114A0B6823F4804323F035
:1026F00001030B608168CB6823F00F03CB60536B41
:1027000023F0010353634E2007F06AFA019A23680D
:102710009A4205D1E86803B0BDE8304007F0C0BD7B
:10272000FEF78EFF00080020D82700200038024066
:1027300000B50F4B0278196883B0022A01910ED1BF
:1027400081680A6842F002020A6081680A6842F4FD
:1027500080420A6081680A6842F001020A60019AB8
:102760001B689A4202D103B05DF804FBFEF768FFD4
:102770000008002000000000000000000000000031
:1027800000B50F4B0278196883B0022A01910ED16F
:1027900081680A6822F002020A6081680A6842F4CD
:1027A00080420A6081680A6842F001020A60019A68
:1027B0001B689A4202D103B05DF804FBFEF740FFAC
:1027C00000080020000000000000000000000000E1
:1027D00000B5074B83B01A680192019A1B689A42B0
:1027E00004D103B05DF804EBFFF7D2BEFEF728FF7B
:1027F00000080020000000000000000000000000B1
:1028000000B5084B83B01A68019201220270019A48
:102810001B6800219A42416002D103B05DF804FBBD
:10282000FEF70EFF0008002000000000000000007E
:102830002DE9F043254D83B02C680194DDF82890F4
:102840000F4616469846044618B111B1204B9A42DD
:102850002FD9204802F094F9202383F3118803F044
:102860009FFA02F02DFA2378012B02D0194802F0CA
:1028700087F94246314620464B466760FFF7B0FE77
:102880000223237002F03CFA03F0A2FA124B1A68FA
:102890009A4204D0996993688A689A420FD30023B8
:1028A00083F31188019A2B689A420CD103B0BDE8DA
:1028B000F0839307CDD1B8F1000FCDD1C9E7074818
:1028C00002F05EF9EBE7FEF7BBFE00BF0008002058
:1028D000FCFF0300702901087856002060290108D8
:1028E00030B51C4D83B02B680193044658B32023A8
:1028F00083F3118803F054FA02F0E2F92378022BF3
:1029000002D0154802F03CF92046FFF7D9FE01231A
:10291000237002F0F5F903F05BFA104B1A689A4243
:1029200004D0996993688A689A4208D3002383F394
:102930001188019A2B689A4209D103B030BD08482A
:1029400002F01EF9F2E7044802F01AF9CFE7FEF7A9
:1029500077FE00BF0008002080290108785600207B
:1029600060290108000000000000000000000000D5
:1029700030B51C4D83B02B680193044658B3202317
:1029800083F3118803F00CFA02F09AF92378022BF2
:1029900002D0154802F0F4F82046FFF7C9FE0423E0
:1029A000237002F0ADF903F013FA104B1A689A4243
:1029B00004D0996993688A689A4208D3002383F304
:1029C0001188019A2B689A4209D103B030BD08489A
:1029D00002F0D6F8F2E7044802F0D2F8CFE7FEF7AB
:1029E0002FFE00BF00080020902901087856002023
:1029F0006029010800000000000000000000000045
:102A000030B51C4D83B02B680193044658B3202386
:102A100083F3118803F0C4F902F052F92378022BF2
:102A200002D0154802F0ACF82046FFF7A9FE0323B8
:102A3000237002F065F903F0CBF9104B1A689A4243
:102A400004D0996993688A689A4208D3002383F373
:102A50001188019A2B689A4209D103B030BD084809
:102A600002F08EF8F2E7044802F08AF8CFE7FEF7AA
:102A7000E7FD00BF00080020B029010878560020BB
:102A800060290108000000000000000000000000B4
:102A900000B5084B83B01A680192019A1B689A42EC
:102AA00005D1054803B05DF804EB02F069B8FEF704
:102AB000C7FD00BF00080020C02901080000000079
:102AC00070B51849184C0A78236882B001934FF406
:102AD000B47303FB00F562B1019A23689A421FD1D7
:102AE00012481349B1FBF5F102B0BDE8704004F0A3
:102AF0008FBD1048104A01260E70802141830F4976
:102B00000F4804F04DFC019A23689A4208D1074807
:102B10000749B1FBF5F102B0BDE8704004F0E0BD3B
:102B2000FEF78EFD10280020000800202C640020F5
:102B300000BD0105000C0240D0290108002800203A
:102B4000C86000200000000000000000000000003D
:102B500010B50C4C0C4B22680C4882B001928022BC
:102B60001A8304F01DFE0A4804F05AFC019A2368F7
:102B7000084900209A42087001D102B010BDFEF74A
:102B80005FFD00BF00080020000C02402C64002004
:102B9000C860002010280020000000000000000095
:102BA00070B5154D154A164B2968164E9E6082B0B9
:102BB00000244FF400601080019194701146124877
:102BC0005C6001221A60DC6004F06AFB0F4B104E5F
:102BD00010485C60202219469A60DC601E6004F098
:102BE000CFFC019A2B689A4204D102B0BDE8704034
:102BF000FFF7AEBFFEF724FD00080020FC270020F1
:102C000000280020912A0008C8600020EC2700203E
:102C100000BD01052C640020000000000000000041
:102C200030B50F4C83B0236801930D4608B1FFF710
:102C300047FF4FF47A700B4900FB05F000F2E730D4
:102C4000A1FB0030800902F073FD019A23689A42CB
:102C500004D103B0BDE83040FFF77ABFFEF7F0FCC7
:102C600000080020D34D62100000000000000000AA
:102C70002DE9F0432DED028BDFF8FC80344BD8F8C2
:102C8000182034491B68344DDFED348A9FED348AB7
:102C9000344E354F916183B00193202383F3118823
:102CA00003F07EF802F00CF8304802F021FE2860B4
:102CB00002F026F803F08CF8D8F80030434508D02D
:102CC000D8F818209B6892689A4202D2284801F0EE
:102CD00057FF4FF0000989F311882B681A8972BBDE
:102CE00030E0D3E9001202EB890393ED007A31F86A
:102CF0001900C8EE877A09F10109FCEEE77A17EEB0
:102D0000903A9CB22146FFF78BFF07EE904AF8EE0F
:102D1000E77A4FF47A7367EE887AFCEEE77A17EE7B
:102D2000902A90B203FB00F000F2E730A7FB0030DE
:102D3000800902F0FDFC2B681A894A4502DD3278D1
:102D4000002ACED100230B48337003F089FBA4E79F
:102D500000080020A02C01081828002000007A4458
:102D60006666A63F48080020D34D62101428002054
:102D7000B02C01084C08002078560020000000000C
:102D800010B50A4C0A4B22680A4884B04FF4FC7113
:102D9000039200220092402202F072FC039A236800
:102DA0009A4201D104B010BDFEF74AFC0008002091
:102DB000712C000820280020000000000000000006
:102DC00000B5074B07491A68087083B00192019A51
:102DD0001B689A4202D103B05DF804FBFEF730FC99
:102DE00000080020182A0020000000000000000059
:102DF00000B5064B83B01A680192019A1B689A428B
:102E000002D103B05DF804FBFEF71AFC00080020B5
:102E100000B5064B83B01A680192019A1B689A426A
:102E200002D103B05DF804FBFEF70AFC00080020A5
:102E300010B5104C104B226882B0019201221A701A
:102E4000202383F3118802F0DBFF01F079FF0B48A8
:102E500003F0DEFA01F094FF02F0EAFF002383F3AF
:102E60001188019A23689A4201D102B010BDFEF781
:102E7000E7FB00BF00080020242A0020540800209F
:102E800030B50E4D0E4C2B6883B00193FFF7A0FCBC
:102E9000206808B10CF02CF84FF496400CF020F8A4
:102EA00001992A682060B0FA80F35B099142C3F16E
:102EB000000001D103B030BDFEF7C2FB00080020C6
:102EC0001C2A00200000000000000000000000009C
:102ED00030B5174D174C2B78226885B0012B039223
:102EE00020D000F005FC144B1B78ABB9B0F5964F21
:102EF00015D8124A124B12681B68124900920246FA
:102F00001148FFF795FC01232B700020039A2368DA
:102F10009A420BD105B030BDB0F5165FE9D94FF03C
:102F2000FF30F3E70848FFF7DBFCDAE7FEF788FB42
:102F30001A2A0020000800201B2A0020202A002036
:102F40001C2A0020C02C0108D82700200000000007
:102F500010B50B4C0B48236882B0019303F020F9A5
:102F6000094803F0FDFA019A23689A4205D1054801
:102F700002B0BDE8104003F04BB9FEF761FB00BFA3
:102F8000000800205C080020540800200000000019
:102F900030B5154D154C164B2268286883B0019248
:102FA00001221A7008B10BF0A3FF4FF416500BF07A
:102FB00097FF286098B10F4D286808B10BF098FF73
:102FC0004FF416500BF08CFFB0FA80F35B092860C9
:102FD0005842019A23689A4204D103B030BD4FF0A1
:102FE000FF30F6E7FEF72CFB1C2A0020000800202B
:102FF0001B2A0020202A0020000000000000000002
:1030000000B5074B07491A68087083B00192019A0E
:103010001B689A4202D103B05DF804FBFEF710FB77
:1030200000080020192A0020000000000000000015
:1030300000B50D4A0D4B1278196883B0019142B169
:103040000B4AD26812681268120302D4094A106847
:1030500001E0094A1068019A1B689A4202D103B044
:103060005DF804FBFEF7ECFA1B2A002000080020A4
:10307000D8270020202A00201C2A00200000000061
:1030800000B50E4A0E4B1278196883B001914AB10F
:10309000019A1B689A420FD10A4803B05DF804EB0D
:1030A000FFF7AEBC019A1B689A4205D1054803B0F0
:1030B0005DF804EBFFF75CBCFEF7C2FA192A0020AA
:1030C00000080020D82700200000000000000000B9
:1030D00070B5274D82B02B6801930646012203216B
:1030E0006E2000F0CDFB044630B1019A2B689A4265
:1030F00020463AD102B070BD32464E216E2000F01B
:10310000BFFB04460028F0D1442E07D00246B72169
:103110006E2000F0B5FBB8B10446E6E70122B72106
:103120006E2000F0ADFB0028F6D1224603216E2070
:1031300000F0A6FB0028EFD1032211216E2000F041
:103140009FFB78B10446D0E7224603216E2000F0B1
:1031500097FB0028E0D10A2211216E2000F090FB9D
:103160000028D9D1034B1E71BFE7FEF769FA00BFF3
:1031700000080020282A00200000000000000000B5
:103180002DE9F04F8FB0DFF80084DDF860C0D8F88B
:1031900000400D940CF1FF355C1EB3F5207F9DF8C7
:1031A00064909DF868B00C44154400F21282BCF59E
:1031B000F07F00F20E82B1F5207F0E4600F21282FF
:1031C000B2F5F07F174600F21082A14280F004822F
:1031D000B4F5207F00F20082AA4280F00082B5F5AB
:1031E000F07F00F2FC81B9F1400F824600F0B0811F
:1031F000B9F1800F23D0B9F1200F00F09C8100239A
:10320000CDE90033BBF1400F2FD0BBF1800F00F0B0
:10321000CB81BBF1200F00F0B9810023CDE902334F
:10322000002203216E2000F02BFBA0B30D9AD8F8EA
:1032300000309A4240F0E2810FB0BDE8F08F9A076B
:1032400040F0D681CC4A8C085900661CA2FB0101D3
:10325000A2FB030204EB930406EBD2030093BBF141
:10326000400F06EBD1030193CFD11CF0010F40F0CA
:10327000C281C14B7D084FEA4C026F1CA3FB0212B6
:10328000A3FB0C1307EB9303029307EB920305EBED
:103290005C050393C4E702465B216E2000F0F0FA60
:1032A0000028C3D15046FFF713FF0028BED10246C5
:1032B00003216E2000F0E4FA0028B7D1C6F30723FB
:1032C0001A4608216E20049300F0DAFA0028ADD1E6
:1032D000F3B21A4609216E20059300F0D1FA0028B6
:1032E000A4D1C7F307231A460A216E20069300F0E3
:1032F000C7FA00289AD1FBB21A460B216E20079319
:1033000000F0BEFA002891D1C4F307231A460C211D
:103310006E20089300F0B4FA002887D1E3B21A4671
:103320000D216E20099300F0ABFA00287FF47EAFE8
:10333000C5F307231A460E216E200A9300F0A0FA67
:1033400000287FF473AFEBB21A460F216E200B9367
:1033500000F096FA00287FF469AF049A35216E20B8
:1033600000F08EFA00287FF461AF059A36216E20B6
:1033700000F086FA00287FF459AF089A37216E20B2
:1033800000F07EFA00287FF451AF099A38216E20B0
:1033900000F076FA00287FF449AF069A39216E20B2
:1033A00000F06EFA00287FF441AF079A3A216E20B0
:1033B00000F066FA00287FF439AF0A9A3B216E20AC
:1033C00000F05EFA00287FF431AF0B9A3C216E20AA
:1033D00000F056FA00287FF429AF009B3D21C3F38B
:1033E00007226E2000F04CFA00287FF41FAF9DF8F2
:1033F00000203E216E2000F043FA00287FF416AF33
:10340000019B3F21C3F307226E2000F039FA002808
:103410007FF40CAF9DF8042040216E2000F030FABC
:1034200000287FF403AF029B4121C3F307226E20E3
:1034300000F026FA00287FF4F9AE9DF8082042211A
:103440006E2000F01DFA00287FF4F0AE039B4321AC
:10345000C3F307226E2000F013FA00287FF4E6AED3
:103460009DF80C2044216E2000F00AFA00287FF419
:10347000DDAE012203216E2000F002FA00287FF465
:10348000D5AE4A4693216E2000F0FAF900287FF469
:10349000CDAE5A4694216E2000F0F2F900287FF458
:1034A000C5AE012203216E2000F0EAF900287FF466
:1034B000BDAE0134A31B07EE103ADFED307AB8EE53
:1034C000477ABAF1440F77EEC77A00F09980B0EEF0
:1034D000006AF2EE006AE7EE066A77EEA77AB0EECF
:1034E000667A67EE877ADFED266A87EEA67AFCEECB
:1034F000C77ACDED007A009B9521C3F307226E2099
:1035000000F0BEF900287FF491AE9DF800209621CE
:103510006E2000F0B5F900287FF488AE194B013514
:10352000EF1BA41B5F801C8083F804A083F8059028
:1035300083F806B07AE610495A00A1FB030306EBB4
:103540005303A1FB0212009306EB5203019359E6C9
:10355000D9074DD4084A74085900661CA2FB010122
:10356000A2FB030204EB530406EB9203009306EB69
:103570009103019346E600BFABAAAAAA0000224429
:103580000000A344282A002000080020244A4FEA13
:103590004C03A2FB0C1CA2FB032307EB530307EB1A
:1035A0005C02029203933BE61CF0030F23D11C4BF9
:1035B000BD084FEA4C026F1CA3FB0212A3FB0C13C5
:1035C00007EBD303029307EBD20305EB9C050393B0
:1035D00026E66FF0070029E66FF0030026E66FF09D
:1035E000040023E66FF0010020E66FF002001DE604
:1035F0006FF005001AE66FF0060017E6FEF720F8F8
:10360000F2EE006A37EE267ADFED066A67EE277A79
:1036100087EEA67AFCEEC77ACDED007A6BE700BFA5
:10362000ABAAAAAA00002444000000000000000089
:1036300010B5114C86B02368059300F0B1F80F491E
:103640000F4804F0CDFA012200210D4804F060FB80
:1036500020237822CDE901330092A023B422F02167
:103660000220FFF78DFD059A23689A4201D106B02A
:1036700010BDFDF7E5FF00BF00080020D02C0108B9
:103680009064002000000000000000000000000026
:1036900030B5164C83B023680193054600230222FF
:1036A00003216E208DF8033000F0EAF828B1019A6A
:1036B00023689A4218D103B030BD0DF103020421F2
:1036C0006E2000F08DF80028F1D19DF80320012D27
:1036D0000CBF02F0FB0242F0040204216E208DF8C0
:1036E000032000F0CDF8E2E7FDF7AAFF0008002074
:1036F00010B50A4B0A4A1988146858881B7982B099
:10370000442B019400FB01F00199136818BF40009D
:10371000994201D102B010BDFDF792FF282A002086
:103720000008002000000000000000000000000071
:1037300070B5164E16483368154D82B005224FF409
:103740008071019308F01CFD20246B6983F4807361
:103750006B61012001F0ECFF631E13F0FF04F4D154
:103760004FF4807140F206222983094808F008FDD1
:10377000019A33689A4206D10649074802B0BDE86B
:10378000704004F075B8FDF75BFF00BF0008002033
:1037900000040240102D0108F86000200000000025
:1037A00000B50C4A0C4B1278196883B0012A0191BC
:1037B000019A1B6804D09A4209D103B05DF804FB5A
:1037C0009A4204D103B05DF804EBFFF7B1BFFDF7F7
:1037D00037FF00BFF8600020000800200000000054
:1037E0002DE9F041224C234E88B0002335688DF836
:1037F0001830804620468DF814101746079504F0BF
:103800004FF92378012B0CD00420012306AACDE91F
:1038100001300092414605AA204604F0D1F8054641
:1038200068B9134804F05CF99DF818303B7000202B
:10383000079A33689A4218D108B0BDE8F081204653
:1038400004F0A6F823780C4A052B106004D0084831
:1038500004F046F968B2EBE7204604F051F823780B
:10386000012BF4D1FFF764FFF1E7FDF7E9FE00BF9C
:10387000F860002000080020302A0020000000002E
:10388000F0B5214C214E89B03368079307460025D7
:1038900020468DF818108DF819208DF8145004F07A
:1038A000FFF82378012B0CD0042205AB019502927E
:1038B00000933946022306AA204604F081F8054603
:1038C00048B9114804F00CF90020079A33689A426D
:1038D00017D109B0F0BD204604F05AF823780C4AFD
:1038E000052B106004D0084804F0FAF868B2ECE741
:1038F000204604F005F82378012BF4D1FFF718FFD8
:10390000F1E7FDF79DFE00BFF860002000080020F1
:10391000302A00200000000000000000000000002D
:1039200070B5094D094E2C6882B000EB400001943F
:10393000315434180198296862708842A37001D10B
:1039400002B070BDFDF77CFE00080020342A002084
:1039500030B5094B094D044607CB83B02B68019362
:10396000206001982B6861609842A26001D103B089
:1039700030BDFDF765FE00BF342A0020000800209E
:103980002DE9F043254E83B034680194042A9DF854
:103990002890144605460F46984639D9B9F1000FCC
:1039A00014BF00224FF08052640002EB0863013C18
:1039B0001C4405F00F0527F01F07202383F311880F
:1039C00002F0EEF93D4301F07BF9154B1035DD6057
:1039D0001C6101F095F902F0FBF9124B1A689A424A
:1039E00004D0996993688A689A420DD3002383F3BF
:1039F0001188BFF36F8FBFF34F8F019A33689A42DC
:103A00000AD103B0BDE8F083074801F0B9F8EDE74B
:103A1000064801F0B5F8C1E7FDF712FE00080020E6
:103A200090ED00E078560020A02D0108802D0108BF
:103A300030B5224D224C2B68224A85B0039363682F
:103A400043F004036360536A43F4803353622023DA
:103A500083F3118802F0A4F901F032F917221A4B0E
:103A6000E260236101F04CF902F0B2F9174B1A68D9
:103A70009A4204D0996993688A689A4218D30020C0
:103A800080F31188BFF36F8FBFF34F8F03231D2285
:103A900000904FF00051FFF773FF094A536843F05D
:103AA00001035360039A2B689A4205D105B030BDDB
:103AB000074801F065F8E2E7FDF7C2FD00080020C5
:103AC00090ED00E000ED00E00900001078560020C5
:103AD000A02D010800000000000000000000000010
:103AE00070B51A4D1A4C1B4E0FCD0FC49EB02A68EC
:103AF000336822801D93EFF30981682203A8FDF744
:103B00005FFA154B9D6AAA0714D4EB0708D5124B30
:103B100008995B6B114A00910D4880210BF000FD64
:103B20001D9A33689A420FD109481EB0BDE8704013
:103B300001F026B8099A5B6B0092A4F11000084AC4
:103B400080210BF0EDFCE0E7FDF77AFD642D010824
:103B5000402A00200008002000ED00E0402D010870
:103B6000202D0108000000000000000000000000FF
:103B700000B51F4B0278196883B00191E2B11D4A6C
:103B80004FF4005111834278EAB11A4A4FF4805140
:103B900011838278F2B1174A4FF480411183C278C1
:103BA000FAB9144A4FF400415183019A1B689A42B2
:103BB0001CD103B05DF804FB0E4A4FF40051518351
:103BC0004278002AE1D10B4A4FF480515183827828
:103BD000002AE0D1074A4FF480415183C278002A7D
:103BE000DFD0044A4FF400411183DEE7FDF728FDE2
:103BF000000800200010024000000000000000004B
:103C000000B51F4B0278196883B00191E2B11D4ADB
:103C10004FF4007111834278EAB11A4A4FF480716F
:103C200011838278F2B1174A4FF400611183C27890
:103C3000FAB9144A4FF480615183019A1B689A4281
:103C40001CD103B05DF804FB0E4A4FF400715183A0
:103C50004278002AE1D10B4A4FF480715183827877
:103C6000002AE0D1074A4FF400615183C278002A4C
:103C7000DFD0044A4FF480611183DEE7FDF7E0FCFA
:103C800000080020001002400000000000000000BA
:103C900030B50C4A0C4B116883B04FF400550191BC
:103CA0004FF480544FF400414FF480405D835C83B7
:103CB0005883598301991368994201D103B030BDEB
:103CC000FDF7BEFC000800200010024000000000CC
:103CD00030B50C4A0C4B116883B04FF4007501915C
:103CE0004FF480744FF480614FF400605D835C8317
:103CF0005883598301991368994201D103B030BDAB
:103D0000FDF79EFC000800200010024000000000AB
:103D100010B50B4C0B48236882B099220021019307
:103D200003F0F6FF019A23689A4206D10548002164
:103D300002B0BDE8104004F0D3B8FDF781FC00BF2D
:103D4000000800205864002000000000000000006F
:103D500010B50B4C0B48236882B0992200210193C7
:103D600003F0D6FF019A23689A4206D10548002144
:103D700002B0BDE8104004F0B3B8FDF761FC00BF2D
:103D80000008002074640020000000000000000013
:103D900000B5084B83B01A680192019A1B689A42D9
:103DA00006D10548002103B05DF804EB04F000B82B
:103DB000FDF746FC000800205864002000000000C9
:103DC00000B5084B83B01A680192019A1B689A42A9
:103DD00006D10548002103B05DF804EB03F0E8BF0D
:103DE000FDF72EFC00080020746400200000000095
:103DF00070B51A4C1A4E2378326882B0022B0192A9
:103E0000A26811D165781748013505F0070500EB68
:103E10008500904763686570013B6360019A336871
:103E20009A4219D102B070BD012B08D001993368B4
:103E3000994211D10C4802B0BDE870401047657836
:103E40000848013D05F0070500EB850090476368D1
:103E5000657001336360E1E7FDF7F2FBD82A0020CB
:103E600000080020402E0108302E0108000000004C
:103E700070B51A4C1A4E2378326882B0012B019229
:103E8000A26811D165781748013505F0070500EBE8
:103E9000850090476368657001336360019A3368F9
:103EA0009A4219D102B070BD022B08D00199336833
:103EB000994211D10C4802B0BDE8704010476578B6
:103EC0000848013D05F0070500EB85009047636851
:103ED0006570013B6360E1E7FDF7B2FBC02A00209B
:103EE00000080020402E0108302E010800000000CC
:103EF00030B51F4D85B02B68039340F24C43994277
:103F0000044626DCA3F69803994211DB4B00002BF4
:103F100029D10370036998474FF47A71039A2B688B
:103F20009A421ED1606905B0BDE8304003F0A8BEDA
:103F3000104B02225B42227040F2892293420E49CA
:103F400091FBF3F189B207DC0191E368984701998D
:103F5000E4E7012303702D2101912369984701991A
:103F6000DCE7FDF76DFBE4DD01220270E4E700BF52
:103F70000008002068F7FFFFA08601000000000095
:103F800000B5084B83B01A680192019A1B689A42E7
:103F900006D10146044803B05DF804EBFFF7A8BF63
:103FA000FDF74EFB00080020C02A002000000000A2
:103FB00000B5084B83B01A680192019A1B689A42B7
:103FC00006D10146044803B05DF804EBFFF790BF4B
:103FD000FDF736FB00080020D82A00200000000072
:103FE00000B5094B094A1968506883B000EBD070DE
:103FF0000191019A1B689A4203D1401003B05DF809
:1040000004FBFDF71DFB00BF00080020C02A0020B4
:1040100000B5094B094A1968506883B000EBD070AD
:104020000191019A1B689A4203D1401003B05DF8D8
:1040300004FBFDF705FB00BF00080020D82A002084
:1040400000B5084B08491A6883B040000192019AF4
:104050001B6848609A4202D103B05DF804FBFDF78B
:10406000EFFA00BF00080020C02A00200000000076
:1040700000B5084B08491A6883B040000192019AC4
:104080001B6848609A4202D103B05DF804FBFDF75B
:10409000D7FA00BF00080020D82A00200000000046
:1040A00070B51D4E1D4A1E4B30681E491E4C916056
:1040B00082B00021D46001901C4C1D481D4D9D60B4
:1040C000117051705160106154611B481B4A1C4DA6
:1040D000D8601C48197059705960C3E90425FFF76E
:1040E00047FD1848FFF78CFD1749204603F078FD7F
:1040F000204603F0ADFE2846144903F071FD019AF5
:1041000033689A4205D1284602B0BDE8704003F0FA
:104110009FBEFDF795FA00BF00080020D82A0020B6
:10412000C02A0020713B0008113D0008586400209F
:10413000913D0008013C0008513D0008C13D0008C8
:1041400074640020302E0108F02D0108B02D010804
:104150000A490B4B09680B4A82B02020019140218B
:1041600058834FF4806559834FF400644FF48040C6
:1041700004215D835C8358835183FEE7000800209F
:10418000000C02400004024000000000000000009B
:1041900010B51E491E4A0B78106882B0013B019091
:1041A000072B0AD8DFE803F012151C1F26290F047D
:1041B00018480824012304830B700199136899425D
:1041C00021D102B010BD08230B70F6E702230B705B
:1041D000F3E711484FF48054032304830B70ECE79A
:1041E00004230B70E9E70C484FF480440523048353
:1041F0000B70E2E706230B70DFE706480424072371
:1042000004830B70D9E7FDF71BFA00BF702E002066
:1042100000080020001002400004024000000000DE
:1042200030B50C4B0C4918680C4A83B04FF48045EC
:1042300001904FF480504883042408204D83548318
:104240005083019A1B689A4201D103B030BDFDF73B
:10425000F7F900BF000800200004024000100240EF
:104260002DE9F04F4E4B4F4A9B694F499961A5B0DC
:1042700007AE05AD80231768009331462A46002417
:104280000CA84A4B2397CDE90766CDE90555CDE942
:1042900009440B9400F044FB0CA9454A4548434CA3
:1042A000454DDFF83481DFF834B1DFF834A100F098
:1042B0005FFB04F11C0604F16007A146504601F0C3
:1042C0000FFE2A682B69226063602A6A2B6BA2604A
:1042D000E3606A686B69226163616A6A6B6BA26101
:1042E000E361AA68AB6922626362AA6AAB6BA262ED
:1042F000E362EA68EB6922636363EA6AEB6B2F4966
:10430000A263E36351F8043F0A6AB142A3EB0203DC
:104310000B64F7D1802249460CA800F059FB98F8AD
:104320000030002BCAD09BF8003033B3012BC5D12D
:10433000DFF8B0C02248614650F8042B51F8043F22
:10434000B84213440B60F7D11E4A13780133DBB235
:10435000642B1370B2D11C495CF8043F1B4A82FBEA
:104360000302DB17C3EB621341F8043B184B9C4577
:10437000F2D1002388F80030A0E719462022124825
:1043800003930BF07DF8039B1248194620220BF093
:1043900077F80C49039B0B7001228BF800208DE706
:1043A0007856002000080020602E0108742B0020A1
:1043B000A02E010848120020102B0020702B002096
:1043C000B42B0020512B0020D42B00201F85EB5153
:1043D000702B0020542B0020502B0020522B00204B
:1043E00070080020502B002000000000000000009A
:1043F00070B502691E4D52882B6882B006460C4685
:104400001C480193920000210BF03AF833695B8855
:104410005BB1184AA11E002331F8020F42F8040BC9
:104420003069408801339842F6D8202383F31188FD
:1044300001F0E6FC00F084FC00F012FD0E488368F9
:10444000002B0FDD00F09CFC01F0F2FC002383F355
:104450001188019A2B68094901209A42087004D1F9
:1044600002B070BD01F074FDECE7FDF7E9F800BFA4
:1044700000080020102B002070080020702E002063
:1044800070B51F4D1F4C2E78236884B0012E039306
:1044900005D0039A23689A422FD104B070BD002141
:1044A000284602F0A5FD284602F062FE3346284663
:1044B000154A164902F01CFE1549164803F090FBF8
:1044C0004FF496720021134803F022FC002111489A
:1044D00003F006FD0F4803F0BBFC31464FF4827237
:1044E0000C4803F015FC0023009340220A4B0B48B4
:1044F0004FF41E7101F0C4F8CBE7FDF7A1F800BF3F
:10450000D45D002000080020F02A0020702E010851
:10451000B02E01083C64002061420008F82B002006
:1045200030B50C4D0C4A2B680C4C83B00021019324
:10453000012311702370142001F0FAF82378002B66
:10454000F9D1019A2B689A4201D103B030BDFDF731
:1045500077F800BF00080020522B0020502B0020CD
:1045600000B50A4B83B01A68019207289BBF084A1E
:104570001030002052F82000019A1B689A4202D1A4
:1045800003B05DF804FBFDF75BF800BF00080020F6
:10459000742B00200000000000000000000000005C
:1045A00080B5164A164B9269164E17491B68DFF8FC
:1045B0006480164D164C916182B0374601932846AF
:1045C000FFF7C6F9204604F0BBFD3B462A460C2106
:1045D000204604F035FE204604F0F2FD3078FEF768
:1045E000EFFB98F80030033B012B4FF0140002D989
:1045F00001F09EF8E3E7FEF7ABFCE0E77856002019
:1046000000080020742E0020002F0108E84300203D
:10461000D4630020D8270020000000000000000024
:1046200010B50C4C0C4923680C4884B0039304F07B
:104630003FFD002300934122094B0A484FF4AF612C
:1046400001F01EF8039A23689A4201D104B010BD0C
:10465000FCF7F6FF00080020F02E0108D4630020CC
:10466000A1450008703E002000000000000000008E
:1046700000B50F4B83B01868019002290CD00329B4
:104680000CD001290B4818BF0020019A1B689A42E0
:104690000BD103B05DF804FB0748F6E7032A96BF89
:1046A0000648002000EBC200EFE7FCF7C9FF00BF9F
:1046B00000080020F02F0108902F0108A030010809
:1046C00070B5154C82B02368019302291CD10D46A8
:1046D0000646202383F3118801F092FB00F030FBA3
:1046E00030460E4A012104F0ABFE29460C4A304602
:1046F00004F0A6FE0B4804F07BFB00F041FB01F048
:1047000097FB002383F31188019A23689A4201D111
:1047100002B070BDFCF794FF00080020102F0108C4
:10472000402F0108E45300200000000000000000BA
:1047300030B5134D134C2B68134883B0019304F02C
:10474000CFFA1249104804F0FBFA226D936B23F460
:10475000002393634FF47A7000F0EAFF20460C497F
:1047600004F01EFE226D936B43F400239363019AC1
:104770002B689A4201D103B030BDFCF761FF00BF46
:104780000008002038610020E4530020702F010849
:10479000802F010800000000000000000000000061
:1047A00000B5084B83B01A680192019A1B689A42BF
:1047B00005D1054803B05DF804EB01F0F1BCFCF74E
:1047C0003FFF00BF000800207C0800200000000020
:1047D00000B5084B83B01A680192019A1B689A428F
:1047E00005D1054803B05DF804EB01F011BDFCF7FD
:1047F00027FF00BF000800207C0800200000000008
:1048000070B50D4C82B0236801930D1E06460DDD78
:10481000284602F00DFA18B90C2333604FF0FF3030
:10482000019A23689A4205D102B070BD034800F096
:10483000A7F9EDE7FCF704FF00080020C0300108ED
:1048400000B5064B83B01A680192019A1B689A4220
:1048500002D103B05DF804FBFCF7F2FE0008002073
:1048600000B5074B83B01A680192019A1B689A42FF
:1048700004D103B05DF804EB01F092BCFCF7E0FE5C
:104880000008002000000000000000000000000000
:1048900000B5074B83B01A680192019A1B689A42CF
:1048A00004D103B05DF804EB01F0B2BCFCF7C8FE24
:1048B00000080020000000000000000000000000D0
:1048C00000B5074B83B01A680192019A1B689A429F
:1048D00004D103B05DF804EB01F0C2BDFCF7B0FEFB
:1048E00000080020000000000000000000000000A0
:1048F00010B5084B82B01C68019400240460019C30
:104900001B689C42C0E9011201D102B010BDFCF746
:1049100097FE00BF0008002000000000000000001B
:104920002DE9F0430E4D83B02C680194044699465E
:104930000F46164610304C220021DDF828800AF080
:104940009FFDC4F80090019A2B68E6609A42C4E982
:10495000018702D103B0BDE8F083FCF771FE00BF10
:10496000000800200000000000000000000000001F
:10497000F0B5144E83B001F110031746326801926E
:104980000446412218460D4600210AF079FD3946B9
:1049900040220AF00DFE6068FFF762FF236803B152
:1049A000AB652560A068FFF78BFF019A33689A42D8
:1049B00005D1606803B0BDE8F040FFF769BFFCF7C0
:1049C0003FFE00BF000800200000000000000000C3
:1049D000F0B51C4E436883B00546934230680190A1
:1049E00006D20020019A33689A4229D103B0F0BD63
:1049F00014460F46A868FFF733FF22463946286859
:104A0000FCF7DEFA012385F85130E868FFF758FF1C
:104A10006C6D84B123681868FFF722FF23689D60DE
:104A200023685868FFF74CFF23681868FFF730FFCA
:104A30006468002CEED1A868FFF72AFF0120D1E7B7
:104A4000FCF7FEFD00080020000000000000000050
:104A500000B5064B83B01A680192019A1B689A420E
:104A600002D103B05DF804FBFCF7EAFD000800206A
:104A7000024B82B01B680193FEE700BF00080020D4
:104A800000B5044B04481B6883B0019300F078F82C
:104A9000FEE700BF00080020D03001080000000041
:104AA000024B82B01B680193FEE700BF00080020A4
:104AB000F0B5294E294B3268294885B0002403926D
:104AC0009C60D968274A4FF6FF0529400A43DA60FF
:104AD000C2682549254D42F08072C2600A6842F0E2
:104AE00001020A6010202022D87783F8222000F0EB
:104AF000DFFA00F045FA01F0A3F802F071F802F0D5
:104B0000DFF801F0F5F800F0FBF9402105F58860C9
:104B100000F01EFD0127164BC36180F82070A861CC
:104B200000F0A6F884F3118862B6AB69114A9A6165
:104B30004FF4C4713A46104B009405F59D6000F0A7
:104B40009FFD039A33680D4981619A4201D105B0F6
:104B5000F0BDFCF775FD00BF0008002000ED00E08F
:104B6000F0ED00E00003FA05001000E078560020A8
:104B70000004002080320108A14A0008F03001083A
:104B800000B5054B83B01B680193044672B6FFF76E
:104B9000DFFA024BDC62FEE70008002078560020B6
:104BA0002DE9F047DFF890A0224DDAF8003082B00E
:104BB000019300F055F9AB6993F8232012B1013A43
:104BC00083F823205A6ADFF8748001325A6200F0B9
:104BD00047F9AB6AEA6901334245AB6220D093687A
:104BE000013B9360EC69A668D6B94FF020092368B1
:104BF000E768E660C3F804802368EB6100F0C0F862
:104C000001F016F986F311882069B84789F31188F5
:104C100001F0F6F800F094F8EC69A368002BE6D0F8
:104C2000019ADAF800309A4202D102B0BDE8F0876A
:104C3000FCF706FD7856002000080020945600205E
:104C400010B5094C094A236882B001935168536832
:104C50005B1A9842FBD8019A23689A4201D102B0AC
:104C600010BDFCF7EDFC00BF00080020001000E0C4
:104C700000B50E4A0E4B116B186883B0019009B94C
:104C8000526B4AB1019A1B689A420CD1094803B091
:104C90005DF804EBFFF774BF019A1B689A4202D1DA
:104CA00003B05DF804FBFCF7CBFC00BF7856002096
:104CB0000008002000310108000000000000000092
:104CC00030B50B4C0B4D236B2A6883B001920BB9A6
:104CD000636B13B10848FFF753FF019A2B6801215A
:104CE0009A42616301D103B030BDFCF7A9FC00BF5B
:104CF0007856002000080020303101080000000034
:104D000030B50C4C0C4D236B2A6883B0019253B91B
:104D1000636B002B07DD019A2B6800219A426163C7
:104D200005D103B030BD0548FFF72AFFF3E7FCF7D4
:104D300087FC00BF78560020000800205031010891
:104D400030B50B4C0B4D236B2A6883B0002B0192BE
:104D500001DD636B13B10848FFF712FF019A2B685E
:104D600001219A42616301D103B030BDFCF768FCB8
:104D700078560020000800204031010800000000A3
:104D800030B50C4C0C4D236B2A6883B0002B01927C
:104D90000ADD636B002B07DD019A2B6800219A4224
:104DA000616305D103B030BD0448FFF7E9FEF3E7C6
:104DB000FCF746FC7856002000080020603101080E
:104DC00030B50F4D83B02B680193202383F31188F6
:104DD0000C4C236B002B01DB626B1AB10A48FFF706
:104DE000CFFE236B01332363002383F31188019AE1
:104DF0002B689A4201D103B030BDFCF721FC00BF03
:104E00000008002078560020103101080000000042
:104E100030B50F4D83B02B680193202383F31188A5
:104E20000C4C236B002B01DD626B1AB10A48FFF7B3
:104E3000A7FE236B013B2363002383F31188019AB0
:104E40002B689A4201D103B030BDFCF7F9FB00BFDB
:104E500000080020785600202031010800000000E2
:104E600000B50F4A0F4B116B186883B000290190F1
:104E700009DB526B002A06DD019A1B689A420CD1AD
:104E800003B05DF804FB019A1B689A4205D10648FD
:104E900003B05DF804EBFFF773BEFCF7D1FB00BF76
:104EA0007856002000080020703101080000000042
:104EB00000B50E4A0E4B116B186883B0019049B9CA
:104EC000526B002A06DD019A1B689A420CD103B08E
:104ED0005DF804FB019A1B689A4205D1054803B0AE
:104EE0005DF804EBFFF74CBEFCF7AAFB78560020F8
:104EF00000080020803101080000000000000000D0
:104F000010B5084A084B116882B0402401910199FC
:104F1000126818199142C3E90E4001D102B010BDC8
:104F2000FCF78EFB000800207856002000000000EF
:104F300010B51149114B0A6882B00192DA6B9C6A74
:104F40001460DA6B9C695460DA6B846A9460DA6B83
:104F500090F820001073DA6B03F5886010328242FB
:104F600028BF03F14002DA63019A0B689A4201D12B
:104F700002B010BDFCF764FB00080020785600204A
:104F800010B50B4A0B4B116882B04FF0FF34019102
:104F900000219962019811685C6203F11C02884249
:104FA000C3E9072201D102B010BDFCF749FB00BFE5
:104FB00000080020785600200000000000000000DB
:104FC0002DE9F041184E82B00546306801900C463C
:104FD00017469846FFF744FF05B3FFB1F4B1C5E9A2
:104FE00003781248C3699A68944204D91B68A41ACA
:104FF0009A68A242FAD32B605A686A6015605D60B5
:10500000AC609968019D3268091B95424FF0FF34EE
:105010009960446206D102B0BDE8F0810448FFF710
:10502000AFFDDCE7FCF70CFB000800207856002001
:1050300090310108000000000000000000000000A6
:1050400030B5164D83B004462B680193FFF708FF77
:10505000ECB1E368BBB12268A0689368019903448E
:105060009360D4E900231A6020682B680C4A6568B5
:10507000456099424FF000054FF0FF30E560506207
:1050800009D103B030BD0748FFF77AFDE3E70548D3
:10509000FFF776FDDDE7FCF7D3FA00BF000800203C
:1050A00078560020A0310108000000000000000038
:1050B00000B50A4A0A4B11681B6083B000200191B9
:1050C000019912685B609142C3E90433986002D190
:1050D00003B05DF804FBFCF7B3FA00BF0008002042
:1050E00078560020000000000000000000000000D2
:1050F00030B5164D83B004462B680193FFF7B0FE20
:10510000ECB194F82030B3B10F2B14D00022A16879
:105110000F4B84F820201B689A688A42FBD22360D8
:105120005A686260146001992A685C609142204666
:1051300009D103B030BD0748FFF722FDE6E7054877
:10514000FFF71EFDDDE7FCF77BFA00BF000800203B
:1051500078560020B0310108000000000000000077
:1051600070B5204D82B02B6801930446202383F351
:10517000118800F045FEFFF7E3FD94F82030072B7F
:1051800011D8DFE803F0161010230A04100AA66AEB
:10519000FFF766FEB3680133B360D4E900231A60F9
:1051A000D4E900325A604FF0FF33A3622046FFF784
:1051B0009FFFFFF7E5FD00F03BFE002383F311881E
:1051C000019A2B689A420BD102B070BDA36A0022EB
:1051D0001A604FF0FF33A3622046FFF789FFE8E72C
:1051E000FCF72EFA0008002000000000000000007C
:1051F000F0B5194E194C336883B007460193FFF799
:1052000057FEA569236885F82070142285F82320AD
:105210001A68226001215460284683F82010A36197
:10522000FFF786FE2946A06900F09AFDEFF3098397
:10523000EA69643B9A4202D90948FFF7A1FC019A46
:1052400033689A4206D1A069294603B0BDE8F04010
:10525000FBF72EB8FCF7F4F9000800207856002080
:10526000C031010800000000000000000000000044
:10527000F0B5154C87B0236805930E460746FFF737
:1052800017FE731C18D0114D114AAB6931466846A0
:10529000FFF796FE3846FFF7ABFFFFF7E1FD039BF4
:1052A00013B16846FFF7CCFE059A2368A9699A42B4
:1052B000886A06D107B0F0BD3846FFF799FF034D65
:1052C000F2E7FCF7BDF900BF000800207856002087
:1052D0006151000800000000000000000000000014
:1052E000F0B51E4D1E4E2B6883B0044601930F4649
:1052F000FFF7DEFDB069A7628368A2689A421DD9F4
:10530000FFF7F6FE0123074684F82030B461FFF76B
:105310000FFE3946204600F023FDEFF30983FA69BA
:10532000643B9A4214D8019A2B689A4214D13946A8
:10533000204603B0BDE8F040FAF7BABF019A2B68E7
:105340009A4209D1204603B0BDE8F040FFF7D0BE35
:105350000448FFF715FCE6E7FCF772F900080020A7
:1053600078560020C0310108000000000000000055
:1053700010B50E490E4B8A69086892F823101C6814
:105380008068926882B0019449B9904234BF00208D
:105390000120019A1B689A4206D102B010BD9042CA
:1053A00094BF00200120F4E7FCF74AF9785600206A
:1053B00000080020000000000000000000000000C5
:1053C00070B5184C184E2368A5691A68226054609D
:1053D000012283F8202082B01422316885F823202E
:1053E0002846A3610191FFF783FE2846FFF7A0FD41
:1053F0002946A06900F0B4FCEFF30983EA69643B35
:105400009A4202D90948FFF7BBFB019A33689A42D6
:1054100006D1A069294602B0BDE87040FAF748BF3E
:10542000FCF70EF97856002000080020C031010872
:1054300070B51C4D1C4E2A68AC6913682B600121A5
:1054400082B05D60002082F82010AA613268A168F5
:1054500084F82000019200E01B689A688A42FBD819
:1054600023605A686260204614605C60FFF760FD4C
:105470002146A86900F074FCEFF30983E269643BFC
:105480009A4202D90948FFF77BFB019A33689A4296
:1054900006D1A869214602B0BDE87040FAF708BFFE
:1054A000FCF7CEF87856002000080020C031010833
:1054B00010B50F4C82B023680193FFF7F9FCFFF79A
:1054C000CFFC0C4B1A689B6992689B689A42019AC0
:1054D000236803D89A4208D102B010BD9A4204D181
:1054E00002B0BDE81040FFF7A3BFFCF7A9F800BF6A
:1054F0000008002078560020000000000000000096
:1055000000B50E4A0E4B9269196892F8232083B0B9
:10551000019142B1019A1B689A420DD103B05DF826
:1055200004EBFFF785BF019A1B689A4204D103B0D0
:105530005DF804EBFFF744BFFCF782F878560020D3
:105540000008002000000000000000000000000033
:10555000F0B51A4A1A4D02610446816083B01423E3
:1055600050692E68616484F82330022700230121EA
:10557000278484F82210C4E90F3304F16801A36181
:10558000019604F12C07636204F1500604F1300324
:1055900060610461C4E90C33E1613046E762546143
:1055A00000F0E6FA304600F003FB019A2B689A42BD
:1055B00002D1204603B0F0BDFCF742F87856002037
:1055C00000080020000000000000000000000000B3
:1055D00010B5094B82B01C680194884203D200F8D0
:1055E000012B8142FBD1019A1B689A4201D102B082
:1055F00010BDFCF725F800BF0008002000000000E7
:105600002DE9F043184E83B0346801940546DDF867
:1056100028900C4617469846FFF722FC15B1B4F5C2
:10562000BC7F19D21148FFF7ABFAA4F164012944F9
:10563000E960C1F84080EB68019AC3F84490336890
:10564000E9680B4808669A420CD13946284603B0EF
:10565000BDE8F043FFF77CBF7F2FE3D8B8F1000F20
:10566000E3D1DFE7FBF7ECFF000800201032010870
:10567000C902000800000000000000000000000057
:105680002DE9F04FDFF8A48087B0D8F80040DDF8AE
:105690004090059407468A46934600F16806044602
:1056A000FF2504F8015BA642FBD107EB0A05A542E2
:1056B00004D9552604F8016BA542FBD1039320229F
:1056C00082F3118800F06CFBFFF7FAFA039BCDF828
:1056D00000905A4651463846FFF792FF0021044693
:1056E000FFF7FEFDFFF70CFB00F072FB0D4B1A6895
:1056F0009A4204D0996993688A689A420BD300232E
:1057000083F31188059AD8F800309A42204606D1D2
:1057100007B0BDE8F08F0448FFF732FAEFE7FBF778
:105720008FFF00BF78560020D0310108000800200C
:1057300030B5184C83B0236801930546202383F3CA
:10574000118800F02DFBFFF7BBFA15B91248FFF7DF
:1057500017FA29460820FFF78BFDFFF7D1FA00F072
:1057600037FB0E4B1A689A4204D0996993688A688D
:105770009A4208D3002383F31188019A23689A423E
:1057800005D103B030BD0648FFF7FAF9F2E7FBF7A1
:1057900057FF00BF00080020E031010878560020C4
:1057A000D0310108000000000000000000000000EF
:1057B000F0B51C4F83B03B68019304460E4620238E
:1057C00083F31188184D00F0EBFAFFF779FAA96A14
:1057D000331B0C1B9C4219D3FFF792FA00F0F8FA26
:1057E0002B68AB4204D0AA699B6892689A4209D39D
:1057F000002383F31188019A3B689A4230460FD107
:1058000003B0F0BD0948FFF7BBF9F1E7741A02D104
:105810000748FFF7B5F921460820FFF729FDDBE728
:10582000FBF70EFF0008002078560020D031010859
:10583000E03101080000000000000000000000004E
:1058400070B5164B164E9C693268E36AA06282B04E
:1058500004F12C05AB42019207D01A68E2621846A7
:10586000FFF746FCE36AAB42F7D194F821309B077F
:1058700005D1D4E904231A61D4E904325A610F2016
:10588000FFF7B6FC019A33689A4205D1054802B089
:10589000BDE87040FFF774B9FBF7D2FE78560020E0
:1058A0000008002020320108000000000000000075
:1058B00030B50C4C83B0236801930546202383F355
:1058C000118800F06DFAFFF7FBF9019A23689A42FC
:1058D00005D1284603B0BDE83040FFF7B1BFFBF764
:1058E000AFFE00BF00080020000000000000000024
:1058F000F0B50D4D0D4E03682A68B76983B00446B4
:10590000019213B10A48FFF73BF927600320BC62FC
:10591000FFF76EFC019A2B68B1699A42886A01D13F
:1059200003B0F0BDFBF78CFE000800207856002085
:1059300030320108000000000000000000000000FC
:10594000F0B5124D0368124A83B0044628680190EE
:105950000E46976913B10F48FFF712F966B1276039
:10596000019A2B68BC629A420ED13146032003B0E3
:10597000BDE8F040FFF77CBC019A2B689A424FF0DB
:10598000FF3001D103B0F0BDFBF75AFE0008002044
:10599000785600204032010800000000000000009E
:1059A000F0B5124D04682B6883B00193B4B194F83C
:1059B0002030032B06460F460CD100233360019A9A
:1059C0002B68A7629A420FD1204603B0BDE8F04091
:1059D000FFF78EBB0648FFF7D3F8EEE7019A2B6876
:1059E0009A4201D103B0F0BDFBF72AFE0008002067
:1059F000603201080000000000000000000000000C
:105A0000F0B5124D04682B6883B00193B4B194F8DB
:105A10002030032B06460F460CD100233360019A39
:105A20002B689A4210D13946204603B0BDE8F040B9
:105A3000FFF756BC0648FFF7A3F8EEE7019A2B687C
:105A40009A4201D103B0F0BDFBF7FAFD0008002037
:105A5000703201080000000000000000000000009B
:105A600030B5104A83B01368019381B10E4B019D8C
:105A70009B69186044685C602360126843609542CB
:105A80000DD1042003B0BDE83040FFF7F1BB019910
:105A9000136899424FF0FF3001D103B030BDFBF7DE
:105AA000CFFD00BF00080020785600200000000055
:105AB00070B5124D04682B6882B0A042019315D0D6
:105AC00023680360586094F82030042B0E4602D0FF
:105AD0000B48FFF755F8019A2B68A6629A420BD142
