:020000040800F2
:1000000000040020C1010008311500083115000866
:10001000711300083115000831150008311500086A
:1000200031150008311500083115000801250008B8
:100030003115000831150008311500088148000805
:100040003115000811370008A1380008F138000800
:10005000311500083115000851340008A13400089A
:10006000F13400084135000891350008712C000872
:10007000C12C0008112D0008612D0008B12D0008C9
:10008000012E0008512E0008C13200084139000835
:10009000B1390008613A0008113B0008E135000859
:1000A0003115000831150008814600083115000897
:1000B00081470008C147000801480008313C00089A
:1000C000713D000831150008311500083115000890
:1000D000311500083115000831150008D148000815
:1000E0007136000861370008B1370008C1460008C2
:1000F000311500083115000831150008A12E00083F
:1001000031150008D13B00084148000831150008AE
:100110003115000831150008414600083115000866
:10012000F12E0008412F0008912F0008E12F000850
:100130003130000831150008013800083115000879
:100140003115000831150008311500083143000849
:1001500081300008D1300008213100083115000835
:100160003115000831150008311500083115000857
:100170005138000831150008C11200083115000877
:100180003115000831150008311500083115000837
:100190003115000831150008311500083115000827
:1001A0003115000831150008311500083115000817
:1001B0003115000831150008311500083115000807
:1001C00072B62E4880F3098840F20000CCF200009D
:1001D0004EF63471CEF20001086040F20000C0F229
:1001E000F0004EF68851CEF2000108604FF000009A
:1001F000E1EE100A4EF63C71CEF2000108600620D6
:1002000080F31488BFF36F8F04F032FC4FF0553049
:100210001B491C4A91423CBF41F8040BFAE71A49BA
:10022000164A91423CBF41F8040BFAE71749184AB5
:10023000184B9A423EBF51F8040B42F8040BF8E702
:1002400000201549154A91423CBF41F8040BFAE7DA
:1002500001F056F9124C134DAC4203DA54F8041B6A
:100260008847F9E700F0D4FF0F4C104DAC4203DA99
:1002700054F8041B8847F9E701F052B90008002040
:10028000000000200004002000040020588900081D
:1002900000080020C4110020C8110020881E002082
:1002A000C0010008C0010008C0010008C00100082A
:1002B0002DE9F04F2DED108AC1F80CD0D0F80CD0FC
:1002C000BDEC108ABDE8F08F01F0DAF901F038FEDC
:1002D000002383F311882846A047002001F0B8FCD2
:1002E00001F016FE01F0ACF901F052FC01F0C8F982
:1002F00001F026FE00DFFEE7000000000000000025
:1003000081F0004102E000BF83F0004330B54FEAC6
:1003100041044FEA430594EA050F08BF90EA020F33
:100320001FBF54EA000C55EA020C7FEA645C7FEAC6
:10033000655C00F0E2804FEA5454D4EB5555B8BFE9
:100340006D420CDD2C4480EA020281EA030382EA5A
:10035000000083EA010180EA020281EA0303362DEC
:1003600088BF30BD11F0004F4FEA01314FF4801CBF
:100370004CEA113102D0404261EB410113F0004FD1
:100380004FEA03334CEA133302D0524263EB430388
:1003900094EA050F00F0A780A4F10104D5F1200E26
:1003A0000DDB02FA0EFC22FA05F2801841F1000181
:1003B00003FA0EF2801843FA05F359410EE0A5F155
:1003C00020050EF1200E012A03FA0EFC28BF4CF086
:1003D000020C43FA05F3C01851EBE37101F000453C
:1003E00007D54FF0000EDCF1000C7EEB00006EEB49
:1003F0000101B1F5801F1BD3B1F5001F0CD34908D3
:100400005FEA30004FEA3C0C04F101044FEA445229
:1004100012F5800F80F09A80BCF1004F08BF5FEAB0
:10042000500C50F1000041EB045141EA050130BD90
:100430005FEA4C0C404141EB010111F4801FA4F133
:100440000104E9D191F0000F04BF01460020B1FA88
:1004500081F308BF2033A3F10B03B3F120020CDAC0
:100460000C3208DD02F1140CC2F10C0201FA0CF09E
:1004700021FA02F10CE002F11402D8BFC2F1200C03
:1004800001FA02F120FA0CFCDCBF41EA0C019040B9
:10049000E41AA2BF01EB0451294330BD6FEA040402
:1004A0001F3C1CDA0C340EDC04F11404C4F12002ED
:1004B00020FA04F001FA02F340EA030021FA04F3FF
:1004C00045EA030130BDC4F10C04C4F1200220FA56
:1004D00002F001FA04F340EA0300294630BD21FA94
:1004E00004F0294630BD94F0000F83F4801306BF5A
:1004F00081F480110134013D4EE77FEA645C18BF4E
:100500007FEA655C29D094EA050F08BF90EA020FE4
:1005100005D054EA000C04BF1946104630BD91EADC
:10052000030F1EBF0021002030BD5FEA545C05D1DF
:100530004000494128BF41F0004130BD14F580041E
:100540003CBF01F5801130BD01F0004545F0FE4192
:1005500041F470014FF0000030BD7FEA645C1ABFC7
:10056000194610467FEA655C1CBF0B46024650EAFE
:10057000013406BF52EA033591EA030F41F400212A
:1005800030BD00BF90F0000F04BF0021704730B5B0
:100590004FF4806404F132044FF000054FF0000185
:1005A00050E700BF90F0000F04BF0021704730B546
:1005B0004FF4806404F1320410F0004548BF40421B
:1005C0004FF000013EE700BF42004FEAE2014FEA70
:1005D00031014FEA02701FBF12F07F4393F07F4F4B
:1005E00081F06051704732F07F4208BF704793F04E
:1005F0007F4F04BF41F40021704730B54FF4607461
:1006000001F0004521F000411CE700BF50EA010263
:1006100008BF704730B54FF000050AE050EA01020C
:1006200008BF704730B511F0004502D5404261EB7C
:1006300041014FF4806404F132045FEA915C3FF4BD
:10064000D8AE4FF003025FEADC0C18BF03325FEA5A
:10065000DC0C18BF033202EBDC02C2F1200300FA0B
:1006600003FC20FA02F001FA03FE40EA0E0021FA30
:1006700002F11444BDE600BF0000000000000000CD
:1006800070B54FF0FF0C4CF4E06C1CEA11541DBF28
:100690001CEA135594EA0C0F95EA0C0F00F0DEF8F3
:1006A0002C4481EA030621EA4C5123EA4C5350EAD8
:1006B000013518BF52EA033541F4801143F4801329
:1006C00038D0A0FB02CE4FF00005E1FB02E506F0BA
:1006D0000042E0FB03E54FF00006E1FB03569CF00F
:1006E000000F18BF4EF0010EA4F1FF04B6F5007F15
:1006F00064F5407404D25FEA4E0E6D4146EB060687
:1007000042EAC62141EA55514FEAC52040EA5E500F
:100710004FEACE2EB4F1FD0C88BFBCF5E06F1ED8B9
:10072000BEF1004F08BF5FEA500E50F1000041EBF0
:10073000045170BD06F0004646EA010140EA02009D
:1007400081EA0301B4EB5C04C2BFD4EB0C0541EABF
:10075000045170BD41F480114FF0000E013C00F3D4
:10076000AB8014F1360FDEBF002001F0004170BDF8
:10077000C4F10004203C35DA0C341BDC04F1140411
:10078000C4F1200500FA05F320FA04F001FA05F29D
:1007900040EA020001F0004221F0004110EBD3706A
:1007A00021FA04F642EB06015EEA430E08BF20EA96
:1007B000D37070BDC4F10C04C4F1200500FA04F339
:1007C00020FA05F001FA04F240EA020001F00041CB
:1007D00010EBD37041F100015EEA430E08BF20EA3E
:1007E000D37070BDC4F1200500FA05F24EEA020E86
:1007F00020FA04F301FA05F243EA020321FA04F0B5
:1008000001F0004121FA04F220EA020000EBD3706B
:100810005EEA430E08BF20EAD37070BD94F0000F6B
:100820000FD101F00046400041EB010111F4801F9F
:1008300008BF013CF7D041EA060195F0000F18BF50
:10084000704703F00046520043EB030313F4801F8C
:1008500008BF013DF7D043EA0603704794EA0C0F46
:100860000CEA135518BF95EA0C0F0CD050EA41065C
:1008700018BF52EA4306D1D181EA030101F00041D9
:100880004FF0000070BD50EA410606BF1046194601
:1008900052EA430619D094EA0C0F02D150EA01360D
:1008A00013D195EA0C0F05D152EA03361CBF10464E
:1008B00019460AD181EA030101F0004141F0FE41ED
:1008C00041F470014FF0000070BD41F0FE4141F471
:1008D000780170BD70B54FF0FF0C4CF4E06C1CEA71
:1008E00011541DBF1CEA135594EA0C0F95EA0C0F26
:1008F00000F0A7F8A4EB050481EA030E52EA0335E1
:100900004FEA013100F088804FEA03334FF0805501
:1009100045EA131343EA12634FEA022245EA11152E
:1009200045EA10654FEA00260EF000419D4208BFDF
:10093000964244F1FD0404F5407402D25B084FEA8C
:100940003202B61A65EB03055B084FEA32024FF438
:1009500080104FF4002CB6EB020E75EB030E22BF95
:10096000B61A754640EA0C005B084FEA3202B6EB55
:10097000020E75EB030E22BFB61A754640EA5C0004
:100980005B084FEA3202B6EB020E75EB030E22BF94
:10099000B61A754640EA9C005B084FEA3202B6EB95
:1009A000020E75EB030E22BFB61A754640EADC0054
:1009B00055EA060E18D04FEA051545EA16754FEAB6
:1009C00006164FEAC30343EA52734FEAC2025FEAD4
:1009D0001C1CC0D111F4801F0BD141EA00014FF063
:1009E00000004FF0004CB6E711F4801F04BF014334
:1009F0000020B4F1FD0C88BFBCF5E06F3FF6AFAE50
:100A0000B5EB030C04BFB6EB020C5FEA500C50F1DF
:100A1000000041EB045170BD0EF0004E4EEA113162
:100A200014EB5C04C2BFD4EB0C0541EA045170BD69
:100A300041F480114FF0000E013C90E645EA060EAD
:100A40008DE60CEA135594EA0C0F08BF95EA0C0FDB
:100A50003FF43BAF94EA0C0F0AD150EA01347FF423
:100A600034AF95EA0C0F7FF425AF104619462CE7FA
:100A700095EA0C0F06D152EA03353FF4FDAE10465D
:100A8000194622E750EA410618BF52EA43067FF4AE
:100A9000C5AE50EA41047FF40DAF52EA43057FF43E
:100AA000EBAE12E7000000000000000000000000B4
:100AB0004FEA410212F5001215D211D56FF4787386
:100AC000B3EB625212D94FEAC12343F0004343EA29
:100AD000505311F0004F23FA02F018BF4042704704
:100AE0004FF00000704750EA013005D111F000408E
:100AF00008BF6FF0004070474FF00000704700BF24
:100B000053B94AB9002908BF00281CBF4FF0FF3174
:100B10004FF0FF3000F074B9ADF1080C6DE904CE70
:100B200000F006F8DDF804E0DDE9022304B07047C8
:100B30002DE9F047089E04468846002B4BD18A4297
:100B4000154667D9B2FA82F24AB1C2F1200701FA1A
:100B500002F320FA07F7954047EA030894404FEA6A
:100B6000154E230CB8FBFEF71FFA85FC0EFB178809
:100B700043EA084307FB0CF1994209D9EB1807F146
:100B8000FF3080F01B81994240F21881023F2B44D4
:100B90005B1AA4B2B3FBFEF00EFB103344EA03442D
:100BA00000FB0CFCA44509D92C1900F1FF3380F09F
:100BB0000781A44540F2048102382C4440EA0740F2
:100BC000A4EB0C0400271EB1D4400023C6E9004367
:100BD0003946BDE8F0878B4209D9002E00F0EB8042
:100BE0000027C6E9000138463946BDE8F087B3FA68
:100BF00083F7002F47D18B4202D3824200F2FA8062
:100C0000841A61EB030301209846002EE0D0C6E968
:100C10000048DDE702B9FFDEB2FA82F2002A40F0B6
:100C20008F80491B4FEA154E1FFA85F80127B1FB4B
:100C3000FEFC230C0EFB1C1143EA014308FB0CF1E4
:100C4000994207D9EB180CF1FF3002D2994200F219
:100C5000CD808446591AA3B2B1FBFEF00EFB1014EE
:100C600043EA044408FB00F8A04507D92C1900F119
:100C7000FF3302D2A04500F2B6801846A4EB080468
:100C800040EA0C409FE7C7F1200CBB4022FA0CFE63
:100C90004EEA030E01FA07F420FA0CF521FA0CF3E0
:100CA0004FEA1E482543B3FBF8F92C0C08FB193317
:100CB0001FFA8EFA44EA034309FB0AF49C4202FA43
:100CC00007F200FA07F10BD91EEB030309F1FF301D
:100CD00080F087809C4240F28480A9F1020973442D
:100CE0001B1BADB2B3FBF8F008FB103345EA03441D
:100CF00000FB0AFAA24508D91EEB040400F1FF33F9
:100D00006BD2A24569D90238744440EA0940A0FB7D
:100D10000289A4EB0A044C45C2464B4654D351D039
:100D2000002E69D0B1EB0A0564EB030404FA0CFC55
:100D3000FD40FC404CEA0505C6E90054002747E7A2
:100D4000C2F1200320FA03F7954001FA02F021FADC
:100D500003F34FEA154E3843010CB3FBFEF71FFABD
:100D600085F80EFB173341EA034107FB08F38B427A
:100D700004FA02F407D9691807F1FF3C2FD28B421D
:100D80002DD9023F2944CB1A81B2B3FBFEF00EFBF2
:100D9000103341EA034100FB08F38B4207D969187D
:100DA00000F1FF3C17D28B4215D902382944C91AE9
:100DB00040EA07473BE73746304609E70746E7E69C
:100DC0001846FBE64145ABD2B8EB020A69EB0E02CE
:100DD00001381346A4E76046E9E7184695E76746F9
:100DE000D1E781467CE702382C4447E7ACF1020C9E
:100DF0002B442FE7384608E73746E9E600000000B5
:100E0000704700BF0000000000000000000000006C
:100E1000844641EA000313F003036DD1403A41D305
:100E200051F8043B40F8043B51F8043B40F8043BC4
:100E300051F8043B40F8043B51F8043B40F8043BB4
:100E400051F8043B40F8043B51F8043B40F8043BA4
:100E500051F8043B40F8043B51F8043B40F8043B94
:100E600051F8043B40F8043B51F8043B40F8043B84
:100E700051F8043B40F8043B51F8043B40F8043B74
:100E800051F8043B40F8043B51F8043B40F8043B64
:100E900051F8043B40F8043B51F8043B40F8043B54
:100EA000403ABDD2303211D351F8043B40F8043BF4
:100EB00051F8043B40F8043B51F8043B40F8043B34
:100EC00051F8043B40F8043B103AEDD20C3205D304
:100ED00051F8043B40F8043B043AF9D2043208D0FC
:100EE000D2071CBF11F8013B00F8013B01D30B886E
:100EF00003806046704700BF082A13D38B078DD04C
:100F000010F003038AD0C3F10403D21ADB071CBF1D
:100F100011F8013B00F8013B80D331F8023B20F887
:100F2000023B7BE7043AD9D3013A11F8013B00F8C0
:100F3000013BF9D20B7803704B7843708B78837048
:100F40006046704700000000000000000000000044
:100F500090F800F06DE9024520F007016FF0000CF9
:100F600010F0070491F820F040F049804FF00004A1
:100F70006FF00700D1E9002391F840F000F108007C
:100F800082FA4CF2A4FA8CF283FA4CF3A2FA8CF3B4
:100F90004BBBD1E9022382FA4CF200F10800A4FA1B
:100FA0008CF283FA4CF3A2FA8CF3E3B9D1E904236F
:100FB00082FA4CF200F10800A4FA8CF283FA4CF3A6
:100FC000A2FA8CF37BB9D1E9062301F1200182FA60
:100FD0004CF200F10800A4FA8CF283FA4CF3A2FA66
:100FE0008CF3002BC6D0002A04BF04301A4612BA74
:100FF000B2FA82F2FDE8024500EBD2007047D1E977
:10100000002304F00305C4F100004FEAC50514F005
:10101000040F91F840F00CFA05F562EA05021CBFD6
:1010200063EA050362464FF00004A9E700000000F0
:1010300001F0FF01102A2BDB10F0070F08D010F889
:10104000013B013A8B422DD010F0070F42B3F6D18D
:10105000F0B441EA012141EA014122F007047FF0A6
:1010600000070023F0E80256083C85EA010586EAFD
:10107000010685FA47F5A3FA87F586FA47F6A5FA39
:1010800087F68EB9EED1F0BC01F0FF0102F0070245
:1010900032B110F8013B013A83EA010313B1F8D1F0
:1010A0000020704701387047002D06BF35460338D1
:1010B000073815F0010F07D1013015F4807F02BF0A
:1010C000013015F4C03F0130F0BC0138704700BF5B
:1010D0004FF0FF3C06E000BF4FF0010C02E000BF04
:1010E0004FF0010C4DF804CD4FEA410C7FEA6C5CE7
:1010F0004FEA430C18BF7FEA6C5C1BD001B050EA8A
:10110000410C0CBF52EA430C91EA030F02BF90EA74
:10111000020F0020704710F1000F91EA030F58BF33
:10112000994208BF90422CBFD8176FEAE37040F095
:10113000010070474FEA410C7FEA6C5C02D150EA33
:10114000013C07D14FEA430C7FEA6C5CD6D152EAEE
:10115000033CD3D05DF8040B704700BF84461046B3
:1011600062468C461946634600E000BF01B5FFF7B2
:10117000B7FF002848BF10F1000F01BD4DF808ED82
:10118000FFF7F4FF0CBF012000205DF808FB00BF53
:101190004DF808EDFFF7EAFF34BF012000205DF8AD
:1011A00008FB00BF4DF808EDFFF7E0FF94BF0120FA
:1011B00000205DF808FB00BF4DF808EDFFF7CEFFFB
:1011C00094BF012000205DF808FB00BF4DF808ED3A
:1011D000FFF7C4FF34BF012000205DF808FB00BF0B
:1011E0004FEA410C7FEA6C5C02D150EA013C0AD123
:1011F0004FEA430C7FEA6C5C02D152EA033C02D115
:101200004FF0000070474FF00100704700000000F1
:1012100000B5074B83B01A680192019A1B689A4285
:1012200003D1002003B05DF804FB00F009F800BF13
:101230000008002000000000000000000000000086
:1012400000B5084B83B01A680192019A1B689A4254
:1012500005D1054803B05DF804EB00F079B9FFF75C
:10126000EFFF00BF00080020C0830008000000005E
:1012700030B5104D81682B680F4A83B001930B681D
:1012800023F001030B608168946A03E0936A1B1BDF
:10129000C72B09D8086810F00100F7D1019A2B6814
:1012A0009A4204D103B030BD4FF0FF30F6E7FFF7AC
:1012B000C7FF00BF000800206012002000000000EF
:1012C000F0B5284D83B02B68019300F0E9FD00F0E4
:1012D00037FA254B1E69F20715D55A69234C42F09F
:1012E00001025A612778BB1F012B2AD905226368A6
:1012F00022701B680BB120469847042F27D0022F7D
:1013000025D003232370B30710D5174A174C536910
:1013100043F0020353612378032B1DD063689B685D
:101320000622227013B101211048984700F030FACC
:10133000019A2B689A4213D103B0BDE8F04001F046
:10134000FFB8019A2B689A420AD103B0F0BD02237C
:101350002370B307EAD5D8E72046FFF789FFDDE71A
:10136000FFF76EFF0008002000000550C8110020A4
:1013700070B51A4D1A4C1B4E0FCD0FC49EB02A6883
:10138000336822801D93EFF30981682203A8FFF7D9
:101390003FFD154B9D6AAA0714D4EB0708D5124BE5
:1013A00008995B6B114A00910D48802103F088FE7B
:1013B0001D9A33689A420FD109481EB0BDE87040AB
:1013C00000F0C6B8099A5B6B0092A4F11000084ABD
:1013D000802103F075FEE0E7FFF732FF2484000868
:1013E000DC1100200008002000ED00E0008400086F
:1013F000E083000800000000000000000000000082
:101400000A490B4B09680B4A82B020200191402108
:1014100058834FF4806559834FF400644FF4804043
:1014200004215D835C8358835183FEE7000800201C
:10143000000C024000040240000000000000000018
:1014400000B5084B83B01A680192019A1B689A4252
:1014500005D1054803B05DF804EB00F081BEFFF74D
:10146000EFFE00BF0008002004080020000000007C
:1014700000B5084B83B01A680192019A1B689A4222
:1014800005D1054803B05DF804EB00F0A1BEFFF7FD
:10149000D7FE00BF00080020040800200000000064
:1014A00070B50D4C82B0236801930D1E06460DDD0C
:1014B000284600F0DDFF18B90C2333604FF0FF30F1
:1014C000019A23689A4205D102B070BD034800F02A
:1014D0003FF8EDE7FFF7B4FE000800204084000865
:1014E00000B5064B83B01A680192019A1B689A42B4
:1014F00002D103B05DF804FBFFF7A2FE0008002054
:1015000000B5064B83B01A680192019A1B689A4293
:1015100002D103B05DF804FBFFF792FE0008002043
:10152000024B82B01B680193FEE700BF0008002059
:1015300000B5044B04481B6883B0019300F008F821
:10154000FEE700BF000800205084000800000000F3
:1015500000B5054B83B01B680193044672B6FFF7D4
:101560004FFF024BDC62FEE7000800206012002003
:101570002DE9F047DFF890A0224DDAF8003082B074
:10158000019300F02DF9AB6993F8232012B1013AD1
:1015900083F823205A6ADFF8748001325A6200F01F
:1015A0001FF9AB6AEA6901334245AB6220D0936808
:1015B000013B9360EC69A668D6B94FF02009236817
:1015C000E768E660C3F804802368EB6100F098F8F0
:1015D00000F0E6FC86F311882069B84789F311888A
:1015E00000F0C6FC00F06CF8EC69A368002BE6D0B4
:1015F000019ADAF800309A4202D102B0BDE8F087D1
:10160000FFF71EFE60120020000800207C12002060
:1016100010B5094C094A236882B001935168536898
:101620005B1A9842FBD8019A23689A4201D102B012
:1016300010BDFFF705FE00BF00080020001000E00D
:1016400030B50B4C0B4D236B2A6883B001920BB95C
:10165000636B13B10848FFF77BFF019A2B680121E8
:101660009A42616301D103B030BDFFF7E9FD00BFCD
:101670006012002000080020908400080000000094
:1016800030B50C4C0C4D236B2A6883B0019253B9D2
:10169000636B002B07DD019A2B6800219A4261637E
:1016A00005D103B030BD0548FFF752FFF3E7FFF760
:1016B000C7FD00BF6012002000080020B0840008B1
:1016C00030B50B4C0B4D236B2A6883B0002B019275
:1016D00001DD636B13B10848FFF73AFF019A2B68ED
:1016E00001219A42616301D103B030BDFFF7A8FD2B
:1016F0006012002000080020A08400080000000004
:1017000030B50C4C0C4D236B2A6883B0002B019232
:101710000ADD636B002B07DD019A2B6800219A42DA
:10172000616305D103B030BD0448FFF711FFF3E753
:10173000FFF786FD6012002000080020C08400082A
:1017400030B50F4D83B02B680193202383F31188AC
:101750000C4C236B002B01DB626B1AB10A48FFF7BC
:10176000F7FE236B01332363002383F31188019A6F
:101770002B689A4201D103B030BDFFF761FD00BF75
:1017800000080020601200207084000800000000A3
:1017900030B50F4D83B02B680193202383F311885C
:1017A0000C4C236B002B01DD626B1AB10A48FFF76A
:1017B000CFFE236B013B2363002383F31188019A3F
:1017C0002B689A4201D103B030BDFFF739FD00BF4D
:1017D0000008002060120020808400080000000043
:1017E00000B50F4A0F4B116B186883B000290190A8
:1017F00009DB526B002A06DD019A1B689A420CD164
:1018000003B05DF804FB019A1B689A4205D10648B3
:1018100003B05DF804EBFFF79BBEFFF711FD00BFBF
:101820006012002000080020D084000800000000A2
:1018300000B50E4A0E4B116B186883B0019049B980
:10184000526B002A06DD019A1B689A420CD103B044
:101850005DF804FB019A1B689A4205D1054803B064
:101860005DF804EBFFF774BEFFF7EAFC601200209E
:1018700000080020E08400080000000000000000D4
:1018800010B51149114B0A6882B00192DA6B9C6A5B
:101890001460DA6B9C695460DA6B846A9460DA6B6A
:1018A00090F820001073DA6B03F5886010328242E2
:1018B00028BF03F14002DA63019A0B689A4201D112
:1018C00002B010BDFFF7BCFC000800206012002031
:1018D00030B5164D83B004462B680193FFF780FFA7
:1018E000ECB194F82030B3B10F2B14D00022A168D2
:1018F0000F4B84F820201B689A688A42FBD2236031
:101900005A686260146001992A685C6091422046BE
:1019100009D103B030BD0748FFF71AFEE6E70548D6
:10192000FFF716FEDDE7FFF78BFC00BF0008002085
:1019300060120020F0840008000000000000000099
:10194000F0B5194E194C336883B007460193FFF781
:101950006FFFA569236885F82070142285F823207D
:101960001A68226001215460284683F82010A36180
:10197000FFF786FF2946A06900F0AAFAEFF3098372
:10198000EA69643B9A4202D90948FFF7E1FD019AEE
:1019900033689A4206D1A069294603B0BDE8F040F9
:1019A000FEF786BCFFF74CFC000800206012002008
:1019B000008500080000000000000000000000009A
:1019C000F0B51E4D1E4E2B6883B0044601930F46A2
:1019D000FFF72EFFB069A7628368A2689A421DD9FB
:1019E000FFF776FF0123074684F82030B461FFF744
:1019F00047FF3946204600F06BFAEFF30983FA6996
:101A0000643B9A4214D8019A2B689A4214D1394601
:101A1000204603B0BDE8F040FEF74ABC019A2B68AF
:101A20009A4209D1204603B0BDE8F040FFF750BF0D
:101A30000448FFF78DFDE6E7FFF702FC00080020F1
:101A40006012002000850008000000000000000077
:101A500010B50E490E4B8A69086892F823101C686D
:101A60008068926882B0019449B9904234BF0020E6
:101A70000120019A1B689A4206D102B010BD904223
:101A800094BF00200120F4E7FFF7DAFB601200208A
:101A9000000800200000000000000000000000001E
:101AA00070B5184C184E2368A5691A6822605460F6
:101AB000012283F8202082B01422316885F8232087
:101AC0002846A3610191FFF703FF2846FFF7D8FEE0
:101AD0002946A06900F0FCF9EFF30983EA69643B49
:101AE0009A4202D90948FFF733FD019A33689A42B6
:101AF00006D1A069294602B0BDE87040FEF7D8BB08
:101B0000FFF79EFB601200200008002000850008FF
:101B100070B51C4D1C4E2A68AC6913682B600121FE
:101B200082B05D60002082F82010AA613268A1684E
:101B300084F82000019200E01B689A688A42FBD872
:101B400023605A686260204614605C60FFF798FE6C
:101B50002146A86900F0BCF9EFF30983E269643B10
:101B60009A4202D90948FFF7F3FC019A33689A4276
:101B700006D1A869214602B0BDE87040FEF798BBC7
:101B8000FFF75EFB601200200008002000850008BF
:101B900000B50E4A0E4B9269196892F8232083B063
:101BA000019142B1019A1B689A420DD103B05DF8D0
:101BB00004EBFFF7ADBF019A1B689A4204D103B052
:101BC0005DF804EBFFF76CBFFFF73AFB60120020F3
:101BD00000080020000000000000000000000000DD
:101BE00070B5164B164E9C693268E36AA06282B0EB
:101BF00004F12C05AB42019207D01A68E262184644
:101C0000FFF766FEE36AAB42F7D194F821309B07F9
:101C100005D1D4E904231A61D4E904325A610F20B2
:101C2000FFF78EFE019A33689A4205D1054802B04B
:101C3000BDE87040FFF78CBCFFF702FB601200208C
:101C400000080020308500080000000000000000AF
:101C500030B50C4C83B0236801930546202383F3F1
:101C6000118800F055F9FFF7EBFC019A23689A42BE
:101C700005D1284603B0BDE83040FFF7B1BFFFF7FC
:101C8000DFFA00BF00080020000000000000000094
:101C9000F0B5124D04682B6883B00193B4B194F889
:101CA0002030032B06460F460CD100233360019AE7
:101CB0002B68A7629A420FD1204603B0BDE8F040DE
:101CC000FFF706BE0648FFF743FCEEE7019A2B68D4
:101CD0009A4201D103B0F0BDFFF7B2FA000800202C
:101CE0004085000800000000000000000000000027
:101CF00070B5124D04682B6882B0A042019315D0D4
:101D000023680360586094F82030042B0E4602D0FC
:101D10000B48FFF71DFC019A2B68A6629A420BD173
:101D2000204602B0BDE87040FFF7D2BD019A2B6893
:101D30009A4201D102B070BDFFF782FA000800207C
:101D400010850008000000000000000000000000F6
:101D50002DE9F041DFF850800468D8F8003082B0F7
:101D6000A042019313D00F4F05460E4623682B6007
:101D70005D6094F82030042B02D03846FFF7E8FB72
:101D8000A6622046FFF7A4FD2C68A542EED1019A79
:101D9000D8F800309A4202D102B0BDE8F081FFF7D6
:101DA0004FFA00BF10850008000800200000000066
:101DB00000B5084B084A196883B001915168019A2F
:101DC0001B6881609A4202D103B05DF804FBFFF703
:101DD00037FA00BF00080020001000E000000000FB
:101DE000F0B51449144B0A68846883B00192134A11
:101DF0005B68D2F8A864C2681B1BD0E904450132B5
:101E00009B1BC26042688360E61845F1000793425D
:101E1000C0E9046709D80268934238BF0360019A99
:101E20000B689A4203D103B0F0BD4360F7E7FFF7B8
:101E300007FA00BF00080020001000E06012002038
:101E40002DE97048134E144B326883B001925B68E1
:101E50008B60D0E902411B1BD0E90445426814EBBA
:101E6000030B45F1000C01319342C0E90231C0E996
:101E700004BC0AD80268934238BF0360019A3368F1
:101E80009A4204D103B0BDE870884360F6E7FFF7DB
:101E9000D7F900BF00080020001000E0000000009B
:101EA00000B50949094A0B6883B001930198D2F83B
:101EB000B034096801338842C2F8B03402D103B0AB
:101EC0005DF804FBFFF7BCF9000800206012002059
:101ED00070B50D4C0D4A236882B00193019DD2F874
:101EE000B43424680133A542C2F8B43409D10E4693
:101EF00000F1500106F1500002B0BDE87040FFF75C
:101F00009FBFFFF79DF900BF00080020601200206E
:101F100000B5084B83B01A680192019A1B689A4277
:101F200005D1054803B05DF804EBFFF741BFFFF7AB
:101F300087F900BF000800201817002000000000EB
:101F400000B5084B83B01A680192019A1B689A4247
:101F500005D1054803B05DF804EBFFF741BFFFF77B
:101F60006FF900BF000800201817002000000000D3
:101F700000B5084B83B01A680192019A1B689A4217
:101F800005D1054803B05DF804EBFFF711BFFFF77B
:101F900057F900BF000800203017002000000000A3
:101FA00000B5084B83B01A680192019A1B689A42E7
:101FB00005D1054803B05DF804EBFFF711BFFFF74B
:101FC0003FF900BF0008002030170020000000008B
:101FD000F0B55D4E5D4B32689D6983B00446019259
:101FE000FFF726FC002C00F08480A06823690028FD
:101FF00043D0002B40F39780854276D0AA6883684F
:102000009A4208D990F820308260062B40D0072BE6
:1020100073D0002B5DD02746234603E09968AA6859
:10202000914233D31B689C42F8D12F607B686B6070
:1020300006201D607D60AC62FFF782FCA368AB42A6
:1020400002D04348FFF784FA2B6CA34202D04048E9
:10205000FFF77EFA2369012B05D1019A33689A4272
:102060006FD103B0F0BD019A33689A4269D1384804
:1020700003B0BDE8F040FFF76BBA002B58D1013335
:10208000A56023612B6CE3602C64E6E71F46CCE778
:10209000D0E900231A60D0E900325A60876A3B46D3
:1020A00003E099688268914247D31B689F42F8D148
:1020B00007607B68436018607860836AAA689868E4
:1020C00083689342A7D290F820308260062B9ED17D
:1020D000DEE7D0E90023012180F820101A60D0E962
:1020E00000325A60FFF7F4FB95E72369013323615F
:1020F000B3E71748FFF72CFA77E7D0E900231A6017
:10210000D0E900325A60876A3B4603E099688268EA
:10211000914214D31B689F42F8D107607B684360EB
:102120001860786077E70A48FFF712FAA06863E75B
:102130000748FFF70DFA2369A1E71F46B8E71F46D6
:10214000EBE7FFF77DF800BF0008002060120020D9
:102150006085000800000000000000000000000092
:1021600030B5154C83B0236801930546202383F3D3
:102170001188FFF7CDFEFFF763FA2846FFF728FF27
:10218000FFF77EFAFFF7DCFE0C4B1A689A4204D088
:10219000996993688A689A4208D3002383F3118867
:1021A000019A23689A4205D103B030BD0448FFF775
:1021B000CFF9F2E7FFF744F8000800206012002092
:1021C0005085000800000000000000000000000032
:1021D0002DE9F043DFF800813C4FD8F80030BE69AC
:1021E00083B005460193002864D0202383F311882F
:1021F000FFF78EFEFFF724FA336C002B5ED09B684E
:10220000B34202D03248FFF7A3F92B69002B49DD16
:10221000013B2B615BBB336CAB4202D02C48FFF718
:1022200097F9EB683364FFF703FB2B689D423ED0C0
:10223000D6E910495CB1FFF7FBFA23689C4203D052
:102240009B68994538BF9946E468002CF3D1C6F8DD
:1022500008902B6801222A611A682A605560AB60D9
:102260001A6CEA6018461D640021FFF7A9FBFFF70E
:1022700007FAFFF765FE3B68BB4204D0BA699B686A
:1022800092689A420AD3002383F31188019AD8F8FE
:1022900000309A4217D103B0BDE8F0830D48FFF734
:1022A00057F9F0E70A48FFF753F92B69B0E7002325
:1022B000AB60DCE70648FFF74BF996E70448FFF709
:1022C00047F9336C9BE7FEF7BBFF00BF60120020AD
:1022D00070850008508500080008002000000000FC
:1022E00070B5184E82B00446336801930D46FFF76F
:1022F00077FA0CB3E16B94F8203029430A2BE163A1
:1023000016D00B2B05D0019A33689A4218D102B02F
:1023100070BDA36A8B43F6D1019A336800219A42BB
:10232000A1620DD1204602B0BDE87040FFF7D0BADF
:10233000A36A1942F0D1E6E70348FFF709F9D9E7A4
:10234000FEF77EFF00080020A085000800000000C6
:10235000F0B5134F83B006463B6801930D46FFF777
:102360003FFAB6B13468A6420DD0E3682B43E36070
:1023700015B12269134203D0D4E90101FFF7B0FF80
:102380002468A642F1D1019A3B689A4205D103B074
:10239000F0BD0448FFF7DCF8E4E7FEF751FF00BFAB
:1023A00000080020808500080000000000000000F8
:1023B00070B5164D82B004462B6801930E46FFF7A8
:1023C0000FFAFFF70DFAD4E905239A42A36816D055
:1023D0000133511CA36061611670D4E904329A4242
:1023E0000AD220460021FFF783FC0020019A2B68C7
:1023F0009A4209D102B070BDE3686361F1E7002B36
:10240000E6D06FF00300F1E7FEF71AFF00080020A6
:1024100070B5154E82B0044633680193FFF7E0F9BA
:10242000FFF7DEF9D4E905329342A36815D020699D
:10243000511C0133A360A161814215780AD2204664
:102440000021FFF755FC2846019A33689A4209D1CA
:1024500002B070BDE368A361F1E7002BE7D06FF035
:102460000200F1E7FEF7ECFE00080020000000008B
:1024700070B51C4E82B0336801930446202383F369
:102480001188FFF745FDFFF7DBF8FFF7A9F9164ABA
:10249000164B15681B68E01D20F007005B1B984277
:1024A0009ABF401910600025FFF7EAF8FFF748FDD2
:1024B0000F4B1A689A4204D0996993688A689A42C5
:1024C00009D3002383F31188019A33689A4228467E
:1024D00005D102B070BD0748FFF73AF8F1E7FEF703
:1024E000AFFE00BF00080020D4180020D018002044
:1024F00060120020B085000800000000000000000D
:1025000080B50D4A0D4982B000AF13687B604B68FF
:1025100023F001034B60EFF30983683383F30988E9
:10252000002383F3118879681368994202D1083730
:10253000BD4680BDFEF784FE0008002030EF00E0BD
:10254000B0B5194C82B000AF23687B60202383F3C1
:102550001188164B5B6813F4006308D183F311886C
:102560007A6823689A421DD10837BD46B0BDF1EEA6
:10257000103AEFF309854FF080720D4B45F84C2C63
:10258000DB6845F8083CA5F1680383F30988FFF789
:102590005FFA18B1074B45F8503CE1E7064B45F8A8
:1025A000503CDDE7FEF74CFE0008002000ED00E0A7
:1025B00030EF00E0E1020008F40200080000000033
:1025C00070B5174D82B004462B6801930E46FFF795
:1025D00007F9F4B1FFF704F9636963B1314604F117
:1025E0000C00FFF7E5FE0028019A2B6808DB9A42F1
:1025F00013D102B070BD04216018FFF7A9FEEDE70A
:102600009A420AD1201D802102B0BDE87040FFF738
:102610009FBE0448FEF79CFFDCE7FEF711FE00BFFB
:1026200000080020C0850008000000000000000035
:10263000F0B5124D83B004462B6801930E46FFF7A8
:10264000CFF8A4B1012000FA06F362899BB212EA26
:10265000030706D1134320466381314601F000FF92
:102660003846019A2B689A4205D103B0F0BD044860
:10267000FEF76EFFE6E7FEF7E3FD00BF000800206F
:10268000D0850008000000000000000000000000ED
:10269000F0B5124D83B004462B6801930E46FFF748
:1026A0009FF8A4B1012000FA06F322899BB212EA36
:1026B000030706D1134320462381314601F0F0FE83
:1026C0003846019A2B689A4205D103B0F0BD044800
:1026D000FEF73EFFE6E7FEF7B3FD00BF000800206F
:1026E000F08500080000000000000000000000006D
:1026F00010B50D4A82B01168019102210170019C50
:10270000116800228C42C264C0E90222C0E904229E
:10271000826180F8342004D102B0BDE8104001F09D
:10272000B7BBFEF78DFD00BF0008002000000000D1
:10273000F0B5C34D83B0044600222B6880F83420E6
:1027400000F14402019301F07BFC63689B68002B5D
:1027500036D02046984798B3E16B94F8443094F80B
:102760004B0094F84A2042EA00228A422CBF0A46D3
:10277000E2631806E16800F1A680002A00F0848078
:10278000042384F834308B69A16BD96000265A6029
:102790001E709E603146204601F06AFC202383F3C0
:1027A0001188FFF7E5FBFEF78BFF31462046FFF768
:1027B0003FFFFEF7A5FFFFF7F3FB86F3118816E056
:1027C00094F8443013F06006184617D000212046D4
:1027D00001F0AEFE0021204601F08AFE63681B680E
:1027E00013B1052120469847062384F83430019A16
:1027F0002B689A4240F03A8103B0F0BD94F845103E
:1028000003F07F0242EA0122B2F5407F00F0058129
:1028100017D9B2F5C06F00F0C68040F28A80B2F5D9
:10282000106F64D040F602418A4200F0D880B2F5C1
:10283000006FCBD104F14F0201212664C4E90E21BF
:102840008DE7022A00F0D28040F29280B2F5807FBC
:1028500060D0B2F5817FB9D194F84630002BB5D164
:1028600094F8483013F00F0107D01F06204600F1FE
:10287000F38001F07DFE94F844000023C4E90E3398
:1028800023640306E16829D4052384F834304B69B6
:1028900000261E70DE605E609E603146204601F0BC
:1028A00087FC202383F31188FFF762FBFEF708FF04
:1028B00031462046FFF7ECFEFEF722FFFFF770FBE4
:1028C00086F3118893E74AB1012384F834304B69C9
:1028D000A16BD96000265A601E70DDE7032384F8DF
:1028E00034308B6900261E70DE605E6051E794F81C
:1028F000463084F84F30002B40F09E800323237035
:1029000063681B68002BB8D020460221984794F8D2
:102910004400B2E794F84630012B7FF457AFB4F887
:102920004C30A66323F00203C4E90F66A4F84C30D0
:10293000A7E740F202339A4222D0B2F5A06F7FF4AB
:1029400045AFB4F84430B3F5A06F96D194F8463053
:1029500084F84E30204601F013FB63681B6813B106
:10296000012120469847032394F84400237084E70C
:1029700092BB04F14C0002212264C4E90E01EEE690
:1029800094F84630002B7FF421AF94F8483013F0D0
:102990000F013FF472AF1E06204662D401F0A8FD7D
:1029A00094F8440069E794F84900616894F8483065
:1029B0004F6894F8462094F8471043EA00232046D5
:1029C000B84700283FF402AF4368A363016894F856
:1029D0004430C4E90F16C2E6012A7FF4F7AE194A63
:1029E000A26302210022C4E90F12B8E694F848302D
:1029F00003F00F011B06204628D401F0E1FA01285C
:102A000028D002287FF4E2AE0F4BA36302210023FB
:102A1000C4E90F1394F84430A1E694F84630012B32
:102A20007FF4D4AEB4F84C30A66343F00203C4E99B
:102A30000F66A4F84C3024E70423237060E700BF3E
:102A400000080020508600083086000801F0D8FAFF
:102A50000128D6D1064BD8E701F0AAFD94F844002E
:102A60000BE701F065FD94F8440006E7FEF7E8FB8C
:102A70004086000800000000000000000000000088
:102A800070B5454D90F834302A6882B00446019202
:102A9000062B57D8DFE803F004255404041E070072
:102AA0003E48FEF755FD0021204601F041FD002182
:102AB000204601F01DFD63681B6813B10521204607
:102AC0009847062384F83430019A2B689A4261D1E2
:102AD00002B070BD036C03B19847002384F8343012
:102AE000F2E790F84B0094F84A20E16BE36842EA81
:102AF0000022914205D21A8AB1FBF2F602FB1616A9
:102B000056B3032284F834209B6900261E70DE60D1
:102B1000C3E901663146204601F0AAFA202383F377
:102B20001188FFF725FAFEF7CBFD31462046FFF767
:102B30007FFDFEF7E5FDFFF733FA86F31188C3E763
:102B4000C368DEE7019A2B689A4223D1134802B08A
:102B5000BDE87040FEF7FCBC5B6931461E70DE606C
:102B6000C3E90166204601F023FB202383F311888B
:102B7000FFF7FEF9FEF7A4FD31462046FFF788FD7A
:102B8000FEF7BEFDFFF70CFA86F31188022384F8E6
:102B9000343099E7FEF754FB000800201086000847
:102BA00070B5304D90F834302A6882B004460192F6
:102BB000062B4AD8DFE803F00404043D1E04070096
:102BC0002948FEF7C5FC0021204601F0B1FC002198
:102BD000204601F08DFC63681B6813B10521204677
:102BE0009847062384F83430019A2B689A4236D1EC
:102BF00002B070BDC368052280F834205B690026EE
:102C00001E70DE60C3E90166314601F0D1FA20236F
:102C100083F31188FFF7ACF9FEF752FD31462046E9
:102C2000FFF736FDFEF76CFDFFF7BAF986F3118862
:102C3000DAE7C3689B699B68002BD5D1036C03B1AD
:102C40009847002384F83430CEE7019A2B689A42E3
:102C500005D1054802B0BDE87040FEF779BCFEF72B
:102C6000EFFA00BF000800202086000800000000E6
:102C700010B50F4C82B023680193FFF711F9FEF7EE
:102C80005FFD0C4B0C4A196801F03D019960136817
:102C90000BB150689847FEF77BFD019A23689A4272
:102CA00004D102B0BDE81040FFF74ABCFEF7C8FAF5
:102CB0000008002000600240D8180020000000003A
:102CC00030B5104C83B023680193FFF7E9F8FEF7A5
:102CD00037FD0D4B0D4819688268890901F03D01E7
:102CE0008D019D600AB1C0689047FEF751FD019AC1
:102CF00023689A4204D103B0BDE83040FFF720BCFE
:102D0000FEF79EFA0008002000600240D81800205C
:102D100030B5104C83B023680193FFF7C1F8FEF77C
:102D20000FFD0D4B0D4819680269090C01F03D01BA
:102D30000D049D600AB140699047FEF729FD019A94
:102D400023689A4204D103B0BDE83040FFF7F8BBD6
:102D5000FEF776FA0008002000600240D818002034
:102D600030B5104C83B023680193FFF799F8FEF754
:102D7000E7FC0D4B0D4819688269890D01F03D0192
:102D80008D059D600AB1C0699047FEF701FD019A6B
:102D900023689A4204D103B0BDE83040FFF7D0BBAE
:102DA000FEF74EFA0008002000600240D81800200C
:102DB00010B50F4C82B023680193FFF771F8FEF74E
:102DC000BFFC0C4B0C485968026A01F03D01D96008
:102DD0000AB1406A9047FEF7DBFC019A23689A42E9
:102DE00004D102B0BDE81040FFF7AABBFEF728FAF5
:102DF0000008002000600240D818002000000000F9
:102E000030B5104C83B023680193FFF749F8FEF703
:102E100097FC0D4B0D485968826A890901F03D0104
:102E20008D01DD600AB1C06A9047FEF7B1FC019ADE
:102E300023689A4204D103B0BDE83040FFF780BB5D
:102E4000FEF7FEF90008002000600240D8180020BC
:102E500030B5104C83B023680193FFF721F8FEF7DB
:102E60006FFC0D4B0D485968026B090C01F03D01D8
:102E70000D04DD600AB1406B9047FEF789FC019AB2
:102E800023689A4204D103B0BDE83040FFF758BB35
:102E9000FEF7D6F90008002000600240D818002094
:102EA00030B5104C83B023680193FEF7F9FFFEF7AD
:102EB00047FC0D4B0D485968826B890D01F03D01AF
:102EC0008D05DD600AB1C06B9047FEF761FC019A89
:102ED00023689A4204D103B0BDE83040FFF730BB0D
:102EE000FEF7AEF90008002000600240D81800206C
:102EF00010B50F4C82B023680193FEF7D1FFFEF7A7
:102F00001FFC0C4B0C481968026C01F03D019960E4
:102F10000AB1406C9047FEF73BFC019A23689A4245
:102F200004D102B0BDE81040FFF70ABBFEF788F9F4
:102F30000008002000640240D818002000000000B3
:102F400030B5104C83B023680193FEF7A9FFFEF75C
:102F5000F7FB0D4B0D481968826C890901F03D01A2
:102F60008D019D600AB1C06C9047FEF711FC019A7B
:102F700023689A4204D103B0BDE83040FFF7E0BABD
:102F8000FEF75EF90008002000640240D818002017
:102F900030B5104C83B023680193FEF781FFFEF734
:102FA000CFFB0D4B0D481968026D090C01F03D0176
:102FB0000D049D600AB1406D9047FEF7E9FB019A50
:102FC00023689A4204D103B0BDE83040FFF7B8BA95
:102FD000FEF736F90008002000640240D8180020EF
:102FE00030B5104C83B023680193FEF759FFFEF70C
:102FF000A7FB0D4B0D481968826D890D01F03D014D
:103000008D059D600AB1C06D9047FEF7C1FB019A26
:1030100023689A4204D103B0BDE83040FFF790BA6C
:10302000FEF70EF90008002000640240D8180020C6
:1030300010B50F4C82B023680193FEF731FFFEF705
:103040007FFB0C4B0C485968026E01F03D01D960C2
:103050000AB1406E9047FEF79BFB019A23689A42A3
:1030600004D102B0BDE81040FFF76ABAFEF7E8F8F5
:103070000008002000640240D81800200000000072
:1030800030B5104C83B023680193FEF709FFFEF7BB
:1030900057FB0D4B0D485968826E890901F03D01BF
:1030A0008D01DD600AB1C06E9047FEF771FB019A99
:1030B00023689A4204D103B0BDE83040FFF740BA1C
:1030C000FEF7BEF80008002000640240D818002077
:1030D00030B5104C83B023680193FEF7E1FEFEF794
:1030E0002FFB0D4B0D485968026F090C01F03D0193
:1030F0000D04DD600AB1406F9047FEF749FB019A6D
:1031000023689A4204D103B0BDE83040FFF718BAF3
:10311000FEF796F80008002000640240D81800204E
:1031200030B5104C83B023680193FEF7B9FEFEF76B
:1031300007FB0D4B0D485968826F890D01F03D0169
:103140008D05DD600AB1C06F9047FEF721FB019A43
:1031500023689A4204D103B0BDE83040FFF7F0B9CC
:10316000FEF76EF80008002000640240D818002026
:1031700010B53649364B0868364A82B04FF0805455
:1031800001904FF440401C6410601A6842F0010244
:103190001A601A689007FCD598682D4A20F0030041
:1031A000986098689860936813F00C03FBD11468DA
:1031B000274804F0F90414609360136843F4A023D3
:1031C000136003689A03FCD5436F214A43F001035F
:1031D0004367536F9B07FCD51F4B536013681D4813
:1031E00043F08073136043685C04FCD5184A13688D
:1031F0009801FCD5194BC2F884301368144843F089
:103200008063136003681B01FCD5154B154A82606F
:1032100040F205721A6083680D4A43F0020383602E
:10322000936803F00C03082BFAD1536C43F48043EA
:103230005364536E43F480435366019A0B689A4279
:1032400001D102B010BDFDF7FBFF00BF0008002058
:103250000038024000700040185440070030006001
:10326000003C02400094083800000000000000000C
:1032700030B5026B114C1268236883B00193136858
:1032800023F01F031360016B0A68136813F0010336
:10329000FBD10D7A49683D22AA400A60C26A536098
:1032A000C26A9360C36A01229A60019A23689A42B3
:1032B00001D103B030BDFDF7C3FF00BF00080020FF
:1032C00070B5574C82B023680193FEF7E9FDFEF715
:1032D00037FA544B1A6800211960910605D5524DF2
:1032E0002B6B1B685B68002B6FD1504B1A68002159
:1032F0009206196005D54E4D2B6B1B685B68002B41
:103300003BD14C4B1A680021196093062AD54A4DCF
:103310002B6B1B685B682BB32B691BB32846FFF72D
:10332000A7FF2B699B684BB105222A700121284613
:1033300098472B78052B04BF02232B7000262E61A3
:10334000202383F31188FEF713FEFEF7B9F94FF03F
:10335000FF313A48FEF79CFCFEF7D2F9FEF720FE5B
:1033600086F31188FEF714FA019A23689A4254D121
:1033700002B0BDE87040FFF7E3B82B69002BC0D066
:103380002846FFF775FF2B699B684BB105222A7011
:103390000121284698472B78052B04BF02232B7068
:1033A00000262E61202383F31188FEF7E1FDFEF74E
:1033B00087F94FF0FF312248FEF76AFCFEF7A0F9CB
:1033C000FEF7EEFD86F311889BE72B69002B8CD06E
:1033D0002846FFF74DFF2B699B684BB105222A70E9
:1033E0000121284698472B78052B04BF02232B7018
:1033F00000262E61202383F31188FEF7B9FDFEF726
:103400005FF94FF0FF310F48FEF742FCFEF778F905
:10341000FEF7C6FD86F3118867E7FDF711FF00BFD1
:103420000008002000200140581900200021014020
:103430009019002000220140C8190020DC1900204A
:10344000A41900206C1900200000000000000000FA
:1034500010B50E4C82B023680193FEF721FDFEF7F4
:103460006FF90B480B4A4368012151615B680021E9
:103470009847FEF78DF9019A23689A4204D102B069
:10348000BDE81040FFF75CB8FDF7DAFE0008002049
:10349000301A0020003C0140000000000000000045
:1034A00010B50E4C82B023680193FEF7F9FCFEF7CD
:1034B00047F90B480B4A436802215161DB6801213F
:1034C0009847FEF765F9019A23689A4204D102B041
:1034D000BDE81040FFF734B8FDF7B2FE0008002049
:1034E000301A0020003C01400000000000000000F5
:1034F00010B50E4C82B023680193FEF7D1FCFEF7A5
:103500001FF90B480B4A4368042151615B69022192
:103510009847FEF73DF9019A23689A4204D102B018
:10352000BDE81040FFF70CB8FDF78AFE0008002048
:10353000301A0020003C01400000000000000000A4
:1035400010B50E4C82B023680193FEF7A9FCFEF77C
:10355000F7F80B480B4A436808215161DB690321E6
:103560009847FEF715F9019A23689A4204D102B0F0
:10357000BDE81040FEF7E4BFFDF762FE0008002042
:10358000301A0020003C0140000000000000000054
:1035900010B50E4C82B023680193FEF781FCFEF754
:1035A000CFF80B480B4A4368102151615B6A042134
:1035B0009847FEF7EDF8019A23689A4204D102B0C9
:1035C000BDE81040FEF7BCBFFDF73AFE0008002042
:1035D000301A0020003C0140000000000000000004
:1035E00030B51E4D83B02B680193FEF759FCFEF7F2
:1035F000A7F81B4B5C6904F478725A61A30604D5E2
:10360000184843680521DB6A9847600604D51548C9
:10361000436806215B6B9847210604D5114843682F
:103620000721DB6B9847E20504D50E484368082163
:103630005B6C9847A30504D50A4843680921DB6CF5
:103640009847FEF7A5F8019A2B689A4204D103B077
:10365000BDE83040FEF774BFFDF7F2FD0008002022
:10366000003C0140301A0020000000000000000073
:1036700030B5224D83B02B680193FEF711FCFEF7A5
:103680005FF81F4B5C6904F47C425A61620504D503
:103690001C4843680A215B6D9847230504D51948E7
:1036A00043680B21DB6D9847E00404D51548436857
:1036B0000C215B6E9847A10404D5124843680D2184
:1036C000DB6E9847620404D50E4843680E215B6F99
:1036D0009847230404D50B4843680F21DB6F9847B4
:1036E000FEF756F8019A2B689A4204D103B0BDE860
:1036F0003040FEF725BFFDF7A3FD00BF0008002006
:10370000003C0140301A00200000000000000000D2
:1037100010B50F4C82B023680193FEF7C1FBFEF792
:103720000FF80C480C4A43684FF480315161D3F8CC
:10373000843010219847FEF72BF8019A23689A42AB
:1037400004D102B0BDE81040FEF7FABEFDF778FDE7
:1037500000080020301A0020003C0140000000005A
:1037600010B50F4C82B023680193FEF799FBFDF76B
:10377000E7FF0C480C4A43684FF400315161D3F81D
:103780008C3011219847FEF703F8019A23689A427A
:1037900004D102B0BDE81040FEF7D2BEFDF750FDE7
:1037A00000080020301A0020003C0140000000000A
:1037B00010B50F4C82B023680193FEF771FBFDF743
:1037C000BFFF0C480C4A43684FF480215161D3F885
:1037D000943012219847FDF7DBFF019A23689A4243
:1037E00004D102B0BDE81040FEF7AABEFDF728FDE7
:1037F00000080020301A0020003C014000000000BA
:1038000010B50F4C82B023680193FEF749FBFDF71A
:1038100097FF0C480C4A43684FF400215161D3F8DC
:103820009C3013219847FDF7B3FF019A23689A4211
:1038300004D102B0BDE81040FEF782BEFDF700FDE6
:1038400000080020301A0020003C01400000000069
:1038500010B50F4C82B023680193FEF721FBFDF7F2
:103860006FFF0C480C4A43684FF480115161D3F844
:10387000A43014219847FDF78BFF019A23689A42E0
:1038800004D102B0BDE81040FEF75ABEFDF7D8FCE7
:1038900000080020301A0020003C01400000000019
:1038A00010B50F4C82B023680193FEF7F9FAFDF7CB
:1038B00047FF0C480C4A43684FF400115161D3F89C
:1038C000AC3015219847FDF763FF019A23689A42AF
:1038D00004D102B0BDE81040FEF732BEFDF7B0FCE7
:1038E00000080020301A0020003C014000000000C9
:1038F00010B50F4C82B023680193FEF7D1FAFDF7A3
:103900001FFF0C480C4A43684FF480015161D3F803
:10391000B43016219847FDF73BFF019A23689A427D
:1039200004D102B0BDE81040FEF70ABEFDF788FCE6
:1039300000080020301A0020003C01400000000078
:1039400030B5184D184C2B6883B00193FEF7A8FAD8
:10395000FDF7F6FEE36A154A9A60202383F3118887
:10396000FEF706FBFDF7ACFE04F108000021FEF7B0
:10397000EFF904F11C000121FEF7EAFCFDF7C0FE9F
:10398000FEF70EFB002383F31188FDF701FF019A78
:103990002B689A4204D103B0BDE83040FEF7D0BD99
:1039A000FDF74EFC00080020001A00200101010074
:1039B00070B5274D274C2B6882B00193FEF770FA43
:1039C000FDF7BEFEE36ADE68B20721D1F30614D527
:1039D000E36A1024DC60202383F31188FEF7C8FA21
:1039E000FDF76EFE21461C48FEF7B2FCFDF788FE8F
:1039F000FEF7D6FA002383F31188FDF7C9FE019A7A
:103A00002B689A4221D102B0BDE87040FEF798BD04
:103A10005A6922F002025A61202383F31188FEF7CB
:103A2000A7FAFDF74DFE04F110000021FEF790F912
:103A300004F118000121FEF78BFCFDF761FEFEF793
:103A4000AFFA002383F31188C0E7FDF7F9FB00BF4D
:103A500000080020001A0020201A002000000000AA
:103A600070B5274D274C2B6882B00193FEF718FAEA
:103A7000FDF766FEE36A1E69B20721D1F30614D58D
:103A8000E36A10241C61202383F31188FEF770FA87
:103A9000FDF716FE21461C48FEF75AFCFDF730FEE6
:103AA000FEF77EFA002383F31188FDF771FE019A79
:103AB0002B689A4221D102B0BDE87040FEF740BDAC
:103AC0005A6922F010025A61202383F31188FEF70D
:103AD0004FFAFDF7F5FD04F110000021FEF738F96B
:103AE00004F118000221FEF733FCFDF709FEFEF792
:103AF00057FA002383F31188C0E7FDF7A1FB00BF4D
:103B000000080020001A0020201A002000000000F9
:103B100070B52C4D2C4C2B6882B00193FEF7C0F988
:103B2000FDF70EFEE36A5E681C225A6032072CD451
:103B300073071FD5E36A9C699A6904F0070622F0AF
:103B4000700214F0700F9A6118BF46F00806202327
:103B500083F31188FEF70CFAFDF7B2FD46EA044143
:103B60001A48FEF7F5FBFDF7CBFDFEF719FA002327
:103B700083F31188FDF70CFE019A2B689A421FD13E
:103B800002B0BDE87040FEF7DBBCE26A032323709D
:103B9000136823F002031360202383F31188FEF7D8
:103BA000E7F9FDF78DFD04F128000021FEF7D0FBB9
:103BB000FDF7A6FDFEF7F4F9002383F31188B7E7BC
:103BC000FDF73EFB00080020001A0020201A00200C
:103BD00030B5144D83B02B680193FEF761F9FDF702
:103BE000AFFD202383F31188FEF7C2F9FDF768FDCE
:103BF0000D4B0E480024DC632146FEF749F8FDF723
:103C00007FFDFEF7CDF984F31188FDF7C1FD019A20
:103C10002B689A4204D103B0BDE83040FEF790BC57
:103C2000FDF70EFB00080020002C0140741A002054
:103C30002DE9F041474E484D336882B00193FEF7BD
:103C40002FF9FDF77DFDAC6B444AA369676947EA2C
:103C5000034323F07F4393424ED02BD8073A93423D
:103C60003ED00132934216D1636823F4007363603F
:103C70002B6B1A68136843F001031360636843F405
:103C8000805363602B6B1B685B68012B03D8236830
:103C900023F48063236017F00A0F18BFA369FDF7B0
:103CA00077FD019A33689A4251D102B0BDE8F041E4
:103CB000FEF746BC2A4A934223D002329342EAD10D
:103CC0002B6B1B68D3F80480B8F1000F24D0AB8CA9
:103CD00043F00103AB84236843F4A0632360DEE771
:103CE000AB8C1A0A0BD003F0010343F0F00302F08F
:103CF000060213432361CEE7AB8CC3F34703236172
:103D0000C9E7636823F4007363606B6B1A68136818
:103D100043F001031360BEE7636823F4007363603C
:103D2000236843F400732360202383F31188FEF794
:103D30001FF9FDF7C5FC414605F12000FDF7A8FF7E
:103D4000FDF7DEFCFEF72CF988F31188A3E7FDF7F9
:103D500077FA00BF00080020841A00200800030042
:103D600082000700000000000000000000000000CA
:103D7000F0B5444C444DA36B2A6883B001925E6950
:103D8000FEF78EF8FDF7DCFCA26B06F45F43DB4325
:103D90005361636B1A68136823F01F031360606B31
:103DA0000168B2B20B68DB07FCD4077A41683D2397
:103DB000BB400B60236B19680B6823F01F030B607B
:103DC000206B01680B68DF07FCD4077A41683D234C
:103DD000BB400B6012F4807318BF0123A3609305EE
:103DE00003D5A36843F00203A360570530D4A3684A
:103DF000100544BF43F00803A360510444BF43F0DF
:103E00002003A360D20436B231D543F01003002E54
:103E1000A36031DB202383F31188FEF7A9F8FDF7B7
:103E20004FFC6FF001011948FDF732FFFDF768FC08
:103E3000FEF7B6F8002383F31188FDF7A9FC019A79
:103E40002B689A421CD103B0BDE8F040FEF778BB66
:103E5000A16B4B6823F400734B60A16B0B6843F4B8
:103E600000730B60A36843F00403A360C0E7002E57
:103E700002DB002BE1D0CDE743F04003A360C9E7AC
:103E8000FDF7DEF9841A002000080020A41A0020A3
:103E9000F0B5354E056D336883B007460193202396
:103EA0002B612C6914F02004FBD10C20FDF7B0FB32
:103EB00023464FF00060FF2105EB43120133C2F8A7
:103EC0000009C2F8000BC2F80819C2F8081B7A6D85
:103ED00092689A42F0D24FF0FF324FF00113C5F8CA
:103EE0001828C5F81C387B6D1A68BA651B686B62A8
:103EF0003A6D10231361146914F01004FBD10C20E7
:103F0000FDF786FBD5F80038184A23F4FE63C5F8A0
:103F10000038AB6943F4402343F01003AB6109233D
:103F2000C5F81038C5F81438114BFA60C5F8104BB5
:103F3000C5F8003BC5F81049C5F80039D7E9152484
:103F400004F11003BB655268934202D90948FDF79A
:103F5000FFFA44F48014AC62019A33689A4201D1AA
:103F600003B0F0BDFDF76CF9000800207086000872
:103F70004080001060860008000000000000000083
:103F800000B50C4A016D136890F84E0083B00193A0
:103F9000D1F8003823F4FE6343EA0013C1F8003877
:103FA00001991368994202D103B05DF804FBFDF753
:103FB00047F900BF000800200000000000000000DA
:103FC00000B50C4A036D106883B058314901019067
:103FD0005B5813F4004004D013F4001F14BF0120F9
:103FE000022001991368994202D103B05DF804FBE5
:103FF000FDF726F900080020000000000000000086
:1040000000B50C4A036D106883B048314901019036
:104010005B5813F4004004D013F4001F14BF0120B8
:10402000022001991368994202D103B05DF804FBA4
:10403000FDF706F900080020000000000000000065
:1040400010B500EB8101094BC9681868096A82B094
:104050000C6801904868146001991B68506099428F
:1040600001D102B010BDFDF7EBF800BF0008002041
:10407000F0B500EB8107134EFA683368956983B099
:104080006A6801932A6129B9402A03D940220E4C5B
:104090006A6001E042F0C044FB68006D5D8A00EB9D
:1040A00041116B1E1344B3FBF5F344EAC343C1F85B
:1040B000103B019A33689A4201D103B0F0BDFDF77D
:1040C000BFF800BF000800204000006000000000B2
:1040D0002DE9F041314EDFF8C880376DD8F8003057
:1040E00082B00546019307EB4013D3F8084BC3F8A1
:1040F000084B20070AD5D7F81438190706D506EB60
:1041000085032946DB6830465B689847E2073BD564
:10411000D7F81438DB0737D506EB8503D9688B69E8
:1041200058681A69904211D37389019CD8F800002D
:104130000122AA4023EA0203844273812CD1CB6876
:104140001648294602B0BDE8F0411847121A00246B
:10415000C3E9012429461148FFF78AFF202383F38E
:104160001188FDF705FFFDF7ABFA336D03EB45153D
:10417000D5F8003B43F08063C5F8003BFDF7C0FA7B
:10418000FDF70EFF84F31188019AD8F800309A42A7
:1041900002D102B0BDE8F081FDF752F8C01A00204C
:1041A00000080020000000000000000000000000E7
:1041B00030B500EB8105164CEA682368526983B07C
:1041C000019353681361C3B191B1EA68006D158A18
:1041D00000EB41116A1E1A44B2FBF5F243EAC243F6
:1041E000C1F81039019A23689A420ED103B030BD4C
:1041F000402B84BF40235360E7E7036D03EB41117D
:104200004FF40023C1F81039ECE7FDF719F800BFAF
:104210000008002000000000000000000000000076
:104220002DE9F0433E4EDFF80081356DD8F80030BF
:1042300083B00746019305EB4013D3F80849C3F850
:104240000849E10715D5D5F81038DA0711D506EB7E
:104250008003D9684B6958681A69904236D333890C
:104260000122BA4023EA020333818B683046394683
:104270009847230606D50123D5F8342803FA07F713
:10428000174207D1019AD8F800309A4245D103B0BD
:10429000BDE8F083202383F31188FDF769FEFDF765
:1042A0000FFAD5F83428F36D1E4822EA0702C5F844
:1042B00034281F430021F765FDF7EAFCFDF720FADB
:1042C000FDF76EFE002383F31188DBE7121A4FF02F
:1042D0000009C3E9012939463046FFF769FF202369
:1042E00083F31188FDF744FEFDF7EAF9326D02EB26
:1042F00047100123D0F8001941F00441C0F800191B
:10430000D2F83418BB400B43C2F83438FDF7F8F943
:10431000FDF746FE89F31188ABE7FCF791FF00BF7C
:10432000C01A0020201B0020000800200000000010
:10433000F0B5454F454D3B6883B00193FDF7B0FDA7
:10434000FDF7FEF92E6D7469B3691C40E1047461D8
:1043500044D4A20448BFD6F80838230704D56B68B4
:10436000DB680BB139489847E50620D46003D6F8DE
:10437000185807D5E90754D4AA0757D46B075AD45D
:104380002E074AD4240307D5E80336D4A90339D429
:104390006A033CD42B032CD4FDF7FAF9019A3B684D
:1043A0009A424ED103B0BDE8F040FEF7C9B82023D1
:1043B00083F31188FDF7DCFDFDF782F9B36924482A
:1043C00023F01003B3610021FDF762FCFDF798F9BB
:1043D000FDF7E6FD002383F31188C7E72846FEF7C3
:1043E00087F96B681B68002BB3D0002128469847DB
:1043F000AFE70320FFF76CFECEE70020FFF768FE73
:10440000A903C5D50120FFF763FE6A03C2D50220C8
:10441000FFF75EFE2B03BFD5EBE70320FFF700FF9E
:10442000B0E70020FFF7FCFEAA07A7D50120FFF7A1
:10443000F7FE6B07A4D50220FFF7F2FE2E07A1D5E9
:10444000EBE7FCF7FDFE00BF00080020C01A0020CB
:10445000201B002000000000000000000000000001
:1044600000B50B4A036D83B003EB41111368019350
:10447000D1F8003B43F08063C1F8003B0199136819
:10448000994202D103B05DF804FBFCF7D9FE00BFEE
:1044900000080020000000000000000000000000F4
:1044A00030B50F4D026D2B6883B002EB41120193C2
:1044B000D2F8004944F00444C2F80049026D0123D7
:1044C000D2F8340803FA01F10143C2F83418019A12
:1044D0002B689A4201D103B030BDFCF7B1FE00BF9A
:1044E00000080020000000000000000000000000A4
:1044F00000B50B4A036D83B003EB411113680193C0
:10450000D1F8003B43F40013C1F8003B0199136854
:10451000994202D103B05DF804FBFCF791FE00BFA5
:104520000008002000000000000000000000000063
:1045300000B50B4A036D83B003EB4111136801937F
:10454000D1F8003943F40013C1F800390199136818
:10455000994202D103B05DF804FBFCF771FE00BF85
:104560000008002000000000000000000000000023
:1045700000B50B4A036D83B003EB4111136801933F
:10458000D1F8003B23F40013C1F8003B01991368F4
:10459000994202D103B05DF804FBFCF751FE00BF65
:1045A00000080020000000000000000000000000E3
:1045B00000B50B4A036D83B003EB411113680193FF
:1045C000D1F8003923F40013C1F8003901991368B8
:1045D000994202D103B05DF804FBFCF731FE00BF45
:1045E00000080020000000000000000000000000A3
:1045F00010B5104BC1681A6882B0019200220A619E
:10460000017804290AD1C168022404700A60C168D3
:104610000A61C168CA6822F0FF02CA60019A1B6879
:104620009A4205D143685B6802B0BDE81040184764
:10463000FCF706FE0008002000000000000000005B
:1046400010B50C4C82B023680193FDF729FCFDF7EF
:1046500077F80948FFF7CCFFFDF79AF8019A23682D
:104660009A4204D102B0BDE81040FDF769BFFCF7E3
:10467000E7FD00BF000800205C1D002000000000D6
:1046800010B50C4C82B023680193FDF709FCFDF7CF
:1046900057F80948FFF7ACFFFDF77AF8019A23684D
:1046A0009A4204D102B0BDE81040FDF749BFFCF7C3
:1046B000C7FD00BF000800203C1D002000000000D6
:1046C00010B50C4C82B023680193FDF7E9FBFDF7B0
:1046D00037F80948FFF78CFFFDF75AF8019A23686D
:1046E0009A4204D102B0BDE81040FDF729BFFCF7A3
:1046F000A7FD00BF000800204C1D002000000000A6
:1047000070B51E4E8369326882B0054601921A69FF
:10471000DC681440E2B2D2431A61A30703D54368B0
:104720001B6903B19847600704D56B689B690BB19F
:1047300028469847210704D56B681B6A0BB12846A9
:104740009847E20604D56B689B6A0BB128469847E8
:10475000E3070BD56B689B6843B1019932689142BE
:104760000AD1284602B0BDE870401847019A336864
:104770009A4201D102B070BDFCF762FD0008002032
:1047800010B50C4C82B023680193FDF789FBFCF750
:10479000D7FF0948FFF7B4FFFCF7FAFF019A236837
:1047A0009A4204D102B0BDE81040FDF7C9BEFCF743
:1047B00047FD00BF000800206C1D00200000000025
:1047C00010B50C4C82B023680193FDF769FBFCF730
:1047D000B7FF0948FFF794FFFCF7DAFF019A236857
:1047E0009A4204D102B0BDE81040FDF7A9BEFCF723
:1047F00027FD00BF00080020881D002000000000E9
:1048000010B50C4C82B023680193FDF749FBFCF70F
:1048100097FF0948FFF774FFFCF7BAFF019A236876
:104820009A4204D102B0BDE81040FDF789BEFCF702
:1048300007FD00BF00080020A41D002000000000AC
:1048400010B50C4C82B023680193FDF729FBFCF7EF
:1048500077FF0948FFF754FFFCF79AFF019A236896
:104860009A4204D102B0BDE81040FDF769BEFCF7E2
:10487000E7FC00BF00080020C01D00200000000071
:1048800010B5124C82B023680193FDF709FBFCF7C9
:1048900057FF202383F31188FDF76AFBFCF710FF15
:1048A000FCF766FEFCF72CFFFDF77AFB002383F391
:1048B0001188FCF76DFF019A23689A4204D102B077
:1048C000BDE81040FDF73CBEFCF7BAFC0008002034
:1048D0002DE9F047DFF89081604FD8F8003082B0C2
:1048E0000193FDF7DDFAFCF72BFF7D6FD5F80CA0E7
:1048F0002B68DA059CB26ED4202383F31188FDF770
:1049000037FBFCF7DDFE14F02F0F2DD0544EA6F12F
:10491000040907E0A00669681DD42C68A4B214F04D
:104920002F0F21D02307F5D014F0080F0CBF002162
:104930008021E00748BF41F02001A20748BF41F0B5
:104940004001630748BF41F480713046FDF700FD28
:10495000A0066968E1D5C9B24846FDF731FE2C686A
:10496000A4B214F02F0FDDD1FCF7CAFEFDF718FB3F
:10497000002383F311881AF0800F01D0220641D45E
:1049800063060BD4FCF704FF019AD8F800309A4272
:1049900061D102B0BDE8F047FDF7D2BD202383F31B
:1049A0001188FDF7E5FAFCF78BFEFCF719FFD7E954
:1049B00011239A423BD04FF6BF730AEA03036FF00C
:1049C0004002EB602A60FCF79BFEFDF7E9FA00234A
:1049D00083F31188D6E7202383F31188FDF7C8FA03
:1049E000FCF76EFE381D4FF40071FDF7B1FC6FF45B
:1049F00080732B60FCF784FEFDF7D2FA002383F36B
:104A0000118879E7202383F31188FDF7B1FAFCF7C9
:104A100057FE1448FDF7FCFC002810DB6860FCF72B
:104A20006FFEFDF7BDFA002383F31188A8E7BB6B87
:104A3000002BC0D010210A48FDF78AFCBBE70821F3
:104A40000748FDF785FC4FF63F730AEA030343F07E
:104A50004003EB60E3E7FCF7F3FB00BFDC1D002045
:104A6000E01D00200C1E00200008002000000000B7
:104A700000B5074B83B01A680192019A1B689A42ED
:104A800004D103B05DF804EBFEF772BBFCF7D8FB72
:104A900000080020000000000000000000000000EE
:104AA0002DE9F04F01F10B05162D83B0064623D8F2
:104AB000102900F2B980FCF7C3FC1025182302204E
:104AC000C54F3B44A3F108025C68944200F0668144
:104AD000636823F003032344D4E902515A68E96070
:104AE00042F001028D6030465A60FCF7C1FC083488
:104AF000204603B0BDE8F08F35F0070500F1948043
:104B0000A94200F29180FCF79BFCB5F5FC7FC0F058
:104B100083816B0A00F08F80042B00F24681AB0981
:104B200003F1390003F1380CC300AB4F3B44A3F150
:104B300008015C68A14206D10CE0002A80F21D81C8
:104B4000E468A14206D0636823F003035A1B0F2ACE
:104B5000F3DD60463C69DFF894C2644571D0636858
:104B600023F003035A1B0F2A00F34481002AC7E9EC
:104B700004CC80F22681B3F5007F80F06981DB08E8
:104B8000591C7A6857F83180C4F808804FF0010E3C
:104B90009B100EFA03F307EBC10E1343AEF10802AC
:104BA000E2607B6047F83140C8F80C408210012475
:104BB00094409C424BD81C4206D120F00300640074
:104BC0001C4200F10400FAD007EBC009CE46804633
:104BD000DEF80C309E4507D122E1002A80F22981BF
:104BE000DB689E4500F01C81596821F003014A1BD7
:104BF0000F2AF2DDD3E9028E5C1945F001055D60F4
:104C000042F00105C8F80CE03046CEF80880C7E94C
:104C10000444C4E902CC65605A500193FCF728FCB7
:104C2000019B03F1080463E700240C232046336052
:104C300003B0BDE8F08F4FF4007340204FF03F0CFD
:104C400073E77B688210012494409C42B3D9BC680E
:104C5000636823F00309A94503D3A9EB05030F2BD0
:104C60007BDC5E4BDFF888A11A68DAF8003001338C
:104C700005EB020800F0488108F5805808F10F089C
:104C800028F47F6828F00F0841463046FCF708FCFE
:104C9000B0F1FF3F834600F0048104EB0900584562
:104CA00000F2FD804E4A13684344136000F04D81CA
:104CB000DAF8001001311BBFABEB00001B18CAF87B
:104CC00000B013601BF0070300F03481C3F108014A
:104CD000C3F580538B440833D844C8F30B08A3EBC7
:104CE0000808414630460192FCF7DAFB431C019A62
:104CF00000F04681A0EB0B01414441F00101136833
:104D0000C7F808B04344BC42CBF80410136015D078
:104D1000B9F10F0F40F230816068A9F10C0121F068
:104D2000070100F0010004EB010C08434FF0050EF1
:104D30000F296060CCE901EE00F23A81294A2A4845
:104D40001168BC688B42016888BF136062688B423F
:104D500022F0030288BF0360A7E0621943F0010359
:104D600045F0010565603046BA605360FCF780FB92
:104D70000834204603B0BDE8F08F2344E1685A6848
:104D8000A56842F00102E96030468D605A60FCF788
:104D90006FFB0834204603B0BDE8F08FDC68A34207
:104DA00008BF02303FF4D6AE92E6142B71D9542BD3
:104DB00000F2AD802B0B03F16F0003F16E0CC3000A
:104DC000B3E6234430465A6842F001025A60083480
:104DD000FCF74EFB8CE600BFB40D0020841E0020C3
:104DE000541E00207C1E0020801E0020BC0D0020D0
:104DF000BC110020611945F0010E42F00105C4F814
:104E000004E03046C7E90411C1E902CC4D60E2502C
:104E1000FCF72EFB08346BE6E80805F108034FE6C3
:104E200008F1010818F0030F0EF1080E7FF4D0AE60
:104E300052E019441C464A68DB6854F8085F42F0A7
:104E400001024A603046EB609D60FCF711FB4FE6C3
:104E50005A0A042A35D9142A6FD802F15C01C90014
:104E60005B3207EB010E7958AEF1080E8E4558D033
:104E70004A6822F003029A4202D989688E45F7D126
:104E8000D1F80CE07B68C4E9021ECEF80840CC6083
:104E90008CE603F15C0003F15B0CC30045E6BC4209
:104EA00072D0BC68626822F003029542A2EB05034F
:104EB00002D80F2B3FF751AF3046FCF7D9FA002448
:104EC00016E69A0902F13901C9003832C9E7D9F862
:104ED0000090994540F0838010F0030FA9F108037A
:104EE00000F1FF30F3D17B6823EA04037B606400A8
:104EF0009C423FF6ACAE1CB9A9E6640008F1040878
:104F00001C42FAD040465FE608F11008BCE6B3F553
:104F1000AA7F26D8EB0B03F1780003F1770CC300CE
:104F200003E67B6892104FF0010808FA02F213437F
:104F30007B60A8E74FF48053CEE6542A29D81A0B99
:104F400002F16F01C9006E328BE7C0F30B0100293B
:104F50007FF4AEAE09EB0802B96842F001024A6084
:104F6000ECE640F2545293421CD8AB0C03F17D00A6
:104F700003F17C0CC300D8E50123CBF804309BE798
:104F800001214FF00008BAE6164A13684344136043
:104F90008EE6B2F5AA7F14D8DA0B02F17801C900C7
:104FA00077325EE74FF47E737F204FF07E0CBCE5D6
:104FB00004F108013046019202F002FB019A1368E5
:104FC000BCE640F254518A4205D89A0C02F17D01A8
:104FD000C9007C3245E74FF47E717E2241E77B6851
:104FE00085E700BF541E0020000000000000000004
:104FF00082B049B15AB16BB113780B601278101CB2
:1050000018BF012002B0704701A9002AF3D1104651
:1050100002B070476FF00100F4E700BF000000002D
:10502000F0B4860743D0541E002A3ED0CAB20346CD
:1050300002E014F1FF3438D303F8012B9D07F8D1B7
:10504000032C2BD9CDB245EA05250F2C45EA0545A1
:1050500016D9A4F110073F0903F1200606EB071645
:1050600003F1100242E9045542E902551032B242FE
:10507000F8D104F00F040137032C03EB07130DD90B
:105080001E462246043A032A46F8045BFAD8221F39
:1050900022F003020432134404F003042CB1C9B219
:1050A0001C4403F8011B9C42FBD1F0BC7047144622
:1050B0000346C5E7000000000000000000000000FB
:1050C0000CB430B5214B00299DB01C6838DB4FF47F
:1050D000027302900690ADF8143021A819D001395E
:1050E0000346209A0491079101904FF6FF7502A99B
:1050F0002046ADF8165000F02BF8421C01DA8B2345
:105100002360029B00221A701DB0BDE8304002B03F
:10511000704703460491079101904FF6FF75209A5E
:10512000ADF8165002A9204600F012F8431C04DB2B
:105130001DB0BDE8304002B070478B232360F7E715
:105140008B2323604FF0FF30F2E700BF18080020E8
:105150002DE9F04FC1B00C46089191460B93099090
:1051600002F026FB036814931846FBF7F1FEA389AF
:1051700013901D0603D52369002B00F018879FEDBF
:10518000947B00238DED107BCDE924330DF1C00815
:105190000F93129315930693CDF88C80C246CB469D
:1051A0009BF80030002B00F09980252B5C4602D143
:1051B0001CE0252B03D014F8013F002BF9D1A4EB00
:1051C0000B0585B1DDE9243201332A44072BCAF8E7
:1051D00000B0CAF80450CDE9243277DC0AF1080A9D
:1051E000069B2B4406932378002B77D000231A4686
:1051F0008DF86F30194607931F464FF0FF306378E4
:10520000059004F1010B0BF1010B9946A9F1200364
:10521000582B00F27583DFE813F0C30273037303A6
:10522000BE02730373037303730373037303B20246
:10523000AD02730367034C0373036C03B600B6003F
:10524000B600B600B600B600B600B600B6007303EE
:10525000730373037303730373037303730373039E
:1052600073033703E4027303E402730373037303EA
:105270007303DF0273037303A500730373037303E4
:10528000730373037500730373038D027303730356
:10529000730373037303730373037303730373035E
:1052A0007C012F01E402E402E4022A012F017303CE
:1052B00073031D0173030901A700CA00C50073032E
:1052C000E1007303770073037303CB0223AADDE9C4
:1052D000081002F0A5FD40B9C24681E7259B23B125
:1052E0000998089923AA02F09BFD089B9B8913F05B
:1052F000400F069B18BF4FF0FF330693069841B04E
:10530000BDE8F08F47F01007BE0640F127850B9DE2
:10531000073525F0070303F10802D3E900450B9296
:105320000123059A002601328DF86F6000F0288471
:1053300027F08002039254EA050240F0C080059AEB
:10534000002A40F0B086002B40F0D68417F001030D
:105350000A9300F0488540AB1A46302302F8413DDD
:105360000D92CDE047F0100717F0200300F0008504
:105370000B9D073525F0070303F10802D3E900452B
:105380000B920023CDE7A9F1300300201BF8019B0D
:1053900000EB800003EB4000A9F13003092BF5D9A5
:1053A000079033E747F020079BF800302BE70B9A74
:1053B000094B14681293043247F63003ADF870308D
:1053C00047F002070B92002502234FF07809A8E767
:1053D0000000000000000000E48600080B9A13683B
:1053E0000D9300248DF86F40151D002B00F00B86E7
:1053F000059A531C00F0B38621460D98FBF718FE62
:10540000002800F094870D9B0594C31A0A930B950E
:10541000039723EAE3739DF86F6004930E94002EC4
:1054200000F08980049B0133049384E0002A41F05A
:10543000A4800B9AB90652F8043B0B9200F1128536
:10544000FA0600F106867F0640F10386BDF81820B3
:105450001A80A5E69BF800306C2B03BF9BF8013047
:1054600047F020070BF1010B47F01007CBE647F0A0
:1054700040079BF80030C6E6002A41F06080BC0679
:1054800040F10A820B9D073525F00703D3E900455B
:1054900003F108020B92002C75F10003C0F2AF84F7
:1054A000059B9DF86F60013300F0B48427F0800203
:1054B000039254EA05024FF001033FF440AF012B81
:1054C00000F06283022B00F08283414600E0114627
:1054D000E20842EA4572E80804F00703054614466C
:1054E000303354EA050001F8013C01F1FF32EED1FE
:1054F00003980D92C00700F15984A8EB02030A93A8
:10550000059B0A9A9342B8BF1346049300230E9357
:1055100085E70B9900230A688DF86F301E468DF8D9
:10552000982001230A1DCDE90373CDE90A3226AB89
:1055300005960E960D93039B13F0020702D0049B71
:1055400002330493039B259C13F084030C933FD1F7
:10555000079B049A9D1A002D3ADD102D249B29DD0E
:1055600052462146AA461026DDE9085406E0AAF173
:10557000100ABAF1100F02F1080218DD0133BB481E
:105580001031072BCDE92431C2E90006EFDD23AA53
:105590002946204602F044FC00287FF4A6AEAAF17A
:1055A000100ABAF1100FDDE924314246E6DC554617
:1055B0000C4692460133AD4A2C44072BCDE92434E6
:1055C000CAE9002500F349859DF86F600AF1080AD1
:1055D00076B1249B013301340DF16F010122072BB9
:1055E000CDE92434CAE9001200F3DB820AF1080A8B
:1055F0006FB1249B013302341CA90222072BCDE991
:105600002434CAE9001200F3D7820AF1080A0C9B7D
:10561000802B00F0E781059B0A9A9D1A002D31DD51
:10562000102D249A924F22DD534621461026DDE9A3
:1056300008A404E0103D102D03F1080315DD01322C
:105640001031072ACDE92421C3E90076F2DD23AA2F
:105650005146204602F0E4FB00287FF446AE103DA0
:10566000102DDDE924214346E9DC9A460C4601323F
:105670002C44072ACDE92424CAE9007500F3BC8232
:105680000AF1080A039BDF0500F15081249B0D9A63
:10569000CAF800200A9ACAF8042001331444072BE0
:1056A0002594249300F30E820AF1080A039B5A07FB
:1056B00031D5079B049A9D1A002D2CDD102D249BBB
:1056C0001FDD1026DDE9089704E0103D102D0AF1DA
:1056D000080A16DD0133654A1034072BCDE924345E
:1056E000CAE90026F1DD23AA4946384602F098FBB4
:1056F00000287FF4FAAD103D102DDDE92434C246B8
:10570000E8DC0133594A2C44072BCDE92434CAE99B
:10571000002500F35E83DDE9063204998A42ACBFBE
:105720009B185B180693002C40F09581002324936E
:10573000C24635E5002A40F010874E4B1293B90659
:105740003DD50B9D073525F00703D3E9004503F14F
:1057500008020B92FE0740F1D18054EA050300F0E5
:10576000CD8030238DF870308DF8719047F00207AE
:105770000223D6E59BF8003001222B2143E50B984C
:105780009BF8003004680794002C00F10400C0F27C
:105790000A840B9037E547F001079BF8003032E5AB
:1057A0009BF8003000297FF42EAD012220212AE54C
:1057B000002A40F0E686304B1293B906C1D40B9B09
:1057C000FA0653F8044B0B9300F111837B0640F16A
:1057D0000E83A4B20025BDE747F008079BF8003010
:1057E00011E5002A40F0BD860B9D073525F0070521
:1057F00095ED007B52EC171B22F0004317938DEDC3
:10580000167A05F10804DDE916014FF0FF321B4B53
:105810000B948DED107BFBF7E3FC002840F0318307
:105820004FF0FF32154BDDE91601FBF7BBFC0028FA
:1058300040F0278300220023DDE91001FBF7A8FCDC
:10584000002840F025859DF86F600D4A0D4B03211F
:10585000002027F08004B9F1470FD8BF1A46CDE9E0
:10586000041003940D920A910E90D8E50087000869
:1058700010870008D0860008E4860008FFFFEF7F4D
:10588000C4860008C0860008002A40F06E8647F0F3
:105890001007BC063FF5F6AD0B9BF80653F8044B1A
:1058A0000B9300F1A682790640F1A38224B2E5179A
:1058B000F1E59BF80090B9F12A0F0BF1010000F01F
:1058C0001886A9F13003092B834600F207850020D2
:1058D0001BF8019B00EB800003EB4000A9F13003B3
:1058E000092BF5D9059091E49BF8003047F00407A7
:1058F00089E447F080079BF8003084E4022310E538
:10590000002A40F03686B9F1000F3FF4E7AC0023DF
:1059100001221E468DF86F3005930E9326AB04923C
:105920008DF8989003970A920D9304E6B9F1650FEC
:1059300040F3D38000220023DDE91001FBF71EFCB9
:10594000002800F06981249BB14ACAF80020013385
:1059500001340122072BCDE92434CAF8042000F3D6
:10596000CE830AF1080A1D9B0F9A259C934280F270
:105970002B82249B149ACAF80020139ACAF8042098
:1059800001331444072BCDE9243400F331830AF1A9
:10599000080A0F9B5D1E002D7FF788AE102D249AFC
:1059A0009C4F40F3858323461026DDE9084905E036
:1059B0000AF1080A103D102D40F3798301321033AB
:1059C000072ACDE92423CAE90076F1DD23AA21467E
:1059D000484602F025FA00287FF487ACDDE924234D
:1059E000C246E7E7079B049A9D1A002D7FF713AE86
:1059F000102D249A874F22DD534621461026DDE9DB
:105A000008A404E0103D102D03F1080315DD013258
:105A10001031072ACDE92421C3E90076F2DD23AA5B
:105A20005146204602F0FCF900287FF45EAC103DA0
:105A3000102DDDE924214346E9DC9A460C4601326B
:105A40002C44072ACDE92424CAE9007500F33A83DF
:105A50000AF1080ADFE523AADDE9081002F0E0F9FF
:105A600000283FF463AE40E423AADDE9081002F009
:105A7000D7F900287FF439AC1D9B259CC2461BB981
:105A80000F9A002A00F07583249A1499CAF800101E
:105A90001399CAF8041001320C44072A2594249261
:105AA00000F350840AF1080A002BC0F287840F9B90
:105AB0000D9901321C44072ACDE92424CAE90013B8
:105AC0007FF7F2AD23AADDE9081002F0A9F900285A
:105AD0007FF40BAC259CC246E8E50F9A249B012A73
