:020000040800F2
:1000000000040020C1010008F13D0008F13D000896
:10001000212F0008F13D0008F13D0008F13D0008E6
:10002000F13D0008F13D0008F13D000811600008B5
:10003000F13D0008F13D0008F13D000821C900082C
:10004000F13D000851980008E1990008319A000834
:10005000F13D0008F13D000891950008E195000888
:100060003196000881960008D1960008E1870008C3
:100070003188000881880008D1880008218900089B
:1000800071890008C1890008D1920008D19B00083D
:10009000419C0008F19C0008A19D000821970008E0
:1000A000F13D0008F13D000881C30008F13D000862
:1000B000E1C4000821C5000861C5000861AB000863
:1000C000A1AC0008F13D0008F13D0008F13D000839
:1000D000F13D0008F13D0008F13D0008E1C90008CC
:1000E000B1970008A1980008F1980008C1C3000862
:1000F000F13D0008F13D0008F13D0008118A0008BB
:10010000F13D0008319F0008A1C50008F13D00083D
:10011000F13D0008F13D000841C30008F13D000831
:10012000618A0008B18A0008018B0008518B000821
:10013000A18B0008F13D000841990008F13D00083D
:10014000F13D0008F13D0008F13D000881BF0008C5
:10015000F18B0008418C0008918C0008F13D0008EB
:10016000F13D0008F13D0008F13D0008F13D0008B7
:1001700091990008F13D0008A11D0008F13D00081B
:10018000F13D0008F13D0008F13D0008F13D000897
:10019000F13D0008F13D0008F13D0008F13D000887
:1001A000F13D0008F13D0008F13D0008F13D000877
:1001B000F13D0008F13D0008F13D0008F13D000867
:1001C00072B62E4880F3098840F20000CCF200009D
:1001D0004EF63471CEF20001086040F20000C0F229
:1001E000F0004EF68851CEF2000108604FF000009A
:1001F000E1EE100A4EF63C71CEF2000108600620D6
:1002000080F31488BFF36F8F0CF0DAFC4FF0553099
:100210001B491C4A91423CBF41F8040BFAE71A49BA
:10022000164A91423CBF41F8040BFAE71749184AB5
:10023000184B9A423EBF51F8040B42F8040BF8E702
:1002400000201549154A91423CBF41F8040BFAE7DA
:1002500003F0B6FD124C134DAC4203DA54F8041B04
:100260008847F9E701F024F80F4C104DAC4203DA4F
:1002700054F8041B8847F9E703F0B2BD00080020DA
:10028000000000200004002000040020581E010887
:10029000000800201C12002020120020983A0020A4
:1002A000C0010008C0010008C0010008C00100082A
:1002B0002DE9F04F2DED108AC1F80CD0D0F80CD0FC
:1002C000BDEC108ABDE8F08F03F0D2FE04F008FF09
:1002D000002383F311882846A047002004F0A0FCE7
:1002E00004F0E6FE03F0A4FE04F0C2FA03F0C0FE40
:1002F00004F0F6FE00DFFEE7000000000000000052
:1003000081F0004102E000BF83F0004330B54FEAC6
:1003100041044FEA430594EA050F08BF90EA020F33
:100320001FBF54EA000C55EA020C7FEA645C7FEAC6
:10033000655C00F0E2804FEA5454D4EB5555B8BFE9
:100340006D420CDD2C4480EA020281EA030382EA5A
:10035000000083EA010180EA020281EA0303362DEC
:1003600088BF30BD11F0004F4FEA01314FF4801CBF
:100370004CEA113102D0404261EB410113F0004FD1
:100380004FEA03334CEA133302D0524263EB430388
:1003900094EA050F00F0A780A4F10104D5F1200E26
:1003A0000DDB02FA0EFC22FA05F2801841F1000181
:1003B00003FA0EF2801843FA05F359410EE0A5F155
:1003C00020050EF1200E012A03FA0EFC28BF4CF086
:1003D000020C43FA05F3C01851EBE37101F000453C
:1003E00007D54FF0000EDCF1000C7EEB00006EEB49
:1003F0000101B1F5801F1BD3B1F5001F0CD34908D3
:100400005FEA30004FEA3C0C04F101044FEA445229
:1004100012F5800F80F09A80BCF1004F08BF5FEAB0
:10042000500C50F1000041EB045141EA050130BD90
:100430005FEA4C0C404141EB010111F4801FA4F133
:100440000104E9D191F0000F04BF01460020B1FA88
:1004500081F308BF2033A3F10B03B3F120020CDAC0
:100460000C3208DD02F1140CC2F10C0201FA0CF09E
:1004700021FA02F10CE002F11402D8BFC2F1200C03
:1004800001FA02F120FA0CFCDCBF41EA0C019040B9
:10049000E41AA2BF01EB0451294330BD6FEA040402
:1004A0001F3C1CDA0C340EDC04F11404C4F12002ED
:1004B00020FA04F001FA02F340EA030021FA04F3FF
:1004C00045EA030130BDC4F10C04C4F1200220FA56
:1004D00002F001FA04F340EA0300294630BD21FA94
:1004E00004F0294630BD94F0000F83F4801306BF5A
:1004F00081F480110134013D4EE77FEA645C18BF4E
:100500007FEA655C29D094EA050F08BF90EA020FE4
:1005100005D054EA000C04BF1946104630BD91EADC
:10052000030F1EBF0021002030BD5FEA545C05D1DF
:100530004000494128BF41F0004130BD14F580041E
:100540003CBF01F5801130BD01F0004545F0FE4192
:1005500041F470014FF0000030BD7FEA645C1ABFC7
:10056000194610467FEA655C1CBF0B46024650EAFE
:10057000013406BF52EA033591EA030F41F400212A
:1005800030BD00BF90F0000F04BF0021704730B5B0
:100590004FF4806404F132044FF000054FF0000185
:1005A00050E700BF90F0000F04BF0021704730B546
:1005B0004FF4806404F1320410F0004548BF40421B
:1005C0004FF000013EE700BF42004FEAE2014FEA70
:1005D00031014FEA02701FBF12F07F4393F07F4F4B
:1005E00081F06051704732F07F4208BF704793F04E
:1005F0007F4F04BF41F40021704730B54FF4607461
:1006000001F0004521F000411CE700BF50EA010263
:1006100008BF704730B54FF000050AE050EA01020C
:1006200008BF704730B511F0004502D5404261EB7C
:1006300041014FF4806404F132045FEA915C3FF4BD
:10064000D8AE4FF003025FEADC0C18BF03325FEA5A
:10065000DC0C18BF033202EBDC02C2F1200300FA0B
:1006600003FC20FA02F001FA03FE40EA0E0021FA30
:1006700002F11444BDE600BF0000000000000000CD
:1006800070B54FF0FF0C4CF4E06C1CEA11541DBF28
:100690001CEA135594EA0C0F95EA0C0F00F0DEF8F3
:1006A0002C4481EA030621EA4C5123EA4C5350EAD8
:1006B000013518BF52EA033541F4801143F4801329
:1006C00038D0A0FB02CE4FF00005E1FB02E506F0BA
:1006D0000042E0FB03E54FF00006E1FB03569CF00F
:1006E000000F18BF4EF0010EA4F1FF04B6F5007F15
:1006F00064F5407404D25FEA4E0E6D4146EB060687
:1007000042EAC62141EA55514FEAC52040EA5E500F
:100710004FEACE2EB4F1FD0C88BFBCF5E06F1ED8B9
:10072000BEF1004F08BF5FEA500E50F1000041EBF0
:10073000045170BD06F0004646EA010140EA02009D
:1007400081EA0301B4EB5C04C2BFD4EB0C0541EABF
:10075000045170BD41F480114FF0000E013C00F3D4
:10076000AB8014F1360FDEBF002001F0004170BDF8
:10077000C4F10004203C35DA0C341BDC04F1140411
:10078000C4F1200500FA05F320FA04F001FA05F29D
:1007900040EA020001F0004221F0004110EBD3706A
:1007A00021FA04F642EB06015EEA430E08BF20EA96
:1007B000D37070BDC4F10C04C4F1200500FA04F339
:1007C00020FA05F001FA04F240EA020001F00041CB
:1007D00010EBD37041F100015EEA430E08BF20EA3E
:1007E000D37070BDC4F1200500FA05F24EEA020E86
:1007F00020FA04F301FA05F243EA020321FA04F0B5
:1008000001F0004121FA04F220EA020000EBD3706B
:100810005EEA430E08BF20EAD37070BD94F0000F6B
:100820000FD101F00046400041EB010111F4801F9F
:1008300008BF013CF7D041EA060195F0000F18BF50
:10084000704703F00046520043EB030313F4801F8C
:1008500008BF013DF7D043EA0603704794EA0C0F46
:100860000CEA135518BF95EA0C0F0CD050EA41065C
:1008700018BF52EA4306D1D181EA030101F00041D9
:100880004FF0000070BD50EA410606BF1046194601
:1008900052EA430619D094EA0C0F02D150EA01360D
:1008A00013D195EA0C0F05D152EA03361CBF10464E
:1008B00019460AD181EA030101F0004141F0FE41ED
:1008C00041F470014FF0000070BD41F0FE4141F471
:1008D000780170BD70B54FF0FF0C4CF4E06C1CEA71
:1008E00011541DBF1CEA135594EA0C0F95EA0C0F26
:1008F00000F0A7F8A4EB050481EA030E52EA0335E1
:100900004FEA013100F088804FEA03334FF0805501
:1009100045EA131343EA12634FEA022245EA11152E
:1009200045EA10654FEA00260EF000419D4208BFDF
:10093000964244F1FD0404F5407402D25B084FEA8C
:100940003202B61A65EB03055B084FEA32024FF438
:1009500080104FF4002CB6EB020E75EB030E22BF95
:10096000B61A754640EA0C005B084FEA3202B6EB55
:10097000020E75EB030E22BFB61A754640EA5C0004
:100980005B084FEA3202B6EB020E75EB030E22BF94
:10099000B61A754640EA9C005B084FEA3202B6EB95
:1009A000020E75EB030E22BFB61A754640EADC0054
:1009B00055EA060E18D04FEA051545EA16754FEAB6
:1009C00006164FEAC30343EA52734FEAC2025FEAD4
:1009D0001C1CC0D111F4801F0BD141EA00014FF063
:1009E00000004FF0004CB6E711F4801F04BF014334
:1009F0000020B4F1FD0C88BFBCF5E06F3FF6AFAE50
:100A0000B5EB030C04BFB6EB020C5FEA500C50F1DF
:100A1000000041EB045170BD0EF0004E4EEA113162
:100A200014EB5C04C2BFD4EB0C0541EA045170BD69
:100A300041F480114FF0000E013C90E645EA060EAD
:100A40008DE60CEA135594EA0C0F08BF95EA0C0FDB
:100A50003FF43BAF94EA0C0F0AD150EA01347FF423
:100A600034AF95EA0C0F7FF425AF104619462CE7FA
:100A700095EA0C0F06D152EA03353FF4FDAE10465D
:100A8000194622E750EA410618BF52EA43067FF4AE
:100A9000C5AE50EA41047FF40DAF52EA43057FF43E
:100AA000EBAE12E7000000000000000000000000B4
:100AB0004FF0FF3C06E000BF4FF0010C02E000BF2A
:100AC0004FF0010C4DF804CD4FEA410C7FEA6C5C0D
:100AD0004FEA430C18BF7FEA6C5C1BD001B050EAB0
:100AE000410C0CBF52EA430C91EA030F02BF90EA9B
:100AF000020F0020704710F1000F91EA030F58BF5A
:100B0000994208BF90422CBFD8176FEAE37040F0BB
:100B1000010070474FEA410C7FEA6C5C02D150EA59
:100B2000013C07D14FEA430C7FEA6C5CD6D152EA14
:100B3000033CD3D05DF8040B704700BF84461046D9
:100B400062468C461946634600E000BF01B5FFF7D8
:100B5000B7FF002848BF10F1000F01BD4DF808EDA8
:100B6000FFF7F4FF0CBF012000205DF808FB00BF79
:100B70004DF808EDFFF7EAFF34BF012000205DF8D3
:100B800008FB00BF4DF808EDFFF7E0FF94BF012020
:100B900000205DF808FB00BF4DF808EDFFF7CEFF21
:100BA00094BF012000205DF808FB00BF4DF808ED60
:100BB000FFF7C4FF34BF012000205DF808FB00BF31
:100BC0004FEA410212F5001215D211D56FF4787375
:100BD000B3EB625212D94FEAC12343F0004343EA18
:100BE000505311F0004F23FA02F018BF40427047F3
:100BF0004FF00000704750EA013005D111F000407D
:100C000008BF6FF0004070474FF00000704700BF12
:100C10004FEA4102B2F1E04324BFB3F5001CDCF11E
:100C2000FE5C0DD901F0004C4FEAC0024CEA507056
:100C3000B2F1004F40EB830008BF20F00100704785
:100C400011F0804F21D113F13872BCBF01F0004088
:100C5000704741F480114FEA5252C2F11802C2F1BA
:100C6000200C10FA0CF320FA02F018BF40F001003B
:100C70004FEAC1234FEAD32303FA0CFC40EA0C00ED
:100C800023FA02F34FEA4303CCE77FEA625307D12A
:100C900050EA01331EBF4FF0FE4040F44000704761
:100CA00001F0004040F0FE4040F40000704700BFFB
:100CB00053B94AB9002908BF00281CBF4FF0FF31C3
:100CC0004FF0FF3000F074B9ADF1080C6DE904CEBF
:100CD00000F006F8DDF804E0DDE9022304B0704717
:100CE0002DE9F047089E04468846002B4BD18A42E6
:100CF000154667D9B2FA82F24AB1C2F1200701FA69
:100D000002F320FA07F7954047EA030894404FEAB8
:100D1000154E230CB8FBFEF71FFA85FC0EFB178857
:100D200043EA084307FB0CF1994209D9EB1807F194
:100D3000FF3080F01B81994240F21881023F2B4422
:100D40005B1AA4B2B3FBFEF00EFB103344EA03447B
:100D500000FB0CFCA44509D92C1900F1FF3380F0ED
:100D60000781A44540F2048102382C4440EA074040
:100D7000A4EB0C0400271EB1D4400023C6E90043B5
:100D80003946BDE8F0878B4209D9002E00F0EB8090
:100D90000027C6E9000138463946BDE8F087B3FAB6
:100DA00083F7002F47D18B4202D3824200F2FA80B0
:100DB000841A61EB030301209846002EE0D0C6E9B7
:100DC0000048DDE702B9FFDEB2FA82F2002A40F005
:100DD0008F80491B4FEA154E1FFA85F80127B1FB9A
:100DE000FEFC230C0EFB1C1143EA014308FB0CF133
:100DF000994207D9EB180CF1FF3002D2994200F268
:100E0000CD808446591AA3B2B1FBFEF00EFB10143C
:100E100043EA044408FB00F8A04507D92C1900F167
:100E2000FF3302D2A04500F2B6801846A4EB0804B6
:100E300040EA0C409FE7C7F1200CBB4022FA0CFEB1
:100E40004EEA030E01FA07F420FA0CF521FA0CF32E
:100E50004FEA1E482543B3FBF8F92C0C08FB193365
:100E60001FFA8EFA44EA034309FB0AF49C4202FA91
:100E700007F200FA07F10BD91EEB030309F1FF306B
:100E800080F087809C4240F28480A9F1020973447B
:100E90001B1BADB2B3FBF8F008FB103345EA03446B
:100EA00000FB0AFAA24508D91EEB040400F1FF3347
:100EB0006BD2A24569D90238744440EA0940A0FBCC
:100EC0000289A4EB0A044C45C2464B4654D351D088
:100ED000002E69D0B1EB0A0564EB030404FA0CFCA4
:100EE000FD40FC404CEA0505C6E90054002747E7F1
:100EF000C2F1200320FA03F7954001FA02F021FA2B
:100F000003F34FEA154E3843010CB3FBFEF71FFA0B
:100F100085F80EFB173341EA034107FB08F38B42C8
:100F200004FA02F407D9691807F1FF3C2FD28B426B
:100F30002DD9023F2944CB1A81B2B3FBFEF00EFB40
:100F4000103341EA034100FB08F38B4207D96918CB
:100F500000F1FF3C17D28B4215D902382944C91A37
:100F600040EA07473BE73746304609E70746E7E6EA
:100F70001846FBE64145ABD2B8EB020A69EB0E021C
:100F800001381346A4E76046E9E7184695E7674647
:100F9000D1E781467CE702382C4447E7ACF1020CEC
:100FA0002B442FE7384608E73746E9E60000000003
:100FB000704700BF000000000000000000000000BB
:100FC000844641EA000313F003036DD1403A41D354
:100FD00051F8043B40F8043B51F8043B40F8043B13
:100FE00051F8043B40F8043B51F8043B40F8043B03
:100FF00051F8043B40F8043B51F8043B40F8043BF3
:1010000051F8043B40F8043B51F8043B40F8043BE2
:1010100051F8043B40F8043B51F8043B40F8043BD2
:1010200051F8043B40F8043B51F8043B40F8043BC2
:1010300051F8043B40F8043B51F8043B40F8043BB2
:1010400051F8043B40F8043B51F8043B40F8043BA2
:10105000403ABDD2303211D351F8043B40F8043B42
:1010600051F8043B40F8043B51F8043B40F8043B82
:1010700051F8043B40F8043B103AEDD20C3205D352
:1010800051F8043B40F8043B043AF9D2043208D04A
:10109000D2071CBF11F8013B00F8013B01D30B88BC
:1010A00003806046704700BF082A13D38B078DD09A
:1010B00010F003038AD0C3F10403D21ADB071CBF6C
:1010C00011F8013B00F8013B80D331F8023B20F8D6
:1010D000023B7BE7043AD9D3013A11F8013B00F80F
:1010E000013BF9D20B7803704B7843708B78837097
:1010F0006046704700000000000000000000000093
:1011000090F800F06DE9024520F007016FF0000C47
:1011100010F0070491F820F040F049804FF00004EF
:101120006FF00700D1E9002391F840F000F10800CA
:1011300082FA4CF2A4FA8CF283FA4CF3A2FA8CF302
:101140004BBBD1E9022382FA4CF200F10800A4FA69
:101150008CF283FA4CF3A2FA8CF3E3B9D1E90423BD
:1011600082FA4CF200F10800A4FA8CF283FA4CF3F4
:10117000A2FA8CF37BB9D1E9062301F1200182FAAE
:101180004CF200F10800A4FA8CF283FA4CF3A2FAB4
:101190008CF3002BC6D0002A04BF04301A4612BAC2
:1011A000B2FA82F2FDE8024500EBD2007047D1E9C5
:1011B000002304F00305C4F100004FEAC50514F054
:1011C000040F91F840F00CFA05F562EA05021CBF25
:1011D00063EA050362464FF00004A9E7000000003F
:1011E00001F0FF01102A2BDB10F0070F08D010F8D8
:1011F000013B013A8B422DD010F0070F42B3F6D1DC
:10120000F0B441EA012141EA014122F007047FF0F4
:1012100000070023F0E80256083C85EA010586EA4B
:10122000010685FA47F5A3FA87F586FA47F6A5FA87
:1012300087F68EB9EED1F0BC01F0FF0102F0070293
:1012400032B110F8013B013A83EA010313B1F8D13E
:101250000020704701387047002D06BF354603381F
:10126000073815F0010F07D1013015F4807F02BF58
:10127000013015F4C03F0130F0BC0138704700BFA9
:101280004FEA410C7FEA6C5C02D150EA013C0AD182
:101290004FEA430C7FEA6C5C02D152EA033C02D174
:1012A0004FF0000070474FF0010070470000000051
:1012B00000B5124B83B01B68019304F009FF02F0E4
:1012C000AFFD01F0D5FD02F0EBFB01F089F801F074
:1012D0005FFC02F005F90A4A0A490B4802F0C0FC1B
:1012E00002F0EEFA02F03CFB00F072FB00F0D0FCE2
:1012F0004FF47A7003F0D4FBFAE700BF0008002037
:10130000040800200C08002020120020000000002B
:1013100000B5084B83B01A680192019A1B689A4283
:1013200005D1054803B05DF804EB02F0E1BDFFF71D
:10133000EFFF00BF00080020D00B010800000000F4
:1013400070B52DED028B284E82B03368019308EE04
:10135000100A002002F094F8002002F0A9F82348B7
:1013600002F02EF84FF4A57002F042F802F058F89F
:10137000054602F06DF89FED1E6ADFED1E6ADFED97
:101380001E7AB8EE488A88EE067AB5EE006A27EE35
:10139000267AF2EE0A6A27EE067A27EE277AC7EE59
:1013A000267AFDEEE77A17EE904AA5420BDAA042C4
:1013B00002DB08E0844206DD02F032F8054602F066
:1013C00047F8AC42F6DC002001F0FAFF019A3368DE
:1013D0009A4207D1002002B0BDEC028BBDE87040FC
:1013E00002F006B8FFF794FF00080020B6FEFFFFEA
:1013F0000000B442CD75864100007A440000000030
:1014000070B52DED028B284E82B03368019308EE43
:10141000100A002002F034F8002002F049F84FF4DE
:10142000A57001F0CDFF214801F0E2FF01F0F8FFC7
:10143000054602F00DF89FED1E6ADFED1E6ADFED36
:101440001E7AB8EE488A88EE067AB5EE006A27EE74
:10145000267AF2EE0A6A27EE067A27EE277AC7EE98
:10146000267AFDEEE77A17EE904AA5420BDAA04203
:1014700002DB08E0844206DD01F0D2FF054601F000
:10148000E7FFAC42F6DC002001F09AFF019A3368D6
:101490009A4207D1002002B0BDEC028BBDE870403B
:1014A00001F0A6BFFFF734FF00080020B6FEFFFFE3
:1014B0000000B442CD75864100007A44000000006F
:1014C00000B50A4B83B01A680192019A1B6820B9D3
:1014D0009A4209D103B05DF804FB9A4204D103B0EB
:1014E0005DF804EBFFF72CBFFFF712FF00080020A8
:1014F00000B50A4B83B01A680192019A1B6820B9A3
:101500009A4209D103B05DF804FB9A4204D103B0BA
:101510005DF804EBFFF774BFFFF7FAFE0008002048
:1015200010B51F4C82B023680193032831D8DFE83F
:1015300000F023160C02019A23689A4227D15A2000
:1015400002B0BDE81040FFF75BBF019A23689A42E2
:101550001DD15A2002B0BDE81040FFF7F1BE11487E
:1015600001F02EFF019A23689A4210D10D4802B073
:10157000BDE8104001F03CBF4FF4A57001F020FF22
:10158000019A23689A4208BF4FF4A570EFD0FFF785
:10159000BFFE019A23689A42F9D102B010BD00BF84
:1015A00000080020B6FEFFFF000000000000000061
:1015B00030B52B4D83B0441A2B6801932046FEF7BB
:1015C000F1FF21F00043194623A3D3E90023FFF7DD
:1015D000CFFAA8BB234A9FED247A1368234407EE71
:1015E000903AF8EEE77AF4EEC77AF1EE10FA1ADDE7
:1015F0004FF49D739FED1D7A13604FF4487000FB0C
:1016000004F307EE903AF8EEE77A77EE877AF5EE94
:10161000C07AF1EE10FA12DD0020019A2B689A428E
:1016200018D103B030BD9FED127AF4EEC77AF1EE17
:1016300010FA07D50F4B9FED107A1360DDE707D442
:101640000220EAE7B0EE0C7A136027EE877AD4E73F
:101650000120E2E7FFF75CFE0000000000C06240EE
:10166000000800204412002092249D430060894419
:1016700092249DC3C6FEFFFF006089C400000000E5
:1016800030B5184C83B023680193022002F088F92A
:101690004FF47A71FFF78CFF40B9134B1B78A3B955
:1016A000019A23689A420ED103B030BD0128F7D1C8
:1016B0000D4B1B78002BF3D00220FFF719FF019A86
:1016C00023689A4208D0FFF723FE0220FFF7F8FEB6
:1016D000019A23689A42F6D1002003B0BDE8304059
:1016E000FFF71EBF000800202008002000000000B7
:1016F0002DE9F04F854D864F2B6885B0022003936E
:1017000002F04EF98046002002F04AF98146052099
:1017100002F046F93B788246002B3DD1B8F1770FB5
:101720007C4C7D4E00F38A80B9F1FA0F00F3E38020
:1017300040F0B280794900220023C1E9002300274C
:10174000B420C6E900232770FFF7D2FE3846FFF722
:10175000E7FE202383F31188714E03F0A9FC02F009
:1017600067FCB76A02F084FC03F0BAFC3368B3424A
:1017700007D0B2699B6892689A4202D2694802F027
:10178000B7FB002383F3118807F23B51384603F07F
:10179000C7F90123237078E05F4EDFF880B15D4C1C
:1017A000D6E90023DBE900015B084FEA32028B42F5
:1017B0004FF0000C08BF824284F800C05AD30022C8
:1017C00000235A20CBE90023C6E9002387F800C094
:1017D000CDF804C0FFF78CFEDDF804C06046FFF7CB
:1017E0009FFE202383F31188DFF834B103F060FCFF
:1017F00002F01EFCDBF82830019302F039FC03F004
:101800006FFCDBF80020019B5A4509D0DBF818106B
:1018100092688968914203D2424802F069FB019BB9
:10182000002282F3118803F23B51184603F078F945
:101830000123B8F1770F23707FF776AFB8F1780FF7
:101840003FF478AFB9F1F90F3ADDB9F1FA0F3FF48F
:1018500071AFBAF1590F3FF76DAF30490022002345
:1018600000275A20C1E90023C6E900232770FFF7AB
:1018700027FE6BE70120FFF753FEDBE9002312F19F
:10188000FF3043F1FF31CBE90001039A2B689A4204
:1018900039D105B0BDE8F08F204FD7E90023D6E954
:1018A000000112F1010A43F1000B10F1010841F1AE
:1018B00000090023C7E900ABC6E900892370E4E70B
:1018C0004FF00108002084F80080FFF729FED6E9D8
:1018D0000023002B08BF0B2AD7D3039A2B6887F865
:1018E000008000219A4221700DD1404605B0BDE82C
:1018F000F04FFFF715BE0949002200230027C1E978
:1019000000235A201DE7FFF703FD00BF0008002059
:101910004012002020080020381200203012002041
:10192000B82B0020000C010800000000000000009F
:101930002DE9F047204C214BA26921491B68DFF8B3
:101940008890204EDFF884A0916182B04FF020088B
:10195000019300270DE0FFF7CBFE3368052B18BF7E
:10196000013305F1640128460CBF3760336003F092
:10197000D7F888F3118803F09BFB02F059FBA56AA6
:1019800002F076FB03F0ACFB2368A34207D0A26908
:101990009B6892689A4202D2504602F0A9FA87F3F5
:1019A000118899F80030002BD5D03368052BD2D19F
:1019B000FFF766FECFE700BFB82B0020000800202D
:1019C000F00B01082C12002020080020000C010858
:1019D00010B50A4C0A4B22680A4884B04FF45E7175
:1019E000039200220092412203F002F8039A236836
:1019F0009A4201D104B010BDFFF78AFC0008002014
:101A0000311900084812002000000000000000000A
:101A10000EB410B583B005AA094C52F8041B236814
:101A20000848009201930BF023F9019A23689A4227
:101A300004D103B0BDE8104003B07047FFF768FC65
:101A40000008002024290020000000000000000001
:101A50002DE9F04F564A574B926957499161ADF2C3
:101A60000C5D01AE1B68CDF8043530464FF4A06222
:101A700000210BF0A5FE0DF20458504803F0B8FB0E
:101A80004F4B00221A604F4B1A604F4B1A6000F008
:101A90007FFD0023C25CF254C118F218023349786A
:101AA0005170B3F5A06FF5D1454B1A68454BD3F88B
:101AB00000C0454B4FF0000E1F681546F246F14638
:101AC000314648780C78831003F0380304F0070B94
:101AD0007F2C43EA0B0300F01F0084BF01354FF059
:101AE000010E202B01F10201C4BF0CF1010C4FF0DB
:101AF00001090F2884BF01374FF0010A8845E0D162
:101B0000B9F1000F4FD1BAF1000F01D02E4B1F6079
:101B1000BEF1000F02D02A4B2A461D60294C2B49EA
:101B20002B48294DFFF774FF22682A492848FFF700
:101B30006FFF2A6828492648FFF76AFF204B1B6879
:101B4000B3F5A07F99DD2368B3F5A07F95DD2B6801
:101B5000B3F5A07F91DD012001F012F9202383F37A
:101B6000118803F0A5FA02F063FA114A1546946A47
:101B700002F07EFA03F0B4FA2B68AB4207D0AA69F0
:101B80009B6892689A4202D2144802F0B1F900238D
:101B900083F3118804F5FA61204602F0C1FF0020AA
:101BA00001F0EEF869E7074BC3F800C0ABE700BFF0
:101BB000B82B002000080020600C01082408002039
:101BC000C8150020C4150020C0150020100C010805
:101BD00024290020240C01083C0C0108700C010889
:101BE00080B5234C234AA36923491668996186B0BE
:101BF000022320250A220021009305964FF420732A
:101C0000CDE9015530201D4E1D4F00F069FD00F05B
:101C10006FFC002000F0A4FCB04600F009FC13E0CB
:101C200002F0FEFD02F024FA03F05AFA2368A34200
:101C300007D0A2699B6892689A4202D2384602F0A5
:101C400057F9002383F3118800F0CAFC00F030FC40
:101C500085F3118803F02CFA02F0EAF902F0B8FAE1
:101C6000B368002BDCDC404603F0FAFAD8E700BF8B
:101C7000B82B002000080020500C01082408002088
:101C8000700C0108000000000000000000000000CF
:101C900030B50E4C0E4B22680E4885B000250392DD
:101CA00040F678114022009502F0A2FE0A4B009502
:101CB00040220A484FF4AF6102F09AFE039A23686B
:101CC0009A4201D105B030BDFFF722FB0008002089
:101CD000511A0008481B0020E11B0008D015002005
:101CE00030B5104D81682B680F4A83B001930B68A3
:101CF00023F001030B608168946A03E0936A1B1B65
:101D0000C72B09D8086810F00100F7D1019A2B6899
:101D10009A4204D103B030BD4FF0FF30F6E7FFF731
:101D2000F7FA00BF00080020B82B002000000000D8
:101D300030B5184D83B02B68019311F00C0F044699
:101D40000AD00378032B13D00622636822709A68A6
:101D50001AB100212046904763685B688BB10199F6
:101D60002A68914213D1204603B0BDE8304018479D
:101D7000FFF7B6FF0622636822709A68002AE8D14E
:101D8000EBE7019A2B689A4201D103B030BDFFF70F
:101D9000BFFA00BF000800200000000000000000A3
:101DA000F0B5284D83B02B68019303F049F902F098
:101DB000BFF9254B1E69F20715D55A69234C42F02D
:101DC00001025A612778BB1F012B2AD905226368BB
:101DD00022701B680BB120469847042F27D0022F92
:101DE00025D003232370B30710D5174A174C536926
:101DF00043F0020353612378032B1DD063689B6873
:101E00000622227013B101211048984702F0B8F958
:101E1000019A2B689A4213D103B0BDE8F04004F058
:101E200017B9019A2B689A420AD103B0F0BD022378
:101E30002370B307EAD5D8E72046FFF751FFDDE767
:101E4000FFF766FA0008002000000550C0240020BB
:101E500030B50B4D0B4C2B6883B02046019300F03E
:101E60002FF9019A2B680848084D094921619A42C7
:101E7000C4E9025001D103B030BDFFF749FA00BFF9
:101E800000080020C02400208C1801080000055024
:101E900016550202000000000000000000000000D3
:101EA0002DE9F0412F4C0578266882B0012D01966E
:101EB00006D0019A23689A4252D102B0BDE8F0815F
:101EC000294DA842F5D10E4690461F46274AE8689C
:101ED0002B460C2106F03CFF002839D1D5E902320F
:101EE000126828339360EB681A68042151611B68FB
:101EF000C3F80C80EB681A6817611B68B6085E604F
:101F00002B694FB343F480232B61E968184A0968B1
:101F10000B60EB6819680B6843F001030B60536BAF
:101F200043F0010353630B214E2006F0F1FBD5E98A
:101F30000113DA6842F00102DA60DA6842F0020264
:101F4000DA60CA6822F4804222F001021A60B0E727
:101F5000084801F0CDFFC1E723F480232B61D4E7CB
:101F6000FFF7D6F900080020C0240020311D00082A
:101F700000380240800C0108000000000000000052
:101F800030B5184C0378226883B0022B019205D03B
:101F9000019A23689A4223D103B030BD124B984274
:101FA0000546F5D18168114A0B6823F4804323F07C
:101FB00001030B608168CB6823F00F03CB60536B88
:101FC00023F0010353634E2006F0CAFB019A2368F5
:101FD0009A4205D1E86803B0BDE8304006F020BF62
:101FE000FFF796F900080020C024002000380240C6
:101FF00000B50F4B0278196883B0022A01910ED107
:1020000081680A6842F002020A6081680A6842F444
:1020100080420A6081680A6842F001020A60019AFF
:102020001B689A4202D103B05DF804FBFFF770F918
:102030000008002000000000000000000000000078
:1020400000B50F4B0278196883B0022A01910ED1B6
:1020500081680A6822F002020A6081680A6842F414
:1020600080420A6081680A6842F001020A60019AAF
:102070001B689A4202D103B05DF804FBFFF748F9F0
:102080000008002000000000000000000000000028
:1020900000B5074B83B01A680192019A1B689A42F7
:1020A00004D103B05DF804EBFFF7D2BEFFF730F9BF
:1020B00000080020000000000000000000000000F8
:1020C00000B5084B83B01A68019201220270019A90
:1020D0001B6800219A42416002D103B05DF804FB05
:1020E000FFF716F9000800200000000000000000C3
:1020F0002DE9F043254D83B02C680194DDF828903C
:102100000F4616469846044618B111B1204B9A4224
:102110002FD9204801F0ECFE202383F3118802F030
:10212000C7FF01F085FF2378012B02D0194801F089
:10213000DFFE4246314620464B466760FFF7B0FE61
:102140000223237001F094FF02F0CAFF124B1A68B9
:102150009A4204D0996993688A689A420FD30023FF
:1021600083F31188019A2B689A420CD103B0BDE821
:10217000F0839307CDD1B8F1000FCDD1C9E707485F
:1021800001F0B6FEEBE7FFF7C3F800BF0008002040
:10219000FCFF0300B00C0108B82B0020A00C0108C4
:1021A00030B51C4D83B02B680193044658B32023EF
:1021B00083F3118802F07CFF01F03AFF2378022BB1
:1021C00002D0154801F094FE2046FFF7D9FE012306
:1021D000237001F04DFF02F083FF104B1A689A4202
:1021E00004D0996993688A689A4208D3002383F3DC
:1021F0001188019A2B689A4209D103B030BD084872
:1022000001F076FEF2E7044801F072FECFE7FFF737
:102210007FF800BF00080020C00C0108B82B002088
:10222000A00C0108000000000000000000000000F9
:1022300030B51C4D83B02B680193044658B320235E
:1022400083F3118802F034FF01F0F2FE2378022BB1
:1022500002D0154801F04CFE2046FFF7C9FE0423CA
:10226000237001F005FF02F03BFF104B1A689A4201
:1022700004D0996993688A689A4208D3002383F34B
:102280001188019A2B689A4209D103B030BD0848E1
:1022900001F02EFEF2E7044801F02AFECFE7FFF737
:1022A00037F800BF00080020D00C0108B82B002030
:1022B000A00C010800000000000000000000000069
:1022C00030B51C4D83B02B680193044658B32023CE
:1022D00083F3118802F0ECFE01F0AAFE2378022BB2
:1022E00002D0154801F004FE2046FFF7A9FE0323A3
:1022F000237001F0BDFE02F0F3FE104B1A689A4203
:1023000004D0996993688A689A4208D3002383F3BA
:102310001188019A2B689A4209D103B030BD084850
:1023200001F0E6FDF2E7044801F0E2FDCFE7FEF739
:10233000EFFF00BF00080020F00C0108B82B0020C0
:10234000A00C0108000000000000000000000000D8
:1023500000B5064B83B01A680192019A1B689A4235
:1023600002D103B05DF804FBFEF7D2FF00080020A5
:1023700000B5064B83B01A680192019A1B689A4215
:1023800002D103B05DF804FBFEF7C2FF0008002095
:1023900010B5104C104B226882B0019201221A70C5
:1023A000202383F3118802F0B3FE01F081FE0B4875
:1023B00003F0B6F901F09CFE02F0C2FE002383F3A5
:1023C0001188019A23689A4201D102B010BDFEF72C
:1023D0009FFF00BF00080020E024002030080020FC
:1023E00030B50E4D0E4C2B6883B00193FFF750FEB5
:1023F000206808B10AF01CFF4FF496400AF010FF65
:1024000001992A682060B0FA80F35B099142C3F118
:10241000000001D103B030BDFEF77AFF00080020B4
:10242000D824002000000000000000000000000090
:1024300030B5174D174C2B78226885B0012B0392CD
:1024400020D000F0D5FB144B1B78ABB9B0F5964FFC
:1024500015D8124A124B12681B68124900920246A4
:102460001148FFF745FE01232B700020039A2368D3
:102470009A420BD105B030BDB0F5165FE9D94FF0E7
:10248000FF30F3E70848FFF78BFEDAE7FEF740FF7F
:10249000D524002000080020D6240020DC240020C1
:1024A000D8240020000D0108C024002000000000F6
:1024B00010B50B4C0B48236882B0019302F0F8FF73
:1024C000094803F0D5F9019A23689A4205D10548D5
:1024D00002B0BDE8104003F023B8FEF719FF00BFBB
:1024E000000800203808002030080020000000000C
:1024F00030B5154D154C164B2268286883B00192F3
:1025000001221A7008B10AF093FE4FF416500AF037
:1025100087FE286098B10F4D286808B10AF088FE40
:102520004FF416500AF07CFEB0FA80F35B09286085
:102530005842019A23689A4204D103B030BD4FF04B
:10254000FF30F6E7FEF7E4FED82400200008002064
:10255000D6240020DC240020000000000000000041
:1025600000B5074B07491A68087083B00192019AB9
:102570001B689A4202D103B05DF804FBFEF7C8FE67
:1025800000080020D424002000000000000000000B
:1025900000B50D4A0D4B1278196883B0019142B114
:1025A0000B4AD26812681268120302D4094A1068F2
:1025B00001E0094A1068019A1B689A4202D103B0EF
:1025C0005DF804FBFEF7A4FED624002000080020DE
:1025D000C0240020DC240020D824002000000000BB
:1025E00000B50E4A0E4B1278196883B001914AB1BA
:1025F000019A1B689A420FD10A4803B05DF804EBB8
:10260000FFF75EBE019A1B689A4205D1054803B0E8
:102610005DF804EBFFF70CBEFEF77AFED424002031
:1026200000080020C024002000000000000000007E
:1026300070B5274D82B02B68019306460122032115
:102640006E2000F04DFB044630B1019A2B689A428F
:1026500020463AD102B070BD32464E216E2000F0C5
:102660003FFB04460028F0D1442E07D00246B72194
:102670006E2000F035FBB8B10446E6E70122B72131
:102680006E2000F02DFB0028F6D1224603216E209B
:1026900000F026FB0028EFD1032211216E2000F06C
:1026A0001FFB78B10446D0E7224603216E2000F0DC
:1026B00017FB0028E0D10A2211216E2000F010FB48
:1026C0000028D9D1034B1E71BFE7FEF721FE00BFE2
:1026D00000080020E42400200000000000000000AA
:1026E0002DE9F04F8FB0DFF80084DDF860C0D8F836
:1026F00000400D940CF1FF355C1EB3F5207F9DF872
:1027000064909DF868B00C44154400F21282BCF548
:10271000F07F00F20E82B1F5207F0E4600F21282A9
:10272000B2F5F07F174600F21082A14280F00482D9
:10273000B4F5207F00F20082AA4280F00082B5F555
:10274000F07F00F2FC81B9F1400F824600F0B081C9
:10275000B9F1800F23D0B9F1200F00F09C81002344
:10276000CDE90033BBF1400F2FD0BBF1800F00F05B
:10277000CB81BBF1200F00F0B9810023CDE90233FA
:10278000002203216E2000F0ABFAA0B30D9AD8F816
:1027900000309A4240F0E2810FB0BDE8F08F9A0716
:1027A00040F0D681CC4A8C085900661CA2FB01017E
:1027B000A2FB030204EB930406EBD2030093BBF1EC
:1027C000400F06EBD1030193CFD11CF0010F40F075
:1027D000C281C14B7D084FEA4C026F1CA3FB021261
:1027E000A3FB0C1307EB9303029307EB920305EB98
:1027F0005C050393C4E702465B216E2000F070FA8B
:102800000028C3D15046FFF713FF0028BED102466F
:1028100003216E2000F064FA0028B7D1C6F3072325
:102820001A4608216E20049300F05AFA0028ADD110
:10283000F3B21A4609216E20059300F051FA0028E0
:10284000A4D1C7F307231A460A216E20069300F08D
:1028500047FA00289AD1FBB21A460B216E20079343
:1028600000F03EFA002891D1C4F307231A460C2148
:102870006E20089300F034FA002887D1E3B21A469C
:102880000D216E20099300F02BFA00287FF47EAF13
:10289000C5F307231A460E216E200A9300F020FA92
:1028A00000287FF473AFEBB21A460F216E200B9312
:1028B00000F016FA00287FF469AF049A35216E20E3
:1028C00000F00EFA00287FF461AF059A36216E20E1
:1028D00000F006FA00287FF459AF089A37216E20DD
:1028E00000F0FEF900287FF451AF099A38216E20DC
:1028F00000F0F6F900287FF449AF069A39216E20DE
:1029000000F0EEF900287FF441AF079A3A216E20DB
:1029100000F0E6F900287FF439AF0A9A3B216E20D7
:1029200000F0DEF900287FF431AF0B9A3C216E20D5
:1029300000F0D6F900287FF429AF009B3D21C3F3B6
:1029400007226E2000F0CCF900287FF41FAF9DF81D
:1029500000203E216E2000F0C3F900287FF416AF5E
:10296000019B3F21C3F307226E2000F0B9F9002834
:102970007FF40CAF9DF8042040216E2000F0B0F9E8
:1029800000287FF403AF029B4121C3F307226E208E
:1029900000F0A6F900287FF4F9AE9DF80820422146
:1029A0006E2000F09DF900287FF4F0AE039B4321D8
:1029B000C3F307226E2000F093F900287FF4E6AEFF
:1029C0009DF80C2044216E2000F08AF900287FF445
:1029D000DDAE012203216E2000F082F900287FF491
:1029E000D5AE4A4693216E2000F07AF900287FF494
:1029F000CDAE5A4694216E2000F072F900287FF483
:102A0000C5AE012203216E2000F06AF900287FF490
:102A1000BDAE0134A31B07EE103ADFED307AB8EEFD
:102A2000477ABAF1440F77EEC77A00F09980B0EE9A
:102A3000006AF2EE006AE7EE066A77EEA77AB0EE79
:102A4000667A67EE877ADFED266A87EEA67AFCEE75
:102A5000C77ACDED007A009B9521C3F307226E2043
:102A600000F03EF900287FF491AE9DF800209621F9
:102A70006E2000F035F900287FF488AE194B01353F
:102A8000EF1BA41B5F801C8083F804A083F80590D3
:102A900083F806B07AE610495A00A1FB030306EB5F
:102AA0005303A1FB0212009306EB5203019359E674
:102AB000D9074DD4084A74085900661CA2FB0101CD
:102AC000A2FB030204EB530406EB9203009306EB14
:102AD0009103019346E600BFABAAAAAA00002244D4
:102AE0000000A344E424002000080020244A4FEA08
:102AF0004C03A2FB0C1CA2FB032307EB530307EBC5
:102B00005C02029203933BE61CF0030F23D11C4BA3
:102B1000BD084FEA4C026F1CA3FB0212A3FB0C136F
:102B200007EBD303029307EBD20305EB9C0503935A
:102B300026E66FF0070029E66FF0030026E66FF047
:102B4000040023E66FF0010020E66FF002001DE6AE
:102B50006FF005001AE66FF0060017E6FEF7D8FBE7
:102B6000F2EE006A37EE267ADFED066A67EE277A24
:102B700087EEA67AFCEEC77ACDED007A6BE700BF50
:102B8000ABAAAAAA00002444000000000000000034
:102B900010B5114C86B02368059300F081F80F49F9
:102BA0000F4803F04DFF012200210D4803F0E0FF24
:102BB00020237822CDE901330092A023B422F02112
:102BC0000220FFF78DFD059A23689A4201D106B0D5
:102BD00010BDFEF79DFB00BF00080020100D01088E
:102BE000D0390020000000000000000000000000BC
:102BF00010B50A4B0A4A1988146858881B7982B0A4
:102C0000442B019400FB01F00199136818BF4000A8
:102C1000994201D102B010BDFEF77AFBE4240020F6
:102C2000000800200000000000000000000000007C
:102C300070B5164E16483368154D82B005224FF414
:102C40008071019307F0ACFE20246B6983F48073DC
:102C50006B61012001F024FF631E13F0FF04F4D127
:102C60004FF4807140F206222983094807F098FE4C
:102C7000019A33689A4206D10649074802B0BDE876
:102C8000704003F025BDFEF743FB00BF00080020A5
:102C900000040240500D01083836002000000000FA
:102CA00000B50C4A0C4B1278196883B0012A0191C7
:102CB000019A1B6804D09A4209D103B05DF804FB65
:102CC0009A4204D103B05DF804EBFFF7B1BFFEF701
:102CD0001FFB00BF38360020000800200000000065
:102CE000F0B5214C214E89B0336807930746002583
:102CF00020468DF818108DF819208DF8145003F027
:102D0000FFFD2378012B0CD0042205AB0195029224
:102D100000933946022306AA204603F081FD0546AA
:102D200048B9114803F00CFE0020079A33689A4214
:102D300017D109B0F0BD204603F05AFD23780C4AA4
:102D4000052B106004D0084803F0FAFD68B2ECE7E8
:102D5000204603F005FD2378012BF4D1FFF768FF2F
:102D6000F1E7FEF7D5FA00BF383600200008002052
:102D7000EC24002000000000000000000000000023
:102D800000B50D4B83B01A68019201280BD90B498D
:102D90004A6982F004024A61019A1B689A4209D189
:102DA00003B05DF804FB054A042108B95183F3E739
:102DB0001183F1E7FEF7ACFA00080020000402409E
:102DC0002DE9F043254E83B034680194042A9DF820
:102DD0002890144605460F46984639D9B9F1000F98
:102DE00014BF00224FF08052640002EB0863013CE4
:102DF0001C4405F00F0527F01F07202383F31188DB
:102E000002F056F93D4301F013F9154B1035DD6022
:102E10001C6101F02DF902F063F9124B1A689A4215
:102E200004D0996993688A689A420DD3002383F38A
:102E30001188BFF36F8FBFF34F8F019A33689A42A7
:102E40000AD103B0BDE8F083074801F051F8EDE77F
:102E5000064801F04DF8C1E7FEF75AFA00080020D5
:102E600090ED00E0B82B0020E00D0108C00D010836
:102E700030B5224D224C2B68224A85B003936368FB
:102E800043F004036360536A43F4803353622023A6
:102E900083F3118802F00CF901F0CAF817221A4BDB
:102EA000E260236101F0E4F802F01AF9174B1A68A6
:102EB0009A4204D0996993688A689A4218D300208C
:102EC00080F31188BFF36F8FBFF34F8F03231D2251
:102ED00000904FF00051FFF773FF094A536843F029
:102EE00001035360039A2B689A4205D105B030BDA7
:102EF000074800F0FDFFE2E7FEF70AFA00080020AD
:102F000090ED00E000ED00E009000010B82B00207B
:102F1000E00D0108000000000000000000000000BB
:102F200070B51A4D1A4C1B4E0FCD0FC49EB02A68B7
:102F3000336822801D93EFF30981682203A8FEF70E
:102F40003FF8154B9D6AAA0714D4EB0708D5124B1E
:102F500008995B6B114A00910D4880210AF080FCB2
:102F60001D9A33689A420FD109481EB0BDE87040DF
:102F700000F0BEBF099A5B6B0092A4F11000084AF2
:102F800080210AF06DFCE0E7FEF7C2F9A40D01080C
:102F9000F02400200008002000ED00E0800D010872
:102FA000600D0108000000000000000000000000AB
:102FB00000B51F4B0278196883B00191E2B11D4A38
:102FC0004FF4005111834278EAB11A4A4FF480510C
:102FD00011838278F2B1174A4FF480411183C2788D
:102FE000FAB9144A4FF400415183019A1B689A427E
:102FF0001CD103B05DF804FB0E4A4FF4005151831D
:103000004278002AE1D10B4A4FF4805151838278F3
:10301000002AE0D1074A4FF480415183C278002A48
:10302000DFD0044A4FF400411183DEE7FEF770F968
:103030000008002000100240000000000000000016
:1030400000B51F4B0278196883B00191E2B11D4AA7
:103050004FF4007111834278EAB11A4A4FF480713B
:1030600011838278F2B1174A4FF400611183C2785C
:10307000FAB9144A4FF480615183019A1B689A424D
:103080001CD103B05DF804FB0E4A4FF4007151836C
:103090004278002AE1D10B4A4FF480715183827843
:1030A000002AE0D1074A4FF400615183C278002A18
:1030B000DFD0044A4FF480611183DEE7FEF728F980
:1030C0000008002000100240000000000000000086
:1030D00030B50C4A0C4B116883B04FF40055019188
:1030E0004FF480544FF400414FF480405D835C8383
:1030F0005883598301991368994201D103B030BDB7
:10310000FEF706F900080020001002400000000051
:1031100030B50C4A0C4B116883B04FF40075019127
:103120004FF480744FF480614FF400605D835C83E2
:103130005883598301991368994201D103B030BD76
:10314000FEF7E6F800080020001002400000000032
:1031500010B50B4C0B48236882B0992200210193D3
:1031600003F006FD019A23689A4206D10548002122
:1031700002B0BDE8104003F0E3BDFEF7C9F800BFA0
:103180000008002098390020000000000000000026
:1031900010B50B4C0B48236882B099220021019393
:1031A00003F0E6FC019A23689A4206D10548002103
:1031B00002B0BDE8104003F0C3BDFEF7A9F800BFA0
:1031C00000080020B43900200000000000000000CA
:1031D00000B5084B83B01A680192019A1B689A42A5
:1031E00006D10548002103B05DF804EB03F010BDE3
:1031F000FEF78EF80008002098390020000000003B
:1032000000B5084B83B01A680192019A1B689A4274
:1032100006D10548002103B05DF804EB03F0F8BCCB
:10322000FEF776F800080020B43900200000000006
:1032300070B51A4C1A4E2378326882B0022B019274
:10324000A26811D165781748013505F0070500EB34
:103250008500904763686570013B6360019A33683D
:103260009A4219D102B070BD012B08D00199336880
:10327000994211D10C4802B0BDE870401047657802
:103280000848013D05F0070500EB8500904763689D
:10329000657001336360E1E7FEF73AF888250020A6
:1032A00000080020800E0108700E010800000000D8
:1032B00070B51A4C1A4E2378326882B0012B0192F5
:1032C000A26811D165781748013505F0070500EBB4
:1032D000850090476368657001336360019A3368C5
:1032E0009A4219D102B070BD022B08D001993368FF
:1032F000994211D10C4802B0BDE870401047657882
:103300000848013D05F0070500EB8500904763681C
:103310006570013B6360E1E7FDF7FAFF702500206F
:1033200000080020800E0108700E01080000000057
:1033300030B51F4D85B02B68039340F24C43994242
:10334000044626DCA3F69803994211DB4B00002BC0
:1033500029D10370036998474FF47A71039A2B6857
:103360009A421ED1606905B0BDE8304003F0B8BB99
:10337000104B02225B42227040F2892293420E4996
:1033800091FBF3F189B207DC0191E3689847019959
:10339000E4E7012303702D210191236998470199E6
:1033A000DCE7FDF7B5FFE4DD01220270E4E700BFD2
:1033B0000008002068F7FFFFA08601000000000061
:1033C00000B5084B83B01A680192019A1B689A42B3
:1033D00006D10146044803B05DF804EBFFF7A8BF2F
:1033E000FDF796FF00080020702500200000000077
:1033F00000B5084B83B01A680192019A1B689A4283
:1034000006D10146044803B05DF804EBFFF790BF16
:10341000FDF77EFF00080020882500200000000046
:1034200000B5094B094A1968506883B000EBD070A9
:103430000191019A1B689A4203D1401003B05DF8D4
:1034400004FBFDF765FF00BF000800207025002089
:1034500000B5094B094A1968506883B000EBD07079
:103460000191019A1B689A4203D1401003B05DF8A4
:1034700004FBFDF74DFF00BF000800208825002059
:1034800000B5084B08491A6883B040000192019AC0
:103490001B6848609A4202D103B05DF804FBFDF757
:1034A00037FF00BF0008002070250020000000004A
:1034B00000B5084B08491A6883B040000192019A90
:1034C0001B6848609A4202D103B05DF804FBFDF727
:1034D0001FFF00BF0008002088250020000000001A
:1034E00070B51D4E1D4A1E4B30681E491E4C916022
:1034F00082B00021D46001901C4C1D481D4D9D6080
:10350000117051705160106154611B481B4A1C4D71
:10351000D8601C48197059705960C3E90425FFF739
:1035200047FD1848FFF78CFD1749204603F088FA3D
:10353000204603F0BDFB2846144903F081FA019AA6
:1035400033689A4205D1284602B0BDE8704003F0C6
:10355000AFBBFDF7DDFE00BF00080020882500207E
:1035600070250020B12F0008513100089839002043
:10357000D1310008413000089131000801320008C3
:10358000B4390020700E0108300E0108F00D01085A
:103590000A490B4B09680B4A82B020200191402157
:1035A00058834FF4806559834FF400644FF4804092
:1035B00004215D835C8358835183FEE7000800206B
:1035C000000C024000040240000000000000000067
:1035D00010B51E491E4A0B78106882B0013B01905D
:1035E000072B0AD8DFE803F012151C1F26290F0449
:1035F00018480824012304830B7001991368994229
:1036000021D102B010BD08230B70F6E702230B7026
:10361000F3E711484FF48054032304830B70ECE765
:1036200004230B70E9E70C484FF48044052304831E
:103630000B70E2E706230B70DFE70648042407233C
:1036400004830B70D9E7FDF763FE00BF202900203B
:1036500000080020001002400004024000000000AA
:1036600030B50C4B0C4918680C4A83B04FF48045B8
:1036700001904FF480504883042408204D835483E4
:103680005083019A1B689A4201D103B030BDFDF707
:103690003FFE00BF0008002000040240001002406E
:1036A0002DE9F04F4E4B4F4A9B694F499961A5B0A8
:1036B00007AE05AD80231768009331462A460024E3
:1036C0000CA84A4B2397CDE90766CDE90555CDE90E
:1036D00009440B9400F0DCFA0CA9454A4548434CD8
:1036E000454DDFF83481DFF834B1DFF834A100F064
:1036F000F7FA04F11C0604F16007A146504601F0F8
:1037000077FD2A682B69226063602A6A2B6BA260AE
:10371000E3606A686B69226163616A6A6B6BA261CC
:10372000E361AA68AB6922626362AA6AAB6BA262B8
:10373000E362EA68EB6922636363EA6AEB6B2F4931
:10374000A263E36351F8043F0A6AB142A3EB0203A8
:103750000B64F7D1802249460CA800F0F1FA98F8E2
:103760000030002BCAD09BF8003033B3012BC5D1F9
:10377000DFF8B0C02248614650F8042B51F8043FEE
:10378000B84213440B60F7D11E4A13780133DBB201
:10379000642B1370B2D11C495CF8043F1B4A82FBB6
:1037A0000302DB17C3EB621341F8043B184B9C4543
:1037B000F2D1002388F80030A0E7194620221248F1
:1037C000039309F0FDFF039B12481946202209F0DC
:1037D000F7FF0C49039B0B7001228BF800208DE74B
:1037E000B82B002000080020A00E0108242600208D
:1037F000E00E010820120020C02500202026002015
:103800006426002001260020842600201F85EB511D
:10381000202600200426002000260020022600206A
:103820004C080020002600200000000000000000DE
:1038300070B502691E4D52882B6882B006460C4650
:103840001C4801939200002109F0BAFF33695B889C
:103850005BB1184AA11E002331F8020F42F8040B95
:103860003069408801339842F6D8202383F31188C9
:1038700001F04EFC00F01CFC00F0AAFC0E4883682E
:10388000002B0FDD00F034FC01F05AFC002383F321
:103890001188019A2B68094901209A42087004D1C5
:1038A00002B070BD01F0DCFCECE7FDF731FD00BFBC
:1038B00000080020C02500204C08002020290020FE
:1038C00070B51F4D1F4C2E78236884B0012E0393D2
:1038D00005D0039A23689A422FD104B070BD00210D
:1038E000284602F00DFD284602F0CAFD3346284660
:1038F000154A164902F084FD1549164803F0A0F850
:103900004FF496720021134803F032F90021114858
:1039100003F016FA0F4803F0CBF931464FF48272E8
:103920000C4803F025F90023009340220A4B0B4872
:103930004FF41E7101F05CF8CBE7FDF7E9FC00BF26
:103940001433002000080020A0250020B00E01083C
:10395000F00E01087C390020A1360008A8260020BE
:1039600030B50C4D0C4A2B680C4C83B000210193F0
:10397000012311702370142001F092F82378002B9A
:10398000F9D1019A2B689A4201D103B030BDFDF7FD
:10399000BFFC00BF000800200226002000260020F7
:1039A00000B50A4B83B01A68019207289BBF084AEA
:1039B0001030002052F82000019A1B689A4202D170
:1039C00003B05DF804FBFDF7A3FC00BF0008002076
:1039D000242600200000000000000000000000007D
:1039E00000B50F4B83B01868019002290CD0032951
:1039F0000CD001290B4818BF0020019A1B689A427D
:103A00000BD103B05DF804FB0748F6E7032A96BF25
:103A10000648002000EBC200EFE7FDF779FC00BF8D
:103A20000008002010100108B00F0108C0100108A4
:103A300070B5154C82B02368019302291CD10D4644
:103A40000646202383F3118801F062FB00F030FB6F
:103A500030460E4A012104F0B3FA29460C4A30469A
:103A600004F0AEFA0B4804F0ABF800F041FB01F0B3
:103A700067FB002383F31188019A23689A4201D1DE
:103A800002B070BDFDF744FC00080020300F0108B3
:103A9000600F010824290020000000000000000041
:103AA00030B5134D134C2B68134883B0019303F0CA
:103AB000FFFF1249104804F02BF8226D936B23F49A
:103AC000002393634FF47A7000F0EAFF20460C491C
:103AD00004F026FA226D936B43F400239363019A5A
:103AE0002B689A4201D103B030BDFDF711FC00BF35
:103AF000000800207836002024290020900F0108BB
:103B0000A00F0108000000000000000000000000FD
:103B100000B5084B83B01A680192019A1B689A425B
:103B200005D1054803B05DF804EB01F0C1BCFDF719
:103B3000EFFB00BF00080020580800200000000034
:103B400000B5084B83B01A680192019A1B689A422B
:103B500005D1054803B05DF804EB01F0E1BCFDF7C9
:103B6000D7FB00BF0008002058080020000000001C
:103B700070B50D4C82B0236801930D1E06460DDD15
:103B8000284602F0DDF918B90C2333604FF0FF30FE
:103B9000019A23689A4205D102B070BD034800F033
:103BA000A7F9EDE7FDF7B4FB00080020E0100108DD
:103BB00000B5064B83B01A680192019A1B689A42BD
:103BC00002D103B05DF804FBFDF7A2FB0008002062
:103BD00000B5074B83B01A680192019A1B689A429C
:103BE00004D103B05DF804EB01F062BCFDF790FB7B
:103BF000000800200000000000000000000000009D
:103C000000B5074B83B01A680192019A1B689A426B
:103C100004D103B05DF804EB01F082BCFDF778FB42
:103C2000000800200000000000000000000000006C
:103C300000B5074B83B01A680192019A1B689A423B
:103C400004D103B05DF804EB01F092BDFDF760FB19
:103C5000000800200000000000000000000000003C
:103C600010B5084B82B01C68019400240460019CCC
:103C70001B689C42C0E9011201D102B010BDFDF7E2
:103C800047FB00BF0008002000000000000000000B
:103C90002DE9F0430E4D83B02C68019404469946FB
:103CA0000F46164610304C220021DDF8288009F01E
:103CB00087FDC4F80090019A2B68E6609A42C4E937
:103CC000018702D103B0BDE8F083FDF721FB00BFFF
:103CD00000080020000000000000000000000000BC
:103CE000F0B5144E83B001F110031746326801920B
:103CF0000446412218460D46002109F061FD39466F
:103D0000402209F0F5FD6068FFF762FF236803B108
:103D1000AB652560A068FFF78BFF019A33689A4274
:103D200005D1606803B0BDE8F040FFF769BFFDF75B
:103D3000EFFA00BF000800200000000000000000B3
:103D4000F0B51C4E436883B005469342306801903D
:103D500006D20020019A33689A4229D103B0F0BDFF
:103D600014460F46A868FFF733FF224639462868F5
:103D7000FDF726F9012385F85130E868FFF758FF71
:103D80006C6D84B123681868FFF722FF23689D607B
:103D900023685868FFF74CFF23681868FFF730FF67
:103DA0006468002CEED1A868FFF72AFF0120D1E754
:103DB000FDF7AEFA0008002000000000000000003F
:103DC00000B5064B83B01A680192019A1B689A42AB
:103DD00002D103B05DF804FBFDF79AFA0008002059
:103DE000024B82B01B680193FEE700BF0008002071
:103DF00000B5044B04481B6883B0019300F078F8C9
:103E0000FEE700BF00080020F010010800000000DD
:103E1000024B82B01B680193FEE700BF0008002040
:103E2000F0B5294E294B3268294885B00024039209
:103E30009C60D968274A4FF6FF0529400A43DA609B
:103E4000C2682549254D42F08072C2600A6842F07E
:103E500001020A6010202022D87783F8222000F087
:103E6000DFFA00F045FA01F073F802F041F802F0D1
:103E7000AFF801F0C5F800F0FBF9402105F58860C6
:103E800000F01EFD0127164BC36180F82070A86169
:103E900000F0A6F884F3118862B6AB69114A9A6102
:103EA0004FF4C4713A46104B009405F59D6000F044
:103EB0009FFD039A33680D4981619A4201D105B093
:103EC000F0BDFDF725FA00BF0008002000ED00E07E
:103ED000F0ED00E00003FA05001000E0B82B002030
:103EE0000004002090120108113E00081011010882
:103EF00000B5054B83B01B680193044672B6FFF70B
:103F000047FB024BDC62FEE700080020B82B0020D4
:103F10002DE9F047DFF890A0224DDAF8003082B0AA
:103F2000019300F055F9AB6993F8232012B1013ADF
:103F300083F823205A6ADFF8748001325A6200F055
:103F400047F9AB6AEA6901334245AB6220D0936816
:103F5000013B9360EC69A668D6B94FF0200923684D
:103F6000E768E660C3F804802368EB6100F0C0F8FE
:103F700001F0E6F886F311882069B84789F31188C3
:103F800001F0C6F800F094F8EC69A368002BE6D0C5
:103F9000019ADAF800309A4202D102B0BDE8F08707
:103FA000FDF7B6F9B82B002000080020D42B002024
:103FB00010B5094C094A236882B0019351685368CF
:103FC0005B1A9842FBD8019A23689A4201D102B049
:103FD00010BDFDF79DF900BF00080020001000E0B3
:103FE00000B50E4A0E4B116B186883B0019009B9E9
:103FF000526B4AB1019A1B689A420CD1094803B02E
:104000005DF804EBFFF774BF019A1B689A4202D176
:1040100003B05DF804FBFDF77BF900BFB82B00206F
:10402000000800202011010800000000000000002E
:1040300030B50B4C0B4D236B2A6883B001920BB942
:10404000636B13B10848FFF753FF019A2B680121F6
:104050009A42616301D103B030BDFDF759F900BF49
:10406000B82B0020000800205011010800000000BB
:1040700030B50C4C0C4D236B2A6883B0019253B9B8
:10408000636B002B07DD019A2B6800219A42616364
:1040900005D103B030BD0548FFF72AFFF3E7FDF770
:1040A00037F900BFB82B002000080020701101086C
:1040B00030B50B4C0B4D236B2A6883B0002B01925B
:1040C00001DD636B13B10848FFF712FF019A2B68FB
:1040D00001219A42616301D103B030BDFDF718F9A7
:1040E000B82B00200008002060110108000000002B
:1040F00030B50C4C0C4D236B2A6883B0002B019219
:104100000ADD636B002B07DD019A2B6800219A42C0
:10411000616305D103B030BD0448FFF7E9FEF3E762
:10412000FDF7F6F8B82B00200008002080110108E8
:1041300030B50F4D83B02B680193202383F3118892
:104140000C4C236B002B01DB626B1AB10A48FFF7A2
:10415000CFFE236B01332363002383F31188019A7D
:104160002B689A4201D103B030BDFDF7D1F800BFF2
:1041700000080020B82B00203011010800000000CA
:1041800030B50F4D83B02B680193202383F3118842
:104190000C4C236B002B01DD626B1AB10A48FFF750
:1041A000A7FE236B013B2363002383F31188019A4D
:1041B0002B689A4201D103B030BDFDF7A9F800BFCA
:1041C00000080020B82B002040110108000000006A
:1041D00000B50F4A0F4B116B186883B0002901908E
:1041E00009DB526B002A06DD019A1B689A420CD14A
:1041F00003B05DF804FB019A1B689A4205D106489A
:1042000003B05DF804EBFFF773BEFDF781F800BF64
:10421000B82B0020000800209011010800000000C9
:1042200000B50E4A0E4B116B186883B0019049B966
:10423000526B002A06DD019A1B689A420CD103B02A
:104240005DF804FB019A1B689A4205D1054803B04A
:104250005DF804EBFFF74CBEFDF75AF8B82B0020D1
:1042600000080020A011010800000000000000006C
:1042700010B5084A084B116882B040240191019999
:10428000126818199142C3E90E4001D102B010BD65
:10429000FDF73EF800080020B82B002000000000C9
:1042A00010B51149114B0A6882B00192DA6B9C6A11
:1042B0001460DA6B9C695460DA6B846A9460DA6B20
:1042C00090F820001073DA6B03F588601032824298
:1042D00028BF03F14002DA63019A0B689A4201D1C8
:1042E00002B010BDFDF714F800080020B82B002024
:1042F00010B50B4A0B4B116882B04FF0FF3401919F
:1043000000219962019811685C6203F11C028842E5
:10431000C3E9072201D102B010BDFCF7F9FF00BFCD
:1043200000080020B82B0020000000000000000062
:104330002DE9F041184E82B00546306801900C46D8
:1043400017469846FFF744FF05B3FFB1F4B1C5E93E
:1043500003781248C3699A68944204D91B68A41A66
:104360009A68A242FAD32B605A686A6015605D6051
:10437000AC609968019D3268091B95424FF0FF348B
:104380009960446206D102B0BDE8F0810448FFF7AD
:10439000AFFDDCE7FCF7BCFF00080020B82B0020D5
:1043A000B011010800000000000000000000000043
:1043B00030B5164D83B004462B680193FFF708FF14
:1043C000ECB1E368BBB12268A0689368019903442B
:1043D0009360D4E900231A6020682B680C4A656852
:1043E000456099424FF000054FF0FF30E5605062A4
:1043F00009D103B030BD0748FFF77AFDE3E7054870
:10440000FFF776FDDDE7FCF783FF00BF0008002023
:10441000B82B0020C01101080000000000000000BF
:1044200000B50A4A0A4B11681B6083B00020019155
:10443000019912685B609142C3E90433986002D12C
:1044400003B05DF804FBFCF763FF00BF0008002029
:10445000B82B002000000000000000000000000059
:1044600030B5164D83B004462B680193FFF7B0FEBC
:10447000ECB194F82030B3B10F2B14D00022A16816
:104480000F4B84F820201B689A688A42FBD2236075
:104490005A686260146001992A685C609142204603
:1044A00009D103B030BD0748FFF722FDE6E7054814
:1044B000FFF71EFDDDE7FCF72BFF00BF0008002023
:1044C000B82B0020D01101080000000000000000FF
:1044D00070B5204D82B02B6801930446202383F3EE
:1044E000118800F015FEFFF7E3FD94F82030072B4C
:1044F00011D8DFE803F0161010230A04100AA66A88
:10450000FFF766FEB3680133B360D4E900231A6095
:10451000D4E900325A604FF0FF33A3622046FFF720
:104520009FFFFFF7E5FD00F00BFE002383F31188EA
:10453000019A2B689A420BD102B070BDA36A002287
:104540001A604FF0FF33A3622046FFF789FFE8E7C8
:10455000FCF7DEFE00080020000000000000000064
:10456000F0B5194E194C336883B007460193FFF735
:1045700057FEA569236885F82070142285F823204A
:104580001A68226001215460284683F82010A36134
:10459000FFF786FE2946A06900F06AFDEFF3098364
:1045A000EA69643B9A4202D90948FFF7A1FC019AE3
:1045B00033689A4206D1A069294603B0BDE8F040AD
:1045C000FBF776BEFCF7A4FE00080020B82B002005
:1045D000E0110108000000000000000000000000E1
:1045E000F0B5154C87B0236805930E460746FFF7D4
:1045F00017FE731C18D0114D114AAB69314668463D
:10460000FFF796FE3846FFF7ABFFFFF7E1FD039B90
:1046100013B16846FFF7CCFE059A2368A9699A4250
:10462000886A06D107B0F0BD3846FFF799FF034D01
:10463000F2E7FCF76DFE00BF00080020B82B002059
:10464000D14400080000000000000000000000004D
:10465000F0B51E4D1E4E2B6883B0044601930F46E5
:10466000FFF7DEFDB069A7628368A2689A421DD990
:10467000FFF7F6FE0123074684F82030B461FFF708
:104680000FFE3946204600F0F3FCEFF30983FA6988
:10469000643B9A4214D8019A2B689A4214D1394645
:1046A000204603B0BDE8F040FBF702BE019A2B683C
:1046B0009A4209D1204603B0BDE8F040FFF7D0BED2
:1046C0000448FFF715FCE6E7FCF722FE000800208F
:1046D000B82B0020E01101080000000000000000DD
:1046E00010B50E490E4B8A69086892F823101C68B1
:1046F0008068926882B0019449B9904234BF00202A
:104700000120019A1B689A4206D102B010BD904266
:1047100094BF00200120F4E7FCF7FAFDB82B00203D
:104720000008002000000000000000000000000061
:1047300070B5184C184E2368A5691A682260546039
:10474000012283F8202082B01422316885F82320CA
:104750002846A3610191FFF783FE2846FFF7A0FDDD
:104760002946A06900F084FCEFF30983EA69643B01
:104770009A4202D90948FFF7BBFB019A33689A4273
:1047800006D1A069294602B0BDE87040FBF790BD94
:10479000FCF7BEFDB82B002000080020E011010846
:1047A00070B51C4D1C4E2A68AC6913682B60012142
:1047B00082B05D60002082F82010AA613268A16892
:1047C00084F82000019200E01B689A688A42FBD8B6
:1047D00023605A686260204614605C60FFF760FDE9
:1047E0002146A86900F044FCEFF30983E269643BC9
:1047F0009A4202D90948FFF77BFB019A33689A4233
:1048000006D1A869214602B0BDE87040FBF750BD53
:10481000FCF77EFDB82B002000080020E011010805
:1048200010B50F4C82B023680193FFF7F9FCFFF736
:10483000CFFC0C4B1A689B6992689B689A42019A5C
:10484000236803D89A4208D102B010BD9A4204D11D
:1048500002B0BDE81040FFF7A3BFFCF759FD00BF51
:1048600000080020B82B002000000000000000001D
:1048700000B50E4A0E4B9269196892F8232083B056
:10488000019142B1019A1B689A420DD103B05DF8C3
:1048900004EBFFF785BF019A1B689A4204D103B06D
:1048A0005DF804EBFFF744BFFCF732FDB82B0020A6
:1048B00000080020000000000000000000000000D0
:1048C000F0B51A4A1A4D02610446816083B0142380
:1048D00050692E68616484F8233002270023012187
:1048E000278484F82210C4E90F3304F16801A3611E
:1048F000019604F12C07636204F1500604F13003C1
:1049000060610461C4E90C33E1613046E7625461DF
:1049100000F0B6FA304600F0D3FA019A2B689A42BA
:1049200002D1204603B0F0BDFCF7F2FCB82B00200A
:10493000000800200000000000000000000000004F
:1049400010B5094B82B01C680194884203D200F86C
:10495000012B8142FBD1019A1B689A4201D102B01E
:1049600010BDFCF7D5FC00BF0008002000000000CF
:104970002DE9F043184E83B0346801940546DDF804
:1049800028900C4617469846FFF722FC15B1B4F55F
:10499000BC7F19D21148FFF7ABFAA4F16401294496
:1049A000E960C1F84080EB68019AC3F8449033682D
:1049B000E9680B4808669A420CD13946284603B08C
:1049C000BDE8F043FFF77CBF7F2FE3D8B8F1000FBD
:1049D000E3D1DFE7FCF79CFC00080020301201085F
:1049E000C9020008000000000000000000000000F4
:1049F0002DE9F04FDFF8A48087B0D8F80040DDF84B
:104A00004090059407468A46934600F1680604469E
:104A1000FF2504F8015BA642FBD107EB0A05A5427E
:104A200004D9552604F8016BA542FBD1039320223B
:104A300082F3118800F03CFBFFF7FAFA039BCDF8F4
:104A400000905A4651463846FFF792FF002104462F
:104A5000FFF7FEFDFFF70CFB00F042FB0D4B1A6861
:104A60009A4204D0996993688A689A420BD30023CA
:104A700083F31188059AD8F800309A42204606D16F
:104A800007B0BDE8F08F0448FFF732FAEFE7FCF714
:104A90003FFC00BFB82B0020F011010800080020E7
:104AA00030B5184C83B0236801930546202383F367
:104AB000118800F0FDFAFFF7BBFA15B91248FFF7AD
:104AC00017FA29460820FFF78BFDFFF7D1FA00F00F
:104AD00007FB0E4B1A689A4204D0996993688A685A
:104AE0009A4208D3002383F31188019A23689A42DB
:104AF00005D103B030BD0648FFF7FAF9F2E7FCF73D
:104B000007FC00BF0008002000120108B82B00209D
:104B1000F01101080000000000000000000000008B
:104B2000F0B51C4F83B03B68019304460E4620232A
:104B300083F31188184D00F0BBFAFFF779FAA96AE0
:104B4000331B0C1B9C4219D3FFF792FA00F0C8FAF2
:104B50002B68AB4204D0AA699B6892689A4209D339
:104B6000002383F31188019A3B689A4230460FD1A3
:104B700003B0F0BD0948FFF7BBF9F1E7741A02D1A1
:104B80000748FFF7B5F921460820FFF729FDDBE7C5
:104B9000FCF7BEFB00080020B82B0020F011010834
:104BA00000120108000000000000000000000000EA
:104BB00070B5164B164E9C693268E36AA06282B0EB
:104BC00004F12C05AB42019207D01A68E262184644
:104BD000FFF746FCE36AAB42F7D194F821309B071C
:104BE00005D1D4E904231A61D4E904325A610F20B3
:104BF000FFF7B6FC019A33689A4205D1054802B026
:104C0000BDE87040FFF774B9FCF782FBB82B0020B9
:104C10000008002040120108000000000000000011
:104C200030B50C4C83B0236801930546202383F3F1
:104C3000118800F03DFAFFF7FBF9019A23689A42C8
:104C400005D1284603B0BDE83040FFF7B1BFFCF7FF
:104C50005FFB00BF00080020000000000000000013
:104C6000F0B50D4D0D4E03682A68B76983B0044650
:104C7000019213B10A48FFF73BF927600320BC6299
:104C8000FFF76EFC019A2B68B1699A42886A01D1DC
:104C900003B0F0BDFCF73CFB00080020B82B00205F
:104CA0005012010800000000000000000000000099
:104CB000F0B5124D0368124A83B00446286801908B
:104CC0000E46976913B10F48FFF712F966B12760D6
:104CD000019A2B68BC629A420ED13146032003B080
:104CE000BDE8F040FFF77CBC019A2B689A424FF078
:104CF000FF3001D103B0F0BDFCF70AFB0008002033
:104D0000B82B002060120108000000000000000025
:104D1000F0B5124D04682B6883B00193B4B194F8D8
:104D20002030032B06460F460CD100233360019A36
:104D30002B68A7629A420FD1204603B0BDE8F0402D
:104D4000FFF78EBB0648FFF7D3F8EEE7019A2B6812
:104D50009A4201D103B0F0BDFCF7DAFA0008002056
:104D600080120108000000000000000000000000A8
:104D700030B5104A83B01368019381B10E4B019D89
:104D80009B69186044685C602360126843609542C8
:104D90000DD1042003B0BDE83040FFF721BC0199DC
:104DA000136899424FF0FF3001D103B030BDFCF7DA
:104DB000AFFA00BF00080020B82B00200000000060
:104DC00070B5124D04682B6882B0A042019315D0D3
:104DD00023680360586094F82030042B0E4602D0FC
:104DE0000B48FFF785F8019A2B68A6629A420BD10F
:104DF000204602B0BDE87040FFF732BB019A2B6835
:104E00009A4201D102B070BDFCF782FA000800207E
:104E10001012010800000000000000000000000067
:104E20002DE9F041DFF850800468D8F8003082B0F6
:104E3000A042019313D00F4F05460E4623682B6006
:104E40005D6094F82030042B02D03846FFF750F80C
:104E5000A6622046FFF704FB2C68A542EED1019A1A
:104E6000D8F800309A4202D102B0BDE8F081FCF7D8
:104E70004FFA00BF101201080008002000000000D7
:104E800030B50B4B83B01A6801924FF0FF320260CD
:104E900001991A680024002300259142C0E90445C5
:104EA000C0E90133C36001D103B030BDFCF730FA73
:104EB00000080020000000000000000000000000CA
:104EC00000B5084B084A196883B001915168019AEE
:104ED0001B6881609A4202D103B05DF804FBFCF7C5
:104EE00017FA00BF00080020001000E000000000DA
:104EF000F0B51449144B0A68846883B00192134AD0
:104F00005B68D2F8A864C2681B1BD0E90445013273
:104F10009B1BC26042688360E61845F1000793421C
:104F2000C0E9046709D80268934238BF0360019A58
:104F30000B689A4203D103B0F0BD4360F7E7FCF77A
:104F4000E7F900BF00080020001000E0B82B0020A7
:104F500030B5114D114C2B6889B04FF0FF310793DC
:104F6000002300226846C4F8A834CDE90133039336
:104F70000023CDE904230091FFF7A2FF6846FFF765
:104F8000B7FF079A2B680299C4F8A8149A4201D176
:104F900009B030BDFCF7BCF900080020B82B002098
:104FA0002DE97048134E144B326883B001925B6850
:104FB0008B60D0E902411B1BD0E90445426814EB29
:104FC000030B45F1000C01319342C0E90231C0E905
:104FD00004BC0AD80268934238BF0360019A336860
:104FE0009A4204D103B0BDE870884360F6E7FCF74D
:104FF0008FF900BF00080020001000E00000000052
:1050000030B50D4D0D4C2B6883B004F597600193BE
:105010000023C4F8B034C4F8B434FFF731FF019A68
:105020002B689A4206D104F59A6003B0BDE830407F
:10503000FFF726BFFCF76CF900080020B82B002012
:1050400000B50949094A0B6883B001930198D2F869
:10505000B034096801338842C2F8B03402D103B0D9
:105060005DF804FBFCF754F900080020B82B002081
:1050700070B50D4C0D4A236882B00193019DD2F8A2
:10508000B43424680133A542C2F8B43409D10E46C1
:1050900000F1500106F1500002B0BDE87040FFF78A
:1050A0007FBFFCF735F900BF00080020B82B0020B7
:1050B00000B5084B83B01A680192019A1B689A42A6
:1050C00005D1054803B05DF804EBFFF7F9BEFCF726
:1050D0001FF900BF00080020703000200000000011
:1050E00000B5084B83B01A680192019A1B689A4276
:1050F00005D1054803B05DF804EBFFF7F9BEFCF7F6
:1051000007F900BF000800207030002000000000F8
:1051100000B5084B83B01A680192019A1B689A4245
:1051200005D1054803B05DF804EBFFF7C9BEFCF7F5
:10513000EFF800BF000800208830002000000000C9
:1051400000B5084B83B01A680192019A1B689A4215
:1051500005D1054803B05DF804EBFFF7C9BEFCF7C5
:10516000D7F800BF000800208830002000000000B1
:1051700070B51B4D82B004462B680193FFF750F8C1
:1051800044B3A3682268002B10DBA24203D0154869
:10519000FEF7AEFEA368013B002BA3600CDB0020F2
:1051A000019A2B689A4219D102B070BDA242EED08A
:1051B000013B002BA360F2DA0B4EB3699C621C60CA
:1051C00062685A60052013606360FFF7C9F9B3692C
:1051D000986AE5E70348FEF78BFED2E7FCF798F8FC
:1051E00000080020C0120108B82B002000000000B9
:1051F00030B5164C83B0236801930546202383F312
:105200001188FFF755FFFEF713FF2846FFF7B0FFA1
:105210000546FEF72DFFFFF763FF0D4B1A689A4214
:1052200004D0996993688A689A4209D3002383F36A
:105230001188019A23689A42284605D103B030BDEF
:105240000448FEF755FEF1E7FCF762F8000800207D
:10525000B82B0020B0120108000000000000000080
:1052600030B51C4D83B004462B680193FEF7B0FFA8
:105270004CB3A3682268002B0FDBA24203D0164870
:10528000FEF736FEA3680133002BA3600BDD019A05
:105290002B689A421BD103B030BDA242EFD001333C
:1052A000002BA360F3DC20680199036823602A685F
:1052B0005C6091424FF00003836208D103B0BDE807
:1052C0003040FFF7CDB80448FEF712FED1E7FCF7F7
:1052D0001FF800BF00080020D012010800000000E5
:1052E00030B50B4D83B02B680193044650B1246058
:1052F00001992A68646000239142A360236105D16B
:1053000003B030BD0348FEF7F3FDF0E7FCF700F80B
:1053100000080020F012010800000000000000005A
:10532000F0B55D4E5D4B32689D6983B004460192D5
:10533000FEF776FF002C00F08480A0682369002827
:1053400043D0002B40F39780854276D0AA688368CB
:105350009A4208D990F820308260062B40D0072B63
:1053600073D0002B5DD02746234603E09968AA68D6
:10537000914233D31B689C42F8D12F607B686B60ED
:1053800006201D607D60AC62FFF7EAF8A368AB42BF
:1053900002D04348FEF7ACFD2B6CA34202D040483C
:1053A000FEF7A6FD2369012B05D1019A33689A42C5
:1053B0006FD103B0F0BD019A33689A4269D1384881
:1053C00003B0BDE8F040FEF793BD002B58D1013388
:1053D000A56023612B6CE3602C64E6E71F46CCE7F5
:1053E000D0E900231A60D0E900325A60876A3B4650
:1053F00003E099688268914247D31B689F42F8D1C5
:1054000007607B68436018607860836AAA68986860
:1054100083689342A7D290F820308260062B9ED1F9
:10542000DEE7D0E90023012180F820101A60D0E9DE
:1054300000325A60FFF714F895E7236901332361BE
:10544000B3E71748FEF754FD77E7D0E900231A6069
:10545000D0E900325A60876A3B4603E09968826867
:10546000914214D31B689F42F8D107607B68436068
:105470001860786077E70A48FEF73AFDA06863E7AE
:105480000748FEF735FD2369A1E71F46B8E71F4629
:10549000EBE7FBF73DFF00BF00080020B82B002022
:1054A00000130108000000000000000000000000E0
:1054B00030B5154C83B0236801930546202383F350
:1054C0001188FFF7F5FDFEF7B3FD2846FFF728FF2B
:1054D000FEF7CEFDFFF704FE0C4B1A689A4204D08B
:1054E000996993688A689A4208D3002383F31188E4
:1054F000019A23689A4205D103B030BD0448FEF7F3
:10550000F7FCF2E7FBF704FF00080020B82B0020AF
:10551000E012010800000000000000000000000090
:105520002DE9F043DFF800813C4FD8F80030BE6928
:1055300083B005460193002864D0202383F31188AB
:10554000FFF7B6FDFEF774FD336C002B5ED09B6851
:10555000B34202D03248FEF7CBFC2B69002B49DD69
:10556000013B2B615BBB336CAB4202D02C48FEF796
:10557000BFFCEB683364FEF753FE2B689D423ED0C0
:10558000D6E910495CB1FEF74BFE23689C4203D07C
:105590009B68994538BF9946E468002CF3D1C6F85A
:1055A00008902B6801222A611A682A605560AB6056
:1055B0001A6CEA6018461D640021FFF749F8FEF7EF
:1055C00057FDFFF78DFD3B68BB4204D0BA699B686D
:1055D00092689A420AD3002383F31188019AD8F87B
:1055E00000309A4217D103B0BDE8F0830D48FEF7B2
:1055F0007FFCF0E70A48FEF77BFC2B69B0E700234D
:10560000AB60DCE70648FEF773FC96E70448FEF75C
:105610006FFC336C9BE7FBF77BFE00BFB82B0020D1
:1056200010130108E012010800080020000000002B
:105630002DE9F041DFF8D880334BD8F800209E697F
:1056400082B005460192FEF7EBFD002D4FD0336C82
:10565000002B52D09B68B34202D02C48FEF748FC86
:105660002B69002B3EDD013B2B61002B32D1336CCB
:10567000AB4202D02548FEF73BFCEB683364FEF7F3
:10568000CFFD2B689D4223D0D6E910475CB1FEF7D1
:10569000C7FD23689C4203D09B689F4238BF1F46CA
:1056A000E468002CF3D1B7602868019901232B61CD
:1056B00003682B60D8F800205D60A860036CEB6085
:1056C000914205641ED102B0BDE8F041FEF7C8BEAC
:1056D0000023AB60019AD8F800309A4212D102B090
:1056E000BDE8F0810948FEF703FC2B69BBE70748DA
:1056F000FEF7FEFB336C002BACD10448FEF7F8FB41
:10570000336CA7E7FBF704FEB82B00202013010839
:105710000008002000000000000000000000000061
:1057200070B5114E82B0044633680193FEF750FD08
:105730009CB12068A0420AD06FF001050368236085
:105740005C60FEF78DFE85622068A042F6D1019A6A
:1057500033689A4205D102B070BD0448FEF7C8FB19
:10576000E7E7FBF7D5FD00BF000800204013010864
:1057700030B5164C83B0236801930546202383F38C
:105780001188FFF795FCFEF753FC2846FFF7C8FF8A
:10579000FFF746F8FEF76CFCFFF7A2FC0C4B1A680B
:1057A0009A4204D0996993688A689A4208D3002380
:1057B00083F31188019A23689A4205D103B030BD62
:1057C0000448FEF795FBF2E7FBF7A2FD0008002076
:1057D000B82B00203013010800000000000000007A
:1057E0002DE9F0411E4F1F4E3B68B46982B005465B
:1057F0000193FEF715FD65B3236C33B3B369D3F89A
:1058000040804046FFF714FF2E46A5622B4603E07A
:105810009968A268914216D31B689D42F8D1266010
:105820007368636007201C607460FEF799FE404651
:10583000A46AFFF775FD019A3B689A4220460CD195
:1058400002B0BDE8F0811E46E9E70748FEF750FBCD
:10585000D4E70548FEF74CFBCEE7FBF759FD00BF48
:1058600000080020B82B0020601301080000000091
:1058700030B5164C83B0236801930546202383F38B
:105880001188FFF715FCFEF7D3FB2846FFF7A8FFAA
:105890000546FEF7EDFBFFF723FC0D4B1A689A4215
:1058A00004D0996993688A689A4209D3002383F3E4
:1058B0001188019A23689A42284605D103B030BD69
:1058C0000448FEF715FBF1E7FBF722FD0008002076
:1058D000B82B002030130108000000000000000079
:1058E00070B5184E82B00446336801930D46FEF73A
:1058F0006FFC0CB3E16B94F8203029430A2BE16371
:1059000016D00B2B05D0019A33689A4218D102B0F9
:1059100070BDA36A8B43F6D1019A336800219A4285
:10592000A1620DD1204602B0BDE87040FEF798BDDF
:10593000A36A1942F0D1E6E70348FEF7D9FAD9E79E
:10594000FBF7E6FC000800209013010800000000AF
:10595000F0B5134F83B006463B6801930D46FEF742
:1059600037FCB6B13468A6420DD0E3682B43E36040
:1059700015B12269134203D0D4E90101FFF7B0FF4A
:105980002468A642F1D1019A3B689A4205D103B03E
:10599000F0BD0448FEF7ACFAE4E7FBF7B9FC00BF42
:1059A0000008002070130108000000000000000043
:1059B00070B50C4CC16082B0266801960A44006044
:1059C000019E02612268069D4060C0E90511964271
:1059D0004FF00001C3618160056201D102B070BD6A
:1059E000FBF796FC0008002000000000000000000B
:1059F00030B50D4D83B02B6801930446FEF7E8FBEC
:105A000001992A68E368A36100209142A060636164
:105A100007D120466FF0010103B0BDE83040FFF729
:105A2000FFB9FBF775FC00BF000800200000000074
:105A300070B5164D82B004462B6801930E46FEF7F2
:105A4000C7FBFEF7C5FBD4E905239A42A36816D02D
:105A50000133511CA36061611670D4E904329A428B
:105A60000AD220460021FFF7ABF90020019A2B68EB
:105A70009A4209D102B070BDE3686361F1E7002B7F
:105A8000E6D06FF00300F1E7FBF742FC00080020CE
:105A9000F0B5234F83B03B68019304460E462023A4
:105AA00083F31188FFF704FBFEF7C2FAE36943B101
:105AB0002046984705E031462046FFF759F9051E74
:105AC00010DBFEF785FBA368002BF4D0A1692069E9
:105AD0004A1C013B8242A360A26128BFE3680D78A3
